{"abi":[{"inputs":[{"internalType":"address","name":"_gambleTokenAddress","type":"address"},{"internalType":"address","name":"_cageAddress","type":"address"}],"stateMutability":"nonpayable","type":"constructor","name":"constructor"},{"anonymous":false,"inputs":[{"indexed":false,"internalType":"uint8","name":"winningNumber","type":"uint8"}],"name":"BallStopped","type":"event"},{"anonymous":false,"inputs":[{"indexed":false,"internalType":"address","name":"player","type":"address"},{"indexed":false,"internalType":"uint256","name":"totalBet","type":"uint256"}],"name":"BetsPlaced","type":"event"},{"anonymous":false,"inputs":[{"indexed":false,"internalType":"address","name":"player","type":"address"}],"name":"LeftTable","type":"event"},{"anonymous":false,"inputs":[{"indexed":true,"internalType":"address","name":"previousOwner","type":"address"},{"indexed":true,"internalType":"address","name":"newOwner","type":"address"}],"name":"OwnershipTransferred","type":"event"},{"anonymous":false,"inputs":[{"indexed":false,"internalType":"address","name":"player","type":"address"}],"name":"PlayerSatDown","type":"event"},{"anonymous":false,"inputs":[{"indexed":false,"internalType":"bytes32","name":"requestId","type":"bytes32"}],"name":"RequestedRandomness","type":"event"},{"anonymous":false,"inputs":[{"indexed":false,"internalType":"address","name":"player","type":"address"},{"indexed":false,"internalType":"uint256","name":"payout","type":"uint256"}],"name":"WinningsPaidOut","type":"event"},{"inputs":[{"internalType":"address","name":"_player","type":"address"}],"name":"getBets","outputs":[{"components":[{"internalType":"uint256","name":"amount","type":"uint256"},{"internalType":"enum Roulette.BET","name":"betType","type":"uint8"}],"internalType":"struct Roulette.Bet[]","name":"","type":"tuple[]"}],"stateMutability":"view","type":"function"},{"inputs":[{"internalType":"address","name":"_player","type":"address"}],"name":"getLifetimeWinnings","outputs":[{"internalType":"uint256","name":"","type":"uint256"}],"stateMutability":"view","type":"function"},{"inputs":[],"name":"getWinningNumber","outputs":[{"internalType":"uint8","name":"","type":"uint8"}],"stateMutability":"view","type":"function"},{"inputs":[{"internalType":"address","name":"_player","type":"address"}],"name":"getWinnings","outputs":[{"internalType":"uint256","name":"","type":"uint256"}],"stateMutability":"view","type":"function"},{"inputs":[{"internalType":"address","name":"_player","type":"address"}],"name":"isAtTable","outputs":[{"internalType":"bool","name":"","type":"bool"}],"stateMutability":"view","type":"function"},{"inputs":[],"name":"joinTable","outputs":[],"stateMutability":"nonpayable","type":"function"},{"inputs":[],"name":"leaveTable","outputs":[],"stateMutability":"nonpayable","type":"function"},{"inputs":[],"name":"owner","outputs":[{"internalType":"address","name":"","type":"address"}],"stateMutability":"view","type":"function"},{"inputs":[{"internalType":"uint256[]","name":"_amounts","type":"uint256[]"},{"internalType":"uint256[]","name":"_types","type":"uint256[]"}],"name":"placeBet","outputs":[],"stateMutability":"nonpayable","type":"function"},{"inputs":[],"name":"renounceOwnership","outputs":[],"stateMutability":"nonpayable","type":"function"},{"inputs":[],"name":"settleAllBets","outputs":[],"stateMutability":"nonpayable","type":"function"},{"inputs":[],"name":"spinWheel","outputs":[],"stateMutability":"nonpayable","type":"function"},{"inputs":[{"internalType":"address","name":"newOwner","type":"address"}],"name":"transferOwnership","outputs":[],"stateMutability":"nonpayable","type":"function"}],"bytecode":"60806040523480156200001157600080fd5b50604051620040e7380380620040e78339810160408190526200003491620000de565b6200003f3362000071565b600180546001600160a01b039384166001600160a01b0319918216179091556002805492909316911617905562000116565b600080546001600160a01b038381166001600160a01b0319831681178455604051919092169283917f8be0079c531659141344cd1fd0a4f28419497f9722a3daafe3b4186f6b6457e09190a35050565b80516001600160a01b0381168114620000d957600080fd5b919050565b60008060408385031215620000f257600080fd5b620000fd83620000c1565b91506200010d60208401620000c1565b90509250929050565b613fc180620001266000396000f3fe608060405234801561001057600080fd5b50600436106100cf5760003560e01c80638b0b9ed41161008c578063a625671c11610066578063a625671c1461018a578063b9174a96146101b3578063bdd60e92146101ef578063f2fde38b1461020257600080fd5b80638b0b9ed4146101525780638da5cb5b146101675780639f3ba30a1461018257600080fd5b806315ecef92146100d45780631b4d7e37146100de5780632858eff1146100e65780634816c73514610122578063715018a61461012a57806381e074ba14610132575b600080fd5b6100dc610215565b005b6100dc6102b0565b61010f6100f4366004613c46565b6001600160a01b031660009081526007602052604090205490565b6040519081526020015b60405180910390f35b6100dc610407565b6100dc61047e565b610145610140366004613c46565b6104b4565b6040516101199190613c85565b60045460405160ff9091168152602001610119565b6000546040516001600160a01b039091168152602001610119565b6100dc61056c565b61010f610198366004613c46565b6001600160a01b031660009081526008602052604090205490565b6101df6101c1366004613c46565b6001600160a01b031660009081526005602052604090205460ff1690565b6040519015158152602001610119565b6100dc6101fd366004613da3565b610630565b6100dc610210366004613c46565b610818565b6000546001600160a01b031633146102485760405162461bcd60e51b815260040161023f90613e07565b60405180910390fd5b60266102526108b0565b61025c9190613e3c565b610267906001613e74565b6004805460ff191660ff9290921691821790556040519081527ff24656293dc5f0f62f0e017ebc626ce7409d55bf42b41fe5b77a0efe811cab09906020015b60405180910390a1565b6001546040516370a0823160e01b81523360048201526000916001600160a01b0316906370a0823190602401602060405180830381865afa1580156102f9573d6000803e3d6000fd5b505050506040513d601f19601f8201168201806040525081019061031d9190613e8c565b1161037a5760405162461bcd60e51b815260206004820152602760248201527f596f75206e65656420474d424c20746f2073697420646f776e20617420746865604482015266103a30b136329760c91b606482015260840161023f565b336000818152600560209081526040808320805460ff191660019081179091556003805491820181559093527fc2575a0e9e593c00f959f8c92f12db2869c3395a3b0502d05e2516446f71f85b90920180546001600160a01b0319168417905590519182527f2f61376d8c0f0e7027a18abda575fd1cafea604db44d5bb37e26a3d42c9a268591016102a6565b3360009081526005602052604090205460ff166104365760405162461bcd60e51b815260040161023f90613ea5565b33600081815260056020908152604091829020805460ff1916905590519182527f81ac5cd731aa4703bce831aca31143e455d51b1732e0c234aa39899104cbb27a91016102a6565b6000546001600160a01b031633146104a85760405162461bcd60e51b815260040161023f90613e07565b6104b260006108e6565b565b6001600160a01b0381166000908152600660209081526040808320805482518185028101850190935280835260609492939192909184015b828210156105615783829060005260206000209060020201604051806040016040529081600082015481526020016001820160009054906101000a900460ff16608081111561053d5761053d613c6f565b608081111561054e5761054e613c6f565b81525050815260200190600101906104ec565b505050509050919050565b6000546001600160a01b031633146105965760405162461bcd60e51b815260040161023f90613e07565b60005b60035481101561062d5760056000600383815481106105ba576105ba613eeb565b60009182526020808320909101546001600160a01b0316835282019290925260400190205460ff166105eb5761061b565b61061b6003828154811061060157610601613eeb565b6000918252602090912001546001600160a01b0316610936565b8061062581613f01565b915050610599565b50565b3360009081526005602052604090205460ff1661065f5760405162461bcd60e51b815260040161023f90613ea5565b805182511461066d57600080fd5b60005b82518110156107675760066000336001600160a01b03166001600160a01b0316815260200190815260200160002060405180604001604052808584815181106106bb576106bb613eeb565b602002602001015181526020018484815181106106da576106da613eeb565b602002602001015160808111156106f3576106f3613c6f565b608081111561070457610704613c6f565b905281546001818101845560009384526020938490208351600290930201918255928201518184018054939492939192909160ff19169083608081111561074d5761074d613c6f565b02179055505050808061075f90613f01565b915050610670565b50600061077383610b75565b600154604051632770a7eb60e21b8152336004820152602481018390529192506001600160a01b031690639dc29fac90604401600060405180830381600087803b1580156107c057600080fd5b505af11580156107d4573d6000803e3d6000fd5b505060408051338152602081018590527f6040d59f0a69bda20ad88fc81ab81918925d429759492643d7aec9fcfee45e5893500190505b60405180910390a1505050565b6000546001600160a01b031633146108425760405162461bcd60e51b815260040161023f90613e07565b6001600160a01b0381166108a75760405162461bcd60e51b815260206004820152602660248201527f4f776e61626c653a206e6577206f776e657220697320746865207a65726f206160448201526564647265737360d01b606482015260840161023f565b61062d816108e6565b6000444260036040516020016108c893929190613f1c565b6040516020818303038152906040528051906020012060001c905090565b600080546001600160a01b038381166001600160a01b0319831681178455604051919092169283917f8be0079c531659141344cd1fd0a4f28419497f9722a3daafe3b4186f6b6457e09190a35050565b6001600160a01b038116600090815260066020908152604080832080548251818502810185019093528083529192909190849084015b828210156109e15783829060005260206000209060020201604051806040016040529081600082015481526020016001820160009054906101000a900460ff1660808111156109bd576109bd613c6f565b60808111156109ce576109ce613c6f565b815250508152602001906001019061096c565b5050505090506000805b8251811015610a95576000610a1c848381518110610a0b57610a0b613eeb565b602002602001015160200151610bc3565b90508015610a8257838281518110610a3657610a36613eeb565b60200260200101516000015181858481518110610a5557610a55613eeb565b602002602001015160000151610a6b9190613f6c565b610a759190613e74565b610a7f9084613e74565b92505b5080610a8d81613f01565b9150506109eb565b506001546040516340c10f1960e01b81526001600160a01b03858116600483015260248201849052909116906340c10f1990604401600060405180830381600087803b158015610ae457600080fd5b505af1158015610af8573d6000803e3d6000fd5b505050506001600160a01b0383166000908152600760209081526040808320849055600890915281208054839290610b31908490613e74565b9091555050604080516001600160a01b0385168152602081018390527ff1cf4f8d6d16bbf2417014fb8e494640b040e47aa05e62ac3cbe54c9a85fa36f910161080b565b600080805b8351811015610bbc57838181518110610b9557610b95613eeb565b602002602001015182610ba89190613e74565b915080610bb481613f01565b915050610b7a565b5092915050565b6004546000908290829060ff1660011415610cf4576000826080811115610bec57610bec613c6f565b1480610c0957506003826080811115610c0757610c07613c6f565b145b80610c2557506005826080811115610c2357610c23613c6f565b145b15610c3257506001613c3f565b6009826080811115610c4657610c46613c6f565b1480610c6357506006826080811115610c6157610c61613c6f565b145b15610c7057506002613c3f565b606b826080811115610c8457610c84613c6f565b1415610c9257506008613c3f565b6033826080811115610ca657610ca6613c6f565b1480610cc357506032826080811115610cc157610cc1613c6f565b145b15610cd057506011613c3f565b600e5b826080811115610ce557610ce5613c6f565b1415610cef575060235b613c3f565b60045460ff1660021415610e39576001826080811115610d1657610d16613c6f565b1480610d3357506002826080811115610d3157610d31613c6f565b145b80610d4f57506005826080811115610d4d57610d4d613c6f565b145b15610d5c57506001613c3f565b6009826080811115610d7057610d70613c6f565b1480610d8d57506007826080811115610d8b57610d8b613c6f565b145b15610d9a57506002613c3f565b606b826080811115610dae57610dae613c6f565b1480610dcb5750606c826080811115610dc957610dc9613c6f565b145b15610dd857506008613c3f565b6033826080811115610dec57610dec613c6f565b1480610e0957506034826080811115610e0757610e07613c6f565b145b80610e2557506035826080811115610e2357610e23613c6f565b145b15610e3257506011613c3f565b600f610cd3565b60045460ff1660031415610f46576000826080811115610e5b57610e5b613c6f565b1480610e7857506003826080811115610e7657610e76613c6f565b145b80610e9457506005826080811115610e9257610e92613c6f565b145b15610ea157506001613c3f565b6009826080811115610eb557610eb5613c6f565b1480610ed257506008826080811115610ed057610ed0613c6f565b145b15610edf57506002613c3f565b606c826080811115610ef357610ef3613c6f565b1415610f0157506008613c3f565b6034826080811115610f1557610f15613c6f565b1480610f3257506036826080811115610f3057610f30613c6f565b145b15610f3f57506011613c3f565b6010610cd3565b6004805460ff16141561108a576001826080811115610f6757610f67613c6f565b1480610f8457506002826080811115610f8257610f82613c6f565b145b80610fa057506005826080811115610f9e57610f9e613c6f565b145b15610fad57506001613c3f565b6009826080811115610fc157610fc1613c6f565b1480610fde57506006826080811115610fdc57610fdc613c6f565b145b15610feb57506002613c3f565b606b826080811115610fff57610fff613c6f565b148061101c5750606d82608081111561101a5761101a613c6f565b145b1561102957506008613c3f565b603282608081111561103d5761103d613c6f565b148061105a5750603782608081111561105857611058613c6f565b145b806110765750603882608081111561107457611074613c6f565b145b1561108357506011613c3f565b6011610cd3565b60045460ff16600514156112235760008260808111156110ac576110ac613c6f565b14806110c9575060038260808111156110c7576110c7613c6f565b145b806110e5575060058260808111156110e3576110e3613c6f565b145b156110f257506001613c3f565b600982608081111561110657611106613c6f565b14806111235750600782608081111561112157611121613c6f565b145b1561113057506002613c3f565b606c82608081111561114457611144613c6f565b14806111615750606b82608081111561115f5761115f613c6f565b145b8061117d5750606d82608081111561117b5761117b613c6f565b145b806111995750606e82608081111561119757611197613c6f565b145b156111a657506008613c3f565b60358260808111156111ba576111ba613c6f565b14806111d7575060378260808111156111d5576111d5613c6f565b145b806111f3575060398260808111156111f1576111f1613c6f565b145b8061120f5750603a82608081111561120d5761120d613c6f565b145b1561121c57506011613c3f565b6012610cd3565b60045460ff166006141561136857600182608081111561124557611245613c6f565b14806112625750600282608081111561126057611260613c6f565b145b8061127e5750600582608081111561127c5761127c613c6f565b145b1561128b57506001613c3f565b600982608081111561129f5761129f613c6f565b14806112bc575060088260808111156112ba576112ba613c6f565b145b156112c957506002613c3f565b606c8260808111156112dd576112dd613c6f565b14806112fa5750606e8260808111156112f8576112f8613c6f565b145b1561130757506008613c3f565b603682608081111561131b5761131b613c6f565b14806113385750603982608081111561133657611336613c6f565b145b806113545750603b82608081111561135257611352613c6f565b145b1561136157506011613c3f565b6013610cd3565b60045460ff16600714156114ad57600082608081111561138a5761138a613c6f565b14806113a7575060038260808111156113a5576113a5613c6f565b145b806113c3575060058260808111156113c1576113c1613c6f565b145b156113d057506001613c3f565b60098260808111156113e4576113e4613c6f565b1480611401575060068260808111156113ff576113ff613c6f565b145b1561140e57506002613c3f565b606d82608081111561142257611422613c6f565b148061143f5750606f82608081111561143d5761143d613c6f565b145b1561144c57506008613c3f565b603882608081111561146057611460613c6f565b148061147d5750603c82608081111561147b5761147b613c6f565b145b806114995750603d82608081111561149757611497613c6f565b145b156114a657506011613c3f565b6014610cd3565b60045460ff16600814156116465760018260808111156114cf576114cf613c6f565b14806114ec575060028260808111156114ea576114ea613c6f565b145b806115085750600582608081111561150657611506613c6f565b145b1561151557506001613c3f565b600982608081111561152957611529613c6f565b14806115465750600782608081111561154457611544613c6f565b145b1561155357506002613c3f565b606d82608081111561156757611567613c6f565b14806115845750606e82608081111561158257611582613c6f565b145b806115a05750606f82608081111561159e5761159e613c6f565b145b806115bc575060708260808111156115ba576115ba613c6f565b145b156115c957506008613c3f565b603a8260808111156115dd576115dd613c6f565b14806115fa5750603c8260808111156115f8576115f8613c6f565b145b806116165750603e82608081111561161457611614613c6f565b145b806116325750603f82608081111561163057611630613c6f565b145b1561163f57506011613c3f565b6015610cd3565b60045460ff166009141561178b57600082608081111561166857611668613c6f565b14806116855750600382608081111561168357611683613c6f565b145b806116a15750600582608081111561169f5761169f613c6f565b145b156116ae57506001613c3f565b60098260808111156116c2576116c2613c6f565b14806116df575060088260808111156116dd576116dd613c6f565b145b156116ec57506002613c3f565b606e82608081111561170057611700613c6f565b148061171d5750607082608081111561171b5761171b613c6f565b145b1561172a57506008613c3f565b603b82608081111561173e5761173e613c6f565b148061175b5750603e82608081111561175957611759613c6f565b145b806117775750604082608081111561177557611775613c6f565b145b1561178457506011613c3f565b6016610cd3565b60045460ff16600a14156118d05760018260808111156117ad576117ad613c6f565b14806117ca575060028260808111156117c8576117c8613c6f565b145b806117e6575060058260808111156117e4576117e4613c6f565b145b156117f357506001613c3f565b600982608081111561180757611807613c6f565b14806118245750600682608081111561182257611822613c6f565b145b1561183157506002613c3f565b606f82608081111561184557611845613c6f565b14806118625750607182608081111561186057611860613c6f565b145b1561186f57506008613c3f565b603d82608081111561188357611883613c6f565b14806118a05750604182608081111561189e5761189e613c6f565b145b806118bc575060428260808111156118ba576118ba613c6f565b145b156118c957506011613c3f565b6017610cd3565b60045460ff16600b1415611a695760018260808111156118f2576118f2613c6f565b148061190f5750600382608081111561190d5761190d613c6f565b145b8061192b5750600582608081111561192957611929613c6f565b145b1561193857506001613c3f565b600982608081111561194c5761194c613c6f565b14806119695750600782608081111561196757611967613c6f565b145b1561197657506002613c3f565b606f82608081111561198a5761198a613c6f565b14806119a7575060708260808111156119a5576119a5613c6f565b145b806119c3575060718260808111156119c1576119c1613c6f565b145b806119df575060728260808111156119dd576119dd613c6f565b145b156119ec57506008613c3f565b603f826080811115611a0057611a00613c6f565b1480611a1d57506041826080811115611a1b57611a1b613c6f565b145b80611a3957506043826080811115611a3757611a37613c6f565b145b80611a5557506044826080811115611a5357611a53613c6f565b145b15611a6257506011613c3f565b6018610cd3565b60045460ff16600c1415611bae576000826080811115611a8b57611a8b613c6f565b1480611aa857506002826080811115611aa657611aa6613c6f565b145b80611ac457506005826080811115611ac257611ac2613c6f565b145b15611ad157506001613c3f565b6009826080811115611ae557611ae5613c6f565b1480611b0257506008826080811115611b0057611b00613c6f565b145b15611b0f57506002613c3f565b6070826080811115611b2357611b23613c6f565b1480611b4057506072826080811115611b3e57611b3e613c6f565b145b15611b4d57506008613c3f565b6040826080811115611b6157611b61613c6f565b1480611b7e57506043826080811115611b7c57611b7c613c6f565b145b80611b9a57506045826080811115611b9857611b98613c6f565b145b15611ba757506011613c3f565b6019610cd3565b60045460ff16600d1415611cf3576001826080811115611bd057611bd0613c6f565b1480611bed57506003826080811115611beb57611beb613c6f565b145b80611c0957506005826080811115611c0757611c07613c6f565b145b15611c1657506001613c3f565b600a826080811115611c2a57611c2a613c6f565b1480611c4757506006826080811115611c4557611c45613c6f565b145b15611c5457506002613c3f565b6071826080811115611c6857611c68613c6f565b1480611c8557506073826080811115611c8357611c83613c6f565b145b15611c9257506008613c3f565b6042826080811115611ca657611ca6613c6f565b1480611cc357506046826080811115611cc157611cc1613c6f565b145b80611cdf57506047826080811115611cdd57611cdd613c6f565b145b15611cec57506011613c3f565b601a610cd3565b60045460ff16600e1415611e8c576000826080811115611d1557611d15613c6f565b1480611d3257506002826080811115611d3057611d30613c6f565b145b80611d4e57506005826080811115611d4c57611d4c613c6f565b145b15611d5b57506001613c3f565b600a826080811115611d6f57611d6f613c6f565b1480611d8c57506007826080811115611d8a57611d8a613c6f565b145b15611d9957506002613c3f565b6071826080811115611dad57611dad613c6f565b1480611dca57506072826080811115611dc857611dc8613c6f565b145b80611de657506073826080811115611de457611de4613c6f565b145b80611e0257506074826080811115611e0057611e00613c6f565b145b15611e0f57506008613c3f565b6044826080811115611e2357611e23613c6f565b1480611e4057506046826080811115611e3e57611e3e613c6f565b145b80611e5c57506048826080811115611e5a57611e5a613c6f565b145b80611e7857506049826080811115611e7657611e76613c6f565b145b15611e8557506011613c3f565b601b610cd3565b60045460ff16600f1415611fd1576001826080811115611eae57611eae613c6f565b1480611ecb57506003826080811115611ec957611ec9613c6f565b145b80611ee757506005826080811115611ee557611ee5613c6f565b145b15611ef457506001613c3f565b600a826080811115611f0857611f08613c6f565b1480611f2557506008826080811115611f2357611f23613c6f565b145b15611f3257506002613c3f565b6072826080811115611f4657611f46613c6f565b1480611f6357506074826080811115611f6157611f61613c6f565b145b15611f7057506008613c3f565b6045826080811115611f8457611f84613c6f565b1480611fa157506048826080811115611f9f57611f9f613c6f565b145b80611fbd5750604a826080811115611fbb57611fbb613c6f565b145b15611fca57506011613c3f565b601c610cd3565b60045460ff1660101415612116576000826080811115611ff357611ff3613c6f565b14806120105750600282608081111561200e5761200e613c6f565b145b8061202c5750600582608081111561202a5761202a613c6f565b145b1561203957506001613c3f565b600a82608081111561204d5761204d613c6f565b148061206a5750600682608081111561206857612068613c6f565b145b1561207757506002613c3f565b607382608081111561208b5761208b613c6f565b14806120a8575060758260808111156120a6576120a6613c6f565b145b156120b557506008613c3f565b60478260808111156120c9576120c9613c6f565b14806120e65750604b8260808111156120e4576120e4613c6f565b145b806121025750604c82608081111561210057612100613c6f565b145b1561210f57506011613c3f565b601d610cd3565b60045460ff16601114156122af57600182608081111561213857612138613c6f565b14806121555750600382608081111561215357612153613c6f565b145b806121715750600582608081111561216f5761216f613c6f565b145b1561217e57506001613c3f565b600a82608081111561219257612192613c6f565b14806121af575060078260808111156121ad576121ad613c6f565b145b156121bc57506002613c3f565b60738260808111156121d0576121d0613c6f565b14806121ed575060748260808111156121eb576121eb613c6f565b145b806122095750607582608081111561220757612207613c6f565b145b806122255750607682608081111561222357612223613c6f565b145b1561223257506008613c3f565b604982608081111561224657612246613c6f565b14806122635750604b82608081111561226157612261613c6f565b145b8061227f5750604d82608081111561227d5761227d613c6f565b145b8061229b5750604e82608081111561229957612299613c6f565b145b156122a857506011613c3f565b601e610cd3565b60045460ff16601214156123f45760008260808111156122d1576122d1613c6f565b14806122ee575060028260808111156122ec576122ec613c6f565b145b8061230a5750600582608081111561230857612308613c6f565b145b1561231757506001613c3f565b600a82608081111561232b5761232b613c6f565b14806123485750600882608081111561234657612346613c6f565b145b1561235557506002613c3f565b607482608081111561236957612369613c6f565b14806123865750607682608081111561238457612384613c6f565b145b1561239357506008613c3f565b604a8260808111156123a7576123a7613c6f565b14806123c45750604d8260808111156123c2576123c2613c6f565b145b806123e05750604f8260808111156123de576123de613c6f565b145b156123ed57506011613c3f565b601f610cd3565b60045460ff166013141561253957600082608081111561241657612416613c6f565b14806124335750600382608081111561243157612431613c6f565b145b8061244f5750600482608081111561244d5761244d613c6f565b145b1561245c57506001613c3f565b600a82608081111561247057612470613c6f565b148061248d5750600682608081111561248b5761248b613c6f565b145b1561249a57506002613c3f565b60758260808111156124ae576124ae613c6f565b14806124cb575060778260808111156124c9576124c9613c6f565b145b156124d857506008613c3f565b60478260808111156124ec576124ec613c6f565b14806125095750604b82608081111561250757612507613c6f565b145b806125255750604c82608081111561252357612523613c6f565b145b1561253257506011613c3f565b6020610cd3565b60045460ff16601414156126d257600182608081111561255b5761255b613c6f565b14806125785750600282608081111561257657612576613c6f565b145b806125945750600482608081111561259257612592613c6f565b145b156125a157506001613c3f565b600a8260808111156125b5576125b5613c6f565b14806125d2575060078260808111156125d0576125d0613c6f565b145b156125df57506002613c3f565b60758260808111156125f3576125f3613c6f565b14806126105750607682608081111561260e5761260e613c6f565b145b8061262c5750607782608081111561262a5761262a613c6f565b145b806126485750607882608081111561264657612646613c6f565b145b1561265557506008613c3f565b604e82608081111561266957612669613c6f565b14806126865750605082608081111561268457612684613c6f565b145b806126a2575060528260808111156126a0576126a0613c6f565b145b806126be575060538260808111156126bc576126bc613c6f565b145b156126cb57506011613c3f565b6021610cd3565b60045460ff16601514156128175760008260808111156126f4576126f4613c6f565b14806127115750600382608081111561270f5761270f613c6f565b145b8061272d5750600482608081111561272b5761272b613c6f565b145b1561273a57506001613c3f565b600a82608081111561274e5761274e613c6f565b148061276b5750600882608081111561276957612769613c6f565b145b1561277857506002613c3f565b607682608081111561278c5761278c613c6f565b14806127a9575060788260808111156127a7576127a7613c6f565b145b156127b657506008613c3f565b604f8260808111156127ca576127ca613c6f565b14806127e7575060528260808111156127e5576127e5613c6f565b145b806128035750605482608081111561280157612801613c6f565b145b1561281057506011613c3f565b6022610cd3565b60045460ff166016141561295c57600182608081111561283957612839613c6f565b14806128565750600282608081111561285457612854613c6f565b145b806128725750600482608081111561287057612870613c6f565b145b1561287f57506001613c3f565b600a82608081111561289357612893613c6f565b14806128b0575060068260808111156128ae576128ae613c6f565b145b156128bd57506002613c3f565b60778260808111156128d1576128d1613c6f565b14806128ee575060798260808111156128ec576128ec613c6f565b145b156128fb57506008613c3f565b605182608081111561290f5761290f613c6f565b148061292c5750605582608081111561292a5761292a613c6f565b145b806129485750605682608081111561294657612946613c6f565b145b1561295557506011613c3f565b6023610cd3565b60045460ff1660171415612af557600082608081111561297e5761297e613c6f565b148061299b5750600382608081111561299957612999613c6f565b145b806129b7575060048260808111156129b5576129b5613c6f565b145b156129c457506001613c3f565b600a8260808111156129d8576129d8613c6f565b14806129f5575060078260808111156129f3576129f3613c6f565b145b15612a0257506002613c3f565b6077826080811115612a1657612a16613c6f565b1480612a3357506078826080811115612a3157612a31613c6f565b145b80612a4f57506079826080811115612a4d57612a4d613c6f565b145b80612a6b5750607a826080811115612a6957612a69613c6f565b145b15612a7857506008613c3f565b6053826080811115612a8c57612a8c613c6f565b1480612aa957506055826080811115612aa757612aa7613c6f565b145b80612ac557506057826080811115612ac357612ac3613c6f565b145b80612ae157506058826080811115612adf57612adf613c6f565b145b15612aee57506011613c3f565b6024610cd3565b60045460ff1660181415612c3a576001826080811115612b1757612b17613c6f565b1480612b3457506002826080811115612b3257612b32613c6f565b145b80612b5057506004826080811115612b4e57612b4e613c6f565b145b15612b5d57506001613c3f565b600a826080811115612b7157612b71613c6f565b1480612b8e57506008826080811115612b8c57612b8c613c6f565b145b15612b9b57506002613c3f565b6078826080811115612baf57612baf613c6f565b1480612bcc5750607a826080811115612bca57612bca613c6f565b145b15612bd957506008613c3f565b6054826080811115612bed57612bed613c6f565b1480612c0a57506057826080811115612c0857612c08613c6f565b145b80612c2657506059826080811115612c2457612c24613c6f565b145b15612c3357506011613c3f565b6025610cd3565b60045460ff1660191415612d7f576000826080811115612c5c57612c5c613c6f565b1480612c7957506003826080811115612c7757612c77613c6f565b145b80612c9557506004826080811115612c9357612c93613c6f565b145b15612ca257506001613c3f565b600b826080811115612cb657612cb6613c6f565b1480612cd357506006826080811115612cd157612cd1613c6f565b145b15612ce057506002613c3f565b6079826080811115612cf457612cf4613c6f565b1480612d115750607b826080811115612d0f57612d0f613c6f565b145b15612d1e57506008613c3f565b6056826080811115612d3257612d32613c6f565b1480612d4f5750605a826080811115612d4d57612d4d613c6f565b145b80612d6b5750605b826080811115612d6957612d69613c6f565b145b15612d7857506011613c3f565b6026610cd3565b60045460ff16601a1415612f18576001826080811115612da157612da1613c6f565b1480612dbe57506002826080811115612dbc57612dbc613c6f565b145b80612dda57506004826080811115612dd857612dd8613c6f565b145b15612de757506001613c3f565b600b826080811115612dfb57612dfb613c6f565b1480612e1857506007826080811115612e1657612e16613c6f565b145b15612e2557506002613c3f565b6079826080811115612e3957612e39613c6f565b1480612e565750607a826080811115612e5457612e54613c6f565b145b80612e725750607b826080811115612e7057612e70613c6f565b145b80612e8e5750607c826080811115612e8c57612e8c613c6f565b145b15612e9b57506008613c3f565b6058826080811115612eaf57612eaf613c6f565b1480612ecc5750605a826080811115612eca57612eca613c6f565b145b80612ee85750605c826080811115612ee657612ee6613c6f565b145b80612f045750605d826080811115612f0257612f02613c6f565b145b15612f1157506011613c3f565b6027610cd3565b60045460ff16601b141561305d576000826080811115612f3a57612f3a613c6f565b1480612f5757506003826080811115612f5557612f55613c6f565b145b80612f7357506004826080811115612f7157612f71613c6f565b145b15612f8057506001613c3f565b600b826080811115612f9457612f94613c6f565b1480612fb157506008826080811115612faf57612faf613c6f565b145b15612fbe57506002613c3f565b607a826080811115612fd257612fd2613c6f565b1480612fef5750607c826080811115612fed57612fed613c6f565b145b15612ffc57506008613c3f565b605982608081111561301057613010613c6f565b148061302d5750605c82608081111561302b5761302b613c6f565b145b806130495750605e82608081111561304757613047613c6f565b145b1561305657506011613c3f565b6028610cd3565b60045460ff16601c14156131a257600182608081111561307f5761307f613c6f565b148061309c5750600282608081111561309a5761309a613c6f565b145b806130b8575060048260808111156130b6576130b6613c6f565b145b156130c557506001613c3f565b600b8260808111156130d9576130d9613c6f565b14806130f6575060068260808111156130f4576130f4613c6f565b145b1561310357506002613c3f565b607b82608081111561311757613117613c6f565b14806131345750607d82608081111561313257613132613c6f565b145b1561314157506008613c3f565b605b82608081111561315557613155613c6f565b14806131725750605f82608081111561317057613170613c6f565b145b8061318e5750606082608081111561318c5761318c613c6f565b145b1561319b57506011613c3f565b6029610cd3565b60045460ff16601d141561333b5760018260808111156131c4576131c4613c6f565b14806131e1575060038260808111156131df576131df613c6f565b145b806131fd575060048260808111156131fb576131fb613c6f565b145b1561320a57506001613c3f565b600b82608081111561321e5761321e613c6f565b148061323b5750600782608081111561323957613239613c6f565b145b1561324857506002613c3f565b607b82608081111561325c5761325c613c6f565b14806132795750607c82608081111561327757613277613c6f565b145b806132955750607d82608081111561329357613293613c6f565b145b806132b15750607e8260808111156132af576132af613c6f565b145b156132be57506008613c3f565b605d8260808111156132d2576132d2613c6f565b14806132ef5750605f8260808111156132ed576132ed613c6f565b145b8061330b5750606182608081111561330957613309613c6f565b145b806133275750606282608081111561332557613325613c6f565b145b1561333457506011613c3f565b602a610cd3565b60045460ff16601e141561348057600082608081111561335d5761335d613c6f565b148061337a5750600282608081111561337857613378613c6f565b145b806133965750600482608081111561339457613394613c6f565b145b156133a357506001613c3f565b600b8260808111156133b7576133b7613c6f565b14806133d4575060088260808111156133d2576133d2613c6f565b145b156133e157506002613c3f565b607c8260808111156133f5576133f5613c6f565b14806134125750607e82608081111561341057613410613c6f565b145b1561341f57506008613c3f565b605e82608081111561343357613433613c6f565b14806134505750606182608081111561344e5761344e613c6f565b145b8061346c5750606382608081111561346a5761346a613c6f565b145b1561347957506011613c3f565b602b610cd3565b60045460ff16601f14156135c55760018260808111156134a2576134a2613c6f565b14806134bf575060038260808111156134bd576134bd613c6f565b145b806134db575060048260808111156134d9576134d9613c6f565b145b156134e857506001613c3f565b600b8260808111156134fc576134fc613c6f565b14806135195750600682608081111561351757613517613c6f565b145b1561352657506002613c3f565b607d82608081111561353a5761353a613c6f565b14806135575750607f82608081111561355557613555613c6f565b145b1561356457506008613c3f565b606082608081111561357857613578613c6f565b14806135955750606482608081111561359357613593613c6f565b145b806135b1575060658260808111156135af576135af613c6f565b145b156135be57506011613c3f565b602c610cd3565b60045460ff166020141561375e5760008260808111156135e7576135e7613c6f565b14806136045750600282608081111561360257613602613c6f565b145b806136205750600482608081111561361e5761361e613c6f565b145b1561362d57506001613c3f565b600b82608081111561364157613641613c6f565b148061365e5750600782608081111561365c5761365c613c6f565b145b1561366b57506002613c3f565b607d82608081111561367f5761367f613c6f565b148061369c5750607e82608081111561369a5761369a613c6f565b145b806136b85750607f8260808111156136b6576136b6613c6f565b145b806136d4575060808260808111156136d2576136d2613c6f565b145b156136e157506008613c3f565b60628260808111156136f5576136f5613c6f565b14806137125750606482608081111561371057613710613c6f565b145b8061372e5750606682608081111561372c5761372c613c6f565b145b8061374a5750606782608081111561374857613748613c6f565b145b1561375757506011613c3f565b602d610cd3565b60045460ff16602114156138a357600182608081111561378057613780613c6f565b148061379d5750600382608081111561379b5761379b613c6f565b145b806137b9575060048260808111156137b7576137b7613c6f565b145b156137c657506001613c3f565b600b8260808111156137da576137da613c6f565b14806137f7575060088260808111156137f5576137f5613c6f565b145b1561380457506002613c3f565b607e82608081111561381857613818613c6f565b14806138355750608082608081111561383357613833613c6f565b145b1561384257506008613c3f565b606382608081111561385657613856613c6f565b14806138735750606682608081111561387157613871613c6f565b145b8061388f5750606882608081111561388d5761388d613c6f565b145b1561389c57506011613c3f565b602e610cd3565b60045460ff16602214156139b05760008260808111156138c5576138c5613c6f565b14806138e2575060028260808111156138e0576138e0613c6f565b145b806138fe575060048260808111156138fc576138fc613c6f565b145b1561390b57506001613c3f565b600b82608081111561391f5761391f613c6f565b148061393c5750600682608081111561393a5761393a613c6f565b145b1561394957506002613c3f565b607f82608081111561395d5761395d613c6f565b141561396b57506008613c3f565b606582608081111561397f5761397f613c6f565b148061399c5750606982608081111561399a5761399a613c6f565b145b156139a957506011613c3f565b602f610cd3565b60045460ff1660231415613af55760018260808111156139d2576139d2613c6f565b14806139ef575060038260808111156139ed576139ed613c6f565b145b80613a0b57506004826080811115613a0957613a09613c6f565b145b15613a1857506001613c3f565b600b826080811115613a2c57613a2c613c6f565b1480613a4957506007826080811115613a4757613a47613c6f565b145b15613a5657506002613c3f565b607f826080811115613a6a57613a6a613c6f565b1480613a8757506080826080811115613a8557613a85613c6f565b145b15613a9457506008613c3f565b6067826080811115613aa857613aa8613c6f565b1480613ac557506069826080811115613ac357613ac3613c6f565b145b80613ae15750606a826080811115613adf57613adf613c6f565b145b15613aee57506011613c3f565b6030610cd3565b60045460ff1660241415613c02576000826080811115613b1757613b17613c6f565b1480613b3457506002826080811115613b3257613b32613c6f565b145b80613b5057506004826080811115613b4e57613b4e613c6f565b145b15613b5d57506001613c3f565b600b826080811115613b7157613b71613c6f565b1480613b8e57506008826080811115613b8c57613b8c613c6f565b145b15613b9b57506002613c3f565b6080826080811115613baf57613baf613c6f565b1415613bbd57506008613c3f565b6068826080811115613bd157613bd1613c6f565b1480613bee5750606a826080811115613bec57613bec613c6f565b145b15613bfb57506011613c3f565b6031610cd3565b60045460ff1660251415613c1757600c610cd3565b60045460ff16613c3f57600d826080811115613c3557613c35613c6f565b1415613c3f575060235b9392505050565b600060208284031215613c5857600080fd5b81356001600160a01b0381168114613c3f57600080fd5b634e487b7160e01b600052602160045260246000fd5b60208082528251828201819052600091906040908185019086840185805b83811015613ce45782518051865287015160818110613cd057634e487b7160e01b83526021600452602483fd5b858801529385019391860191600101613ca3565b509298975050505050505050565b634e487b7160e01b600052604160045260246000fd5b600082601f830112613d1957600080fd5b8135602067ffffffffffffffff80831115613d3657613d36613cf2565b8260051b604051601f19603f83011681018181108482111715613d5b57613d5b613cf2565b604052938452858101830193838101925087851115613d7957600080fd5b83870191505b84821015613d9857813583529183019190830190613d7f565b979650505050505050565b60008060408385031215613db657600080fd5b823567ffffffffffffffff80821115613dce57600080fd5b613dda86838701613d08565b93506020850135915080821115613df057600080fd5b50613dfd85828601613d08565b9150509250929050565b6020808252818101527f4f776e61626c653a2063616c6c6572206973206e6f7420746865206f776e6572604082015260600190565b600082613e5957634e487b7160e01b600052601260045260246000fd5b500690565b634e487b7160e01b600052601160045260246000fd5b60008219821115613e8757613e87613e5e565b500190565b600060208284031215613e9e57600080fd5b5051919050565b60208082526026908201527f4d7573742062652073697474696e67206174207461626c6520746f20706c616360408201526532903132ba1760d11b606082015260800190565b634e487b7160e01b600052603260045260246000fd5b6000600019821415613f1557613f15613e5e565b5060010190565b838152600060208481840152604083018454856000528260002060005b82811015613f5e5781546001600160a01b031684529284019260019182019101613f39565b509198975050505050505050565b6000816000190483118215151615613f8657613f86613e5e565b50029056fea2646970667358221220159046eeabba9289d52e8b75d825fe914901d18d50c207675cc2ee0919f0230a64736f6c634300080c0033","bytecodeSha1":"f55ddc2ac41864f84fe5a0cbc3c2eb30ed3b146c","compiler":{"evm_version":"istanbul","optimizer":{"enabled":true,"runs":200},"version":"0.8.12+commit.f00d7308"},"contractName":"Roulette","language":"Solidity","natspec":{"kind":"dev","methods":{"owner()":{"details":"Returns the address of the current owner."},"renounceOwnership()":{"details":"Leaves the contract without owner. It will not be possible to call `onlyOwner` functions anymore. Can only be called by the current owner. NOTE: Renouncing ownership will leave the contract without an owner, thereby removing any functionality that is only available to the owner."},"transferOwnership(address)":{"details":"Transfers ownership of the contract to a new account (`newOwner`). Can only be called by the current owner."}},"version":1},"opcodes":"PUSH1 0x80 PUSH1 0x40 MSTORE CALLVALUE DUP1 ISZERO PUSH2 0x10 JUMPI PUSH1 0x0 DUP1 REVERT JUMPDEST POP PUSH1 0x4 CALLDATASIZE LT PUSH2 0xCF JUMPI PUSH1 0x0 CALLDATALOAD PUSH1 0xE0 SHR DUP1 PUSH4 0x8B0B9ED4 GT PUSH2 0x8C JUMPI DUP1 PUSH4 0xA625671C GT PUSH2 0x66 JUMPI DUP1 PUSH4 0xA625671C EQ PUSH2 0x18A JUMPI DUP1 PUSH4 0xB9174A96 EQ PUSH2 0x1B3 JUMPI DUP1 PUSH4 0xBDD60E92 EQ PUSH2 0x1EF JUMPI DUP1 PUSH4 0xF2FDE38B EQ PUSH2 0x202 JUMPI PUSH1 0x0 DUP1 REVERT JUMPDEST DUP1 PUSH4 0x8B0B9ED4 EQ PUSH2 0x152 JUMPI DUP1 PUSH4 0x8DA5CB5B EQ PUSH2 0x167 JUMPI DUP1 PUSH4 0x9F3BA30A EQ PUSH2 0x182 JUMPI PUSH1 0x0 DUP1 REVERT JUMPDEST DUP1 PUSH4 0x15ECEF92 EQ PUSH2 0xD4 JUMPI DUP1 PUSH4 0x1B4D7E37 EQ PUSH2 0xDE JUMPI DUP1 PUSH4 0x2858EFF1 EQ PUSH2 0xE6 JUMPI DUP1 PUSH4 0x4816C735 EQ PUSH2 0x122 JUMPI DUP1 PUSH4 0x715018A6 EQ PUSH2 0x12A JUMPI DUP1 PUSH4 0x81E074BA EQ PUSH2 0x132 JUMPI JUMPDEST PUSH1 0x0 DUP1 REVERT JUMPDEST PUSH2 0xDC PUSH2 0x215 JUMP JUMPDEST STOP JUMPDEST PUSH2 0xDC PUSH2 0x2B0 JUMP JUMPDEST PUSH2 0x10F PUSH2 0xF4 CALLDATASIZE PUSH1 0x4 PUSH2 0x3C46 JUMP JUMPDEST PUSH1 0x1 PUSH1 0x1 PUSH1 0xA0 SHL SUB AND PUSH1 0x0 SWAP1 DUP2 MSTORE PUSH1 0x7 PUSH1 0x20 MSTORE PUSH1 0x40 SWAP1 KECCAK256 SLOAD SWAP1 JUMP JUMPDEST PUSH1 0x40 MLOAD SWAP1 DUP2 MSTORE PUSH1 0x20 ADD JUMPDEST PUSH1 0x40 MLOAD DUP1 SWAP2 SUB SWAP1 RETURN JUMPDEST PUSH2 0xDC PUSH2 0x407 JUMP JUMPDEST PUSH2 0xDC PUSH2 0x47E JUMP JUMPDEST PUSH2 0x145 PUSH2 0x140 CALLDATASIZE PUSH1 0x4 PUSH2 0x3C46 JUMP JUMPDEST PUSH2 0x4B4 JUMP JUMPDEST PUSH1 0x40 MLOAD PUSH2 0x119 SWAP2 SWAP1 PUSH2 0x3C85 JUMP JUMPDEST PUSH1 0x4 SLOAD PUSH1 0x40 MLOAD PUSH1 0xFF SWAP1 SWAP2 AND DUP2 MSTORE PUSH1 0x20 ADD PUSH2 0x119 JUMP JUMPDEST PUSH1 0x0 SLOAD PUSH1 0x40 MLOAD PUSH1 0x1 PUSH1 0x1 PUSH1 0xA0 SHL SUB SWAP1 SWAP2 AND DUP2 MSTORE PUSH1 0x20 ADD PUSH2 0x119 JUMP JUMPDEST PUSH2 0xDC PUSH2 0x56C JUMP JUMPDEST PUSH2 0x10F PUSH2 0x198 CALLDATASIZE PUSH1 0x4 PUSH2 0x3C46 JUMP JUMPDEST PUSH1 0x1 PUSH1 0x1 PUSH1 0xA0 SHL SUB AND PUSH1 0x0 SWAP1 DUP2 MSTORE PUSH1 0x8 PUSH1 0x20 MSTORE PUSH1 0x40 SWAP1 KECCAK256 SLOAD SWAP1 JUMP JUMPDEST PUSH2 0x1DF PUSH2 0x1C1 CALLDATASIZE PUSH1 0x4 PUSH2 0x3C46 JUMP JUMPDEST PUSH1 0x1 PUSH1 0x1 PUSH1 0xA0 SHL SUB AND PUSH1 0x0 SWAP1 DUP2 MSTORE PUSH1 0x5 PUSH1 0x20 MSTORE PUSH1 0x40 SWAP1 KECCAK256 SLOAD PUSH1 0xFF AND SWAP1 JUMP JUMPDEST PUSH1 0x40 MLOAD SWAP1 ISZERO ISZERO DUP2 MSTORE PUSH1 0x20 ADD PUSH2 0x119 JUMP JUMPDEST PUSH2 0xDC PUSH2 0x1FD CALLDATASIZE PUSH1 0x4 PUSH2 0x3DA3 JUMP JUMPDEST PUSH2 0x630 JUMP JUMPDEST PUSH2 0xDC PUSH2 0x210 CALLDATASIZE PUSH1 0x4 PUSH2 0x3C46 JUMP JUMPDEST PUSH2 0x818 JUMP JUMPDEST PUSH1 0x0 SLOAD PUSH1 0x1 PUSH1 0x1 PUSH1 0xA0 SHL SUB AND CALLER EQ PUSH2 0x248 JUMPI PUSH1 0x40 MLOAD PUSH3 0x461BCD PUSH1 0xE5 SHL DUP2 MSTORE PUSH1 0x4 ADD PUSH2 0x23F SWAP1 PUSH2 0x3E07 JUMP JUMPDEST PUSH1 0x40 MLOAD DUP1 SWAP2 SUB SWAP1 REVERT JUMPDEST PUSH1 0x26 PUSH2 0x252 PUSH2 0x8B0 JUMP JUMPDEST PUSH2 0x25C SWAP2 SWAP1 PUSH2 0x3E3C JUMP JUMPDEST PUSH2 0x267 SWAP1 PUSH1 0x1 PUSH2 0x3E74 JUMP JUMPDEST PUSH1 0x4 DUP1 SLOAD PUSH1 0xFF NOT AND PUSH1 0xFF SWAP3 SWAP1 SWAP3 AND SWAP2 DUP3 OR SWAP1 SSTORE PUSH1 0x40 MLOAD SWAP1 DUP2 MSTORE PUSH32 0xF24656293DC5F0F62F0E017EBC626CE7409D55BF42B41FE5B77A0EFE811CAB09 SWAP1 PUSH1 0x20 ADD JUMPDEST PUSH1 0x40 MLOAD DUP1 SWAP2 SUB SWAP1 LOG1 JUMP JUMPDEST PUSH1 0x1 SLOAD PUSH1 0x40 MLOAD PUSH4 0x70A08231 PUSH1 0xE0 SHL DUP2 MSTORE CALLER PUSH1 0x4 DUP3 ADD MSTORE PUSH1 0x0 SWAP2 PUSH1 0x1 PUSH1 0x1 PUSH1 0xA0 SHL SUB AND SWAP1 PUSH4 0x70A08231 SWAP1 PUSH1 0x24 ADD PUSH1 0x20 PUSH1 0x40 MLOAD DUP1 DUP4 SUB DUP2 DUP7 GAS STATICCALL ISZERO DUP1 ISZERO PUSH2 0x2F9 JUMPI RETURNDATASIZE PUSH1 0x0 DUP1 RETURNDATACOPY RETURNDATASIZE PUSH1 0x0 REVERT JUMPDEST POP POP POP POP PUSH1 0x40 MLOAD RETURNDATASIZE PUSH1 0x1F NOT PUSH1 0x1F DUP3 ADD AND DUP3 ADD DUP1 PUSH1 0x40 MSTORE POP DUP2 ADD SWAP1 PUSH2 0x31D SWAP2 SWAP1 PUSH2 0x3E8C JUMP JUMPDEST GT PUSH2 0x37A JUMPI PUSH1 0x40 MLOAD PUSH3 0x461BCD PUSH1 0xE5 SHL DUP2 MSTORE PUSH1 0x20 PUSH1 0x4 DUP3 ADD MSTORE PUSH1 0x27 PUSH1 0x24 DUP3 ADD MSTORE PUSH32 0x596F75206E65656420474D424C20746F2073697420646F776E20617420746865 PUSH1 0x44 DUP3 ADD MSTORE PUSH7 0x103A30B1363297 PUSH1 0xC9 SHL PUSH1 0x64 DUP3 ADD MSTORE PUSH1 0x84 ADD PUSH2 0x23F JUMP JUMPDEST CALLER PUSH1 0x0 DUP2 DUP2 MSTORE PUSH1 0x5 PUSH1 0x20 SWAP1 DUP2 MSTORE PUSH1 0x40 DUP1 DUP4 KECCAK256 DUP1 SLOAD PUSH1 0xFF NOT AND PUSH1 0x1 SWAP1 DUP2 OR SWAP1 SWAP2 SSTORE PUSH1 0x3 DUP1 SLOAD SWAP2 DUP3 ADD DUP2 SSTORE SWAP1 SWAP4 MSTORE PUSH32 0xC2575A0E9E593C00F959F8C92F12DB2869C3395A3B0502D05E2516446F71F85B SWAP1 SWAP3 ADD DUP1 SLOAD PUSH1 0x1 PUSH1 0x1 PUSH1 0xA0 SHL SUB NOT AND DUP5 OR SWAP1 SSTORE SWAP1 MLOAD SWAP2 DUP3 MSTORE PUSH32 0x2F61376D8C0F0E7027A18ABDA575FD1CAFEA604DB44D5BB37E26A3D42C9A2685 SWAP2 ADD PUSH2 0x2A6 JUMP JUMPDEST CALLER PUSH1 0x0 SWAP1 DUP2 MSTORE PUSH1 0x5 PUSH1 0x20 MSTORE PUSH1 0x40 SWAP1 KECCAK256 SLOAD PUSH1 0xFF AND PUSH2 0x436 JUMPI PUSH1 0x40 MLOAD PUSH3 0x461BCD PUSH1 0xE5 SHL DUP2 MSTORE PUSH1 0x4 ADD PUSH2 0x23F SWAP1 PUSH2 0x3EA5 JUMP JUMPDEST CALLER PUSH1 0x0 DUP2 DUP2 MSTORE PUSH1 0x5 PUSH1 0x20 SWAP1 DUP2 MSTORE PUSH1 0x40 SWAP2 DUP3 SWAP1 KECCAK256 DUP1 SLOAD PUSH1 0xFF NOT AND SWAP1 SSTORE SWAP1 MLOAD SWAP2 DUP3 MSTORE PUSH32 0x81AC5CD731AA4703BCE831ACA31143E455D51B1732E0C234AA39899104CBB27A SWAP2 ADD PUSH2 0x2A6 JUMP JUMPDEST PUSH1 0x0 SLOAD PUSH1 0x1 PUSH1 0x1 PUSH1 0xA0 SHL SUB AND CALLER EQ PUSH2 0x4A8 JUMPI PUSH1 0x40 MLOAD PUSH3 0x461BCD PUSH1 0xE5 SHL DUP2 MSTORE PUSH1 0x4 ADD PUSH2 0x23F SWAP1 PUSH2 0x3E07 JUMP JUMPDEST PUSH2 0x4B2 PUSH1 0x0 PUSH2 0x8E6 JUMP JUMPDEST JUMP JUMPDEST PUSH1 0x1 PUSH1 0x1 PUSH1 0xA0 SHL SUB DUP2 AND PUSH1 0x0 SWAP1 DUP2 MSTORE PUSH1 0x6 PUSH1 0x20 SWAP1 DUP2 MSTORE PUSH1 0x40 DUP1 DUP4 KECCAK256 DUP1 SLOAD DUP3 MLOAD DUP2 DUP6 MUL DUP2 ADD DUP6 ADD SWAP1 SWAP4 MSTORE DUP1 DUP4 MSTORE PUSH1 0x60 SWAP5 SWAP3 SWAP4 SWAP2 SWAP3 SWAP1 SWAP2 DUP5 ADD JUMPDEST DUP3 DUP3 LT ISZERO PUSH2 0x561 JUMPI DUP4 DUP3 SWAP1 PUSH1 0x0 MSTORE PUSH1 0x20 PUSH1 0x0 KECCAK256 SWAP1 PUSH1 0x2 MUL ADD PUSH1 0x40 MLOAD DUP1 PUSH1 0x40 ADD PUSH1 0x40 MSTORE SWAP1 DUP2 PUSH1 0x0 DUP3 ADD SLOAD DUP2 MSTORE PUSH1 0x20 ADD PUSH1 0x1 DUP3 ADD PUSH1 0x0 SWAP1 SLOAD SWAP1 PUSH2 0x100 EXP SWAP1 DIV PUSH1 0xFF AND PUSH1 0x80 DUP2 GT ISZERO PUSH2 0x53D JUMPI PUSH2 0x53D PUSH2 0x3C6F JUMP JUMPDEST PUSH1 0x80 DUP2 GT ISZERO PUSH2 0x54E JUMPI PUSH2 0x54E PUSH2 0x3C6F JUMP JUMPDEST DUP2 MSTORE POP POP DUP2 MSTORE PUSH1 0x20 ADD SWAP1 PUSH1 0x1 ADD SWAP1 PUSH2 0x4EC JUMP JUMPDEST POP POP POP POP SWAP1 POP SWAP2 SWAP1 POP JUMP JUMPDEST PUSH1 0x0 SLOAD PUSH1 0x1 PUSH1 0x1 PUSH1 0xA0 SHL SUB AND CALLER EQ PUSH2 0x596 JUMPI PUSH1 0x40 MLOAD PUSH3 0x461BCD PUSH1 0xE5 SHL DUP2 MSTORE PUSH1 0x4 ADD PUSH2 0x23F SWAP1 PUSH2 0x3E07 JUMP JUMPDEST PUSH1 0x0 JUMPDEST PUSH1 0x3 SLOAD DUP2 LT ISZERO PUSH2 0x62D JUMPI PUSH1 0x5 PUSH1 0x0 PUSH1 0x3 DUP4 DUP2 SLOAD DUP2 LT PUSH2 0x5BA JUMPI PUSH2 0x5BA PUSH2 0x3EEB JUMP JUMPDEST PUSH1 0x0 SWAP2 DUP3 MSTORE PUSH1 0x20 DUP1 DUP4 KECCAK256 SWAP1 SWAP2 ADD SLOAD PUSH1 0x1 PUSH1 0x1 PUSH1 0xA0 SHL SUB AND DUP4 MSTORE DUP3 ADD SWAP3 SWAP1 SWAP3 MSTORE PUSH1 0x40 ADD SWAP1 KECCAK256 SLOAD PUSH1 0xFF AND PUSH2 0x5EB JUMPI PUSH2 0x61B JUMP JUMPDEST PUSH2 0x61B PUSH1 0x3 DUP3 DUP2 SLOAD DUP2 LT PUSH2 0x601 JUMPI PUSH2 0x601 PUSH2 0x3EEB JUMP JUMPDEST PUSH1 0x0 SWAP2 DUP3 MSTORE PUSH1 0x20 SWAP1 SWAP2 KECCAK256 ADD SLOAD PUSH1 0x1 PUSH1 0x1 PUSH1 0xA0 SHL SUB AND PUSH2 0x936 JUMP JUMPDEST DUP1 PUSH2 0x625 DUP2 PUSH2 0x3F01 JUMP JUMPDEST SWAP2 POP POP PUSH2 0x599 JUMP JUMPDEST POP JUMP JUMPDEST CALLER PUSH1 0x0 SWAP1 DUP2 MSTORE PUSH1 0x5 PUSH1 0x20 MSTORE PUSH1 0x40 SWAP1 KECCAK256 SLOAD PUSH1 0xFF AND PUSH2 0x65F JUMPI PUSH1 0x40 MLOAD PUSH3 0x461BCD PUSH1 0xE5 SHL DUP2 MSTORE PUSH1 0x4 ADD PUSH2 0x23F SWAP1 PUSH2 0x3EA5 JUMP JUMPDEST DUP1 MLOAD DUP3 MLOAD EQ PUSH2 0x66D JUMPI PUSH1 0x0 DUP1 REVERT JUMPDEST PUSH1 0x0 JUMPDEST DUP3 MLOAD DUP2 LT ISZERO PUSH2 0x767 JUMPI PUSH1 0x6 PUSH1 0x0 CALLER PUSH1 0x1 PUSH1 0x1 PUSH1 0xA0 SHL SUB AND PUSH1 0x1 PUSH1 0x1 PUSH1 0xA0 SHL SUB AND DUP2 MSTORE PUSH1 0x20 ADD SWAP1 DUP2 MSTORE PUSH1 0x20 ADD PUSH1 0x0 KECCAK256 PUSH1 0x40 MLOAD DUP1 PUSH1 0x40 ADD PUSH1 0x40 MSTORE DUP1 DUP6 DUP5 DUP2 MLOAD DUP2 LT PUSH2 0x6BB JUMPI PUSH2 0x6BB PUSH2 0x3EEB JUMP JUMPDEST PUSH1 0x20 MUL PUSH1 0x20 ADD ADD MLOAD DUP2 MSTORE PUSH1 0x20 ADD DUP5 DUP5 DUP2 MLOAD DUP2 LT PUSH2 0x6DA JUMPI PUSH2 0x6DA PUSH2 0x3EEB JUMP JUMPDEST PUSH1 0x20 MUL PUSH1 0x20 ADD ADD MLOAD PUSH1 0x80 DUP2 GT ISZERO PUSH2 0x6F3 JUMPI PUSH2 0x6F3 PUSH2 0x3C6F JUMP JUMPDEST PUSH1 0x80 DUP2 GT ISZERO PUSH2 0x704 JUMPI PUSH2 0x704 PUSH2 0x3C6F JUMP JUMPDEST SWAP1 MSTORE DUP2 SLOAD PUSH1 0x1 DUP2 DUP2 ADD DUP5 SSTORE PUSH1 0x0 SWAP4 DUP5 MSTORE PUSH1 0x20 SWAP4 DUP5 SWAP1 KECCAK256 DUP4 MLOAD PUSH1 0x2 SWAP1 SWAP4 MUL ADD SWAP2 DUP3 SSTORE SWAP3 DUP3 ADD MLOAD DUP2 DUP5 ADD DUP1 SLOAD SWAP4 SWAP5 SWAP3 SWAP4 SWAP2 SWAP3 SWAP1 SWAP2 PUSH1 0xFF NOT AND SWAP1 DUP4 PUSH1 0x80 DUP2 GT ISZERO PUSH2 0x74D JUMPI PUSH2 0x74D PUSH2 0x3C6F JUMP JUMPDEST MUL OR SWAP1 SSTORE POP POP POP DUP1 DUP1 PUSH2 0x75F SWAP1 PUSH2 0x3F01 JUMP JUMPDEST SWAP2 POP POP PUSH2 0x670 JUMP JUMPDEST POP PUSH1 0x0 PUSH2 0x773 DUP4 PUSH2 0xB75 JUMP JUMPDEST PUSH1 0x1 SLOAD PUSH1 0x40 MLOAD PUSH4 0x2770A7EB PUSH1 0xE2 SHL DUP2 MSTORE CALLER PUSH1 0x4 DUP3 ADD MSTORE PUSH1 0x24 DUP2 ADD DUP4 SWAP1 MSTORE SWAP2 SWAP3 POP PUSH1 0x1 PUSH1 0x1 PUSH1 0xA0 SHL SUB AND SWAP1 PUSH4 0x9DC29FAC SWAP1 PUSH1 0x44 ADD PUSH1 0x0 PUSH1 0x40 MLOAD DUP1 DUP4 SUB DUP2 PUSH1 0x0 DUP8 DUP1 EXTCODESIZE ISZERO DUP1 ISZERO PUSH2 0x7C0 JUMPI PUSH1 0x0 DUP1 REVERT JUMPDEST POP GAS CALL ISZERO DUP1 ISZERO PUSH2 0x7D4 JUMPI RETURNDATASIZE PUSH1 0x0 DUP1 RETURNDATACOPY RETURNDATASIZE PUSH1 0x0 REVERT JUMPDEST POP POP PUSH1 0x40 DUP1 MLOAD CALLER DUP2 MSTORE PUSH1 0x20 DUP2 ADD DUP6 SWAP1 MSTORE PUSH32 0x6040D59F0A69BDA20AD88FC81AB81918925D429759492643D7AEC9FCFEE45E58 SWAP4 POP ADD SWAP1 POP JUMPDEST PUSH1 0x40 MLOAD DUP1 SWAP2 SUB SWAP1 LOG1 POP POP POP JUMP JUMPDEST PUSH1 0x0 SLOAD PUSH1 0x1 PUSH1 0x1 PUSH1 0xA0 SHL SUB AND CALLER EQ PUSH2 0x842 JUMPI PUSH1 0x40 MLOAD PUSH3 0x461BCD PUSH1 0xE5 SHL DUP2 MSTORE PUSH1 0x4 ADD PUSH2 0x23F SWAP1 PUSH2 0x3E07 JUMP JUMPDEST PUSH1 0x1 PUSH1 0x1 PUSH1 0xA0 SHL SUB DUP2 AND PUSH2 0x8A7 JUMPI PUSH1 0x40 MLOAD PUSH3 0x461BCD PUSH1 0xE5 SHL DUP2 MSTORE PUSH1 0x20 PUSH1 0x4 DUP3 ADD MSTORE PUSH1 0x26 PUSH1 0x24 DUP3 ADD MSTORE PUSH32 0x4F776E61626C653A206E6577206F776E657220697320746865207A65726F2061 PUSH1 0x44 DUP3 ADD MSTORE PUSH6 0x646472657373 PUSH1 0xD0 SHL PUSH1 0x64 DUP3 ADD MSTORE PUSH1 0x84 ADD PUSH2 0x23F JUMP JUMPDEST PUSH2 0x62D DUP2 PUSH2 0x8E6 JUMP JUMPDEST PUSH1 0x0 DIFFICULTY TIMESTAMP PUSH1 0x3 PUSH1 0x40 MLOAD PUSH1 0x20 ADD PUSH2 0x8C8 SWAP4 SWAP3 SWAP2 SWAP1 PUSH2 0x3F1C JUMP JUMPDEST PUSH1 0x40 MLOAD PUSH1 0x20 DUP2 DUP4 SUB SUB DUP2 MSTORE SWAP1 PUSH1 0x40 MSTORE DUP1 MLOAD SWAP1 PUSH1 0x20 ADD KECCAK256 PUSH1 0x0 SHR SWAP1 POP SWAP1 JUMP JUMPDEST PUSH1 0x0 DUP1 SLOAD PUSH1 0x1 PUSH1 0x1 PUSH1 0xA0 SHL SUB DUP4 DUP2 AND PUSH1 0x1 PUSH1 0x1 PUSH1 0xA0 SHL SUB NOT DUP4 AND DUP2 OR DUP5 SSTORE PUSH1 0x40 MLOAD SWAP2 SWAP1 SWAP3 AND SWAP3 DUP4 SWAP2 PUSH32 0x8BE0079C531659141344CD1FD0A4F28419497F9722A3DAAFE3B4186F6B6457E0 SWAP2 SWAP1 LOG3 POP POP JUMP JUMPDEST PUSH1 0x1 PUSH1 0x1 PUSH1 0xA0 SHL SUB DUP2 AND PUSH1 0x0 SWAP1 DUP2 MSTORE PUSH1 0x6 PUSH1 0x20 SWAP1 DUP2 MSTORE PUSH1 0x40 DUP1 DUP4 KECCAK256 DUP1 SLOAD DUP3 MLOAD DUP2 DUP6 MUL DUP2 ADD DUP6 ADD SWAP1 SWAP4 MSTORE DUP1 DUP4 MSTORE SWAP2 SWAP3 SWAP1 SWAP2 SWAP1 DUP5 SWAP1 DUP5 ADD JUMPDEST DUP3 DUP3 LT ISZERO PUSH2 0x9E1 JUMPI DUP4 DUP3 SWAP1 PUSH1 0x0 MSTORE PUSH1 0x20 PUSH1 0x0 KECCAK256 SWAP1 PUSH1 0x2 MUL ADD PUSH1 0x40 MLOAD DUP1 PUSH1 0x40 ADD PUSH1 0x40 MSTORE SWAP1 DUP2 PUSH1 0x0 DUP3 ADD SLOAD DUP2 MSTORE PUSH1 0x20 ADD PUSH1 0x1 DUP3 ADD PUSH1 0x0 SWAP1 SLOAD SWAP1 PUSH2 0x100 EXP SWAP1 DIV PUSH1 0xFF AND PUSH1 0x80 DUP2 GT ISZERO PUSH2 0x9BD JUMPI PUSH2 0x9BD PUSH2 0x3C6F JUMP JUMPDEST PUSH1 0x80 DUP2 GT ISZERO PUSH2 0x9CE JUMPI PUSH2 0x9CE PUSH2 0x3C6F JUMP JUMPDEST DUP2 MSTORE POP POP DUP2 MSTORE PUSH1 0x20 ADD SWAP1 PUSH1 0x1 ADD SWAP1 PUSH2 0x96C JUMP JUMPDEST POP POP POP POP SWAP1 POP PUSH1 0x0 DUP1 JUMPDEST DUP3 MLOAD DUP2 LT ISZERO PUSH2 0xA95 JUMPI PUSH1 0x0 PUSH2 0xA1C DUP5 DUP4 DUP2 MLOAD DUP2 LT PUSH2 0xA0B JUMPI PUSH2 0xA0B PUSH2 0x3EEB JUMP JUMPDEST PUSH1 0x20 MUL PUSH1 0x20 ADD ADD MLOAD PUSH1 0x20 ADD MLOAD PUSH2 0xBC3 JUMP JUMPDEST SWAP1 POP DUP1 ISZERO PUSH2 0xA82 JUMPI DUP4 DUP3 DUP2 MLOAD DUP2 LT PUSH2 0xA36 JUMPI PUSH2 0xA36 PUSH2 0x3EEB JUMP JUMPDEST PUSH1 0x20 MUL PUSH1 0x20 ADD ADD MLOAD PUSH1 0x0 ADD MLOAD DUP2 DUP6 DUP5 DUP2 MLOAD DUP2 LT PUSH2 0xA55 JUMPI PUSH2 0xA55 PUSH2 0x3EEB JUMP JUMPDEST PUSH1 0x20 MUL PUSH1 0x20 ADD ADD MLOAD PUSH1 0x0 ADD MLOAD PUSH2 0xA6B SWAP2 SWAP1 PUSH2 0x3F6C JUMP JUMPDEST PUSH2 0xA75 SWAP2 SWAP1 PUSH2 0x3E74 JUMP JUMPDEST PUSH2 0xA7F SWAP1 DUP5 PUSH2 0x3E74 JUMP JUMPDEST SWAP3 POP JUMPDEST POP DUP1 PUSH2 0xA8D DUP2 PUSH2 0x3F01 JUMP JUMPDEST SWAP2 POP POP PUSH2 0x9EB JUMP JUMPDEST POP PUSH1 0x1 SLOAD PUSH1 0x40 MLOAD PUSH4 0x40C10F19 PUSH1 0xE0 SHL DUP2 MSTORE PUSH1 0x1 PUSH1 0x1 PUSH1 0xA0 SHL SUB DUP6 DUP2 AND PUSH1 0x4 DUP4 ADD MSTORE PUSH1 0x24 DUP3 ADD DUP5 SWAP1 MSTORE SWAP1 SWAP2 AND SWAP1 PUSH4 0x40C10F19 SWAP1 PUSH1 0x44 ADD PUSH1 0x0 PUSH1 0x40 MLOAD DUP1 DUP4 SUB DUP2 PUSH1 0x0 DUP8 DUP1 EXTCODESIZE ISZERO DUP1 ISZERO PUSH2 0xAE4 JUMPI PUSH1 0x0 DUP1 REVERT JUMPDEST POP GAS CALL ISZERO DUP1 ISZERO PUSH2 0xAF8 JUMPI RETURNDATASIZE PUSH1 0x0 DUP1 RETURNDATACOPY RETURNDATASIZE PUSH1 0x0 REVERT JUMPDEST POP POP POP POP PUSH1 0x1 PUSH1 0x1 PUSH1 0xA0 SHL SUB DUP4 AND PUSH1 0x0 SWAP1 DUP2 MSTORE PUSH1 0x7 PUSH1 0x20 SWAP1 DUP2 MSTORE PUSH1 0x40 DUP1 DUP4 KECCAK256 DUP5 SWAP1 SSTORE PUSH1 0x8 SWAP1 SWAP2 MSTORE DUP2 KECCAK256 DUP1 SLOAD DUP4 SWAP3 SWAP1 PUSH2 0xB31 SWAP1 DUP5 SWAP1 PUSH2 0x3E74 JUMP JUMPDEST SWAP1 SWAP2 SSTORE POP POP PUSH1 0x40 DUP1 MLOAD PUSH1 0x1 PUSH1 0x1 PUSH1 0xA0 SHL SUB DUP6 AND DUP2 MSTORE PUSH1 0x20 DUP2 ADD DUP4 SWAP1 MSTORE PUSH32 0xF1CF4F8D6D16BBF2417014FB8E494640B040E47AA05E62AC3CBE54C9A85FA36F SWAP2 ADD PUSH2 0x80B JUMP JUMPDEST PUSH1 0x0 DUP1 DUP1 JUMPDEST DUP4 MLOAD DUP2 LT ISZERO PUSH2 0xBBC JUMPI DUP4 DUP2 DUP2 MLOAD DUP2 LT PUSH2 0xB95 JUMPI PUSH2 0xB95 PUSH2 0x3EEB JUMP JUMPDEST PUSH1 0x20 MUL PUSH1 0x20 ADD ADD MLOAD DUP3 PUSH2 0xBA8 SWAP2 SWAP1 PUSH2 0x3E74 JUMP JUMPDEST SWAP2 POP DUP1 PUSH2 0xBB4 DUP2 PUSH2 0x3F01 JUMP JUMPDEST SWAP2 POP POP PUSH2 0xB7A JUMP JUMPDEST POP SWAP3 SWAP2 POP POP JUMP JUMPDEST PUSH1 0x4 SLOAD PUSH1 0x0 SWAP1 DUP3 SWAP1 DUP3 SWAP1 PUSH1 0xFF AND PUSH1 0x1 EQ ISZERO PUSH2 0xCF4 JUMPI PUSH1 0x0 DUP3 PUSH1 0x80 DUP2 GT ISZERO PUSH2 0xBEC JUMPI PUSH2 0xBEC PUSH2 0x3C6F JUMP JUMPDEST EQ DUP1 PUSH2 0xC09 JUMPI POP PUSH1 0x3 DUP3 PUSH1 0x80 DUP2 GT ISZERO PUSH2 0xC07 JUMPI PUSH2 0xC07 PUSH2 0x3C6F JUMP JUMPDEST EQ JUMPDEST DUP1 PUSH2 0xC25 JUMPI POP PUSH1 0x5 DUP3 PUSH1 0x80 DUP2 GT ISZERO PUSH2 0xC23 JUMPI PUSH2 0xC23 PUSH2 0x3C6F JUMP JUMPDEST EQ JUMPDEST ISZERO PUSH2 0xC32 JUMPI POP PUSH1 0x1 PUSH2 0x3C3F JUMP JUMPDEST PUSH1 0x9 DUP3 PUSH1 0x80 DUP2 GT ISZERO PUSH2 0xC46 JUMPI PUSH2 0xC46 PUSH2 0x3C6F JUMP JUMPDEST EQ DUP1 PUSH2 0xC63 JUMPI POP PUSH1 0x6 DUP3 PUSH1 0x80 DUP2 GT ISZERO PUSH2 0xC61 JUMPI PUSH2 0xC61 PUSH2 0x3C6F JUMP JUMPDEST EQ JUMPDEST ISZERO PUSH2 0xC70 JUMPI POP PUSH1 0x2 PUSH2 0x3C3F JUMP JUMPDEST PUSH1 0x6B DUP3 PUSH1 0x80 DUP2 GT ISZERO PUSH2 0xC84 JUMPI PUSH2 0xC84 PUSH2 0x3C6F JUMP JUMPDEST EQ ISZERO PUSH2 0xC92 JUMPI POP PUSH1 0x8 PUSH2 0x3C3F JUMP JUMPDEST PUSH1 0x33 DUP3 PUSH1 0x80 DUP2 GT ISZERO PUSH2 0xCA6 JUMPI PUSH2 0xCA6 PUSH2 0x3C6F JUMP JUMPDEST EQ DUP1 PUSH2 0xCC3 JUMPI POP PUSH1 0x32 DUP3 PUSH1 0x80 DUP2 GT ISZERO PUSH2 0xCC1 JUMPI PUSH2 0xCC1 PUSH2 0x3C6F JUMP JUMPDEST EQ JUMPDEST ISZERO PUSH2 0xCD0 JUMPI POP PUSH1 0x11 PUSH2 0x3C3F JUMP JUMPDEST PUSH1 0xE JUMPDEST DUP3 PUSH1 0x80 DUP2 GT ISZERO PUSH2 0xCE5 JUMPI PUSH2 0xCE5 PUSH2 0x3C6F JUMP JUMPDEST EQ ISZERO PUSH2 0xCEF JUMPI POP PUSH1 0x23 JUMPDEST PUSH2 0x3C3F JUMP JUMPDEST PUSH1 0x4 SLOAD PUSH1 0xFF AND PUSH1 0x2 EQ ISZERO PUSH2 0xE39 JUMPI PUSH1 0x1 DUP3 PUSH1 0x80 DUP2 GT ISZERO PUSH2 0xD16 JUMPI PUSH2 0xD16 PUSH2 0x3C6F JUMP JUMPDEST EQ DUP1 PUSH2 0xD33 JUMPI POP PUSH1 0x2 DUP3 PUSH1 0x80 DUP2 GT ISZERO PUSH2 0xD31 JUMPI PUSH2 0xD31 PUSH2 0x3C6F JUMP JUMPDEST EQ JUMPDEST DUP1 PUSH2 0xD4F JUMPI POP PUSH1 0x5 DUP3 PUSH1 0x80 DUP2 GT ISZERO PUSH2 0xD4D JUMPI PUSH2 0xD4D PUSH2 0x3C6F JUMP JUMPDEST EQ JUMPDEST ISZERO PUSH2 0xD5C JUMPI POP PUSH1 0x1 PUSH2 0x3C3F JUMP JUMPDEST PUSH1 0x9 DUP3 PUSH1 0x80 DUP2 GT ISZERO PUSH2 0xD70 JUMPI PUSH2 0xD70 PUSH2 0x3C6F JUMP JUMPDEST EQ DUP1 PUSH2 0xD8D JUMPI POP PUSH1 0x7 DUP3 PUSH1 0x80 DUP2 GT ISZERO PUSH2 0xD8B JUMPI PUSH2 0xD8B PUSH2 0x3C6F JUMP JUMPDEST EQ JUMPDEST ISZERO PUSH2 0xD9A JUMPI POP PUSH1 0x2 PUSH2 0x3C3F JUMP JUMPDEST PUSH1 0x6B DUP3 PUSH1 0x80 DUP2 GT ISZERO PUSH2 0xDAE JUMPI PUSH2 0xDAE PUSH2 0x3C6F JUMP JUMPDEST EQ DUP1 PUSH2 0xDCB JUMPI POP PUSH1 0x6C DUP3 PUSH1 0x80 DUP2 GT ISZERO PUSH2 0xDC9 JUMPI PUSH2 0xDC9 PUSH2 0x3C6F JUMP JUMPDEST EQ JUMPDEST ISZERO PUSH2 0xDD8 JUMPI POP PUSH1 0x8 PUSH2 0x3C3F JUMP JUMPDEST PUSH1 0x33 DUP3 PUSH1 0x80 DUP2 GT ISZERO PUSH2 0xDEC JUMPI PUSH2 0xDEC PUSH2 0x3C6F JUMP JUMPDEST EQ DUP1 PUSH2 0xE09 JUMPI POP PUSH1 0x34 DUP3 PUSH1 0x80 DUP2 GT ISZERO PUSH2 0xE07 JUMPI PUSH2 0xE07 PUSH2 0x3C6F JUMP JUMPDEST EQ JUMPDEST DUP1 PUSH2 0xE25 JUMPI POP PUSH1 0x35 DUP3 PUSH1 0x80 DUP2 GT ISZERO PUSH2 0xE23 JUMPI PUSH2 0xE23 PUSH2 0x3C6F JUMP JUMPDEST EQ JUMPDEST ISZERO PUSH2 0xE32 JUMPI POP PUSH1 0x11 PUSH2 0x3C3F JUMP JUMPDEST PUSH1 0xF PUSH2 0xCD3 JUMP JUMPDEST PUSH1 0x4 SLOAD PUSH1 0xFF AND PUSH1 0x3 EQ ISZERO PUSH2 0xF46 JUMPI PUSH1 0x0 DUP3 PUSH1 0x80 DUP2 GT ISZERO PUSH2 0xE5B JUMPI PUSH2 0xE5B PUSH2 0x3C6F JUMP JUMPDEST EQ DUP1 PUSH2 0xE78 JUMPI POP PUSH1 0x3 DUP3 PUSH1 0x80 DUP2 GT ISZERO PUSH2 0xE76 JUMPI PUSH2 0xE76 PUSH2 0x3C6F JUMP JUMPDEST EQ JUMPDEST DUP1 PUSH2 0xE94 JUMPI POP PUSH1 0x5 DUP3 PUSH1 0x80 DUP2 GT ISZERO PUSH2 0xE92 JUMPI PUSH2 0xE92 PUSH2 0x3C6F JUMP JUMPDEST EQ JUMPDEST ISZERO PUSH2 0xEA1 JUMPI POP PUSH1 0x1 PUSH2 0x3C3F JUMP JUMPDEST PUSH1 0x9 DUP3 PUSH1 0x80 DUP2 GT ISZERO PUSH2 0xEB5 JUMPI PUSH2 0xEB5 PUSH2 0x3C6F JUMP JUMPDEST EQ DUP1 PUSH2 0xED2 JUMPI POP PUSH1 0x8 DUP3 PUSH1 0x80 DUP2 GT ISZERO PUSH2 0xED0 JUMPI PUSH2 0xED0 PUSH2 0x3C6F JUMP JUMPDEST EQ JUMPDEST ISZERO PUSH2 0xEDF JUMPI POP PUSH1 0x2 PUSH2 0x3C3F JUMP JUMPDEST PUSH1 0x6C DUP3 PUSH1 0x80 DUP2 GT ISZERO PUSH2 0xEF3 JUMPI PUSH2 0xEF3 PUSH2 0x3C6F JUMP JUMPDEST EQ ISZERO PUSH2 0xF01 JUMPI POP PUSH1 0x8 PUSH2 0x3C3F JUMP JUMPDEST PUSH1 0x34 DUP3 PUSH1 0x80 DUP2 GT ISZERO PUSH2 0xF15 JUMPI PUSH2 0xF15 PUSH2 0x3C6F JUMP JUMPDEST EQ DUP1 PUSH2 0xF32 JUMPI POP PUSH1 0x36 DUP3 PUSH1 0x80 DUP2 GT ISZERO PUSH2 0xF30 JUMPI PUSH2 0xF30 PUSH2 0x3C6F JUMP JUMPDEST EQ JUMPDEST ISZERO PUSH2 0xF3F JUMPI POP PUSH1 0x11 PUSH2 0x3C3F JUMP JUMPDEST PUSH1 0x10 PUSH2 0xCD3 JUMP JUMPDEST PUSH1 0x4 DUP1 SLOAD PUSH1 0xFF AND EQ ISZERO PUSH2 0x108A JUMPI PUSH1 0x1 DUP3 PUSH1 0x80 DUP2 GT ISZERO PUSH2 0xF67 JUMPI PUSH2 0xF67 PUSH2 0x3C6F JUMP JUMPDEST EQ DUP1 PUSH2 0xF84 JUMPI POP PUSH1 0x2 DUP3 PUSH1 0x80 DUP2 GT ISZERO PUSH2 0xF82 JUMPI PUSH2 0xF82 PUSH2 0x3C6F JUMP JUMPDEST EQ JUMPDEST DUP1 PUSH2 0xFA0 JUMPI POP PUSH1 0x5 DUP3 PUSH1 0x80 DUP2 GT ISZERO PUSH2 0xF9E JUMPI PUSH2 0xF9E PUSH2 0x3C6F JUMP JUMPDEST EQ JUMPDEST ISZERO PUSH2 0xFAD JUMPI POP PUSH1 0x1 PUSH2 0x3C3F JUMP JUMPDEST PUSH1 0x9 DUP3 PUSH1 0x80 DUP2 GT ISZERO PUSH2 0xFC1 JUMPI PUSH2 0xFC1 PUSH2 0x3C6F JUMP JUMPDEST EQ DUP1 PUSH2 0xFDE JUMPI POP PUSH1 0x6 DUP3 PUSH1 0x80 DUP2 GT ISZERO PUSH2 0xFDC JUMPI PUSH2 0xFDC PUSH2 0x3C6F JUMP JUMPDEST EQ JUMPDEST ISZERO PUSH2 0xFEB JUMPI POP PUSH1 0x2 PUSH2 0x3C3F JUMP JUMPDEST PUSH1 0x6B DUP3 PUSH1 0x80 DUP2 GT ISZERO PUSH2 0xFFF JUMPI PUSH2 0xFFF PUSH2 0x3C6F JUMP JUMPDEST EQ DUP1 PUSH2 0x101C JUMPI POP PUSH1 0x6D DUP3 PUSH1 0x80 DUP2 GT ISZERO PUSH2 0x101A JUMPI PUSH2 0x101A PUSH2 0x3C6F JUMP JUMPDEST EQ JUMPDEST ISZERO PUSH2 0x1029 JUMPI POP PUSH1 0x8 PUSH2 0x3C3F JUMP JUMPDEST PUSH1 0x32 DUP3 PUSH1 0x80 DUP2 GT ISZERO PUSH2 0x103D JUMPI PUSH2 0x103D PUSH2 0x3C6F JUMP JUMPDEST EQ DUP1 PUSH2 0x105A JUMPI POP PUSH1 0x37 DUP3 PUSH1 0x80 DUP2 GT ISZERO PUSH2 0x1058 JUMPI PUSH2 0x1058 PUSH2 0x3C6F JUMP JUMPDEST EQ JUMPDEST DUP1 PUSH2 0x1076 JUMPI POP PUSH1 0x38 DUP3 PUSH1 0x80 DUP2 GT ISZERO PUSH2 0x1074 JUMPI PUSH2 0x1074 PUSH2 0x3C6F JUMP JUMPDEST EQ JUMPDEST ISZERO PUSH2 0x1083 JUMPI POP PUSH1 0x11 PUSH2 0x3C3F JUMP JUMPDEST PUSH1 0x11 PUSH2 0xCD3 JUMP JUMPDEST PUSH1 0x4 SLOAD PUSH1 0xFF AND PUSH1 0x5 EQ ISZERO PUSH2 0x1223 JUMPI PUSH1 0x0 DUP3 PUSH1 0x80 DUP2 GT ISZERO PUSH2 0x10AC JUMPI PUSH2 0x10AC PUSH2 0x3C6F JUMP JUMPDEST EQ DUP1 PUSH2 0x10C9 JUMPI POP PUSH1 0x3 DUP3 PUSH1 0x80 DUP2 GT ISZERO PUSH2 0x10C7 JUMPI PUSH2 0x10C7 PUSH2 0x3C6F JUMP JUMPDEST EQ JUMPDEST DUP1 PUSH2 0x10E5 JUMPI POP PUSH1 0x5 DUP3 PUSH1 0x80 DUP2 GT ISZERO PUSH2 0x10E3 JUMPI PUSH2 0x10E3 PUSH2 0x3C6F JUMP JUMPDEST EQ JUMPDEST ISZERO PUSH2 0x10F2 JUMPI POP PUSH1 0x1 PUSH2 0x3C3F JUMP JUMPDEST PUSH1 0x9 DUP3 PUSH1 0x80 DUP2 GT ISZERO PUSH2 0x1106 JUMPI PUSH2 0x1106 PUSH2 0x3C6F JUMP JUMPDEST EQ DUP1 PUSH2 0x1123 JUMPI POP PUSH1 0x7 DUP3 PUSH1 0x80 DUP2 GT ISZERO PUSH2 0x1121 JUMPI PUSH2 0x1121 PUSH2 0x3C6F JUMP JUMPDEST EQ JUMPDEST ISZERO PUSH2 0x1130 JUMPI POP PUSH1 0x2 PUSH2 0x3C3F JUMP JUMPDEST PUSH1 0x6C DUP3 PUSH1 0x80 DUP2 GT ISZERO PUSH2 0x1144 JUMPI PUSH2 0x1144 PUSH2 0x3C6F JUMP JUMPDEST EQ DUP1 PUSH2 0x1161 JUMPI POP PUSH1 0x6B DUP3 PUSH1 0x80 DUP2 GT ISZERO PUSH2 0x115F JUMPI PUSH2 0x115F PUSH2 0x3C6F JUMP JUMPDEST EQ JUMPDEST DUP1 PUSH2 0x117D JUMPI POP PUSH1 0x6D DUP3 PUSH1 0x80 DUP2 GT ISZERO PUSH2 0x117B JUMPI PUSH2 0x117B PUSH2 0x3C6F JUMP JUMPDEST EQ JUMPDEST DUP1 PUSH2 0x1199 JUMPI POP PUSH1 0x6E DUP3 PUSH1 0x80 DUP2 GT ISZERO PUSH2 0x1197 JUMPI PUSH2 0x1197 PUSH2 0x3C6F JUMP JUMPDEST EQ JUMPDEST ISZERO PUSH2 0x11A6 JUMPI POP PUSH1 0x8 PUSH2 0x3C3F JUMP JUMPDEST PUSH1 0x35 DUP3 PUSH1 0x80 DUP2 GT ISZERO PUSH2 0x11BA JUMPI PUSH2 0x11BA PUSH2 0x3C6F JUMP JUMPDEST EQ DUP1 PUSH2 0x11D7 JUMPI POP PUSH1 0x37 DUP3 PUSH1 0x80 DUP2 GT ISZERO PUSH2 0x11D5 JUMPI PUSH2 0x11D5 PUSH2 0x3C6F JUMP JUMPDEST EQ JUMPDEST DUP1 PUSH2 0x11F3 JUMPI POP PUSH1 0x39 DUP3 PUSH1 0x80 DUP2 GT ISZERO PUSH2 0x11F1 JUMPI PUSH2 0x11F1 PUSH2 0x3C6F JUMP JUMPDEST EQ JUMPDEST DUP1 PUSH2 0x120F JUMPI POP PUSH1 0x3A DUP3 PUSH1 0x80 DUP2 GT ISZERO PUSH2 0x120D JUMPI PUSH2 0x120D PUSH2 0x3C6F JUMP JUMPDEST EQ JUMPDEST ISZERO PUSH2 0x121C JUMPI POP PUSH1 0x11 PUSH2 0x3C3F JUMP JUMPDEST PUSH1 0x12 PUSH2 0xCD3 JUMP JUMPDEST PUSH1 0x4 SLOAD PUSH1 0xFF AND PUSH1 0x6 EQ ISZERO PUSH2 0x1368 JUMPI PUSH1 0x1 DUP3 PUSH1 0x80 DUP2 GT ISZERO PUSH2 0x1245 JUMPI PUSH2 0x1245 PUSH2 0x3C6F JUMP JUMPDEST EQ DUP1 PUSH2 0x1262 JUMPI POP PUSH1 0x2 DUP3 PUSH1 0x80 DUP2 GT ISZERO PUSH2 0x1260 JUMPI PUSH2 0x1260 PUSH2 0x3C6F JUMP JUMPDEST EQ JUMPDEST DUP1 PUSH2 0x127E JUMPI POP PUSH1 0x5 DUP3 PUSH1 0x80 DUP2 GT ISZERO PUSH2 0x127C JUMPI PUSH2 0x127C PUSH2 0x3C6F JUMP JUMPDEST EQ JUMPDEST ISZERO PUSH2 0x128B JUMPI POP PUSH1 0x1 PUSH2 0x3C3F JUMP JUMPDEST PUSH1 0x9 DUP3 PUSH1 0x80 DUP2 GT ISZERO PUSH2 0x129F JUMPI PUSH2 0x129F PUSH2 0x3C6F JUMP JUMPDEST EQ DUP1 PUSH2 0x12BC JUMPI POP PUSH1 0x8 DUP3 PUSH1 0x80 DUP2 GT ISZERO PUSH2 0x12BA JUMPI PUSH2 0x12BA PUSH2 0x3C6F JUMP JUMPDEST EQ JUMPDEST ISZERO PUSH2 0x12C9 JUMPI POP PUSH1 0x2 PUSH2 0x3C3F JUMP JUMPDEST PUSH1 0x6C DUP3 PUSH1 0x80 DUP2 GT ISZERO PUSH2 0x12DD JUMPI PUSH2 0x12DD PUSH2 0x3C6F JUMP JUMPDEST EQ DUP1 PUSH2 0x12FA JUMPI POP PUSH1 0x6E DUP3 PUSH1 0x80 DUP2 GT ISZERO PUSH2 0x12F8 JUMPI PUSH2 0x12F8 PUSH2 0x3C6F JUMP JUMPDEST EQ JUMPDEST ISZERO PUSH2 0x1307 JUMPI POP PUSH1 0x8 PUSH2 0x3C3F JUMP JUMPDEST PUSH1 0x36 DUP3 PUSH1 0x80 DUP2 GT ISZERO PUSH2 0x131B JUMPI PUSH2 0x131B PUSH2 0x3C6F JUMP JUMPDEST EQ DUP1 PUSH2 0x1338 JUMPI POP PUSH1 0x39 DUP3 PUSH1 0x80 DUP2 GT ISZERO PUSH2 0x1336 JUMPI PUSH2 0x1336 PUSH2 0x3C6F JUMP JUMPDEST EQ JUMPDEST DUP1 PUSH2 0x1354 JUMPI POP PUSH1 0x3B DUP3 PUSH1 0x80 DUP2 GT ISZERO PUSH2 0x1352 JUMPI PUSH2 0x1352 PUSH2 0x3C6F JUMP JUMPDEST EQ JUMPDEST ISZERO PUSH2 0x1361 JUMPI POP PUSH1 0x11 PUSH2 0x3C3F JUMP JUMPDEST PUSH1 0x13 PUSH2 0xCD3 JUMP JUMPDEST PUSH1 0x4 SLOAD PUSH1 0xFF AND PUSH1 0x7 EQ ISZERO PUSH2 0x14AD JUMPI PUSH1 0x0 DUP3 PUSH1 0x80 DUP2 GT ISZERO PUSH2 0x138A JUMPI PUSH2 0x138A PUSH2 0x3C6F JUMP JUMPDEST EQ DUP1 PUSH2 0x13A7 JUMPI POP PUSH1 0x3 DUP3 PUSH1 0x80 DUP2 GT ISZERO PUSH2 0x13A5 JUMPI PUSH2 0x13A5 PUSH2 0x3C6F JUMP JUMPDEST EQ JUMPDEST DUP1 PUSH2 0x13C3 JUMPI POP PUSH1 0x5 DUP3 PUSH1 0x80 DUP2 GT ISZERO PUSH2 0x13C1 JUMPI PUSH2 0x13C1 PUSH2 0x3C6F JUMP JUMPDEST EQ JUMPDEST ISZERO PUSH2 0x13D0 JUMPI POP PUSH1 0x1 PUSH2 0x3C3F JUMP JUMPDEST PUSH1 0x9 DUP3 PUSH1 0x80 DUP2 GT ISZERO PUSH2 0x13E4 JUMPI PUSH2 0x13E4 PUSH2 0x3C6F JUMP JUMPDEST EQ DUP1 PUSH2 0x1401 JUMPI POP PUSH1 0x6 DUP3 PUSH1 0x80 DUP2 GT ISZERO PUSH2 0x13FF JUMPI PUSH2 0x13FF PUSH2 0x3C6F JUMP JUMPDEST EQ JUMPDEST ISZERO PUSH2 0x140E JUMPI POP PUSH1 0x2 PUSH2 0x3C3F JUMP JUMPDEST PUSH1 0x6D DUP3 PUSH1 0x80 DUP2 GT ISZERO PUSH2 0x1422 JUMPI PUSH2 0x1422 PUSH2 0x3C6F JUMP JUMPDEST EQ DUP1 PUSH2 0x143F JUMPI POP PUSH1 0x6F DUP3 PUSH1 0x80 DUP2 GT ISZERO PUSH2 0x143D JUMPI PUSH2 0x143D PUSH2 0x3C6F JUMP JUMPDEST EQ JUMPDEST ISZERO PUSH2 0x144C JUMPI POP PUSH1 0x8 PUSH2 0x3C3F JUMP JUMPDEST PUSH1 0x38 DUP3 PUSH1 0x80 DUP2 GT ISZERO PUSH2 0x1460 JUMPI PUSH2 0x1460 PUSH2 0x3C6F JUMP JUMPDEST EQ DUP1 PUSH2 0x147D JUMPI POP PUSH1 0x3C DUP3 PUSH1 0x80 DUP2 GT ISZERO PUSH2 0x147B JUMPI PUSH2 0x147B PUSH2 0x3C6F JUMP JUMPDEST EQ JUMPDEST DUP1 PUSH2 0x1499 JUMPI POP PUSH1 0x3D DUP3 PUSH1 0x80 DUP2 GT ISZERO PUSH2 0x1497 JUMPI PUSH2 0x1497 PUSH2 0x3C6F JUMP JUMPDEST EQ JUMPDEST ISZERO PUSH2 0x14A6 JUMPI POP PUSH1 0x11 PUSH2 0x3C3F JUMP JUMPDEST PUSH1 0x14 PUSH2 0xCD3 JUMP JUMPDEST PUSH1 0x4 SLOAD PUSH1 0xFF AND PUSH1 0x8 EQ ISZERO PUSH2 0x1646 JUMPI PUSH1 0x1 DUP3 PUSH1 0x80 DUP2 GT ISZERO PUSH2 0x14CF JUMPI PUSH2 0x14CF PUSH2 0x3C6F JUMP JUMPDEST EQ DUP1 PUSH2 0x14EC JUMPI POP PUSH1 0x2 DUP3 PUSH1 0x80 DUP2 GT ISZERO PUSH2 0x14EA JUMPI PUSH2 0x14EA PUSH2 0x3C6F JUMP JUMPDEST EQ JUMPDEST DUP1 PUSH2 0x1508 JUMPI POP PUSH1 0x5 DUP3 PUSH1 0x80 DUP2 GT ISZERO PUSH2 0x1506 JUMPI PUSH2 0x1506 PUSH2 0x3C6F JUMP JUMPDEST EQ JUMPDEST ISZERO PUSH2 0x1515 JUMPI POP PUSH1 0x1 PUSH2 0x3C3F JUMP JUMPDEST PUSH1 0x9 DUP3 PUSH1 0x80 DUP2 GT ISZERO PUSH2 0x1529 JUMPI PUSH2 0x1529 PUSH2 0x3C6F JUMP JUMPDEST EQ DUP1 PUSH2 0x1546 JUMPI POP PUSH1 0x7 DUP3 PUSH1 0x80 DUP2 GT ISZERO PUSH2 0x1544 JUMPI PUSH2 0x1544 PUSH2 0x3C6F JUMP JUMPDEST EQ JUMPDEST ISZERO PUSH2 0x1553 JUMPI POP PUSH1 0x2 PUSH2 0x3C3F JUMP JUMPDEST PUSH1 0x6D DUP3 PUSH1 0x80 DUP2 GT ISZERO PUSH2 0x1567 JUMPI PUSH2 0x1567 PUSH2 0x3C6F JUMP JUMPDEST EQ DUP1 PUSH2 0x1584 JUMPI POP PUSH1 0x6E DUP3 PUSH1 0x80 DUP2 GT ISZERO PUSH2 0x1582 JUMPI PUSH2 0x1582 PUSH2 0x3C6F JUMP JUMPDEST EQ JUMPDEST DUP1 PUSH2 0x15A0 JUMPI POP PUSH1 0x6F DUP3 PUSH1 0x80 DUP2 GT ISZERO PUSH2 0x159E JUMPI PUSH2 0x159E PUSH2 0x3C6F JUMP JUMPDEST EQ JUMPDEST DUP1 PUSH2 0x15BC JUMPI POP PUSH1 0x70 DUP3 PUSH1 0x80 DUP2 GT ISZERO PUSH2 0x15BA JUMPI PUSH2 0x15BA PUSH2 0x3C6F JUMP JUMPDEST EQ JUMPDEST ISZERO PUSH2 0x15C9 JUMPI POP PUSH1 0x8 PUSH2 0x3C3F JUMP JUMPDEST PUSH1 0x3A DUP3 PUSH1 0x80 DUP2 GT ISZERO PUSH2 0x15DD JUMPI PUSH2 0x15DD PUSH2 0x3C6F JUMP JUMPDEST EQ DUP1 PUSH2 0x15FA JUMPI POP PUSH1 0x3C DUP3 PUSH1 0x80 DUP2 GT ISZERO PUSH2 0x15F8 JUMPI PUSH2 0x15F8 PUSH2 0x3C6F JUMP JUMPDEST EQ JUMPDEST DUP1 PUSH2 0x1616 JUMPI POP PUSH1 0x3E DUP3 PUSH1 0x80 DUP2 GT ISZERO PUSH2 0x1614 JUMPI PUSH2 0x1614 PUSH2 0x3C6F JUMP JUMPDEST EQ JUMPDEST DUP1 PUSH2 0x1632 JUMPI POP PUSH1 0x3F DUP3 PUSH1 0x80 DUP2 GT ISZERO PUSH2 0x1630 JUMPI PUSH2 0x1630 PUSH2 0x3C6F JUMP JUMPDEST EQ JUMPDEST ISZERO PUSH2 0x163F JUMPI POP PUSH1 0x11 PUSH2 0x3C3F JUMP JUMPDEST PUSH1 0x15 PUSH2 0xCD3 JUMP JUMPDEST PUSH1 0x4 SLOAD PUSH1 0xFF AND PUSH1 0x9 EQ ISZERO PUSH2 0x178B JUMPI PUSH1 0x0 DUP3 PUSH1 0x80 DUP2 GT ISZERO PUSH2 0x1668 JUMPI PUSH2 0x1668 PUSH2 0x3C6F JUMP JUMPDEST EQ DUP1 PUSH2 0x1685 JUMPI POP PUSH1 0x3 DUP3 PUSH1 0x80 DUP2 GT ISZERO PUSH2 0x1683 JUMPI PUSH2 0x1683 PUSH2 0x3C6F JUMP JUMPDEST EQ JUMPDEST DUP1 PUSH2 0x16A1 JUMPI POP PUSH1 0x5 DUP3 PUSH1 0x80 DUP2 GT ISZERO PUSH2 0x169F JUMPI PUSH2 0x169F PUSH2 0x3C6F JUMP JUMPDEST EQ JUMPDEST ISZERO PUSH2 0x16AE JUMPI POP PUSH1 0x1 PUSH2 0x3C3F JUMP JUMPDEST PUSH1 0x9 DUP3 PUSH1 0x80 DUP2 GT ISZERO PUSH2 0x16C2 JUMPI PUSH2 0x16C2 PUSH2 0x3C6F JUMP JUMPDEST EQ DUP1 PUSH2 0x16DF JUMPI POP PUSH1 0x8 DUP3 PUSH1 0x80 DUP2 GT ISZERO PUSH2 0x16DD JUMPI PUSH2 0x16DD PUSH2 0x3C6F JUMP JUMPDEST EQ JUMPDEST ISZERO PUSH2 0x16EC JUMPI POP PUSH1 0x2 PUSH2 0x3C3F JUMP JUMPDEST PUSH1 0x6E DUP3 PUSH1 0x80 DUP2 GT ISZERO PUSH2 0x1700 JUMPI PUSH2 0x1700 PUSH2 0x3C6F JUMP JUMPDEST EQ DUP1 PUSH2 0x171D JUMPI POP PUSH1 0x70 DUP3 PUSH1 0x80 DUP2 GT ISZERO PUSH2 0x171B JUMPI PUSH2 0x171B PUSH2 0x3C6F JUMP JUMPDEST EQ JUMPDEST ISZERO PUSH2 0x172A JUMPI POP PUSH1 0x8 PUSH2 0x3C3F JUMP JUMPDEST PUSH1 0x3B DUP3 PUSH1 0x80 DUP2 GT ISZERO PUSH2 0x173E JUMPI PUSH2 0x173E PUSH2 0x3C6F JUMP JUMPDEST EQ DUP1 PUSH2 0x175B JUMPI POP PUSH1 0x3E DUP3 PUSH1 0x80 DUP2 GT ISZERO PUSH2 0x1759 JUMPI PUSH2 0x1759 PUSH2 0x3C6F JUMP JUMPDEST EQ JUMPDEST DUP1 PUSH2 0x1777 JUMPI POP PUSH1 0x40 DUP3 PUSH1 0x80 DUP2 GT ISZERO PUSH2 0x1775 JUMPI PUSH2 0x1775 PUSH2 0x3C6F JUMP JUMPDEST EQ JUMPDEST ISZERO PUSH2 0x1784 JUMPI POP PUSH1 0x11 PUSH2 0x3C3F JUMP JUMPDEST PUSH1 0x16 PUSH2 0xCD3 JUMP JUMPDEST PUSH1 0x4 SLOAD PUSH1 0xFF AND PUSH1 0xA EQ ISZERO PUSH2 0x18D0 JUMPI PUSH1 0x1 DUP3 PUSH1 0x80 DUP2 GT ISZERO PUSH2 0x17AD JUMPI PUSH2 0x17AD PUSH2 0x3C6F JUMP JUMPDEST EQ DUP1 PUSH2 0x17CA JUMPI POP PUSH1 0x2 DUP3 PUSH1 0x80 DUP2 GT ISZERO PUSH2 0x17C8 JUMPI PUSH2 0x17C8 PUSH2 0x3C6F JUMP JUMPDEST EQ JUMPDEST DUP1 PUSH2 0x17E6 JUMPI POP PUSH1 0x5 DUP3 PUSH1 0x80 DUP2 GT ISZERO PUSH2 0x17E4 JUMPI PUSH2 0x17E4 PUSH2 0x3C6F JUMP JUMPDEST EQ JUMPDEST ISZERO PUSH2 0x17F3 JUMPI POP PUSH1 0x1 PUSH2 0x3C3F JUMP JUMPDEST PUSH1 0x9 DUP3 PUSH1 0x80 DUP2 GT ISZERO PUSH2 0x1807 JUMPI PUSH2 0x1807 PUSH2 0x3C6F JUMP JUMPDEST EQ DUP1 PUSH2 0x1824 JUMPI POP PUSH1 0x6 DUP3 PUSH1 0x80 DUP2 GT ISZERO PUSH2 0x1822 JUMPI PUSH2 0x1822 PUSH2 0x3C6F JUMP JUMPDEST EQ JUMPDEST ISZERO PUSH2 0x1831 JUMPI POP PUSH1 0x2 PUSH2 0x3C3F JUMP JUMPDEST PUSH1 0x6F DUP3 PUSH1 0x80 DUP2 GT ISZERO PUSH2 0x1845 JUMPI PUSH2 0x1845 PUSH2 0x3C6F JUMP JUMPDEST EQ DUP1 PUSH2 0x1862 JUMPI POP PUSH1 0x71 DUP3 PUSH1 0x80 DUP2 GT ISZERO PUSH2 0x1860 JUMPI PUSH2 0x1860 PUSH2 0x3C6F JUMP JUMPDEST EQ JUMPDEST ISZERO PUSH2 0x186F JUMPI POP PUSH1 0x8 PUSH2 0x3C3F JUMP JUMPDEST PUSH1 0x3D DUP3 PUSH1 0x80 DUP2 GT ISZERO PUSH2 0x1883 JUMPI PUSH2 0x1883 PUSH2 0x3C6F JUMP JUMPDEST EQ DUP1 PUSH2 0x18A0 JUMPI POP PUSH1 0x41 DUP3 PUSH1 0x80 DUP2 GT ISZERO PUSH2 0x189E JUMPI PUSH2 0x189E PUSH2 0x3C6F JUMP JUMPDEST EQ JUMPDEST DUP1 PUSH2 0x18BC JUMPI POP PUSH1 0x42 DUP3 PUSH1 0x80 DUP2 GT ISZERO PUSH2 0x18BA JUMPI PUSH2 0x18BA PUSH2 0x3C6F JUMP JUMPDEST EQ JUMPDEST ISZERO PUSH2 0x18C9 JUMPI POP PUSH1 0x11 PUSH2 0x3C3F JUMP JUMPDEST PUSH1 0x17 PUSH2 0xCD3 JUMP JUMPDEST PUSH1 0x4 SLOAD PUSH1 0xFF AND PUSH1 0xB EQ ISZERO PUSH2 0x1A69 JUMPI PUSH1 0x1 DUP3 PUSH1 0x80 DUP2 GT ISZERO PUSH2 0x18F2 JUMPI PUSH2 0x18F2 PUSH2 0x3C6F JUMP JUMPDEST EQ DUP1 PUSH2 0x190F JUMPI POP PUSH1 0x3 DUP3 PUSH1 0x80 DUP2 GT ISZERO PUSH2 0x190D JUMPI PUSH2 0x190D PUSH2 0x3C6F JUMP JUMPDEST EQ JUMPDEST DUP1 PUSH2 0x192B JUMPI POP PUSH1 0x5 DUP3 PUSH1 0x80 DUP2 GT ISZERO PUSH2 0x1929 JUMPI PUSH2 0x1929 PUSH2 0x3C6F JUMP JUMPDEST EQ JUMPDEST ISZERO PUSH2 0x1938 JUMPI POP PUSH1 0x1 PUSH2 0x3C3F JUMP JUMPDEST PUSH1 0x9 DUP3 PUSH1 0x80 DUP2 GT ISZERO PUSH2 0x194C JUMPI PUSH2 0x194C PUSH2 0x3C6F JUMP JUMPDEST EQ DUP1 PUSH2 0x1969 JUMPI POP PUSH1 0x7 DUP3 PUSH1 0x80 DUP2 GT ISZERO PUSH2 0x1967 JUMPI PUSH2 0x1967 PUSH2 0x3C6F JUMP JUMPDEST EQ JUMPDEST ISZERO PUSH2 0x1976 JUMPI POP PUSH1 0x2 PUSH2 0x3C3F JUMP JUMPDEST PUSH1 0x6F DUP3 PUSH1 0x80 DUP2 GT ISZERO PUSH2 0x198A JUMPI PUSH2 0x198A PUSH2 0x3C6F JUMP JUMPDEST EQ DUP1 PUSH2 0x19A7 JUMPI POP PUSH1 0x70 DUP3 PUSH1 0x80 DUP2 GT ISZERO PUSH2 0x19A5 JUMPI PUSH2 0x19A5 PUSH2 0x3C6F JUMP JUMPDEST EQ JUMPDEST DUP1 PUSH2 0x19C3 JUMPI POP PUSH1 0x71 DUP3 PUSH1 0x80 DUP2 GT ISZERO PUSH2 0x19C1 JUMPI PUSH2 0x19C1 PUSH2 0x3C6F JUMP JUMPDEST EQ JUMPDEST DUP1 PUSH2 0x19DF JUMPI POP PUSH1 0x72 DUP3 PUSH1 0x80 DUP2 GT ISZERO PUSH2 0x19DD JUMPI PUSH2 0x19DD PUSH2 0x3C6F JUMP JUMPDEST EQ JUMPDEST ISZERO PUSH2 0x19EC JUMPI POP PUSH1 0x8 PUSH2 0x3C3F JUMP JUMPDEST PUSH1 0x3F DUP3 PUSH1 0x80 DUP2 GT ISZERO PUSH2 0x1A00 JUMPI PUSH2 0x1A00 PUSH2 0x3C6F JUMP JUMPDEST EQ DUP1 PUSH2 0x1A1D JUMPI POP PUSH1 0x41 DUP3 PUSH1 0x80 DUP2 GT ISZERO PUSH2 0x1A1B JUMPI PUSH2 0x1A1B PUSH2 0x3C6F JUMP JUMPDEST EQ JUMPDEST DUP1 PUSH2 0x1A39 JUMPI POP PUSH1 0x43 DUP3 PUSH1 0x80 DUP2 GT ISZERO PUSH2 0x1A37 JUMPI PUSH2 0x1A37 PUSH2 0x3C6F JUMP JUMPDEST EQ JUMPDEST DUP1 PUSH2 0x1A55 JUMPI POP PUSH1 0x44 DUP3 PUSH1 0x80 DUP2 GT ISZERO PUSH2 0x1A53 JUMPI PUSH2 0x1A53 PUSH2 0x3C6F JUMP JUMPDEST EQ JUMPDEST ISZERO PUSH2 0x1A62 JUMPI POP PUSH1 0x11 PUSH2 0x3C3F JUMP JUMPDEST PUSH1 0x18 PUSH2 0xCD3 JUMP JUMPDEST PUSH1 0x4 SLOAD PUSH1 0xFF AND PUSH1 0xC EQ ISZERO PUSH2 0x1BAE JUMPI PUSH1 0x0 DUP3 PUSH1 0x80 DUP2 GT ISZERO PUSH2 0x1A8B JUMPI PUSH2 0x1A8B PUSH2 0x3C6F JUMP JUMPDEST EQ DUP1 PUSH2 0x1AA8 JUMPI POP PUSH1 0x2 DUP3 PUSH1 0x80 DUP2 GT ISZERO PUSH2 0x1AA6 JUMPI PUSH2 0x1AA6 PUSH2 0x3C6F JUMP JUMPDEST EQ JUMPDEST DUP1 PUSH2 0x1AC4 JUMPI POP PUSH1 0x5 DUP3 PUSH1 0x80 DUP2 GT ISZERO PUSH2 0x1AC2 JUMPI PUSH2 0x1AC2 PUSH2 0x3C6F JUMP JUMPDEST EQ JUMPDEST ISZERO PUSH2 0x1AD1 JUMPI POP PUSH1 0x1 PUSH2 0x3C3F JUMP JUMPDEST PUSH1 0x9 DUP3 PUSH1 0x80 DUP2 GT ISZERO PUSH2 0x1AE5 JUMPI PUSH2 0x1AE5 PUSH2 0x3C6F JUMP JUMPDEST EQ DUP1 PUSH2 0x1B02 JUMPI POP PUSH1 0x8 DUP3 PUSH1 0x80 DUP2 GT ISZERO PUSH2 0x1B00 JUMPI PUSH2 0x1B00 PUSH2 0x3C6F JUMP JUMPDEST EQ JUMPDEST ISZERO PUSH2 0x1B0F JUMPI POP PUSH1 0x2 PUSH2 0x3C3F JUMP JUMPDEST PUSH1 0x70 DUP3 PUSH1 0x80 DUP2 GT ISZERO PUSH2 0x1B23 JUMPI PUSH2 0x1B23 PUSH2 0x3C6F JUMP JUMPDEST EQ DUP1 PUSH2 0x1B40 JUMPI POP PUSH1 0x72 DUP3 PUSH1 0x80 DUP2 GT ISZERO PUSH2 0x1B3E JUMPI PUSH2 0x1B3E PUSH2 0x3C6F JUMP JUMPDEST EQ JUMPDEST ISZERO PUSH2 0x1B4D JUMPI POP PUSH1 0x8 PUSH2 0x3C3F JUMP JUMPDEST PUSH1 0x40 DUP3 PUSH1 0x80 DUP2 GT ISZERO PUSH2 0x1B61 JUMPI PUSH2 0x1B61 PUSH2 0x3C6F JUMP JUMPDEST EQ DUP1 PUSH2 0x1B7E JUMPI POP PUSH1 0x43 DUP3 PUSH1 0x80 DUP2 GT ISZERO PUSH2 0x1B7C JUMPI PUSH2 0x1B7C PUSH2 0x3C6F JUMP JUMPDEST EQ JUMPDEST DUP1 PUSH2 0x1B9A JUMPI POP PUSH1 0x45 DUP3 PUSH1 0x80 DUP2 GT ISZERO PUSH2 0x1B98 JUMPI PUSH2 0x1B98 PUSH2 0x3C6F JUMP JUMPDEST EQ JUMPDEST ISZERO PUSH2 0x1BA7 JUMPI POP PUSH1 0x11 PUSH2 0x3C3F JUMP JUMPDEST PUSH1 0x19 PUSH2 0xCD3 JUMP JUMPDEST PUSH1 0x4 SLOAD PUSH1 0xFF AND PUSH1 0xD EQ ISZERO PUSH2 0x1CF3 JUMPI PUSH1 0x1 DUP3 PUSH1 0x80 DUP2 GT ISZERO PUSH2 0x1BD0 JUMPI PUSH2 0x1BD0 PUSH2 0x3C6F JUMP JUMPDEST EQ DUP1 PUSH2 0x1BED JUMPI POP PUSH1 0x3 DUP3 PUSH1 0x80 DUP2 GT ISZERO PUSH2 0x1BEB JUMPI PUSH2 0x1BEB PUSH2 0x3C6F JUMP JUMPDEST EQ JUMPDEST DUP1 PUSH2 0x1C09 JUMPI POP PUSH1 0x5 DUP3 PUSH1 0x80 DUP2 GT ISZERO PUSH2 0x1C07 JUMPI PUSH2 0x1C07 PUSH2 0x3C6F JUMP JUMPDEST EQ JUMPDEST ISZERO PUSH2 0x1C16 JUMPI POP PUSH1 0x1 PUSH2 0x3C3F JUMP JUMPDEST PUSH1 0xA DUP3 PUSH1 0x80 DUP2 GT ISZERO PUSH2 0x1C2A JUMPI PUSH2 0x1C2A PUSH2 0x3C6F JUMP JUMPDEST EQ DUP1 PUSH2 0x1C47 JUMPI POP PUSH1 0x6 DUP3 PUSH1 0x80 DUP2 GT ISZERO PUSH2 0x1C45 JUMPI PUSH2 0x1C45 PUSH2 0x3C6F JUMP JUMPDEST EQ JUMPDEST ISZERO PUSH2 0x1C54 JUMPI POP PUSH1 0x2 PUSH2 0x3C3F JUMP JUMPDEST PUSH1 0x71 DUP3 PUSH1 0x80 DUP2 GT ISZERO PUSH2 0x1C68 JUMPI PUSH2 0x1C68 PUSH2 0x3C6F JUMP JUMPDEST EQ DUP1 PUSH2 0x1C85 JUMPI POP PUSH1 0x73 DUP3 PUSH1 0x80 DUP2 GT ISZERO PUSH2 0x1C83 JUMPI PUSH2 0x1C83 PUSH2 0x3C6F JUMP JUMPDEST EQ JUMPDEST ISZERO PUSH2 0x1C92 JUMPI POP PUSH1 0x8 PUSH2 0x3C3F JUMP JUMPDEST PUSH1 0x42 DUP3 PUSH1 0x80 DUP2 GT ISZERO PUSH2 0x1CA6 JUMPI PUSH2 0x1CA6 PUSH2 0x3C6F JUMP JUMPDEST EQ DUP1 PUSH2 0x1CC3 JUMPI POP PUSH1 0x46 DUP3 PUSH1 0x80 DUP2 GT ISZERO PUSH2 0x1CC1 JUMPI PUSH2 0x1CC1 PUSH2 0x3C6F JUMP JUMPDEST EQ JUMPDEST DUP1 PUSH2 0x1CDF JUMPI POP PUSH1 0x47 DUP3 PUSH1 0x80 DUP2 GT ISZERO PUSH2 0x1CDD JUMPI PUSH2 0x1CDD PUSH2 0x3C6F JUMP JUMPDEST EQ JUMPDEST ISZERO PUSH2 0x1CEC JUMPI POP PUSH1 0x11 PUSH2 0x3C3F JUMP JUMPDEST PUSH1 0x1A PUSH2 0xCD3 JUMP JUMPDEST PUSH1 0x4 SLOAD PUSH1 0xFF AND PUSH1 0xE EQ ISZERO PUSH2 0x1E8C JUMPI PUSH1 0x0 DUP3 PUSH1 0x80 DUP2 GT ISZERO PUSH2 0x1D15 JUMPI PUSH2 0x1D15 PUSH2 0x3C6F JUMP JUMPDEST EQ DUP1 PUSH2 0x1D32 JUMPI POP PUSH1 0x2 DUP3 PUSH1 0x80 DUP2 GT ISZERO PUSH2 0x1D30 JUMPI PUSH2 0x1D30 PUSH2 0x3C6F JUMP JUMPDEST EQ JUMPDEST DUP1 PUSH2 0x1D4E JUMPI POP PUSH1 0x5 DUP3 PUSH1 0x80 DUP2 GT ISZERO PUSH2 0x1D4C JUMPI PUSH2 0x1D4C PUSH2 0x3C6F JUMP JUMPDEST EQ JUMPDEST ISZERO PUSH2 0x1D5B JUMPI POP PUSH1 0x1 PUSH2 0x3C3F JUMP JUMPDEST PUSH1 0xA DUP3 PUSH1 0x80 DUP2 GT ISZERO PUSH2 0x1D6F JUMPI PUSH2 0x1D6F PUSH2 0x3C6F JUMP JUMPDEST EQ DUP1 PUSH2 0x1D8C JUMPI POP PUSH1 0x7 DUP3 PUSH1 0x80 DUP2 GT ISZERO PUSH2 0x1D8A JUMPI PUSH2 0x1D8A PUSH2 0x3C6F JUMP JUMPDEST EQ JUMPDEST ISZERO PUSH2 0x1D99 JUMPI POP PUSH1 0x2 PUSH2 0x3C3F JUMP JUMPDEST PUSH1 0x71 DUP3 PUSH1 0x80 DUP2 GT ISZERO PUSH2 0x1DAD JUMPI PUSH2 0x1DAD PUSH2 0x3C6F JUMP JUMPDEST EQ DUP1 PUSH2 0x1DCA JUMPI POP PUSH1 0x72 DUP3 PUSH1 0x80 DUP2 GT ISZERO PUSH2 0x1DC8 JUMPI PUSH2 0x1DC8 PUSH2 0x3C6F JUMP JUMPDEST EQ JUMPDEST DUP1 PUSH2 0x1DE6 JUMPI POP PUSH1 0x73 DUP3 PUSH1 0x80 DUP2 GT ISZERO PUSH2 0x1DE4 JUMPI PUSH2 0x1DE4 PUSH2 0x3C6F JUMP JUMPDEST EQ JUMPDEST DUP1 PUSH2 0x1E02 JUMPI POP PUSH1 0x74 DUP3 PUSH1 0x80 DUP2 GT ISZERO PUSH2 0x1E00 JUMPI PUSH2 0x1E00 PUSH2 0x3C6F JUMP JUMPDEST EQ JUMPDEST ISZERO PUSH2 0x1E0F JUMPI POP PUSH1 0x8 PUSH2 0x3C3F JUMP JUMPDEST PUSH1 0x44 DUP3 PUSH1 0x80 DUP2 GT ISZERO PUSH2 0x1E23 JUMPI PUSH2 0x1E23 PUSH2 0x3C6F JUMP JUMPDEST EQ DUP1 PUSH2 0x1E40 JUMPI POP PUSH1 0x46 DUP3 PUSH1 0x80 DUP2 GT ISZERO PUSH2 0x1E3E JUMPI PUSH2 0x1E3E PUSH2 0x3C6F JUMP JUMPDEST EQ JUMPDEST DUP1 PUSH2 0x1E5C JUMPI POP PUSH1 0x48 DUP3 PUSH1 0x80 DUP2 GT ISZERO PUSH2 0x1E5A JUMPI PUSH2 0x1E5A PUSH2 0x3C6F JUMP JUMPDEST EQ JUMPDEST DUP1 PUSH2 0x1E78 JUMPI POP PUSH1 0x49 DUP3 PUSH1 0x80 DUP2 GT ISZERO PUSH2 0x1E76 JUMPI PUSH2 0x1E76 PUSH2 0x3C6F JUMP JUMPDEST EQ JUMPDEST ISZERO PUSH2 0x1E85 JUMPI POP PUSH1 0x11 PUSH2 0x3C3F JUMP JUMPDEST PUSH1 0x1B PUSH2 0xCD3 JUMP JUMPDEST PUSH1 0x4 SLOAD PUSH1 0xFF AND PUSH1 0xF EQ ISZERO PUSH2 0x1FD1 JUMPI PUSH1 0x1 DUP3 PUSH1 0x80 DUP2 GT ISZERO PUSH2 0x1EAE JUMPI PUSH2 0x1EAE PUSH2 0x3C6F JUMP JUMPDEST EQ DUP1 PUSH2 0x1ECB JUMPI POP PUSH1 0x3 DUP3 PUSH1 0x80 DUP2 GT ISZERO PUSH2 0x1EC9 JUMPI PUSH2 0x1EC9 PUSH2 0x3C6F JUMP JUMPDEST EQ JUMPDEST DUP1 PUSH2 0x1EE7 JUMPI POP PUSH1 0x5 DUP3 PUSH1 0x80 DUP2 GT ISZERO PUSH2 0x1EE5 JUMPI PUSH2 0x1EE5 PUSH2 0x3C6F JUMP JUMPDEST EQ JUMPDEST ISZERO PUSH2 0x1EF4 JUMPI POP PUSH1 0x1 PUSH2 0x3C3F JUMP JUMPDEST PUSH1 0xA DUP3 PUSH1 0x80 DUP2 GT ISZERO PUSH2 0x1F08 JUMPI PUSH2 0x1F08 PUSH2 0x3C6F JUMP JUMPDEST EQ DUP1 PUSH2 0x1F25 JUMPI POP PUSH1 0x8 DUP3 PUSH1 0x80 DUP2 GT ISZERO PUSH2 0x1F23 JUMPI PUSH2 0x1F23 PUSH2 0x3C6F JUMP JUMPDEST EQ JUMPDEST ISZERO PUSH2 0x1F32 JUMPI POP PUSH1 0x2 PUSH2 0x3C3F JUMP JUMPDEST PUSH1 0x72 DUP3 PUSH1 0x80 DUP2 GT ISZERO PUSH2 0x1F46 JUMPI PUSH2 0x1F46 PUSH2 0x3C6F JUMP JUMPDEST EQ DUP1 PUSH2 0x1F63 JUMPI POP PUSH1 0x74 DUP3 PUSH1 0x80 DUP2 GT ISZERO PUSH2 0x1F61 JUMPI PUSH2 0x1F61 PUSH2 0x3C6F JUMP JUMPDEST EQ JUMPDEST ISZERO PUSH2 0x1F70 JUMPI POP PUSH1 0x8 PUSH2 0x3C3F JUMP JUMPDEST PUSH1 0x45 DUP3 PUSH1 0x80 DUP2 GT ISZERO PUSH2 0x1F84 JUMPI PUSH2 0x1F84 PUSH2 0x3C6F JUMP JUMPDEST EQ DUP1 PUSH2 0x1FA1 JUMPI POP PUSH1 0x48 DUP3 PUSH1 0x80 DUP2 GT ISZERO PUSH2 0x1F9F JUMPI PUSH2 0x1F9F PUSH2 0x3C6F JUMP JUMPDEST EQ JUMPDEST DUP1 PUSH2 0x1FBD JUMPI POP PUSH1 0x4A DUP3 PUSH1 0x80 DUP2 GT ISZERO PUSH2 0x1FBB JUMPI PUSH2 0x1FBB PUSH2 0x3C6F JUMP JUMPDEST EQ JUMPDEST ISZERO PUSH2 0x1FCA JUMPI POP PUSH1 0x11 PUSH2 0x3C3F JUMP JUMPDEST PUSH1 0x1C PUSH2 0xCD3 JUMP JUMPDEST PUSH1 0x4 SLOAD PUSH1 0xFF AND PUSH1 0x10 EQ ISZERO PUSH2 0x2116 JUMPI PUSH1 0x0 DUP3 PUSH1 0x80 DUP2 GT ISZERO PUSH2 0x1FF3 JUMPI PUSH2 0x1FF3 PUSH2 0x3C6F JUMP JUMPDEST EQ DUP1 PUSH2 0x2010 JUMPI POP PUSH1 0x2 DUP3 PUSH1 0x80 DUP2 GT ISZERO PUSH2 0x200E JUMPI PUSH2 0x200E PUSH2 0x3C6F JUMP JUMPDEST EQ JUMPDEST DUP1 PUSH2 0x202C JUMPI POP PUSH1 0x5 DUP3 PUSH1 0x80 DUP2 GT ISZERO PUSH2 0x202A JUMPI PUSH2 0x202A PUSH2 0x3C6F JUMP JUMPDEST EQ JUMPDEST ISZERO PUSH2 0x2039 JUMPI POP PUSH1 0x1 PUSH2 0x3C3F JUMP JUMPDEST PUSH1 0xA DUP3 PUSH1 0x80 DUP2 GT ISZERO PUSH2 0x204D JUMPI PUSH2 0x204D PUSH2 0x3C6F JUMP JUMPDEST EQ DUP1 PUSH2 0x206A JUMPI POP PUSH1 0x6 DUP3 PUSH1 0x80 DUP2 GT ISZERO PUSH2 0x2068 JUMPI PUSH2 0x2068 PUSH2 0x3C6F JUMP JUMPDEST EQ JUMPDEST ISZERO PUSH2 0x2077 JUMPI POP PUSH1 0x2 PUSH2 0x3C3F JUMP JUMPDEST PUSH1 0x73 DUP3 PUSH1 0x80 DUP2 GT ISZERO PUSH2 0x208B JUMPI PUSH2 0x208B PUSH2 0x3C6F JUMP JUMPDEST EQ DUP1 PUSH2 0x20A8 JUMPI POP PUSH1 0x75 DUP3 PUSH1 0x80 DUP2 GT ISZERO PUSH2 0x20A6 JUMPI PUSH2 0x20A6 PUSH2 0x3C6F JUMP JUMPDEST EQ JUMPDEST ISZERO PUSH2 0x20B5 JUMPI POP PUSH1 0x8 PUSH2 0x3C3F JUMP JUMPDEST PUSH1 0x47 DUP3 PUSH1 0x80 DUP2 GT ISZERO PUSH2 0x20C9 JUMPI PUSH2 0x20C9 PUSH2 0x3C6F JUMP JUMPDEST EQ DUP1 PUSH2 0x20E6 JUMPI POP PUSH1 0x4B DUP3 PUSH1 0x80 DUP2 GT ISZERO PUSH2 0x20E4 JUMPI PUSH2 0x20E4 PUSH2 0x3C6F JUMP JUMPDEST EQ JUMPDEST DUP1 PUSH2 0x2102 JUMPI POP PUSH1 0x4C DUP3 PUSH1 0x80 DUP2 GT ISZERO PUSH2 0x2100 JUMPI PUSH2 0x2100 PUSH2 0x3C6F JUMP JUMPDEST EQ JUMPDEST ISZERO PUSH2 0x210F JUMPI POP PUSH1 0x11 PUSH2 0x3C3F JUMP JUMPDEST PUSH1 0x1D PUSH2 0xCD3 JUMP JUMPDEST PUSH1 0x4 SLOAD PUSH1 0xFF AND PUSH1 0x11 EQ ISZERO PUSH2 0x22AF JUMPI PUSH1 0x1 DUP3 PUSH1 0x80 DUP2 GT ISZERO PUSH2 0x2138 JUMPI PUSH2 0x2138 PUSH2 0x3C6F JUMP JUMPDEST EQ DUP1 PUSH2 0x2155 JUMPI POP PUSH1 0x3 DUP3 PUSH1 0x80 DUP2 GT ISZERO PUSH2 0x2153 JUMPI PUSH2 0x2153 PUSH2 0x3C6F JUMP JUMPDEST EQ JUMPDEST DUP1 PUSH2 0x2171 JUMPI POP PUSH1 0x5 DUP3 PUSH1 0x80 DUP2 GT ISZERO PUSH2 0x216F JUMPI PUSH2 0x216F PUSH2 0x3C6F JUMP JUMPDEST EQ JUMPDEST ISZERO PUSH2 0x217E JUMPI POP PUSH1 0x1 PUSH2 0x3C3F JUMP JUMPDEST PUSH1 0xA DUP3 PUSH1 0x80 DUP2 GT ISZERO PUSH2 0x2192 JUMPI PUSH2 0x2192 PUSH2 0x3C6F JUMP JUMPDEST EQ DUP1 PUSH2 0x21AF JUMPI POP PUSH1 0x7 DUP3 PUSH1 0x80 DUP2 GT ISZERO PUSH2 0x21AD JUMPI PUSH2 0x21AD PUSH2 0x3C6F JUMP JUMPDEST EQ JUMPDEST ISZERO PUSH2 0x21BC JUMPI POP PUSH1 0x2 PUSH2 0x3C3F JUMP JUMPDEST PUSH1 0x73 DUP3 PUSH1 0x80 DUP2 GT ISZERO PUSH2 0x21D0 JUMPI PUSH2 0x21D0 PUSH2 0x3C6F JUMP JUMPDEST EQ DUP1 PUSH2 0x21ED JUMPI POP PUSH1 0x74 DUP3 PUSH1 0x80 DUP2 GT ISZERO PUSH2 0x21EB JUMPI PUSH2 0x21EB PUSH2 0x3C6F JUMP JUMPDEST EQ JUMPDEST DUP1 PUSH2 0x2209 JUMPI POP PUSH1 0x75 DUP3 PUSH1 0x80 DUP2 GT ISZERO PUSH2 0x2207 JUMPI PUSH2 0x2207 PUSH2 0x3C6F JUMP JUMPDEST EQ JUMPDEST DUP1 PUSH2 0x2225 JUMPI POP PUSH1 0x76 DUP3 PUSH1 0x80 DUP2 GT ISZERO PUSH2 0x2223 JUMPI PUSH2 0x2223 PUSH2 0x3C6F JUMP JUMPDEST EQ JUMPDEST ISZERO PUSH2 0x2232 JUMPI POP PUSH1 0x8 PUSH2 0x3C3F JUMP JUMPDEST PUSH1 0x49 DUP3 PUSH1 0x80 DUP2 GT ISZERO PUSH2 0x2246 JUMPI PUSH2 0x2246 PUSH2 0x3C6F JUMP JUMPDEST EQ DUP1 PUSH2 0x2263 JUMPI POP PUSH1 0x4B DUP3 PUSH1 0x80 DUP2 GT ISZERO PUSH2 0x2261 JUMPI PUSH2 0x2261 PUSH2 0x3C6F JUMP JUMPDEST EQ JUMPDEST DUP1 PUSH2 0x227F JUMPI POP PUSH1 0x4D DUP3 PUSH1 0x80 DUP2 GT ISZERO PUSH2 0x227D JUMPI PUSH2 0x227D PUSH2 0x3C6F JUMP JUMPDEST EQ JUMPDEST DUP1 PUSH2 0x229B JUMPI POP PUSH1 0x4E DUP3 PUSH1 0x80 DUP2 GT ISZERO PUSH2 0x2299 JUMPI PUSH2 0x2299 PUSH2 0x3C6F JUMP JUMPDEST EQ JUMPDEST ISZERO PUSH2 0x22A8 JUMPI POP PUSH1 0x11 PUSH2 0x3C3F JUMP JUMPDEST PUSH1 0x1E PUSH2 0xCD3 JUMP JUMPDEST PUSH1 0x4 SLOAD PUSH1 0xFF AND PUSH1 0x12 EQ ISZERO PUSH2 0x23F4 JUMPI PUSH1 0x0 DUP3 PUSH1 0x80 DUP2 GT ISZERO PUSH2 0x22D1 JUMPI PUSH2 0x22D1 PUSH2 0x3C6F JUMP JUMPDEST EQ DUP1 PUSH2 0x22EE JUMPI POP PUSH1 0x2 DUP3 PUSH1 0x80 DUP2 GT ISZERO PUSH2 0x22EC JUMPI PUSH2 0x22EC PUSH2 0x3C6F JUMP JUMPDEST EQ JUMPDEST DUP1 PUSH2 0x230A JUMPI POP PUSH1 0x5 DUP3 PUSH1 0x80 DUP2 GT ISZERO PUSH2 0x2308 JUMPI PUSH2 0x2308 PUSH2 0x3C6F JUMP JUMPDEST EQ JUMPDEST ISZERO PUSH2 0x2317 JUMPI POP PUSH1 0x1 PUSH2 0x3C3F JUMP JUMPDEST PUSH1 0xA DUP3 PUSH1 0x80 DUP2 GT ISZERO PUSH2 0x232B JUMPI PUSH2 0x232B PUSH2 0x3C6F JUMP JUMPDEST EQ DUP1 PUSH2 0x2348 JUMPI POP PUSH1 0x8 DUP3 PUSH1 0x80 DUP2 GT ISZERO PUSH2 0x2346 JUMPI PUSH2 0x2346 PUSH2 0x3C6F JUMP JUMPDEST EQ JUMPDEST ISZERO PUSH2 0x2355 JUMPI POP PUSH1 0x2 PUSH2 0x3C3F JUMP JUMPDEST PUSH1 0x74 DUP3 PUSH1 0x80 DUP2 GT ISZERO PUSH2 0x2369 JUMPI PUSH2 0x2369 PUSH2 0x3C6F JUMP JUMPDEST EQ DUP1 PUSH2 0x2386 JUMPI POP PUSH1 0x76 DUP3 PUSH1 0x80 DUP2 GT ISZERO PUSH2 0x2384 JUMPI PUSH2 0x2384 PUSH2 0x3C6F JUMP JUMPDEST EQ JUMPDEST ISZERO PUSH2 0x2393 JUMPI POP PUSH1 0x8 PUSH2 0x3C3F JUMP JUMPDEST PUSH1 0x4A DUP3 PUSH1 0x80 DUP2 GT ISZERO PUSH2 0x23A7 JUMPI PUSH2 0x23A7 PUSH2 0x3C6F JUMP JUMPDEST EQ DUP1 PUSH2 0x23C4 JUMPI POP PUSH1 0x4D DUP3 PUSH1 0x80 DUP2 GT ISZERO PUSH2 0x23C2 JUMPI PUSH2 0x23C2 PUSH2 0x3C6F JUMP JUMPDEST EQ JUMPDEST DUP1 PUSH2 0x23E0 JUMPI POP PUSH1 0x4F DUP3 PUSH1 0x80 DUP2 GT ISZERO PUSH2 0x23DE JUMPI PUSH2 0x23DE PUSH2 0x3C6F JUMP JUMPDEST EQ JUMPDEST ISZERO PUSH2 0x23ED JUMPI POP PUSH1 0x11 PUSH2 0x3C3F JUMP JUMPDEST PUSH1 0x1F PUSH2 0xCD3 JUMP JUMPDEST PUSH1 0x4 SLOAD PUSH1 0xFF AND PUSH1 0x13 EQ ISZERO PUSH2 0x2539 JUMPI PUSH1 0x0 DUP3 PUSH1 0x80 DUP2 GT ISZERO PUSH2 0x2416 JUMPI PUSH2 0x2416 PUSH2 0x3C6F JUMP JUMPDEST EQ DUP1 PUSH2 0x2433 JUMPI POP PUSH1 0x3 DUP3 PUSH1 0x80 DUP2 GT ISZERO PUSH2 0x2431 JUMPI PUSH2 0x2431 PUSH2 0x3C6F JUMP JUMPDEST EQ JUMPDEST DUP1 PUSH2 0x244F JUMPI POP PUSH1 0x4 DUP3 PUSH1 0x80 DUP2 GT ISZERO PUSH2 0x244D JUMPI PUSH2 0x244D PUSH2 0x3C6F JUMP JUMPDEST EQ JUMPDEST ISZERO PUSH2 0x245C JUMPI POP PUSH1 0x1 PUSH2 0x3C3F JUMP JUMPDEST PUSH1 0xA DUP3 PUSH1 0x80 DUP2 GT ISZERO PUSH2 0x2470 JUMPI PUSH2 0x2470 PUSH2 0x3C6F JUMP JUMPDEST EQ DUP1 PUSH2 0x248D JUMPI POP PUSH1 0x6 DUP3 PUSH1 0x80 DUP2 GT ISZERO PUSH2 0x248B JUMPI PUSH2 0x248B PUSH2 0x3C6F JUMP JUMPDEST EQ JUMPDEST ISZERO PUSH2 0x249A JUMPI POP PUSH1 0x2 PUSH2 0x3C3F JUMP JUMPDEST PUSH1 0x75 DUP3 PUSH1 0x80 DUP2 GT ISZERO PUSH2 0x24AE JUMPI PUSH2 0x24AE PUSH2 0x3C6F JUMP JUMPDEST EQ DUP1 PUSH2 0x24CB JUMPI POP PUSH1 0x77 DUP3 PUSH1 0x80 DUP2 GT ISZERO PUSH2 0x24C9 JUMPI PUSH2 0x24C9 PUSH2 0x3C6F JUMP JUMPDEST EQ JUMPDEST ISZERO PUSH2 0x24D8 JUMPI POP PUSH1 0x8 PUSH2 0x3C3F JUMP JUMPDEST PUSH1 0x47 DUP3 PUSH1 0x80 DUP2 GT ISZERO PUSH2 0x24EC JUMPI PUSH2 0x24EC PUSH2 0x3C6F JUMP JUMPDEST EQ DUP1 PUSH2 0x2509 JUMPI POP PUSH1 0x4B DUP3 PUSH1 0x80 DUP2 GT ISZERO PUSH2 0x2507 JUMPI PUSH2 0x2507 PUSH2 0x3C6F JUMP JUMPDEST EQ JUMPDEST DUP1 PUSH2 0x2525 JUMPI POP PUSH1 0x4C DUP3 PUSH1 0x80 DUP2 GT ISZERO PUSH2 0x2523 JUMPI PUSH2 0x2523 PUSH2 0x3C6F JUMP JUMPDEST EQ JUMPDEST ISZERO PUSH2 0x2532 JUMPI POP PUSH1 0x11 PUSH2 0x3C3F JUMP JUMPDEST PUSH1 0x20 PUSH2 0xCD3 JUMP JUMPDEST PUSH1 0x4 SLOAD PUSH1 0xFF AND PUSH1 0x14 EQ ISZERO PUSH2 0x26D2 JUMPI PUSH1 0x1 DUP3 PUSH1 0x80 DUP2 GT ISZERO PUSH2 0x255B JUMPI PUSH2 0x255B PUSH2 0x3C6F JUMP JUMPDEST EQ DUP1 PUSH2 0x2578 JUMPI POP PUSH1 0x2 DUP3 PUSH1 0x80 DUP2 GT ISZERO PUSH2 0x2576 JUMPI PUSH2 0x2576 PUSH2 0x3C6F JUMP JUMPDEST EQ JUMPDEST DUP1 PUSH2 0x2594 JUMPI POP PUSH1 0x4 DUP3 PUSH1 0x80 DUP2 GT ISZERO PUSH2 0x2592 JUMPI PUSH2 0x2592 PUSH2 0x3C6F JUMP JUMPDEST EQ JUMPDEST ISZERO PUSH2 0x25A1 JUMPI POP PUSH1 0x1 PUSH2 0x3C3F JUMP JUMPDEST PUSH1 0xA DUP3 PUSH1 0x80 DUP2 GT ISZERO PUSH2 0x25B5 JUMPI PUSH2 0x25B5 PUSH2 0x3C6F JUMP JUMPDEST EQ DUP1 PUSH2 0x25D2 JUMPI POP PUSH1 0x7 DUP3 PUSH1 0x80 DUP2 GT ISZERO PUSH2 0x25D0 JUMPI PUSH2 0x25D0 PUSH2 0x3C6F JUMP JUMPDEST EQ JUMPDEST ISZERO PUSH2 0x25DF JUMPI POP PUSH1 0x2 PUSH2 0x3C3F JUMP JUMPDEST PUSH1 0x75 DUP3 PUSH1 0x80 DUP2 GT ISZERO PUSH2 0x25F3 JUMPI PUSH2 0x25F3 PUSH2 0x3C6F JUMP JUMPDEST EQ DUP1 PUSH2 0x2610 JUMPI POP PUSH1 0x76 DUP3 PUSH1 0x80 DUP2 GT ISZERO PUSH2 0x260E JUMPI PUSH2 0x260E PUSH2 0x3C6F JUMP JUMPDEST EQ JUMPDEST DUP1 PUSH2 0x262C JUMPI POP PUSH1 0x77 DUP3 PUSH1 0x80 DUP2 GT ISZERO PUSH2 0x262A JUMPI PUSH2 0x262A PUSH2 0x3C6F JUMP JUMPDEST EQ JUMPDEST DUP1 PUSH2 0x2648 JUMPI POP PUSH1 0x78 DUP3 PUSH1 0x80 DUP2 GT ISZERO PUSH2 0x2646 JUMPI PUSH2 0x2646 PUSH2 0x3C6F JUMP JUMPDEST EQ JUMPDEST ISZERO PUSH2 0x2655 JUMPI POP PUSH1 0x8 PUSH2 0x3C3F JUMP JUMPDEST PUSH1 0x4E DUP3 PUSH1 0x80 DUP2 GT ISZERO PUSH2 0x2669 JUMPI PUSH2 0x2669 PUSH2 0x3C6F JUMP JUMPDEST EQ DUP1 PUSH2 0x2686 JUMPI POP PUSH1 0x50 DUP3 PUSH1 0x80 DUP2 GT ISZERO PUSH2 0x2684 JUMPI PUSH2 0x2684 PUSH2 0x3C6F JUMP JUMPDEST EQ JUMPDEST DUP1 PUSH2 0x26A2 JUMPI POP PUSH1 0x52 DUP3 PUSH1 0x80 DUP2 GT ISZERO PUSH2 0x26A0 JUMPI PUSH2 0x26A0 PUSH2 0x3C6F JUMP JUMPDEST EQ JUMPDEST DUP1 PUSH2 0x26BE JUMPI POP PUSH1 0x53 DUP3 PUSH1 0x80 DUP2 GT ISZERO PUSH2 0x26BC JUMPI PUSH2 0x26BC PUSH2 0x3C6F JUMP JUMPDEST EQ JUMPDEST ISZERO PUSH2 0x26CB JUMPI POP PUSH1 0x11 PUSH2 0x3C3F JUMP JUMPDEST PUSH1 0x21 PUSH2 0xCD3 JUMP JUMPDEST PUSH1 0x4 SLOAD PUSH1 0xFF AND PUSH1 0x15 EQ ISZERO PUSH2 0x2817 JUMPI PUSH1 0x0 DUP3 PUSH1 0x80 DUP2 GT ISZERO PUSH2 0x26F4 JUMPI PUSH2 0x26F4 PUSH2 0x3C6F JUMP JUMPDEST EQ DUP1 PUSH2 0x2711 JUMPI POP PUSH1 0x3 DUP3 PUSH1 0x80 DUP2 GT ISZERO PUSH2 0x270F JUMPI PUSH2 0x270F PUSH2 0x3C6F JUMP JUMPDEST EQ JUMPDEST DUP1 PUSH2 0x272D JUMPI POP PUSH1 0x4 DUP3 PUSH1 0x80 DUP2 GT ISZERO PUSH2 0x272B JUMPI PUSH2 0x272B PUSH2 0x3C6F JUMP JUMPDEST EQ JUMPDEST ISZERO PUSH2 0x273A JUMPI POP PUSH1 0x1 PUSH2 0x3C3F JUMP JUMPDEST PUSH1 0xA DUP3 PUSH1 0x80 DUP2 GT ISZERO PUSH2 0x274E JUMPI PUSH2 0x274E PUSH2 0x3C6F JUMP JUMPDEST EQ DUP1 PUSH2 0x276B JUMPI POP PUSH1 0x8 DUP3 PUSH1 0x80 DUP2 GT ISZERO PUSH2 0x2769 JUMPI PUSH2 0x2769 PUSH2 0x3C6F JUMP JUMPDEST EQ JUMPDEST ISZERO PUSH2 0x2778 JUMPI POP PUSH1 0x2 PUSH2 0x3C3F JUMP JUMPDEST PUSH1 0x76 DUP3 PUSH1 0x80 DUP2 GT ISZERO PUSH2 0x278C JUMPI PUSH2 0x278C PUSH2 0x3C6F JUMP JUMPDEST EQ DUP1 PUSH2 0x27A9 JUMPI POP PUSH1 0x78 DUP3 PUSH1 0x80 DUP2 GT ISZERO PUSH2 0x27A7 JUMPI PUSH2 0x27A7 PUSH2 0x3C6F JUMP JUMPDEST EQ JUMPDEST ISZERO PUSH2 0x27B6 JUMPI POP PUSH1 0x8 PUSH2 0x3C3F JUMP JUMPDEST PUSH1 0x4F DUP3 PUSH1 0x80 DUP2 GT ISZERO PUSH2 0x27CA JUMPI PUSH2 0x27CA PUSH2 0x3C6F JUMP JUMPDEST EQ DUP1 PUSH2 0x27E7 JUMPI POP PUSH1 0x52 DUP3 PUSH1 0x80 DUP2 GT ISZERO PUSH2 0x27E5 JUMPI PUSH2 0x27E5 PUSH2 0x3C6F JUMP JUMPDEST EQ JUMPDEST DUP1 PUSH2 0x2803 JUMPI POP PUSH1 0x54 DUP3 PUSH1 0x80 DUP2 GT ISZERO PUSH2 0x2801 JUMPI PUSH2 0x2801 PUSH2 0x3C6F JUMP JUMPDEST EQ JUMPDEST ISZERO PUSH2 0x2810 JUMPI POP PUSH1 0x11 PUSH2 0x3C3F JUMP JUMPDEST PUSH1 0x22 PUSH2 0xCD3 JUMP JUMPDEST PUSH1 0x4 SLOAD PUSH1 0xFF AND PUSH1 0x16 EQ ISZERO PUSH2 0x295C JUMPI PUSH1 0x1 DUP3 PUSH1 0x80 DUP2 GT ISZERO PUSH2 0x2839 JUMPI PUSH2 0x2839 PUSH2 0x3C6F JUMP JUMPDEST EQ DUP1 PUSH2 0x2856 JUMPI POP PUSH1 0x2 DUP3 PUSH1 0x80 DUP2 GT ISZERO PUSH2 0x2854 JUMPI PUSH2 0x2854 PUSH2 0x3C6F JUMP JUMPDEST EQ JUMPDEST DUP1 PUSH2 0x2872 JUMPI POP PUSH1 0x4 DUP3 PUSH1 0x80 DUP2 GT ISZERO PUSH2 0x2870 JUMPI PUSH2 0x2870 PUSH2 0x3C6F JUMP JUMPDEST EQ JUMPDEST ISZERO PUSH2 0x287F JUMPI POP PUSH1 0x1 PUSH2 0x3C3F JUMP JUMPDEST PUSH1 0xA DUP3 PUSH1 0x80 DUP2 GT ISZERO PUSH2 0x2893 JUMPI PUSH2 0x2893 PUSH2 0x3C6F JUMP JUMPDEST EQ DUP1 PUSH2 0x28B0 JUMPI POP PUSH1 0x6 DUP3 PUSH1 0x80 DUP2 GT ISZERO PUSH2 0x28AE JUMPI PUSH2 0x28AE PUSH2 0x3C6F JUMP JUMPDEST EQ JUMPDEST ISZERO PUSH2 0x28BD JUMPI POP PUSH1 0x2 PUSH2 0x3C3F JUMP JUMPDEST PUSH1 0x77 DUP3 PUSH1 0x80 DUP2 GT ISZERO PUSH2 0x28D1 JUMPI PUSH2 0x28D1 PUSH2 0x3C6F JUMP JUMPDEST EQ DUP1 PUSH2 0x28EE JUMPI POP PUSH1 0x79 DUP3 PUSH1 0x80 DUP2 GT ISZERO PUSH2 0x28EC JUMPI PUSH2 0x28EC PUSH2 0x3C6F JUMP JUMPDEST EQ JUMPDEST ISZERO PUSH2 0x28FB JUMPI POP PUSH1 0x8 PUSH2 0x3C3F JUMP JUMPDEST PUSH1 0x51 DUP3 PUSH1 0x80 DUP2 GT ISZERO PUSH2 0x290F JUMPI PUSH2 0x290F PUSH2 0x3C6F JUMP JUMPDEST EQ DUP1 PUSH2 0x292C JUMPI POP PUSH1 0x55 DUP3 PUSH1 0x80 DUP2 GT ISZERO PUSH2 0x292A JUMPI PUSH2 0x292A PUSH2 0x3C6F JUMP JUMPDEST EQ JUMPDEST DUP1 PUSH2 0x2948 JUMPI POP PUSH1 0x56 DUP3 PUSH1 0x80 DUP2 GT ISZERO PUSH2 0x2946 JUMPI PUSH2 0x2946 PUSH2 0x3C6F JUMP JUMPDEST EQ JUMPDEST ISZERO PUSH2 0x2955 JUMPI POP PUSH1 0x11 PUSH2 0x3C3F JUMP JUMPDEST PUSH1 0x23 PUSH2 0xCD3 JUMP JUMPDEST PUSH1 0x4 SLOAD PUSH1 0xFF AND PUSH1 0x17 EQ ISZERO PUSH2 0x2AF5 JUMPI PUSH1 0x0 DUP3 PUSH1 0x80 DUP2 GT ISZERO PUSH2 0x297E JUMPI PUSH2 0x297E PUSH2 0x3C6F JUMP JUMPDEST EQ DUP1 PUSH2 0x299B JUMPI POP PUSH1 0x3 DUP3 PUSH1 0x80 DUP2 GT ISZERO PUSH2 0x2999 JUMPI PUSH2 0x2999 PUSH2 0x3C6F JUMP JUMPDEST EQ JUMPDEST DUP1 PUSH2 0x29B7 JUMPI POP PUSH1 0x4 DUP3 PUSH1 0x80 DUP2 GT ISZERO PUSH2 0x29B5 JUMPI PUSH2 0x29B5 PUSH2 0x3C6F JUMP JUMPDEST EQ JUMPDEST ISZERO PUSH2 0x29C4 JUMPI POP PUSH1 0x1 PUSH2 0x3C3F JUMP JUMPDEST PUSH1 0xA DUP3 PUSH1 0x80 DUP2 GT ISZERO PUSH2 0x29D8 JUMPI PUSH2 0x29D8 PUSH2 0x3C6F JUMP JUMPDEST EQ DUP1 PUSH2 0x29F5 JUMPI POP PUSH1 0x7 DUP3 PUSH1 0x80 DUP2 GT ISZERO PUSH2 0x29F3 JUMPI PUSH2 0x29F3 PUSH2 0x3C6F JUMP JUMPDEST EQ JUMPDEST ISZERO PUSH2 0x2A02 JUMPI POP PUSH1 0x2 PUSH2 0x3C3F JUMP JUMPDEST PUSH1 0x77 DUP3 PUSH1 0x80 DUP2 GT ISZERO PUSH2 0x2A16 JUMPI PUSH2 0x2A16 PUSH2 0x3C6F JUMP JUMPDEST EQ DUP1 PUSH2 0x2A33 JUMPI POP PUSH1 0x78 DUP3 PUSH1 0x80 DUP2 GT ISZERO PUSH2 0x2A31 JUMPI PUSH2 0x2A31 PUSH2 0x3C6F JUMP JUMPDEST EQ JUMPDEST DUP1 PUSH2 0x2A4F JUMPI POP PUSH1 0x79 DUP3 PUSH1 0x80 DUP2 GT ISZERO PUSH2 0x2A4D JUMPI PUSH2 0x2A4D PUSH2 0x3C6F JUMP JUMPDEST EQ JUMPDEST DUP1 PUSH2 0x2A6B JUMPI POP PUSH1 0x7A DUP3 PUSH1 0x80 DUP2 GT ISZERO PUSH2 0x2A69 JUMPI PUSH2 0x2A69 PUSH2 0x3C6F JUMP JUMPDEST EQ JUMPDEST ISZERO PUSH2 0x2A78 JUMPI POP PUSH1 0x8 PUSH2 0x3C3F JUMP JUMPDEST PUSH1 0x53 DUP3 PUSH1 0x80 DUP2 GT ISZERO PUSH2 0x2A8C JUMPI PUSH2 0x2A8C PUSH2 0x3C6F JUMP JUMPDEST EQ DUP1 PUSH2 0x2AA9 JUMPI POP PUSH1 0x55 DUP3 PUSH1 0x80 DUP2 GT ISZERO PUSH2 0x2AA7 JUMPI PUSH2 0x2AA7 PUSH2 0x3C6F JUMP JUMPDEST EQ JUMPDEST DUP1 PUSH2 0x2AC5 JUMPI POP PUSH1 0x57 DUP3 PUSH1 0x80 DUP2 GT ISZERO PUSH2 0x2AC3 JUMPI PUSH2 0x2AC3 PUSH2 0x3C6F JUMP JUMPDEST EQ JUMPDEST DUP1 PUSH2 0x2AE1 JUMPI POP PUSH1 0x58 DUP3 PUSH1 0x80 DUP2 GT ISZERO PUSH2 0x2ADF JUMPI PUSH2 0x2ADF PUSH2 0x3C6F JUMP JUMPDEST EQ JUMPDEST ISZERO PUSH2 0x2AEE JUMPI POP PUSH1 0x11 PUSH2 0x3C3F JUMP JUMPDEST PUSH1 0x24 PUSH2 0xCD3 JUMP JUMPDEST PUSH1 0x4 SLOAD PUSH1 0xFF AND PUSH1 0x18 EQ ISZERO PUSH2 0x2C3A JUMPI PUSH1 0x1 DUP3 PUSH1 0x80 DUP2 GT ISZERO PUSH2 0x2B17 JUMPI PUSH2 0x2B17 PUSH2 0x3C6F JUMP JUMPDEST EQ DUP1 PUSH2 0x2B34 JUMPI POP PUSH1 0x2 DUP3 PUSH1 0x80 DUP2 GT ISZERO PUSH2 0x2B32 JUMPI PUSH2 0x2B32 PUSH2 0x3C6F JUMP JUMPDEST EQ JUMPDEST DUP1 PUSH2 0x2B50 JUMPI POP PUSH1 0x4 DUP3 PUSH1 0x80 DUP2 GT ISZERO PUSH2 0x2B4E JUMPI PUSH2 0x2B4E PUSH2 0x3C6F JUMP JUMPDEST EQ JUMPDEST ISZERO PUSH2 0x2B5D JUMPI POP PUSH1 0x1 PUSH2 0x3C3F JUMP JUMPDEST PUSH1 0xA DUP3 PUSH1 0x80 DUP2 GT ISZERO PUSH2 0x2B71 JUMPI PUSH2 0x2B71 PUSH2 0x3C6F JUMP JUMPDEST EQ DUP1 PUSH2 0x2B8E JUMPI POP PUSH1 0x8 DUP3 PUSH1 0x80 DUP2 GT ISZERO PUSH2 0x2B8C JUMPI PUSH2 0x2B8C PUSH2 0x3C6F JUMP JUMPDEST EQ JUMPDEST ISZERO PUSH2 0x2B9B JUMPI POP PUSH1 0x2 PUSH2 0x3C3F JUMP JUMPDEST PUSH1 0x78 DUP3 PUSH1 0x80 DUP2 GT ISZERO PUSH2 0x2BAF JUMPI PUSH2 0x2BAF PUSH2 0x3C6F JUMP JUMPDEST EQ DUP1 PUSH2 0x2BCC JUMPI POP PUSH1 0x7A DUP3 PUSH1 0x80 DUP2 GT ISZERO PUSH2 0x2BCA JUMPI PUSH2 0x2BCA PUSH2 0x3C6F JUMP JUMPDEST EQ JUMPDEST ISZERO PUSH2 0x2BD9 JUMPI POP PUSH1 0x8 PUSH2 0x3C3F JUMP JUMPDEST PUSH1 0x54 DUP3 PUSH1 0x80 DUP2 GT ISZERO PUSH2 0x2BED JUMPI PUSH2 0x2BED PUSH2 0x3C6F JUMP JUMPDEST EQ DUP1 PUSH2 0x2C0A JUMPI POP PUSH1 0x57 DUP3 PUSH1 0x80 DUP2 GT ISZERO PUSH2 0x2C08 JUMPI PUSH2 0x2C08 PUSH2 0x3C6F JUMP JUMPDEST EQ JUMPDEST DUP1 PUSH2 0x2C26 JUMPI POP PUSH1 0x59 DUP3 PUSH1 0x80 DUP2 GT ISZERO PUSH2 0x2C24 JUMPI PUSH2 0x2C24 PUSH2 0x3C6F JUMP JUMPDEST EQ JUMPDEST ISZERO PUSH2 0x2C33 JUMPI POP PUSH1 0x11 PUSH2 0x3C3F JUMP JUMPDEST PUSH1 0x25 PUSH2 0xCD3 JUMP JUMPDEST PUSH1 0x4 SLOAD PUSH1 0xFF AND PUSH1 0x19 EQ ISZERO PUSH2 0x2D7F JUMPI PUSH1 0x0 DUP3 PUSH1 0x80 DUP2 GT ISZERO PUSH2 0x2C5C JUMPI PUSH2 0x2C5C PUSH2 0x3C6F JUMP JUMPDEST EQ DUP1 PUSH2 0x2C79 JUMPI POP PUSH1 0x3 DUP3 PUSH1 0x80 DUP2 GT ISZERO PUSH2 0x2C77 JUMPI PUSH2 0x2C77 PUSH2 0x3C6F JUMP JUMPDEST EQ JUMPDEST DUP1 PUSH2 0x2C95 JUMPI POP PUSH1 0x4 DUP3 PUSH1 0x80 DUP2 GT ISZERO PUSH2 0x2C93 JUMPI PUSH2 0x2C93 PUSH2 0x3C6F JUMP JUMPDEST EQ JUMPDEST ISZERO PUSH2 0x2CA2 JUMPI POP PUSH1 0x1 PUSH2 0x3C3F JUMP JUMPDEST PUSH1 0xB DUP3 PUSH1 0x80 DUP2 GT ISZERO PUSH2 0x2CB6 JUMPI PUSH2 0x2CB6 PUSH2 0x3C6F JUMP JUMPDEST EQ DUP1 PUSH2 0x2CD3 JUMPI POP PUSH1 0x6 DUP3 PUSH1 0x80 DUP2 GT ISZERO PUSH2 0x2CD1 JUMPI PUSH2 0x2CD1 PUSH2 0x3C6F JUMP JUMPDEST EQ JUMPDEST ISZERO PUSH2 0x2CE0 JUMPI POP PUSH1 0x2 PUSH2 0x3C3F JUMP JUMPDEST PUSH1 0x79 DUP3 PUSH1 0x80 DUP2 GT ISZERO PUSH2 0x2CF4 JUMPI PUSH2 0x2CF4 PUSH2 0x3C6F JUMP JUMPDEST EQ DUP1 PUSH2 0x2D11 JUMPI POP PUSH1 0x7B DUP3 PUSH1 0x80 DUP2 GT ISZERO PUSH2 0x2D0F JUMPI PUSH2 0x2D0F PUSH2 0x3C6F JUMP JUMPDEST EQ JUMPDEST ISZERO PUSH2 0x2D1E JUMPI POP PUSH1 0x8 PUSH2 0x3C3F JUMP JUMPDEST PUSH1 0x56 DUP3 PUSH1 0x80 DUP2 GT ISZERO PUSH2 0x2D32 JUMPI PUSH2 0x2D32 PUSH2 0x3C6F JUMP JUMPDEST EQ DUP1 PUSH2 0x2D4F JUMPI POP PUSH1 0x5A DUP3 PUSH1 0x80 DUP2 GT ISZERO PUSH2 0x2D4D JUMPI PUSH2 0x2D4D PUSH2 0x3C6F JUMP JUMPDEST EQ JUMPDEST DUP1 PUSH2 0x2D6B JUMPI POP PUSH1 0x5B DUP3 PUSH1 0x80 DUP2 GT ISZERO PUSH2 0x2D69 JUMPI PUSH2 0x2D69 PUSH2 0x3C6F JUMP JUMPDEST EQ JUMPDEST ISZERO PUSH2 0x2D78 JUMPI POP PUSH1 0x11 PUSH2 0x3C3F JUMP JUMPDEST PUSH1 0x26 PUSH2 0xCD3 JUMP JUMPDEST PUSH1 0x4 SLOAD PUSH1 0xFF AND PUSH1 0x1A EQ ISZERO PUSH2 0x2F18 JUMPI PUSH1 0x1 DUP3 PUSH1 0x80 DUP2 GT ISZERO PUSH2 0x2DA1 JUMPI PUSH2 0x2DA1 PUSH2 0x3C6F JUMP JUMPDEST EQ DUP1 PUSH2 0x2DBE JUMPI POP PUSH1 0x2 DUP3 PUSH1 0x80 DUP2 GT ISZERO PUSH2 0x2DBC JUMPI PUSH2 0x2DBC PUSH2 0x3C6F JUMP JUMPDEST EQ JUMPDEST DUP1 PUSH2 0x2DDA JUMPI POP PUSH1 0x4 DUP3 PUSH1 0x80 DUP2 GT ISZERO PUSH2 0x2DD8 JUMPI PUSH2 0x2DD8 PUSH2 0x3C6F JUMP JUMPDEST EQ JUMPDEST ISZERO PUSH2 0x2DE7 JUMPI POP PUSH1 0x1 PUSH2 0x3C3F JUMP JUMPDEST PUSH1 0xB DUP3 PUSH1 0x80 DUP2 GT ISZERO PUSH2 0x2DFB JUMPI PUSH2 0x2DFB PUSH2 0x3C6F JUMP JUMPDEST EQ DUP1 PUSH2 0x2E18 JUMPI POP PUSH1 0x7 DUP3 PUSH1 0x80 DUP2 GT ISZERO PUSH2 0x2E16 JUMPI PUSH2 0x2E16 PUSH2 0x3C6F JUMP JUMPDEST EQ JUMPDEST ISZERO PUSH2 0x2E25 JUMPI POP PUSH1 0x2 PUSH2 0x3C3F JUMP JUMPDEST PUSH1 0x79 DUP3 PUSH1 0x80 DUP2 GT ISZERO PUSH2 0x2E39 JUMPI PUSH2 0x2E39 PUSH2 0x3C6F JUMP JUMPDEST EQ DUP1 PUSH2 0x2E56 JUMPI POP PUSH1 0x7A DUP3 PUSH1 0x80 DUP2 GT ISZERO PUSH2 0x2E54 JUMPI PUSH2 0x2E54 PUSH2 0x3C6F JUMP JUMPDEST EQ JUMPDEST DUP1 PUSH2 0x2E72 JUMPI POP PUSH1 0x7B DUP3 PUSH1 0x80 DUP2 GT ISZERO PUSH2 0x2E70 JUMPI PUSH2 0x2E70 PUSH2 0x3C6F JUMP JUMPDEST EQ JUMPDEST DUP1 PUSH2 0x2E8E JUMPI POP PUSH1 0x7C DUP3 PUSH1 0x80 DUP2 GT ISZERO PUSH2 0x2E8C JUMPI PUSH2 0x2E8C PUSH2 0x3C6F JUMP JUMPDEST EQ JUMPDEST ISZERO PUSH2 0x2E9B JUMPI POP PUSH1 0x8 PUSH2 0x3C3F JUMP JUMPDEST PUSH1 0x58 DUP3 PUSH1 0x80 DUP2 GT ISZERO PUSH2 0x2EAF JUMPI PUSH2 0x2EAF PUSH2 0x3C6F JUMP JUMPDEST EQ DUP1 PUSH2 0x2ECC JUMPI POP PUSH1 0x5A DUP3 PUSH1 0x80 DUP2 GT ISZERO PUSH2 0x2ECA JUMPI PUSH2 0x2ECA PUSH2 0x3C6F JUMP JUMPDEST EQ JUMPDEST DUP1 PUSH2 0x2EE8 JUMPI POP PUSH1 0x5C DUP3 PUSH1 0x80 DUP2 GT ISZERO PUSH2 0x2EE6 JUMPI PUSH2 0x2EE6 PUSH2 0x3C6F JUMP JUMPDEST EQ JUMPDEST DUP1 PUSH2 0x2F04 JUMPI POP PUSH1 0x5D DUP3 PUSH1 0x80 DUP2 GT ISZERO PUSH2 0x2F02 JUMPI PUSH2 0x2F02 PUSH2 0x3C6F JUMP JUMPDEST EQ JUMPDEST ISZERO PUSH2 0x2F11 JUMPI POP PUSH1 0x11 PUSH2 0x3C3F JUMP JUMPDEST PUSH1 0x27 PUSH2 0xCD3 JUMP JUMPDEST PUSH1 0x4 SLOAD PUSH1 0xFF AND PUSH1 0x1B EQ ISZERO PUSH2 0x305D JUMPI PUSH1 0x0 DUP3 PUSH1 0x80 DUP2 GT ISZERO PUSH2 0x2F3A JUMPI PUSH2 0x2F3A PUSH2 0x3C6F JUMP JUMPDEST EQ DUP1 PUSH2 0x2F57 JUMPI POP PUSH1 0x3 DUP3 PUSH1 0x80 DUP2 GT ISZERO PUSH2 0x2F55 JUMPI PUSH2 0x2F55 PUSH2 0x3C6F JUMP JUMPDEST EQ JUMPDEST DUP1 PUSH2 0x2F73 JUMPI POP PUSH1 0x4 DUP3 PUSH1 0x80 DUP2 GT ISZERO PUSH2 0x2F71 JUMPI PUSH2 0x2F71 PUSH2 0x3C6F JUMP JUMPDEST EQ JUMPDEST ISZERO PUSH2 0x2F80 JUMPI POP PUSH1 0x1 PUSH2 0x3C3F JUMP JUMPDEST PUSH1 0xB DUP3 PUSH1 0x80 DUP2 GT ISZERO PUSH2 0x2F94 JUMPI PUSH2 0x2F94 PUSH2 0x3C6F JUMP JUMPDEST EQ DUP1 PUSH2 0x2FB1 JUMPI POP PUSH1 0x8 DUP3 PUSH1 0x80 DUP2 GT ISZERO PUSH2 0x2FAF JUMPI PUSH2 0x2FAF PUSH2 0x3C6F JUMP JUMPDEST EQ JUMPDEST ISZERO PUSH2 0x2FBE JUMPI POP PUSH1 0x2 PUSH2 0x3C3F JUMP JUMPDEST PUSH1 0x7A DUP3 PUSH1 0x80 DUP2 GT ISZERO PUSH2 0x2FD2 JUMPI PUSH2 0x2FD2 PUSH2 0x3C6F JUMP JUMPDEST EQ DUP1 PUSH2 0x2FEF JUMPI POP PUSH1 0x7C DUP3 PUSH1 0x80 DUP2 GT ISZERO PUSH2 0x2FED JUMPI PUSH2 0x2FED PUSH2 0x3C6F JUMP JUMPDEST EQ JUMPDEST ISZERO PUSH2 0x2FFC JUMPI POP PUSH1 0x8 PUSH2 0x3C3F JUMP JUMPDEST PUSH1 0x59 DUP3 PUSH1 0x80 DUP2 GT ISZERO PUSH2 0x3010 JUMPI PUSH2 0x3010 PUSH2 0x3C6F JUMP JUMPDEST EQ DUP1 PUSH2 0x302D JUMPI POP PUSH1 0x5C DUP3 PUSH1 0x80 DUP2 GT ISZERO PUSH2 0x302B JUMPI PUSH2 0x302B PUSH2 0x3C6F JUMP JUMPDEST EQ JUMPDEST DUP1 PUSH2 0x3049 JUMPI POP PUSH1 0x5E DUP3 PUSH1 0x80 DUP2 GT ISZERO PUSH2 0x3047 JUMPI PUSH2 0x3047 PUSH2 0x3C6F JUMP JUMPDEST EQ JUMPDEST ISZERO PUSH2 0x3056 JUMPI POP PUSH1 0x11 PUSH2 0x3C3F JUMP JUMPDEST PUSH1 0x28 PUSH2 0xCD3 JUMP JUMPDEST PUSH1 0x4 SLOAD PUSH1 0xFF AND PUSH1 0x1C EQ ISZERO PUSH2 0x31A2 JUMPI PUSH1 0x1 DUP3 PUSH1 0x80 DUP2 GT ISZERO PUSH2 0x307F JUMPI PUSH2 0x307F PUSH2 0x3C6F JUMP JUMPDEST EQ DUP1 PUSH2 0x309C JUMPI POP PUSH1 0x2 DUP3 PUSH1 0x80 DUP2 GT ISZERO PUSH2 0x309A JUMPI PUSH2 0x309A PUSH2 0x3C6F JUMP JUMPDEST EQ JUMPDEST DUP1 PUSH2 0x30B8 JUMPI POP PUSH1 0x4 DUP3 PUSH1 0x80 DUP2 GT ISZERO PUSH2 0x30B6 JUMPI PUSH2 0x30B6 PUSH2 0x3C6F JUMP JUMPDEST EQ JUMPDEST ISZERO PUSH2 0x30C5 JUMPI POP PUSH1 0x1 PUSH2 0x3C3F JUMP JUMPDEST PUSH1 0xB DUP3 PUSH1 0x80 DUP2 GT ISZERO PUSH2 0x30D9 JUMPI PUSH2 0x30D9 PUSH2 0x3C6F JUMP JUMPDEST EQ DUP1 PUSH2 0x30F6 JUMPI POP PUSH1 0x6 DUP3 PUSH1 0x80 DUP2 GT ISZERO PUSH2 0x30F4 JUMPI PUSH2 0x30F4 PUSH2 0x3C6F JUMP JUMPDEST EQ JUMPDEST ISZERO PUSH2 0x3103 JUMPI POP PUSH1 0x2 PUSH2 0x3C3F JUMP JUMPDEST PUSH1 0x7B DUP3 PUSH1 0x80 DUP2 GT ISZERO PUSH2 0x3117 JUMPI PUSH2 0x3117 PUSH2 0x3C6F JUMP JUMPDEST EQ DUP1 PUSH2 0x3134 JUMPI POP PUSH1 0x7D DUP3 PUSH1 0x80 DUP2 GT ISZERO PUSH2 0x3132 JUMPI PUSH2 0x3132 PUSH2 0x3C6F JUMP JUMPDEST EQ JUMPDEST ISZERO PUSH2 0x3141 JUMPI POP PUSH1 0x8 PUSH2 0x3C3F JUMP JUMPDEST PUSH1 0x5B DUP3 PUSH1 0x80 DUP2 GT ISZERO PUSH2 0x3155 JUMPI PUSH2 0x3155 PUSH2 0x3C6F JUMP JUMPDEST EQ DUP1 PUSH2 0x3172 JUMPI POP PUSH1 0x5F DUP3 PUSH1 0x80 DUP2 GT ISZERO PUSH2 0x3170 JUMPI PUSH2 0x3170 PUSH2 0x3C6F JUMP JUMPDEST EQ JUMPDEST DUP1 PUSH2 0x318E JUMPI POP PUSH1 0x60 DUP3 PUSH1 0x80 DUP2 GT ISZERO PUSH2 0x318C JUMPI PUSH2 0x318C PUSH2 0x3C6F JUMP JUMPDEST EQ JUMPDEST ISZERO PUSH2 0x319B JUMPI POP PUSH1 0x11 PUSH2 0x3C3F JUMP JUMPDEST PUSH1 0x29 PUSH2 0xCD3 JUMP JUMPDEST PUSH1 0x4 SLOAD PUSH1 0xFF AND PUSH1 0x1D EQ ISZERO PUSH2 0x333B JUMPI PUSH1 0x1 DUP3 PUSH1 0x80 DUP2 GT ISZERO PUSH2 0x31C4 JUMPI PUSH2 0x31C4 PUSH2 0x3C6F JUMP JUMPDEST EQ DUP1 PUSH2 0x31E1 JUMPI POP PUSH1 0x3 DUP3 PUSH1 0x80 DUP2 GT ISZERO PUSH2 0x31DF JUMPI PUSH2 0x31DF PUSH2 0x3C6F JUMP JUMPDEST EQ JUMPDEST DUP1 PUSH2 0x31FD JUMPI POP PUSH1 0x4 DUP3 PUSH1 0x80 DUP2 GT ISZERO PUSH2 0x31FB JUMPI PUSH2 0x31FB PUSH2 0x3C6F JUMP JUMPDEST EQ JUMPDEST ISZERO PUSH2 0x320A JUMPI POP PUSH1 0x1 PUSH2 0x3C3F JUMP JUMPDEST PUSH1 0xB DUP3 PUSH1 0x80 DUP2 GT ISZERO PUSH2 0x321E JUMPI PUSH2 0x321E PUSH2 0x3C6F JUMP JUMPDEST EQ DUP1 PUSH2 0x323B JUMPI POP PUSH1 0x7 DUP3 PUSH1 0x80 DUP2 GT ISZERO PUSH2 0x3239 JUMPI PUSH2 0x3239 PUSH2 0x3C6F JUMP JUMPDEST EQ JUMPDEST ISZERO PUSH2 0x3248 JUMPI POP PUSH1 0x2 PUSH2 0x3C3F JUMP JUMPDEST PUSH1 0x7B DUP3 PUSH1 0x80 DUP2 GT ISZERO PUSH2 0x325C JUMPI PUSH2 0x325C PUSH2 0x3C6F JUMP JUMPDEST EQ DUP1 PUSH2 0x3279 JUMPI POP PUSH1 0x7C DUP3 PUSH1 0x80 DUP2 GT ISZERO PUSH2 0x3277 JUMPI PUSH2 0x3277 PUSH2 0x3C6F JUMP JUMPDEST EQ JUMPDEST DUP1 PUSH2 0x3295 JUMPI POP PUSH1 0x7D DUP3 PUSH1 0x80 DUP2 GT ISZERO PUSH2 0x3293 JUMPI PUSH2 0x3293 PUSH2 0x3C6F JUMP JUMPDEST EQ JUMPDEST DUP1 PUSH2 0x32B1 JUMPI POP PUSH1 0x7E DUP3 PUSH1 0x80 DUP2 GT ISZERO PUSH2 0x32AF JUMPI PUSH2 0x32AF PUSH2 0x3C6F JUMP JUMPDEST EQ JUMPDEST ISZERO PUSH2 0x32BE JUMPI POP PUSH1 0x8 PUSH2 0x3C3F JUMP JUMPDEST PUSH1 0x5D DUP3 PUSH1 0x80 DUP2 GT ISZERO PUSH2 0x32D2 JUMPI PUSH2 0x32D2 PUSH2 0x3C6F JUMP JUMPDEST EQ DUP1 PUSH2 0x32EF JUMPI POP PUSH1 0x5F DUP3 PUSH1 0x80 DUP2 GT ISZERO PUSH2 0x32ED JUMPI PUSH2 0x32ED PUSH2 0x3C6F JUMP JUMPDEST EQ JUMPDEST DUP1 PUSH2 0x330B JUMPI POP PUSH1 0x61 DUP3 PUSH1 0x80 DUP2 GT ISZERO PUSH2 0x3309 JUMPI PUSH2 0x3309 PUSH2 0x3C6F JUMP JUMPDEST EQ JUMPDEST DUP1 PUSH2 0x3327 JUMPI POP PUSH1 0x62 DUP3 PUSH1 0x80 DUP2 GT ISZERO PUSH2 0x3325 JUMPI PUSH2 0x3325 PUSH2 0x3C6F JUMP JUMPDEST EQ JUMPDEST ISZERO PUSH2 0x3334 JUMPI POP PUSH1 0x11 PUSH2 0x3C3F JUMP JUMPDEST PUSH1 0x2A PUSH2 0xCD3 JUMP JUMPDEST PUSH1 0x4 SLOAD PUSH1 0xFF AND PUSH1 0x1E EQ ISZERO PUSH2 0x3480 JUMPI PUSH1 0x0 DUP3 PUSH1 0x80 DUP2 GT ISZERO PUSH2 0x335D JUMPI PUSH2 0x335D PUSH2 0x3C6F JUMP JUMPDEST EQ DUP1 PUSH2 0x337A JUMPI POP PUSH1 0x2 DUP3 PUSH1 0x80 DUP2 GT ISZERO PUSH2 0x3378 JUMPI PUSH2 0x3378 PUSH2 0x3C6F JUMP JUMPDEST EQ JUMPDEST DUP1 PUSH2 0x3396 JUMPI POP PUSH1 0x4 DUP3 PUSH1 0x80 DUP2 GT ISZERO PUSH2 0x3394 JUMPI PUSH2 0x3394 PUSH2 0x3C6F JUMP JUMPDEST EQ JUMPDEST ISZERO PUSH2 0x33A3 JUMPI POP PUSH1 0x1 PUSH2 0x3C3F JUMP JUMPDEST PUSH1 0xB DUP3 PUSH1 0x80 DUP2 GT ISZERO PUSH2 0x33B7 JUMPI PUSH2 0x33B7 PUSH2 0x3C6F JUMP JUMPDEST EQ DUP1 PUSH2 0x33D4 JUMPI POP PUSH1 0x8 DUP3 PUSH1 0x80 DUP2 GT ISZERO PUSH2 0x33D2 JUMPI PUSH2 0x33D2 PUSH2 0x3C6F JUMP JUMPDEST EQ JUMPDEST ISZERO PUSH2 0x33E1 JUMPI POP PUSH1 0x2 PUSH2 0x3C3F JUMP JUMPDEST PUSH1 0x7C DUP3 PUSH1 0x80 DUP2 GT ISZERO PUSH2 0x33F5 JUMPI PUSH2 0x33F5 PUSH2 0x3C6F JUMP JUMPDEST EQ DUP1 PUSH2 0x3412 JUMPI POP PUSH1 0x7E DUP3 PUSH1 0x80 DUP2 GT ISZERO PUSH2 0x3410 JUMPI PUSH2 0x3410 PUSH2 0x3C6F JUMP JUMPDEST EQ JUMPDEST ISZERO PUSH2 0x341F JUMPI POP PUSH1 0x8 PUSH2 0x3C3F JUMP JUMPDEST PUSH1 0x5E DUP3 PUSH1 0x80 DUP2 GT ISZERO PUSH2 0x3433 JUMPI PUSH2 0x3433 PUSH2 0x3C6F JUMP JUMPDEST EQ DUP1 PUSH2 0x3450 JUMPI POP PUSH1 0x61 DUP3 PUSH1 0x80 DUP2 GT ISZERO PUSH2 0x344E JUMPI PUSH2 0x344E PUSH2 0x3C6F JUMP JUMPDEST EQ JUMPDEST DUP1 PUSH2 0x346C JUMPI POP PUSH1 0x63 DUP3 PUSH1 0x80 DUP2 GT ISZERO PUSH2 0x346A JUMPI PUSH2 0x346A PUSH2 0x3C6F JUMP JUMPDEST EQ JUMPDEST ISZERO PUSH2 0x3479 JUMPI POP PUSH1 0x11 PUSH2 0x3C3F JUMP JUMPDEST PUSH1 0x2B PUSH2 0xCD3 JUMP JUMPDEST PUSH1 0x4 SLOAD PUSH1 0xFF AND PUSH1 0x1F EQ ISZERO PUSH2 0x35C5 JUMPI PUSH1 0x1 DUP3 PUSH1 0x80 DUP2 GT ISZERO PUSH2 0x34A2 JUMPI PUSH2 0x34A2 PUSH2 0x3C6F JUMP JUMPDEST EQ DUP1 PUSH2 0x34BF JUMPI POP PUSH1 0x3 DUP3 PUSH1 0x80 DUP2 GT ISZERO PUSH2 0x34BD JUMPI PUSH2 0x34BD PUSH2 0x3C6F JUMP JUMPDEST EQ JUMPDEST DUP1 PUSH2 0x34DB JUMPI POP PUSH1 0x4 DUP3 PUSH1 0x80 DUP2 GT ISZERO PUSH2 0x34D9 JUMPI PUSH2 0x34D9 PUSH2 0x3C6F JUMP JUMPDEST EQ JUMPDEST ISZERO PUSH2 0x34E8 JUMPI POP PUSH1 0x1 PUSH2 0x3C3F JUMP JUMPDEST PUSH1 0xB DUP3 PUSH1 0x80 DUP2 GT ISZERO PUSH2 0x34FC JUMPI PUSH2 0x34FC PUSH2 0x3C6F JUMP JUMPDEST EQ DUP1 PUSH2 0x3519 JUMPI POP PUSH1 0x6 DUP3 PUSH1 0x80 DUP2 GT ISZERO PUSH2 0x3517 JUMPI PUSH2 0x3517 PUSH2 0x3C6F JUMP JUMPDEST EQ JUMPDEST ISZERO PUSH2 0x3526 JUMPI POP PUSH1 0x2 PUSH2 0x3C3F JUMP JUMPDEST PUSH1 0x7D DUP3 PUSH1 0x80 DUP2 GT ISZERO PUSH2 0x353A JUMPI PUSH2 0x353A PUSH2 0x3C6F JUMP JUMPDEST EQ DUP1 PUSH2 0x3557 JUMPI POP PUSH1 0x7F DUP3 PUSH1 0x80 DUP2 GT ISZERO PUSH2 0x3555 JUMPI PUSH2 0x3555 PUSH2 0x3C6F JUMP JUMPDEST EQ JUMPDEST ISZERO PUSH2 0x3564 JUMPI POP PUSH1 0x8 PUSH2 0x3C3F JUMP JUMPDEST PUSH1 0x60 DUP3 PUSH1 0x80 DUP2 GT ISZERO PUSH2 0x3578 JUMPI PUSH2 0x3578 PUSH2 0x3C6F JUMP JUMPDEST EQ DUP1 PUSH2 0x3595 JUMPI POP PUSH1 0x64 DUP3 PUSH1 0x80 DUP2 GT ISZERO PUSH2 0x3593 JUMPI PUSH2 0x3593 PUSH2 0x3C6F JUMP JUMPDEST EQ JUMPDEST DUP1 PUSH2 0x35B1 JUMPI POP PUSH1 0x65 DUP3 PUSH1 0x80 DUP2 GT ISZERO PUSH2 0x35AF JUMPI PUSH2 0x35AF PUSH2 0x3C6F JUMP JUMPDEST EQ JUMPDEST ISZERO PUSH2 0x35BE JUMPI POP PUSH1 0x11 PUSH2 0x3C3F JUMP JUMPDEST PUSH1 0x2C PUSH2 0xCD3 JUMP JUMPDEST PUSH1 0x4 SLOAD PUSH1 0xFF AND PUSH1 0x20 EQ ISZERO PUSH2 0x375E JUMPI PUSH1 0x0 DUP3 PUSH1 0x80 DUP2 GT ISZERO PUSH2 0x35E7 JUMPI PUSH2 0x35E7 PUSH2 0x3C6F JUMP JUMPDEST EQ DUP1 PUSH2 0x3604 JUMPI POP PUSH1 0x2 DUP3 PUSH1 0x80 DUP2 GT ISZERO PUSH2 0x3602 JUMPI PUSH2 0x3602 PUSH2 0x3C6F JUMP JUMPDEST EQ JUMPDEST DUP1 PUSH2 0x3620 JUMPI POP PUSH1 0x4 DUP3 PUSH1 0x80 DUP2 GT ISZERO PUSH2 0x361E JUMPI PUSH2 0x361E PUSH2 0x3C6F JUMP JUMPDEST EQ JUMPDEST ISZERO PUSH2 0x362D JUMPI POP PUSH1 0x1 PUSH2 0x3C3F JUMP JUMPDEST PUSH1 0xB DUP3 PUSH1 0x80 DUP2 GT ISZERO PUSH2 0x3641 JUMPI PUSH2 0x3641 PUSH2 0x3C6F JUMP JUMPDEST EQ DUP1 PUSH2 0x365E JUMPI POP PUSH1 0x7 DUP3 PUSH1 0x80 DUP2 GT ISZERO PUSH2 0x365C JUMPI PUSH2 0x365C PUSH2 0x3C6F JUMP JUMPDEST EQ JUMPDEST ISZERO PUSH2 0x366B JUMPI POP PUSH1 0x2 PUSH2 0x3C3F JUMP JUMPDEST PUSH1 0x7D DUP3 PUSH1 0x80 DUP2 GT ISZERO PUSH2 0x367F JUMPI PUSH2 0x367F PUSH2 0x3C6F JUMP JUMPDEST EQ DUP1 PUSH2 0x369C JUMPI POP PUSH1 0x7E DUP3 PUSH1 0x80 DUP2 GT ISZERO PUSH2 0x369A JUMPI PUSH2 0x369A PUSH2 0x3C6F JUMP JUMPDEST EQ JUMPDEST DUP1 PUSH2 0x36B8 JUMPI POP PUSH1 0x7F DUP3 PUSH1 0x80 DUP2 GT ISZERO PUSH2 0x36B6 JUMPI PUSH2 0x36B6 PUSH2 0x3C6F JUMP JUMPDEST EQ JUMPDEST DUP1 PUSH2 0x36D4 JUMPI POP PUSH1 0x80 DUP3 PUSH1 0x80 DUP2 GT ISZERO PUSH2 0x36D2 JUMPI PUSH2 0x36D2 PUSH2 0x3C6F JUMP JUMPDEST EQ JUMPDEST ISZERO PUSH2 0x36E1 JUMPI POP PUSH1 0x8 PUSH2 0x3C3F JUMP JUMPDEST PUSH1 0x62 DUP3 PUSH1 0x80 DUP2 GT ISZERO PUSH2 0x36F5 JUMPI PUSH2 0x36F5 PUSH2 0x3C6F JUMP JUMPDEST EQ DUP1 PUSH2 0x3712 JUMPI POP PUSH1 0x64 DUP3 PUSH1 0x80 DUP2 GT ISZERO PUSH2 0x3710 JUMPI PUSH2 0x3710 PUSH2 0x3C6F JUMP JUMPDEST EQ JUMPDEST DUP1 PUSH2 0x372E JUMPI POP PUSH1 0x66 DUP3 PUSH1 0x80 DUP2 GT ISZERO PUSH2 0x372C JUMPI PUSH2 0x372C PUSH2 0x3C6F JUMP JUMPDEST EQ JUMPDEST DUP1 PUSH2 0x374A JUMPI POP PUSH1 0x67 DUP3 PUSH1 0x80 DUP2 GT ISZERO PUSH2 0x3748 JUMPI PUSH2 0x3748 PUSH2 0x3C6F JUMP JUMPDEST EQ JUMPDEST ISZERO PUSH2 0x3757 JUMPI POP PUSH1 0x11 PUSH2 0x3C3F JUMP JUMPDEST PUSH1 0x2D PUSH2 0xCD3 JUMP JUMPDEST PUSH1 0x4 SLOAD PUSH1 0xFF AND PUSH1 0x21 EQ ISZERO PUSH2 0x38A3 JUMPI PUSH1 0x1 DUP3 PUSH1 0x80 DUP2 GT ISZERO PUSH2 0x3780 JUMPI PUSH2 0x3780 PUSH2 0x3C6F JUMP JUMPDEST EQ DUP1 PUSH2 0x379D JUMPI POP PUSH1 0x3 DUP3 PUSH1 0x80 DUP2 GT ISZERO PUSH2 0x379B JUMPI PUSH2 0x379B PUSH2 0x3C6F JUMP JUMPDEST EQ JUMPDEST DUP1 PUSH2 0x37B9 JUMPI POP PUSH1 0x4 DUP3 PUSH1 0x80 DUP2 GT ISZERO PUSH2 0x37B7 JUMPI PUSH2 0x37B7 PUSH2 0x3C6F JUMP JUMPDEST EQ JUMPDEST ISZERO PUSH2 0x37C6 JUMPI POP PUSH1 0x1 PUSH2 0x3C3F JUMP JUMPDEST PUSH1 0xB DUP3 PUSH1 0x80 DUP2 GT ISZERO PUSH2 0x37DA JUMPI PUSH2 0x37DA PUSH2 0x3C6F JUMP JUMPDEST EQ DUP1 PUSH2 0x37F7 JUMPI POP PUSH1 0x8 DUP3 PUSH1 0x80 DUP2 GT ISZERO PUSH2 0x37F5 JUMPI PUSH2 0x37F5 PUSH2 0x3C6F JUMP JUMPDEST EQ JUMPDEST ISZERO PUSH2 0x3804 JUMPI POP PUSH1 0x2 PUSH2 0x3C3F JUMP JUMPDEST PUSH1 0x7E DUP3 PUSH1 0x80 DUP2 GT ISZERO PUSH2 0x3818 JUMPI PUSH2 0x3818 PUSH2 0x3C6F JUMP JUMPDEST EQ DUP1 PUSH2 0x3835 JUMPI POP PUSH1 0x80 DUP3 PUSH1 0x80 DUP2 GT ISZERO PUSH2 0x3833 JUMPI PUSH2 0x3833 PUSH2 0x3C6F JUMP JUMPDEST EQ JUMPDEST ISZERO PUSH2 0x3842 JUMPI POP PUSH1 0x8 PUSH2 0x3C3F JUMP JUMPDEST PUSH1 0x63 DUP3 PUSH1 0x80 DUP2 GT ISZERO PUSH2 0x3856 JUMPI PUSH2 0x3856 PUSH2 0x3C6F JUMP JUMPDEST EQ DUP1 PUSH2 0x3873 JUMPI POP PUSH1 0x66 DUP3 PUSH1 0x80 DUP2 GT ISZERO PUSH2 0x3871 JUMPI PUSH2 0x3871 PUSH2 0x3C6F JUMP JUMPDEST EQ JUMPDEST DUP1 PUSH2 0x388F JUMPI POP PUSH1 0x68 DUP3 PUSH1 0x80 DUP2 GT ISZERO PUSH2 0x388D JUMPI PUSH2 0x388D PUSH2 0x3C6F JUMP JUMPDEST EQ JUMPDEST ISZERO PUSH2 0x389C JUMPI POP PUSH1 0x11 PUSH2 0x3C3F JUMP JUMPDEST PUSH1 0x2E PUSH2 0xCD3 JUMP JUMPDEST PUSH1 0x4 SLOAD PUSH1 0xFF AND PUSH1 0x22 EQ ISZERO PUSH2 0x39B0 JUMPI PUSH1 0x0 DUP3 PUSH1 0x80 DUP2 GT ISZERO PUSH2 0x38C5 JUMPI PUSH2 0x38C5 PUSH2 0x3C6F JUMP JUMPDEST EQ DUP1 PUSH2 0x38E2 JUMPI POP PUSH1 0x2 DUP3 PUSH1 0x80 DUP2 GT ISZERO PUSH2 0x38E0 JUMPI PUSH2 0x38E0 PUSH2 0x3C6F JUMP JUMPDEST EQ JUMPDEST DUP1 PUSH2 0x38FE JUMPI POP PUSH1 0x4 DUP3 PUSH1 0x80 DUP2 GT ISZERO PUSH2 0x38FC JUMPI PUSH2 0x38FC PUSH2 0x3C6F JUMP JUMPDEST EQ JUMPDEST ISZERO PUSH2 0x390B JUMPI POP PUSH1 0x1 PUSH2 0x3C3F JUMP JUMPDEST PUSH1 0xB DUP3 PUSH1 0x80 DUP2 GT ISZERO PUSH2 0x391F JUMPI PUSH2 0x391F PUSH2 0x3C6F JUMP JUMPDEST EQ DUP1 PUSH2 0x393C JUMPI POP PUSH1 0x6 DUP3 PUSH1 0x80 DUP2 GT ISZERO PUSH2 0x393A JUMPI PUSH2 0x393A PUSH2 0x3C6F JUMP JUMPDEST EQ JUMPDEST ISZERO PUSH2 0x3949 JUMPI POP PUSH1 0x2 PUSH2 0x3C3F JUMP JUMPDEST PUSH1 0x7F DUP3 PUSH1 0x80 DUP2 GT ISZERO PUSH2 0x395D JUMPI PUSH2 0x395D PUSH2 0x3C6F JUMP JUMPDEST EQ ISZERO PUSH2 0x396B JUMPI POP PUSH1 0x8 PUSH2 0x3C3F JUMP JUMPDEST PUSH1 0x65 DUP3 PUSH1 0x80 DUP2 GT ISZERO PUSH2 0x397F JUMPI PUSH2 0x397F PUSH2 0x3C6F JUMP JUMPDEST EQ DUP1 PUSH2 0x399C JUMPI POP PUSH1 0x69 DUP3 PUSH1 0x80 DUP2 GT ISZERO PUSH2 0x399A JUMPI PUSH2 0x399A PUSH2 0x3C6F JUMP JUMPDEST EQ JUMPDEST ISZERO PUSH2 0x39A9 JUMPI POP PUSH1 0x11 PUSH2 0x3C3F JUMP JUMPDEST PUSH1 0x2F PUSH2 0xCD3 JUMP JUMPDEST PUSH1 0x4 SLOAD PUSH1 0xFF AND PUSH1 0x23 EQ ISZERO PUSH2 0x3AF5 JUMPI PUSH1 0x1 DUP3 PUSH1 0x80 DUP2 GT ISZERO PUSH2 0x39D2 JUMPI PUSH2 0x39D2 PUSH2 0x3C6F JUMP JUMPDEST EQ DUP1 PUSH2 0x39EF JUMPI POP PUSH1 0x3 DUP3 PUSH1 0x80 DUP2 GT ISZERO PUSH2 0x39ED JUMPI PUSH2 0x39ED PUSH2 0x3C6F JUMP JUMPDEST EQ JUMPDEST DUP1 PUSH2 0x3A0B JUMPI POP PUSH1 0x4 DUP3 PUSH1 0x80 DUP2 GT ISZERO PUSH2 0x3A09 JUMPI PUSH2 0x3A09 PUSH2 0x3C6F JUMP JUMPDEST EQ JUMPDEST ISZERO PUSH2 0x3A18 JUMPI POP PUSH1 0x1 PUSH2 0x3C3F JUMP JUMPDEST PUSH1 0xB DUP3 PUSH1 0x80 DUP2 GT ISZERO PUSH2 0x3A2C JUMPI PUSH2 0x3A2C PUSH2 0x3C6F JUMP JUMPDEST EQ DUP1 PUSH2 0x3A49 JUMPI POP PUSH1 0x7 DUP3 PUSH1 0x80 DUP2 GT ISZERO PUSH2 0x3A47 JUMPI PUSH2 0x3A47 PUSH2 0x3C6F JUMP JUMPDEST EQ JUMPDEST ISZERO PUSH2 0x3A56 JUMPI POP PUSH1 0x2 PUSH2 0x3C3F JUMP JUMPDEST PUSH1 0x7F DUP3 PUSH1 0x80 DUP2 GT ISZERO PUSH2 0x3A6A JUMPI PUSH2 0x3A6A PUSH2 0x3C6F JUMP JUMPDEST EQ DUP1 PUSH2 0x3A87 JUMPI POP PUSH1 0x80 DUP3 PUSH1 0x80 DUP2 GT ISZERO PUSH2 0x3A85 JUMPI PUSH2 0x3A85 PUSH2 0x3C6F JUMP JUMPDEST EQ JUMPDEST ISZERO PUSH2 0x3A94 JUMPI POP PUSH1 0x8 PUSH2 0x3C3F JUMP JUMPDEST PUSH1 0x67 DUP3 PUSH1 0x80 DUP2 GT ISZERO PUSH2 0x3AA8 JUMPI PUSH2 0x3AA8 PUSH2 0x3C6F JUMP JUMPDEST EQ DUP1 PUSH2 0x3AC5 JUMPI POP PUSH1 0x69 DUP3 PUSH1 0x80 DUP2 GT ISZERO PUSH2 0x3AC3 JUMPI PUSH2 0x3AC3 PUSH2 0x3C6F JUMP JUMPDEST EQ JUMPDEST DUP1 PUSH2 0x3AE1 JUMPI POP PUSH1 0x6A DUP3 PUSH1 0x80 DUP2 GT ISZERO PUSH2 0x3ADF JUMPI PUSH2 0x3ADF PUSH2 0x3C6F JUMP JUMPDEST EQ JUMPDEST ISZERO PUSH2 0x3AEE JUMPI POP PUSH1 0x11 PUSH2 0x3C3F JUMP JUMPDEST PUSH1 0x30 PUSH2 0xCD3 JUMP JUMPDEST PUSH1 0x4 SLOAD PUSH1 0xFF AND PUSH1 0x24 EQ ISZERO PUSH2 0x3C02 JUMPI PUSH1 0x0 DUP3 PUSH1 0x80 DUP2 GT ISZERO PUSH2 0x3B17 JUMPI PUSH2 0x3B17 PUSH2 0x3C6F JUMP JUMPDEST EQ DUP1 PUSH2 0x3B34 JUMPI POP PUSH1 0x2 DUP3 PUSH1 0x80 DUP2 GT ISZERO PUSH2 0x3B32 JUMPI PUSH2 0x3B32 PUSH2 0x3C6F JUMP JUMPDEST EQ JUMPDEST DUP1 PUSH2 0x3B50 JUMPI POP PUSH1 0x4 DUP3 PUSH1 0x80 DUP2 GT ISZERO PUSH2 0x3B4E JUMPI PUSH2 0x3B4E PUSH2 0x3C6F JUMP JUMPDEST EQ JUMPDEST ISZERO PUSH2 0x3B5D JUMPI POP PUSH1 0x1 PUSH2 0x3C3F JUMP JUMPDEST PUSH1 0xB DUP3 PUSH1 0x80 DUP2 GT ISZERO PUSH2 0x3B71 JUMPI PUSH2 0x3B71 PUSH2 0x3C6F JUMP JUMPDEST EQ DUP1 PUSH2 0x3B8E JUMPI POP PUSH1 0x8 DUP3 PUSH1 0x80 DUP2 GT ISZERO PUSH2 0x3B8C JUMPI PUSH2 0x3B8C PUSH2 0x3C6F JUMP JUMPDEST EQ JUMPDEST ISZERO PUSH2 0x3B9B JUMPI POP PUSH1 0x2 PUSH2 0x3C3F JUMP JUMPDEST PUSH1 0x80 DUP3 PUSH1 0x80 DUP2 GT ISZERO PUSH2 0x3BAF JUMPI PUSH2 0x3BAF PUSH2 0x3C6F JUMP JUMPDEST EQ ISZERO PUSH2 0x3BBD JUMPI POP PUSH1 0x8 PUSH2 0x3C3F JUMP JUMPDEST PUSH1 0x68 DUP3 PUSH1 0x80 DUP2 GT ISZERO PUSH2 0x3BD1 JUMPI PUSH2 0x3BD1 PUSH2 0x3C6F JUMP JUMPDEST EQ DUP1 PUSH2 0x3BEE JUMPI POP PUSH1 0x6A DUP3 PUSH1 0x80 DUP2 GT ISZERO PUSH2 0x3BEC JUMPI PUSH2 0x3BEC PUSH2 0x3C6F JUMP JUMPDEST EQ JUMPDEST ISZERO PUSH2 0x3BFB JUMPI POP PUSH1 0x11 PUSH2 0x3C3F JUMP JUMPDEST PUSH1 0x31 PUSH2 0xCD3 JUMP JUMPDEST PUSH1 0x4 SLOAD PUSH1 0xFF AND PUSH1 0x25 EQ ISZERO PUSH2 0x3C17 JUMPI PUSH1 0xC PUSH2 0xCD3 JUMP JUMPDEST PUSH1 0x4 SLOAD PUSH1 0xFF AND PUSH2 0x3C3F JUMPI PUSH1 0xD DUP3 PUSH1 0x80 DUP2 GT ISZERO PUSH2 0x3C35 JUMPI PUSH2 0x3C35 PUSH2 0x3C6F JUMP JUMPDEST EQ ISZERO PUSH2 0x3C3F JUMPI POP PUSH1 0x23 JUMPDEST SWAP4 SWAP3 POP POP POP JUMP JUMPDEST PUSH1 0x0 PUSH1 0x20 DUP3 DUP5 SUB SLT ISZERO PUSH2 0x3C58 JUMPI PUSH1 0x0 DUP1 REVERT JUMPDEST DUP2 CALLDATALOAD PUSH1 0x1 PUSH1 0x1 PUSH1 0xA0 SHL SUB DUP2 AND DUP2 EQ PUSH2 0x3C3F JUMPI PUSH1 0x0 DUP1 REVERT JUMPDEST PUSH4 0x4E487B71 PUSH1 0xE0 SHL PUSH1 0x0 MSTORE PUSH1 0x21 PUSH1 0x4 MSTORE PUSH1 0x24 PUSH1 0x0 REVERT JUMPDEST PUSH1 0x20 DUP1 DUP3 MSTORE DUP3 MLOAD DUP3 DUP3 ADD DUP2 SWAP1 MSTORE PUSH1 0x0 SWAP2 SWAP1 PUSH1 0x40 SWAP1 DUP2 DUP6 ADD SWAP1 DUP7 DUP5 ADD DUP6 DUP1 JUMPDEST DUP4 DUP2 LT ISZERO PUSH2 0x3CE4 JUMPI DUP3 MLOAD DUP1 MLOAD DUP7 MSTORE DUP8 ADD MLOAD PUSH1 0x81 DUP2 LT PUSH2 0x3CD0 JUMPI PUSH4 0x4E487B71 PUSH1 0xE0 SHL DUP4 MSTORE PUSH1 0x21 PUSH1 0x4 MSTORE PUSH1 0x24 DUP4 REVERT JUMPDEST DUP6 DUP9 ADD MSTORE SWAP4 DUP6 ADD SWAP4 SWAP2 DUP7 ADD SWAP2 PUSH1 0x1 ADD PUSH2 0x3CA3 JUMP JUMPDEST POP SWAP3 SWAP9 SWAP8 POP POP POP POP POP POP POP POP JUMP JUMPDEST PUSH4 0x4E487B71 PUSH1 0xE0 SHL PUSH1 0x0 MSTORE PUSH1 0x41 PUSH1 0x4 MSTORE PUSH1 0x24 PUSH1 0x0 REVERT JUMPDEST PUSH1 0x0 DUP3 PUSH1 0x1F DUP4 ADD SLT PUSH2 0x3D19 JUMPI PUSH1 0x0 DUP1 REVERT JUMPDEST DUP2 CALLDATALOAD PUSH1 0x20 PUSH8 0xFFFFFFFFFFFFFFFF DUP1 DUP4 GT ISZERO PUSH2 0x3D36 JUMPI PUSH2 0x3D36 PUSH2 0x3CF2 JUMP JUMPDEST DUP3 PUSH1 0x5 SHL PUSH1 0x40 MLOAD PUSH1 0x1F NOT PUSH1 0x3F DUP4 ADD AND DUP2 ADD DUP2 DUP2 LT DUP5 DUP3 GT OR ISZERO PUSH2 0x3D5B JUMPI PUSH2 0x3D5B PUSH2 0x3CF2 JUMP JUMPDEST PUSH1 0x40 MSTORE SWAP4 DUP5 MSTORE DUP6 DUP2 ADD DUP4 ADD SWAP4 DUP4 DUP2 ADD SWAP3 POP DUP8 DUP6 GT ISZERO PUSH2 0x3D79 JUMPI PUSH1 0x0 DUP1 REVERT JUMPDEST DUP4 DUP8 ADD SWAP2 POP JUMPDEST DUP5 DUP3 LT ISZERO PUSH2 0x3D98 JUMPI DUP2 CALLDATALOAD DUP4 MSTORE SWAP2 DUP4 ADD SWAP2 SWAP1 DUP4 ADD SWAP1 PUSH2 0x3D7F JUMP JUMPDEST SWAP8 SWAP7 POP POP POP POP POP POP POP JUMP JUMPDEST PUSH1 0x0 DUP1 PUSH1 0x40 DUP4 DUP6 SUB SLT ISZERO PUSH2 0x3DB6 JUMPI PUSH1 0x0 DUP1 REVERT JUMPDEST DUP3 CALLDATALOAD PUSH8 0xFFFFFFFFFFFFFFFF DUP1 DUP3 GT ISZERO PUSH2 0x3DCE JUMPI PUSH1 0x0 DUP1 REVERT JUMPDEST PUSH2 0x3DDA DUP7 DUP4 DUP8 ADD PUSH2 0x3D08 JUMP JUMPDEST SWAP4 POP PUSH1 0x20 DUP6 ADD CALLDATALOAD SWAP2 POP DUP1 DUP3 GT ISZERO PUSH2 0x3DF0 JUMPI PUSH1 0x0 DUP1 REVERT JUMPDEST POP PUSH2 0x3DFD DUP6 DUP3 DUP7 ADD PUSH2 0x3D08 JUMP JUMPDEST SWAP2 POP POP SWAP3 POP SWAP3 SWAP1 POP JUMP JUMPDEST PUSH1 0x20 DUP1 DUP3 MSTORE DUP2 DUP2 ADD MSTORE PUSH32 0x4F776E61626C653A2063616C6C6572206973206E6F7420746865206F776E6572 PUSH1 0x40 DUP3 ADD MSTORE PUSH1 0x60 ADD SWAP1 JUMP JUMPDEST PUSH1 0x0 DUP3 PUSH2 0x3E59 JUMPI PUSH4 0x4E487B71 PUSH1 0xE0 SHL PUSH1 0x0 MSTORE PUSH1 0x12 PUSH1 0x4 MSTORE PUSH1 0x24 PUSH1 0x0 REVERT JUMPDEST POP MOD SWAP1 JUMP JUMPDEST PUSH4 0x4E487B71 PUSH1 0xE0 SHL PUSH1 0x0 MSTORE PUSH1 0x11 PUSH1 0x4 MSTORE PUSH1 0x24 PUSH1 0x0 REVERT JUMPDEST PUSH1 0x0 DUP3 NOT DUP3 GT ISZERO PUSH2 0x3E87 JUMPI PUSH2 0x3E87 PUSH2 0x3E5E JUMP JUMPDEST POP ADD SWAP1 JUMP JUMPDEST PUSH1 0x0 PUSH1 0x20 DUP3 DUP5 SUB SLT ISZERO PUSH2 0x3E9E JUMPI PUSH1 0x0 DUP1 REVERT JUMPDEST POP MLOAD SWAP2 SWAP1 POP JUMP JUMPDEST PUSH1 0x20 DUP1 DUP3 MSTORE PUSH1 0x26 SWAP1 DUP3 ADD MSTORE PUSH32 0x4D7573742062652073697474696E67206174207461626C6520746F20706C6163 PUSH1 0x40 DUP3 ADD MSTORE PUSH6 0x32903132BA17 PUSH1 0xD1 SHL PUSH1 0x60 DUP3 ADD MSTORE PUSH1 0x80 ADD SWAP1 JUMP JUMPDEST PUSH4 0x4E487B71 PUSH1 0xE0 SHL PUSH1 0x0 MSTORE PUSH1 0x32 PUSH1 0x4 MSTORE PUSH1 0x24 PUSH1 0x0 REVERT JUMPDEST PUSH1 0x0 PUSH1 0x0 NOT DUP3 EQ ISZERO PUSH2 0x3F15 JUMPI PUSH2 0x3F15 PUSH2 0x3E5E JUMP JUMPDEST POP PUSH1 0x1 ADD SWAP1 JUMP JUMPDEST DUP4 DUP2 MSTORE PUSH1 0x0 PUSH1 0x20 DUP5 DUP2 DUP5 ADD MSTORE PUSH1 0x40 DUP4 ADD DUP5 SLOAD DUP6 PUSH1 0x0 MSTORE DUP3 PUSH1 0x0 KECCAK256 PUSH1 0x0 JUMPDEST DUP3 DUP2 LT ISZERO PUSH2 0x3F5E JUMPI DUP2 SLOAD PUSH1 0x1 PUSH1 0x1 PUSH1 0xA0 SHL SUB AND DUP5 MSTORE SWAP3 DUP5 ADD SWAP3 PUSH1 0x1 SWAP2 DUP3 ADD SWAP2 ADD PUSH2 0x3F39 JUMP JUMPDEST POP SWAP2 SWAP9 SWAP8 POP POP POP POP POP POP POP POP JUMP JUMPDEST PUSH1 0x0 DUP2 PUSH1 0x0 NOT DIV DUP4 GT DUP3 ISZERO ISZERO AND ISZERO PUSH2 0x3F86 JUMPI PUSH2 0x3F86 PUSH2 0x3E5E JUMP JUMPDEST POP MUL SWAP1 JUMP INVALID LOG2 PUSH5 0x6970667358 0x22 SLT KECCAK256 ISZERO SWAP1 CHAINID 0xEE 0xAB 0xBA SWAP3 DUP10 0xD5 0x2E DUP12 PUSH22 0xD825FE914901D18D50C207675CC2EE0919F0230A6473 PUSH16 0x6C634300080C00330000000000000000 ","sha1":"b87fdcf1bdc17f4d32108a5a2c77075875302749","source":"//SPDX-License-Identifier: MIT\npragma solidity ^0.8.0;\n\nimport \"@openzeppelin/contracts/access/Ownable.sol\";\nimport \"@openzeppelin/contracts/token/ERC20/IERC20.sol\";\nimport \"./GambleToken.sol\";\n\ncontract Roulette is Ownable{\n\n  GambleToken internal gambleToken;\n  address internal cage;\n  address[] internal players;\n  uint8 internal winningNumber;\n\n  enum BET {\n    Red,\n    Black,\n    Even,\n    Odd,\n    High,\n    Low,\n    Column1_34,\n    Column2_35,\n    Column3_36,\n    FirstDozen,\n    SecondDozen,\n    ThirdDozen,\n    Zero,\n    DoubleZero,\n    One,\n    Two,\n    Three,\n    Four,\n    Five,\n    Six,\n    Seven,\n    Eight,\n    Nine,\n    Ten,\n    Eleven,\n    Twelve,\n    Thirteen,\n    Fourteen,\n    Fifteen,\n    Sixteen,\n    Seventeen,\n    Eighteen,\n    Nineteen,\n    Twenty,\n    Twentyone,\n    Twentytwo,\n    Twentythree,\n    Twentyfour,\n    Twentyfive,\n    Twentysix,\n    Twentyseven,\n    Twentyeight,\n    Twentynine,\n    Thirty,\n    Thirtyone,\n    Thirtytwo,\n    Thirtythree,\n    Thirtyfour,\n    Thirtyfive,\n    Thirtysix,\n    Split_1_4,\n    Split_1_2,\n    Split_2_3,\n    Split_2_5,\n    Split_3_6,\n    Split_4_5,\n    Split_4_7,\n    Split_5_6,\n    Split_5_8,\n    Split_6_9,\n    Split_7_8,\n    Split_7_10,\n    Split_8_9,\n    Split_8_11,\n    Split_9_12,\n    Split_10_11,\n    Split_10_13,\n    Split_11_12,\n    Split_11_14,\n    Split_12_15,\n    Split_13_14,\n    Split_13_16,\n    Split_14_15,\n    Split_14_17,\n    Split_15_18,\n    Split_16_17,\n    Split_16_19,\n    Split_17_18,\n    Split_17_20,\n    Split_18_21,\n    Split_19_20,\n    Split_19_22,\n    Split_20_21,\n    Split_20_23,\n    Split_21_24,\n    Split_22_23,\n    Split_22_25,\n    Split_23_24,\n    Split_23_26,\n    Split_24_27,\n    Split_25_26,\n    Split_25_28,\n    Split_26_27,\n    Split_26_29,\n    Split_27_30,\n    Split_28_29,\n    Split_28_31,\n    Split_29_30,\n    Split_29_32,\n    Split_30_33,\n    Split_31_32,\n    Split_31_34,\n    Split_32_33,\n    Split_32_35,\n    Split_33_36,\n    Split_34_35,\n    Split_35_36,\n    Square_1245,\n    Square_2356,\n    Square_4578,\n    Square_5689,\n    Square_781011,\n    Square_891112,\n    Square_10111314,\n    Square_11121415,\n    Square_13141617,\n    Square_14151718,\n    Square_16171920,\n    Square_17182021,\n    Square_19202223,\n    Square_20212324,\n    Square_22232526,\n    Square_23242627,\n    Square_25262829,\n    Square_26272930,\n    Square_28293132,\n    Square_29303233,\n    Square_31323435,\n    Square_32333536\n  }\n\n  mapping (address => bool) atTable;\n  mapping (address => Bet[]) playerToBets;\n  mapping (address => uint256) playerToWinnings;\n  mapping (address => uint256) playerToLifetimeWinnings;\n\n  event PlayerSatDown(address player);\n  event BetsPlaced(address player, uint256 totalBet);\n  event RequestedRandomness(bytes32 requestId);\n  event BallStopped(uint8 winningNumber);\n  event WinningsPaidOut(address player, uint256 payout);\n  event LeftTable(address player);\n\n\n  constructor (\n    address _gambleTokenAddress,\n    address _cageAddress\n  ) public {\n    gambleToken = GambleToken(_gambleTokenAddress);\n    cage = _cageAddress;\n  }\n\n  struct Bet {\n    uint256 amount;\n    BET betType;\n  }\n\n\n //player functions\n  function joinTable() public {\n    require(gambleToken.balanceOf(msg.sender) > 0, \"You need GMBL to sit down at the table.\");\n    atTable[msg.sender] = true;\n    players.push(msg.sender);\n    emit PlayerSatDown(msg.sender);\n  }\n\n  function placeBet(uint256[] memory _amounts, uint256[] memory _types) public qualified{\n    require(_amounts.length == _types.length);\n    for (uint i = 0; i < _amounts.length; i++) {\n      playerToBets[msg.sender].push(Bet(_amounts[i],BET(_types[i])));\n    }\n    uint256 totalBet = _calculateTotalBet(_amounts);\n    gambleToken.burn(msg.sender, totalBet);\n\n    emit BetsPlaced(msg.sender, totalBet);\n  }\n\n  function leaveTable() public qualified{\n    atTable[msg.sender] = false;\n    emit LeftTable(msg.sender);\n  }\n\n  //owner functions\n  function spinWheel() public onlyOwner {\n    winningNumber = uint8(_random() % 38 + 1);\n    emit BallStopped(winningNumber);\n  }\n\n  function settleAllBets() public onlyOwner {\n    for(uint i = 0; i < players.length; i++){\n      if (!atTable[players[i]]) {\n      }  else {\n        _settlePlayerBets(players[i]);\n      }\n    }\n  }\n\n\n  //viewer functions\n  function isAtTable(address _player) public view returns(bool) {\n    return atTable[_player];\n  }\n  function getBets(address _player) public view returns(Bet[] memory) {\n    return playerToBets[_player];\n  }\n  function getWinnings(address _player) public view returns(uint256) {\n    return playerToWinnings[_player];\n  }\n  function getLifetimeWinnings(address _player) public view returns(uint256) {\n    return playerToLifetimeWinnings[_player];\n  }\n  function getWinningNumber() public view returns(uint8) {\n    return winningNumber;\n  }\n\n  //internal functions\n  function _random() internal returns(uint256) {\n    return(uint(keccak256(abi.encodePacked(block.difficulty, block.timestamp, players))));\n  }\n  function _calculateTotalBet(uint256[] memory _amounts) internal returns(uint256){\n    uint256 totalBet = 0;\n    for(uint i = 0; i < _amounts.length; i++) {\n        totalBet += _amounts[i];\n    }\n    return totalBet;\n  }\n  function _settlePlayerBets(address _player) internal {\n    Bet[] memory playerBets = playerToBets[_player];\n    uint256 payout = 0;\n    for (uint i = 0; i < playerBets.length; i++){\n      uint256 multiplier = _winOrLoss(playerBets[i].betType);\n      if (multiplier != 0){\n        payout += ((playerBets[i].amount * multiplier) + playerBets[i].amount);\n      }\n    }\n    gambleToken.mint(_player, payout);\n    playerToWinnings[_player] = payout;\n    playerToLifetimeWinnings[_player] += payout;\n    emit WinningsPaidOut(_player, payout);\n\n  }\n  function _winOrLoss(BET _betType) internal view returns(uint256){\n    BET betType = _betType;\n    uint256 multiplier = 0;\n    //check for win or loss\n    //most likely going to use if statements\n    //one for each number (1-36)\n    //inside of each branch need to describe winning bets based on number\n    //ie: 1 means red, firstdozen,low,odd,column1,split12,split14,square1245\n    if (winningNumber == 1) {\n      if (betType == BET.Red ||\n          betType == BET.Odd ||\n          betType == BET.Low){\n        multiplier = 1;\n      }\n      else if (betType == BET.FirstDozen ||\n               betType == BET.Column1_34) {\n        multiplier = 2;\n      }\n      else if (betType == BET.Square_1245) {\n        multiplier = 8;\n      }\n      else if (betType == BET.Split_1_2 ||\n               betType == BET.Split_1_4) {\n        multiplier = 17;\n      }\n      else if (betType == BET.One) {\n        multiplier = 35;\n      }\n    }\n    else if (winningNumber == 2) {\n      if (betType == BET.Black ||\n          betType == BET.Even ||\n          betType == BET.Low){\n        multiplier = 1;\n      }\n      else if (betType == BET.FirstDozen ||\n               betType == BET.Column2_35) {\n        multiplier = 2;\n      }\n      else if (betType == BET.Square_1245 ||\n               betType == BET.Square_2356) {\n        multiplier = 8;\n      }\n      else if (betType == BET.Split_1_2 ||\n               betType == BET.Split_2_3 ||\n               betType == BET.Split_2_5) {\n        multiplier = 17;\n      }\n      else if (betType == BET.Two) {\n        multiplier = 35;\n      }\n\n    }\n    else if (winningNumber == 3) {\n      if (betType == BET.Red ||\n          betType == BET.Odd ||\n          betType == BET.Low){\n        multiplier = 1;\n      }\n      else if (betType == BET.FirstDozen ||\n               betType == BET.Column3_36) {\n        multiplier = 2;\n      }\n      else if (betType == BET.Square_2356) {\n        multiplier = 8;\n      }\n      else if (betType == BET.Split_2_3 ||\n               betType == BET.Split_3_6) {\n        multiplier = 17;\n      }\n      else if (betType == BET.Three) {\n        multiplier = 35;\n      }\n\n    }\n    else if (winningNumber == 4) {\n      if (betType == BET.Black ||\n          betType == BET.Even ||\n          betType == BET.Low){\n        multiplier = 1;\n      }\n      else if (betType == BET.FirstDozen ||\n               betType == BET.Column1_34) {\n        multiplier = 2;\n      }\n      else if (betType == BET.Square_1245 ||\n               betType == BET.Square_4578) {\n        multiplier = 8;\n      }\n      else if (betType == BET.Split_1_4 ||\n               betType == BET.Split_4_5 ||\n               betType == BET.Split_4_7) {\n        multiplier = 17;\n      }\n      else if (betType == BET.Four) {\n        multiplier = 35;\n      }\n    }\n    else if (winningNumber == 5) {\n      if (betType == BET.Red ||\n          betType == BET.Odd ||\n          betType == BET.Low){\n        multiplier = 1;\n      }\n      else if (betType == BET.FirstDozen ||\n               betType == BET.Column2_35) {\n        multiplier = 2;\n      }\n      else if (betType == BET.Square_2356 ||\n               betType == BET.Square_1245 ||\n               betType == BET.Square_4578 ||\n               betType == BET.Square_5689) {\n        multiplier = 8;\n      }\n      else if (betType == BET.Split_2_5 ||\n               betType == BET.Split_4_5 ||\n               betType == BET.Split_5_6 ||\n               betType == BET.Split_5_8) {\n        multiplier = 17;\n      }\n      else if (betType == BET.Five) {\n        multiplier = 35;\n      }\n\n    }\n    else if (winningNumber == 6) {\n      if (betType == BET.Black ||\n          betType == BET.Even ||\n          betType == BET.Low){\n        multiplier = 1;\n      }\n      else if (betType == BET.FirstDozen ||\n               betType == BET.Column3_36) {\n        multiplier = 2;\n      }\n      else if (betType == BET.Square_2356 ||\n               betType == BET.Square_5689) {\n        multiplier = 8;\n      }\n      else if (betType == BET.Split_3_6 ||\n               betType == BET.Split_5_6 ||\n               betType == BET.Split_6_9) {\n        multiplier = 17;\n      }\n      else if (betType == BET.Six) {\n        multiplier = 35;\n      }\n\n    }\n    else if (winningNumber == 7) {\n      if (betType == BET.Red ||\n          betType == BET.Odd ||\n          betType == BET.Low){\n        multiplier = 1;\n      }\n      else if (betType == BET.FirstDozen ||\n               betType == BET.Column1_34) {\n        multiplier = 2;\n      }\n      else if (betType == BET.Square_4578 ||\n               betType == BET.Square_781011) {\n        multiplier = 8;\n      }\n      else if (betType == BET.Split_4_7 ||\n               betType == BET.Split_7_8 ||\n               betType == BET.Split_7_10) {\n        multiplier = 17;\n      }\n      else if (betType == BET.Seven) {\n        multiplier = 35;\n      }\n    }\n    else if (winningNumber == 8) {\n      if (betType == BET.Black ||\n          betType == BET.Even ||\n          betType == BET.Low){\n        multiplier = 1;\n      }\n      else if (betType == BET.FirstDozen ||\n               betType == BET.Column2_35) {\n        multiplier = 2;\n      }\n      else if (betType == BET.Square_4578 ||\n               betType == BET.Square_5689 ||\n               betType == BET.Square_781011 ||\n               betType == BET.Square_891112) {\n        multiplier = 8;\n      }\n      else if (betType == BET.Split_5_8 ||\n               betType == BET.Split_7_8 ||\n               betType == BET.Split_8_9 ||\n               betType == BET.Split_8_11) {\n        multiplier = 17;\n      }\n      else if (betType == BET.Eight) {\n        multiplier = 35;\n      }\n    }\n    else if (winningNumber == 9) {\n      if (betType == BET.Red ||\n          betType == BET.Odd ||\n          betType == BET.Low){\n        multiplier = 1;\n      }\n      else if (betType == BET.FirstDozen ||\n               betType == BET.Column3_36) {\n        multiplier = 2;\n      }\n      else if (betType == BET.Square_5689 ||\n               betType == BET.Square_891112) {\n        multiplier = 8;\n      }\n      else if (betType == BET.Split_6_9 ||\n               betType == BET.Split_8_9 ||\n               betType == BET.Split_9_12) {\n        multiplier = 17;\n      }\n      else if (betType == BET.Nine) {\n        multiplier = 35;\n      }\n    }\n    else if (winningNumber == 10) {\n      if (betType == BET.Black ||\n          betType == BET.Even ||\n          betType == BET.Low){\n        multiplier = 1;\n      }\n      else if (betType == BET.FirstDozen ||\n               betType == BET.Column1_34) {\n        multiplier = 2;\n      }\n      else if (betType == BET.Square_781011 ||\n               betType == BET.Square_10111314) {\n        multiplier = 8;\n      }\n      else if (betType == BET.Split_7_10 ||\n               betType == BET.Split_10_11 ||\n               betType == BET.Split_10_13) {\n        multiplier = 17;\n      }\n      else if (betType == BET.Ten) {\n        multiplier = 35;\n      }\n    }\n    else if (winningNumber == 11) {\n      if (betType == BET.Black ||\n          betType == BET.Odd ||\n          betType == BET.Low){\n        multiplier = 1;\n      }\n      else if (betType == BET.FirstDozen ||\n               betType == BET.Column2_35) {\n        multiplier = 2;\n      }\n      else if (betType == BET.Square_781011 ||\n               betType == BET.Square_891112 ||\n               betType == BET.Square_10111314 ||\n               betType == BET.Square_11121415) {\n        multiplier = 8;\n      }\n      else if (betType == BET.Split_8_11 ||\n               betType == BET.Split_10_11 ||\n               betType == BET.Split_11_12 ||\n               betType == BET.Split_11_14) {\n        multiplier = 17;\n      }\n      else if (betType == BET.Eleven) {\n        multiplier = 35;\n      }\n    }\n    else if (winningNumber == 12) {\n      if (betType == BET.Red ||\n          betType == BET.Even ||\n          betType == BET.Low){\n        multiplier = 1;\n      }\n      else if (betType == BET.FirstDozen ||\n               betType == BET.Column3_36) {\n        multiplier = 2;\n      }\n      else if (betType == BET.Square_891112 ||\n               betType == BET.Square_11121415) {\n        multiplier = 8;\n      }\n      else if (betType == BET.Split_9_12 ||\n               betType == BET.Split_11_12 ||\n               betType == BET.Split_12_15) {\n        multiplier = 17;\n      }\n      else if (betType == BET.Twelve) {\n        multiplier = 35;\n      }\n    }\n    else if (winningNumber == 13) {\n      if (betType == BET.Black ||\n          betType == BET.Odd ||\n          betType == BET.Low){\n        multiplier = 1;\n      }\n      else if (betType == BET.SecondDozen ||\n               betType == BET.Column1_34) {\n        multiplier = 2;\n      }\n      else if (betType == BET.Square_10111314 ||\n               betType == BET.Square_13141617) {\n        multiplier = 8;\n      }\n      else if (betType == BET.Split_10_13 ||\n               betType == BET.Split_13_14 ||\n               betType == BET.Split_13_16) {\n        multiplier = 17;\n      }\n      else if (betType == BET.Thirteen) {\n        multiplier = 35;\n      }\n    }\n    else if (winningNumber == 14) {\n      if (betType == BET.Red ||\n          betType == BET.Even ||\n          betType == BET.Low){\n        multiplier = 1;\n      }\n      else if (betType == BET.SecondDozen ||\n               betType == BET.Column2_35) {\n        multiplier = 2;\n      }\n      else if (betType == BET.Square_10111314 ||\n               betType == BET.Square_11121415 ||\n               betType == BET.Square_13141617 ||\n               betType == BET.Square_14151718) {\n        multiplier = 8;\n      }\n      else if (betType == BET.Split_11_14 ||\n               betType == BET.Split_13_14 ||\n               betType == BET.Split_14_15 ||\n               betType == BET.Split_14_17) {\n        multiplier = 17;\n      }\n      else if (betType == BET.Fourteen) {\n        multiplier = 35;\n      }\n    }\n    else if (winningNumber == 15) {\n      if (betType == BET.Black ||\n          betType == BET.Odd ||\n          betType == BET.Low){\n        multiplier = 1;\n      }\n      else if (betType == BET.SecondDozen ||\n               betType == BET.Column3_36) {\n        multiplier = 2;\n      }\n      else if (betType == BET.Square_11121415 ||\n               betType == BET.Square_14151718) {\n        multiplier = 8;\n      }\n      else if (betType == BET.Split_12_15 ||\n               betType == BET.Split_14_15 ||\n               betType == BET.Split_15_18) {\n        multiplier = 17;\n      }\n      else if (betType == BET.Fifteen) {\n        multiplier = 35;\n      }\n    }\n    else if (winningNumber == 16) {\n      if (betType == BET.Red ||\n          betType == BET.Even ||\n          betType == BET.Low){\n        multiplier = 1;\n      }\n      else if (betType == BET.SecondDozen ||\n               betType == BET.Column1_34) {\n        multiplier = 2;\n      }\n      else if (betType == BET.Square_13141617 ||\n               betType == BET.Square_16171920) {\n        multiplier = 8;\n      }\n      else if (betType == BET.Split_13_16 ||\n               betType == BET.Split_16_17 ||\n               betType == BET.Split_16_19) {\n        multiplier = 17;\n      }\n      else if (betType == BET.Sixteen) {\n        multiplier = 35;\n      }\n    }\n    else if (winningNumber == 17) {\n      if (betType == BET.Black ||\n          betType == BET.Odd ||\n          betType == BET.Low){\n        multiplier = 1;\n      }\n      else if (betType == BET.SecondDozen ||\n               betType == BET.Column2_35) {\n        multiplier = 2;\n      }\n      else if (betType == BET.Square_13141617 ||\n               betType == BET.Square_14151718 ||\n               betType == BET.Square_16171920 ||\n               betType == BET.Square_17182021) {\n        multiplier = 8;\n      }\n      else if (betType == BET.Split_14_17||\n               betType == BET.Split_16_17 ||\n               betType == BET.Split_17_18 ||\n               betType == BET.Split_17_20) {\n        multiplier = 17;\n      }\n      else if (betType == BET.Seventeen) {\n        multiplier = 35;\n      }\n    }\n    else if (winningNumber == 18) {\n      if (betType == BET.Red ||\n          betType == BET.Even ||\n          betType == BET.Low){\n        multiplier = 1;\n      }\n      else if (betType == BET.SecondDozen ||\n               betType == BET.Column3_36) {\n        multiplier = 2;\n      }\n      else if (betType == BET.Square_14151718 ||\n               betType == BET.Square_17182021) {\n        multiplier = 8;\n      }\n      else if (betType == BET.Split_15_18 ||\n               betType == BET.Split_17_18 ||\n               betType == BET.Split_18_21) {\n        multiplier = 17;\n      }\n      else if (betType == BET.Eighteen) {\n        multiplier = 35;\n      }\n    }\n    else if (winningNumber == 19) {\n      if (betType == BET.Red ||\n          betType == BET.Odd ||\n          betType == BET.High){\n        multiplier = 1;\n      }\n      else if (betType == BET.SecondDozen ||\n               betType == BET.Column1_34) {\n        multiplier = 2;\n      }\n      else if (betType == BET.Square_16171920 ||\n               betType == BET.Square_19202223) {\n        multiplier = 8;\n      }\n      else if (betType == BET.Split_13_16 ||\n               betType == BET.Split_16_17 ||\n               betType == BET.Split_16_19) {\n        multiplier = 17;\n      }\n      else if (betType == BET.Nineteen) {\n        multiplier = 35;\n      }\n    }\n    else if (winningNumber == 20) {\n      if (betType == BET.Black ||\n          betType == BET.Even ||\n          betType == BET.High){\n        multiplier = 1;\n      }\n      else if (betType == BET.SecondDozen ||\n               betType == BET.Column2_35) {\n        multiplier = 2;\n      }\n      else if (betType == BET.Square_16171920 ||\n               betType == BET.Square_17182021 ||\n               betType == BET.Square_19202223 ||\n               betType == BET.Square_20212324) {\n        multiplier = 8;\n      }\n      else if (betType == BET.Split_17_20 ||\n               betType == BET.Split_19_20 ||\n               betType == BET.Split_20_21 ||\n               betType == BET.Split_20_23) {\n        multiplier = 17;\n      }\n      else if (betType == BET.Twenty) {\n        multiplier = 35;\n      }\n    }\n    else if (winningNumber == 21) {\n      if (betType == BET.Red ||\n          betType == BET.Odd ||\n          betType == BET.High){\n        multiplier = 1;\n      }\n      else if (betType == BET.SecondDozen ||\n               betType == BET.Column3_36) {\n        multiplier = 2;\n      }\n      else if (betType == BET.Square_17182021 ||\n               betType == BET.Square_20212324) {\n        multiplier = 8;\n      }\n      else if (betType == BET.Split_18_21 ||\n               betType == BET.Split_20_21 ||\n               betType == BET.Split_21_24) {\n        multiplier = 17;\n      }\n      else if (betType == BET.Twentyone) {\n        multiplier = 35;\n      }\n    }\n    else if (winningNumber == 22) {\n      if (betType == BET.Black ||\n          betType == BET.Even ||\n          betType == BET.High){\n        multiplier = 1;\n      }\n      else if (betType == BET.SecondDozen ||\n               betType == BET.Column1_34) {\n        multiplier = 2;\n      }\n      else if (betType == BET.Square_19202223 ||\n               betType == BET.Square_22232526) {\n        multiplier = 8;\n      }\n      else if (betType == BET.Split_19_22 ||\n               betType == BET.Split_22_23 ||\n               betType == BET.Split_22_25) {\n        multiplier = 17;\n      }\n      else if (betType == BET.Twentytwo) {\n        multiplier = 35;\n      }\n    }\n    else if (winningNumber == 23) {\n      if (betType == BET.Red ||\n          betType == BET.Odd ||\n          betType == BET.High){\n        multiplier = 1;\n      }\n      else if (betType == BET.SecondDozen ||\n               betType == BET.Column2_35) {\n        multiplier = 2;\n      }\n      else if (betType == BET.Square_19202223 ||\n               betType == BET.Square_20212324 ||\n               betType == BET.Square_22232526 ||\n               betType == BET.Square_23242627) {\n        multiplier = 8;\n      }\n      else if (betType == BET.Split_20_23 ||\n               betType == BET.Split_22_23 ||\n               betType == BET.Split_23_24 ||\n               betType == BET.Split_23_26) {\n        multiplier = 17;\n      }\n      else if (betType == BET.Twentythree) {\n        multiplier = 35;\n      }\n    }\n    else if (winningNumber == 24) {\n      if (betType == BET.Black ||\n          betType == BET.Even ||\n          betType == BET.High){\n        multiplier = 1;\n      }\n      else if (betType == BET.SecondDozen ||\n               betType == BET.Column3_36) {\n        multiplier = 2;\n      }\n      else if (betType == BET.Square_20212324 ||\n               betType == BET.Square_23242627) {\n        multiplier = 8;\n      }\n      else if (betType == BET.Split_21_24 ||\n               betType == BET.Split_23_24 ||\n               betType == BET.Split_24_27) {\n        multiplier = 17;\n      }\n      else if (betType == BET.Twentyfour) {\n        multiplier = 35;\n      }\n    }\n    else if (winningNumber == 25) {\n      if (betType == BET.Red ||\n          betType == BET.Odd ||\n          betType == BET.High){\n        multiplier = 1;\n      }\n      else if (betType == BET.ThirdDozen ||\n               betType == BET.Column1_34) {\n        multiplier = 2;\n      }\n      else if (betType == BET.Square_22232526 ||\n               betType == BET.Square_25262829) {\n        multiplier = 8;\n      }\n      else if (betType == BET.Split_22_25 ||\n               betType == BET.Split_25_26 ||\n               betType == BET.Split_25_28) {\n        multiplier = 17;\n      }\n      else if (betType == BET.Twentyfive) {\n        multiplier = 35;\n      }\n    }\n    else if (winningNumber == 26) {\n      if (betType == BET.Black ||\n          betType == BET.Even ||\n          betType == BET.High){\n        multiplier = 1;\n      }\n      else if (betType == BET.ThirdDozen ||\n               betType == BET.Column2_35) {\n        multiplier = 2;\n      }\n      else if (betType == BET.Square_22232526 ||\n               betType == BET.Square_23242627 ||\n               betType == BET.Square_25262829 ||\n               betType == BET.Square_26272930) {\n        multiplier = 8;\n      }\n      else if (betType == BET.Split_23_26 ||\n               betType == BET.Split_25_26 ||\n               betType == BET.Split_26_27 ||\n               betType == BET.Split_26_29) {\n        multiplier = 17;\n      }\n      else if (betType == BET.Twentysix) {\n        multiplier = 35;\n      }\n    }\n    else if (winningNumber == 27) {\n      if (betType == BET.Red ||\n          betType == BET.Odd ||\n          betType == BET.High){\n        multiplier = 1;\n      }\n      else if (betType == BET.ThirdDozen ||\n               betType == BET.Column3_36) {\n        multiplier = 2;\n      }\n      else if (betType == BET.Square_23242627 ||\n               betType == BET.Square_26272930) {\n        multiplier = 8;\n      }\n      else if (betType == BET.Split_24_27||\n               betType == BET.Split_26_27 ||\n               betType == BET.Split_27_30) {\n        multiplier = 17;\n      }\n      else if (betType == BET.Twentyseven) {\n        multiplier = 35;\n      }\n    }\n    else if (winningNumber == 28) {\n      if (betType == BET.Black ||\n          betType == BET.Even ||\n          betType == BET.High){\n        multiplier = 1;\n      }\n      else if (betType == BET.ThirdDozen ||\n               betType == BET.Column1_34) {\n        multiplier = 2;\n      }\n      else if (betType == BET.Square_25262829 ||\n               betType == BET.Square_28293132) {\n        multiplier = 8;\n      }\n      else if (betType == BET.Split_25_28 ||\n               betType == BET.Split_28_29 ||\n               betType == BET.Split_28_31) {\n        multiplier = 17;\n      }\n      else if (betType == BET.Twentyeight) {\n        multiplier = 35;\n      }\n    }\n    else if (winningNumber == 29) {\n      if (betType == BET.Black ||\n          betType == BET.Odd ||\n          betType == BET.High){\n        multiplier = 1;\n      }\n      else if (betType == BET.ThirdDozen ||\n               betType == BET.Column2_35) {\n        multiplier = 2;\n      }\n      else if (betType == BET.Square_25262829 ||\n               betType == BET.Square_26272930 ||\n               betType == BET.Square_28293132 ||\n               betType == BET.Square_29303233) {\n        multiplier = 8;\n      }\n      else if (betType == BET.Split_26_29 ||\n               betType == BET.Split_28_29 ||\n               betType == BET.Split_29_30 ||\n               betType == BET.Split_29_32) {\n        multiplier = 17;\n      }\n      else if (betType == BET.Twentynine) {\n        multiplier = 35;\n      }\n    }\n    else if (winningNumber == 30) {\n      if (betType == BET.Red ||\n          betType == BET.Even ||\n          betType == BET.High){\n        multiplier = 1;\n      }\n      else if (betType == BET.ThirdDozen ||\n               betType == BET.Column3_36) {\n        multiplier = 2;\n      }\n      else if (betType == BET.Square_26272930 ||\n               betType == BET.Square_29303233) {\n        multiplier = 8;\n      }\n      else if (betType == BET.Split_27_30 ||\n               betType == BET.Split_29_30 ||\n               betType == BET.Split_30_33) {\n        multiplier = 17;\n      }\n      else if (betType == BET.Thirty) {\n        multiplier = 35;\n      }\n    }\n    else if (winningNumber == 31) {\n      if (betType == BET.Black ||\n          betType == BET.Odd ||\n          betType == BET.High){\n        multiplier = 1;\n      }\n      else if (betType == BET.ThirdDozen ||\n               betType == BET.Column1_34) {\n        multiplier = 2;\n      }\n      else if (betType == BET.Square_28293132 ||\n               betType == BET.Square_31323435) {\n        multiplier = 8;\n      }\n      else if (betType == BET.Split_28_31 ||\n               betType == BET.Split_31_32 ||\n               betType == BET.Split_31_34) {\n        multiplier = 17;\n      }\n      else if (betType == BET.Thirtyone) {\n        multiplier = 35;\n      }\n    }\n    else if (winningNumber == 32) {\n      if (betType == BET.Red ||\n          betType == BET.Even ||\n          betType == BET.High){\n        multiplier = 1;\n      }\n      else if (betType == BET.ThirdDozen ||\n               betType == BET.Column2_35) {\n        multiplier = 2;\n      }\n      else if (betType == BET.Square_28293132 ||\n               betType == BET.Square_29303233 ||\n               betType == BET.Square_31323435 ||\n               betType == BET.Square_32333536) {\n        multiplier = 8;\n      }\n      else if (betType == BET.Split_29_32 ||\n               betType == BET.Split_31_32 ||\n               betType == BET.Split_32_33 ||\n               betType == BET.Split_32_35) {\n        multiplier = 17;\n      }\n      else if (betType == BET.Thirtytwo) {\n        multiplier = 35;\n      }\n    }\n    else if (winningNumber == 33) {\n      if (betType == BET.Black ||\n          betType == BET.Odd ||\n          betType == BET.High){\n        multiplier = 1;\n      }\n      else if (betType == BET.ThirdDozen ||\n               betType == BET.Column3_36) {\n        multiplier = 2;\n      }\n      else if (betType == BET.Square_29303233 ||\n               betType == BET.Square_32333536) {\n        multiplier = 8;\n      }\n      else if (betType == BET.Split_30_33 ||\n               betType == BET.Split_32_33 ||\n               betType == BET.Split_33_36) {\n        multiplier = 17;\n      }\n      else if (betType == BET.Thirtythree) {\n        multiplier = 35;\n      }\n    }\n    else if (winningNumber == 34) {\n      if (betType == BET.Red ||\n          betType == BET.Even ||\n          betType == BET.High){\n        multiplier = 1;\n      }\n      else if (betType == BET.ThirdDozen ||\n               betType == BET.Column1_34) {\n        multiplier = 2;\n      }\n      else if (betType == BET.Square_31323435) {\n        multiplier = 8;\n      }\n      else if (betType == BET.Split_31_34 ||\n               betType == BET.Split_34_35) {\n        multiplier = 17;\n      }\n      else if (betType == BET.Thirtyfour) {\n        multiplier = 35;\n      }\n    }\n    else if (winningNumber == 35) {\n      if (betType == BET.Black ||\n          betType == BET.Odd ||\n          betType == BET.High){\n        multiplier = 1;\n      }\n      else if (betType == BET.ThirdDozen ||\n               betType == BET.Column2_35) {\n        multiplier = 2;\n      }\n      else if (betType == BET.Square_31323435 ||\n               betType == BET.Square_32333536) {\n        multiplier = 8;\n      }\n      else if (betType == BET.Split_32_35 ||\n               betType == BET.Split_34_35 ||\n               betType == BET.Split_35_36) {\n        multiplier = 17;\n      }\n      else if (betType == BET.Thirtyfive) {\n        multiplier = 35;\n      }\n    }\n    else if (winningNumber == 36) {\n      if (betType == BET.Red ||\n          betType == BET.Even ||\n          betType == BET.High){\n        multiplier = 1;\n      }\n      else if (betType == BET.ThirdDozen ||\n               betType == BET.Column3_36) {\n        multiplier = 2;\n      }\n      else if (betType == BET.Square_32333536) {\n        multiplier = 8;\n      }\n      else if (betType == BET.Split_33_36 ||\n               betType == BET.Split_35_36) {\n        multiplier = 17;\n      }\n      else if (betType == BET.Thirtysix) {\n        multiplier = 35;\n      }\n    }\n    else if (winningNumber == 37) {\n      if (betType == BET.Zero) {\n        multiplier = 35;\n      }\n\n    }\n    else if (winningNumber == 0) {\n      if (betType == BET.DoubleZero) {\n        multiplier = 35;\n      }\n    }\n    return multiplier;\n    }\n\n    modifier qualified() {\n      require(atTable[msg.sender], \"Must be sitting at table to place bet.\");\n      _;\n    }\n  }\n","sourcePath":"contracts/Roulette.sol","type":"contract","deployment":{"address":"0x28408e076362668B51fa9a97Bad70D517Edb9f1F","chainid":"4","blockHeight":10453494}}