{"abi":[{"inputs":[{"internalType":"address","name":"_gambleTokenAddress","type":"address"},{"internalType":"address","name":"_cageAddress","type":"address"},{"internalType":"address","name":"_vrfCoordinator","type":"address"},{"internalType":"address","name":"_link","type":"address"},{"internalType":"uint64","name":"_subId","type":"uint64"},{"internalType":"uint256","name":"_fee","type":"uint256"},{"internalType":"bytes32","name":"_keyHash","type":"bytes32"}],"stateMutability":"nonpayable","type":"constructor","name":"constructor"},{"inputs":[{"internalType":"address","name":"have","type":"address"},{"internalType":"address","name":"want","type":"address"}],"name":"OnlyCoordinatorCanFulfill","type":"error"},{"anonymous":false,"inputs":[{"indexed":false,"internalType":"address","name":"player","type":"address"},{"indexed":false,"internalType":"uint256","name":"totalBet","type":"uint256"}],"name":"BetsPlaced","type":"event"},{"anonymous":false,"inputs":[{"indexed":false,"internalType":"address","name":"player","type":"address"}],"name":"LeftTable","type":"event"},{"anonymous":false,"inputs":[{"indexed":true,"internalType":"address","name":"previousOwner","type":"address"},{"indexed":true,"internalType":"address","name":"newOwner","type":"address"}],"name":"OwnershipTransferred","type":"event"},{"anonymous":false,"inputs":[{"indexed":false,"internalType":"address","name":"player","type":"address"}],"name":"PlayerSatDown","type":"event"},{"anonymous":false,"inputs":[{"indexed":false,"internalType":"bytes32","name":"requestId","type":"bytes32"}],"name":"RequestedRandomness","type":"event"},{"anonymous":false,"inputs":[{"indexed":false,"internalType":"address","name":"player","type":"address"},{"indexed":false,"internalType":"uint256","name":"payout","type":"uint256"}],"name":"WinningsPaidOut","type":"event"},{"inputs":[],"name":"addConsumer","outputs":[],"stateMutability":"nonpayable","type":"function"},{"inputs":[{"internalType":"address","name":"_player","type":"address"}],"name":"getBets","outputs":[{"components":[{"internalType":"uint256","name":"amount","type":"uint256"},{"internalType":"enum Roulette.BET","name":"betType","type":"uint8"}],"internalType":"struct Roulette.Bet[]","name":"","type":"tuple[]"}],"stateMutability":"view","type":"function"},{"inputs":[{"internalType":"address","name":"_player","type":"address"}],"name":"getLifetimeWinnings","outputs":[{"internalType":"uint256","name":"","type":"uint256"}],"stateMutability":"view","type":"function"},{"inputs":[],"name":"getPlayers","outputs":[{"internalType":"address[]","name":"","type":"address[]"}],"stateMutability":"view","type":"function"},{"inputs":[],"name":"getWinningNumber","outputs":[{"internalType":"uint8","name":"","type":"uint8"}],"stateMutability":"view","type":"function"},{"inputs":[{"internalType":"address","name":"_player","type":"address"}],"name":"getWinnings","outputs":[{"internalType":"uint256","name":"","type":"uint256"}],"stateMutability":"view","type":"function"},{"inputs":[{"internalType":"address","name":"_player","type":"address"}],"name":"isAtTable","outputs":[{"internalType":"bool","name":"","type":"bool"}],"stateMutability":"view","type":"function"},{"inputs":[],"name":"joinTable","outputs":[],"stateMutability":"nonpayable","type":"function"},{"inputs":[],"name":"leaveTable","outputs":[],"stateMutability":"nonpayable","type":"function"},{"inputs":[],"name":"owner","outputs":[{"internalType":"address","name":"","type":"address"}],"stateMutability":"view","type":"function"},{"inputs":[{"internalType":"uint256[]","name":"_amounts","type":"uint256[]"},{"internalType":"uint256[]","name":"_types","type":"uint256[]"}],"name":"placeBet","outputs":[],"stateMutability":"nonpayable","type":"function"},{"inputs":[],"name":"randomNum","outputs":[{"internalType":"uint256","name":"","type":"uint256"}],"stateMutability":"view","type":"function"},{"inputs":[{"internalType":"uint256","name":"requestId","type":"uint256"},{"internalType":"uint256[]","name":"randomWords","type":"uint256[]"}],"name":"rawFulfillRandomWords","outputs":[],"stateMutability":"nonpayable","type":"function"},{"inputs":[],"name":"renounceOwnership","outputs":[],"stateMutability":"nonpayable","type":"function"},{"inputs":[],"name":"settleAllBets","outputs":[],"stateMutability":"nonpayable","type":"function"},{"inputs":[],"name":"spinWheel","outputs":[],"stateMutability":"nonpayable","type":"function"},{"inputs":[{"internalType":"address","name":"newOwner","type":"address"}],"name":"transferOwnership","outputs":[],"stateMutability":"nonpayable","type":"function"}],"bytecode":"60a06040523480156200001157600080fd5b50604051620044523803806200445283398101604081905262000034916200012a565b846200004033620000bd565b6001600160a01b03908116608052600380546001600160a01b0319908116998316999099179055600480548916978216979097179096556002805490971693909516929092179094556008555060095560068054610100600160481b0319166101006001600160401b0390931692909202919091179055620001bd565b600080546001600160a01b038381166001600160a01b0319831681178455604051919092169283917f8be0079c531659141344cd1fd0a4f28419497f9722a3daafe3b4186f6b6457e09190a35050565b80516001600160a01b03811681146200012557600080fd5b919050565b600080600080600080600060e0888a0312156200014657600080fd5b62000151886200010d565b965062000161602089016200010d565b955062000171604089016200010d565b945062000181606089016200010d565b60808901519094506001600160401b03811681146200019f57600080fd5b8093505060a0880151915060c0880151905092959891949750929550565b608051614272620001e0600039600081816104cf015261051101526142726000f3fe608060405234801561001057600080fd5b506004361061010b5760003560e01c80638b0b9ed4116100a2578063a625671c11610071578063a625671c146101f6578063b9174a961461021f578063bdd60e921461025b578063f2fde38b1461026e578063f630aa651461028157600080fd5b80638b0b9ed4146101a95780638b5b9ccc146101be5780638da5cb5b146101d35780639f3ba30a146101ee57600080fd5b80634816c735116100de5780634816c73514610171578063715018a6146101795780637e4aa3c61461018157806381e074ba1461018957600080fd5b806315ecef92146101105780631b4d7e371461011a5780631fe543e3146101225780632858eff114610135575b600080fd5b61011861028a565b005b610118610367565b610118610130366004613f49565b6104c4565b61015e610143366004613f90565b6001600160a01b03166000908152600c602052604090205490565b6040519081526020015b60405180910390f35b610118610548565b6101186105bf565b6101186105f5565b61019c610197366004613f90565b610696565b6040516101689190613fcf565b60065460405160ff9091168152602001610168565b6101c661074e565b604051610168919061403c565b6000546040516001600160a01b039091168152602001610168565b6101186107b0565b61015e610204366004613f90565b6001600160a01b03166000908152600d602052604090205490565b61024b61022d366004613f90565b6001600160a01b03166000908152600a602052604090205460ff1690565b6040519015158152602001610168565b610118610269366004614089565b610874565b61011861027c366004613f90565b610a5c565b61015e60075481565b6000546001600160a01b031633146102bd5760405162461bcd60e51b81526004016102b4906140e3565b60405180910390fd5b600180546009546006546040516305d3b1d360e41b81526004810192909252610100900467ffffffffffffffff16602482015260036044820152620186a0606482015260848101929092526000916001600160a01b0390911690635d3b1d309060a4016020604051808303816000875af115801561033f573d6000803e3d6000fd5b505050506040513d601f19601f820116820180604052508101906103639190614118565b5050565b6003546040516370a0823160e01b81523360048201526000916001600160a01b0316906370a0823190602401602060405180830381865afa1580156103b0573d6000803e3d6000fd5b505050506040513d601f19601f820116820180604052508101906103d49190614118565b116104315760405162461bcd60e51b815260206004820152602760248201527f596f75206e65656420474d424c20746f2073697420646f776e20617420746865604482015266103a30b136329760c91b60648201526084016102b4565b336000818152600a60209081526040808320805460ff191660019081179091556005805491820181559093527f036b6384b5eca791c62761152d0c79bb0604c104a5fb6f4eb0703f3154bb3db090920180546001600160a01b0319168417905590519182527f2f61376d8c0f0e7027a18abda575fd1cafea604db44d5bb37e26a3d42c9a268591015b60405180910390a1565b336001600160a01b037f0000000000000000000000000000000000000000000000000000000000000000161461053e5760405163073e64fd60e21b81523360048201526001600160a01b037f00000000000000000000000000000000000000000000000000000000000000001660248201526044016102b4565b6103638282610af4565b336000908152600a602052604090205460ff166105775760405162461bcd60e51b81526004016102b490614131565b336000818152600a6020908152604091829020805460ff1916905590519182527f81ac5cd731aa4703bce831aca31143e455d51b1732e0c234aa39899104cbb27a91016104ba565b6000546001600160a01b031633146105e95760405162461bcd60e51b81526004016102b4906140e3565b6105f36000610b3e565b565b6000546001600160a01b0316331461061f5760405162461bcd60e51b81526004016102b4906140e3565b600154600654604051631cd0704360e21b815261010090910467ffffffffffffffff1660048201523060248201526001600160a01b0390911690637341c10c90604401600060405180830381600087803b15801561067c57600080fd5b505af1158015610690573d6000803e3d6000fd5b50505050565b6001600160a01b0381166000908152600b60209081526040808320805482518185028101850190935280835260609492939192909184015b828210156107435783829060005260206000209060020201604051806040016040529081600082015481526020016001820160009054906101000a900460ff16608081111561071f5761071f613fb9565b608081111561073057610730613fb9565b81525050815260200190600101906106ce565b505050509050919050565b606060058054806020026020016040519081016040528092919081815260200182805480156107a657602002820191906000526020600020905b81546001600160a01b03168152600190910190602001808311610788575b5050505050905090565b6000546001600160a01b031633146107da5760405162461bcd60e51b81526004016102b4906140e3565b60005b60055481101561087157600a6000600583815481106107fe576107fe614177565b60009182526020808320909101546001600160a01b0316835282019290925260400190205460ff1661082f5761085f565b61085f6005828154811061084557610845614177565b6000918252602090912001546001600160a01b0316610b8e565b80610869816141a3565b9150506107dd565b50565b336000908152600a602052604090205460ff166108a35760405162461bcd60e51b81526004016102b490614131565b80518251146108b157600080fd5b60005b82518110156109ab57600b6000336001600160a01b03166001600160a01b0316815260200190815260200160002060405180604001604052808584815181106108ff576108ff614177565b6020026020010151815260200184848151811061091e5761091e614177565b6020026020010151608081111561093757610937613fb9565b608081111561094857610948613fb9565b905281546001818101845560009384526020938490208351600290930201918255928201518184018054939492939192909160ff19169083608081111561099157610991613fb9565b0217905550505080806109a3906141a3565b9150506108b4565b5060006109b783610dc7565b600354604051632770a7eb60e21b8152336004820152602481018390529192506001600160a01b031690639dc29fac90604401600060405180830381600087803b158015610a0457600080fd5b505af1158015610a18573d6000803e3d6000fd5b505060408051338152602081018590527f6040d59f0a69bda20ad88fc81ab81918925d429759492643d7aec9fcfee45e5893500190505b60405180910390a1505050565b6000546001600160a01b03163314610a865760405162461bcd60e51b81526004016102b4906140e3565b6001600160a01b038116610aeb5760405162461bcd60e51b815260206004820152602660248201527f4f776e61626c653a206e6577206f776e657220697320746865207a65726f206160448201526564647265737360d01b60648201526084016102b4565b61087181610b3e565b602681600081518110610b0957610b09614177565b6020026020010151610b1b91906141be565b610b269060016141e0565b6006805460ff191660ff929092169190911790555050565b600080546001600160a01b038381166001600160a01b0319831681178455604051919092169283917f8be0079c531659141344cd1fd0a4f28419497f9722a3daafe3b4186f6b6457e09190a35050565b6001600160a01b0381166000908152600b6020908152604080832080548251818502810185019093528083529192909190849084015b82821015610c395783829060005260206000209060020201604051806040016040529081600082015481526020016001820160009054906101000a900460ff166080811115610c1557610c15613fb9565b6080811115610c2657610c26613fb9565b8152505081526020019060010190610bc4565b5050505090506000805b8251811015610ce7576000610c74848381518110610c6357610c63614177565b602002602001015160200151610e15565b9050838281518110610c8857610c88614177565b60200260200101516000015181858481518110610ca757610ca7614177565b602002602001015160000151610cbd9190614205565b610cc79190614224565b610cd19084614224565b9250508080610cdf906141a3565b915050610c43565b506003546040516340c10f1960e01b81526001600160a01b03858116600483015260248201849052909116906340c10f1990604401600060405180830381600087803b158015610d3657600080fd5b505af1158015610d4a573d6000803e3d6000fd5b505050506001600160a01b0383166000908152600c60209081526040808320849055600d90915281208054839290610d83908490614224565b9091555050604080516001600160a01b0385168152602081018390527ff1cf4f8d6d16bbf2417014fb8e494640b040e47aa05e62ac3cbe54c9a85fa36f9101610a4f565b600080805b8351811015610e0e57838181518110610de757610de7614177565b602002602001015182610dfa9190614224565b915080610e06816141a3565b915050610dcc565b5092915050565b6006546000908290829060ff1660011415610f46576000826080811115610e3e57610e3e613fb9565b1480610e5b57506003826080811115610e5957610e59613fb9565b145b80610e7757506005826080811115610e7557610e75613fb9565b145b15610e8457506001613e91565b6009826080811115610e9857610e98613fb9565b1480610eb557506006826080811115610eb357610eb3613fb9565b145b15610ec257506002613e91565b606b826080811115610ed657610ed6613fb9565b1415610ee457506008613e91565b6033826080811115610ef857610ef8613fb9565b1480610f1557506032826080811115610f1357610f13613fb9565b145b15610f2257506011613e91565b600e5b826080811115610f3757610f37613fb9565b1415610f41575060235b613e91565b60065460ff166002141561108b576001826080811115610f6857610f68613fb9565b1480610f8557506002826080811115610f8357610f83613fb9565b145b80610fa157506005826080811115610f9f57610f9f613fb9565b145b15610fae57506001613e91565b6009826080811115610fc257610fc2613fb9565b1480610fdf57506007826080811115610fdd57610fdd613fb9565b145b15610fec57506002613e91565b606b82608081111561100057611000613fb9565b148061101d5750606c82608081111561101b5761101b613fb9565b145b1561102a57506008613e91565b603382608081111561103e5761103e613fb9565b148061105b5750603482608081111561105957611059613fb9565b145b806110775750603582608081111561107557611075613fb9565b145b1561108457506011613e91565b600f610f25565b60065460ff16600314156111985760008260808111156110ad576110ad613fb9565b14806110ca575060038260808111156110c8576110c8613fb9565b145b806110e6575060058260808111156110e4576110e4613fb9565b145b156110f357506001613e91565b600982608081111561110757611107613fb9565b14806111245750600882608081111561112257611122613fb9565b145b1561113157506002613e91565b606c82608081111561114557611145613fb9565b141561115357506008613e91565b603482608081111561116757611167613fb9565b14806111845750603682608081111561118257611182613fb9565b145b1561119157506011613e91565b6010610f25565b60065460ff16600414156112dd5760018260808111156111ba576111ba613fb9565b14806111d7575060028260808111156111d5576111d5613fb9565b145b806111f3575060058260808111156111f1576111f1613fb9565b145b1561120057506001613e91565b600982608081111561121457611214613fb9565b14806112315750600682608081111561122f5761122f613fb9565b145b1561123e57506002613e91565b606b82608081111561125257611252613fb9565b148061126f5750606d82608081111561126d5761126d613fb9565b145b1561127c57506008613e91565b603282608081111561129057611290613fb9565b14806112ad575060378260808111156112ab576112ab613fb9565b145b806112c9575060388260808111156112c7576112c7613fb9565b145b156112d657506011613e91565b6011610f25565b60065460ff16600514156114765760008260808111156112ff576112ff613fb9565b148061131c5750600382608081111561131a5761131a613fb9565b145b806113385750600582608081111561133657611336613fb9565b145b1561134557506001613e91565b600982608081111561135957611359613fb9565b14806113765750600782608081111561137457611374613fb9565b145b1561138357506002613e91565b606c82608081111561139757611397613fb9565b14806113b45750606b8260808111156113b2576113b2613fb9565b145b806113d05750606d8260808111156113ce576113ce613fb9565b145b806113ec5750606e8260808111156113ea576113ea613fb9565b145b156113f957506008613e91565b603582608081111561140d5761140d613fb9565b148061142a5750603782608081111561142857611428613fb9565b145b806114465750603982608081111561144457611444613fb9565b145b806114625750603a82608081111561146057611460613fb9565b145b1561146f57506011613e91565b6012610f25565b6006805460ff1614156115ba57600182608081111561149757611497613fb9565b14806114b4575060028260808111156114b2576114b2613fb9565b145b806114d0575060058260808111156114ce576114ce613fb9565b145b156114dd57506001613e91565b60098260808111156114f1576114f1613fb9565b148061150e5750600882608081111561150c5761150c613fb9565b145b1561151b57506002613e91565b606c82608081111561152f5761152f613fb9565b148061154c5750606e82608081111561154a5761154a613fb9565b145b1561155957506008613e91565b603682608081111561156d5761156d613fb9565b148061158a5750603982608081111561158857611588613fb9565b145b806115a65750603b8260808111156115a4576115a4613fb9565b145b156115b357506011613e91565b6013610f25565b60065460ff16600714156116ff5760008260808111156115dc576115dc613fb9565b14806115f9575060038260808111156115f7576115f7613fb9565b145b806116155750600582608081111561161357611613613fb9565b145b1561162257506001613e91565b600982608081111561163657611636613fb9565b14806116535750600682608081111561165157611651613fb9565b145b1561166057506002613e91565b606d82608081111561167457611674613fb9565b14806116915750606f82608081111561168f5761168f613fb9565b145b1561169e57506008613e91565b60388260808111156116b2576116b2613fb9565b14806116cf5750603c8260808111156116cd576116cd613fb9565b145b806116eb5750603d8260808111156116e9576116e9613fb9565b145b156116f857506011613e91565b6014610f25565b60065460ff166008141561189857600182608081111561172157611721613fb9565b148061173e5750600282608081111561173c5761173c613fb9565b145b8061175a5750600582608081111561175857611758613fb9565b145b1561176757506001613e91565b600982608081111561177b5761177b613fb9565b14806117985750600782608081111561179657611796613fb9565b145b156117a557506002613e91565b606d8260808111156117b9576117b9613fb9565b14806117d65750606e8260808111156117d4576117d4613fb9565b145b806117f25750606f8260808111156117f0576117f0613fb9565b145b8061180e5750607082608081111561180c5761180c613fb9565b145b1561181b57506008613e91565b603a82608081111561182f5761182f613fb9565b148061184c5750603c82608081111561184a5761184a613fb9565b145b806118685750603e82608081111561186657611866613fb9565b145b806118845750603f82608081111561188257611882613fb9565b145b1561189157506011613e91565b6015610f25565b60065460ff16600914156119dd5760008260808111156118ba576118ba613fb9565b14806118d7575060038260808111156118d5576118d5613fb9565b145b806118f3575060058260808111156118f1576118f1613fb9565b145b1561190057506001613e91565b600982608081111561191457611914613fb9565b14806119315750600882608081111561192f5761192f613fb9565b145b1561193e57506002613e91565b606e82608081111561195257611952613fb9565b148061196f5750607082608081111561196d5761196d613fb9565b145b1561197c57506008613e91565b603b82608081111561199057611990613fb9565b14806119ad5750603e8260808111156119ab576119ab613fb9565b145b806119c9575060408260808111156119c7576119c7613fb9565b145b156119d657506011613e91565b6016610f25565b60065460ff16600a1415611b225760018260808111156119ff576119ff613fb9565b1480611a1c57506002826080811115611a1a57611a1a613fb9565b145b80611a3857506005826080811115611a3657611a36613fb9565b145b15611a4557506001613e91565b6009826080811115611a5957611a59613fb9565b1480611a7657506006826080811115611a7457611a74613fb9565b145b15611a8357506002613e91565b606f826080811115611a9757611a97613fb9565b1480611ab457506071826080811115611ab257611ab2613fb9565b145b15611ac157506008613e91565b603d826080811115611ad557611ad5613fb9565b1480611af257506041826080811115611af057611af0613fb9565b145b80611b0e57506042826080811115611b0c57611b0c613fb9565b145b15611b1b57506011613e91565b6017610f25565b60065460ff16600b1415611cbb576001826080811115611b4457611b44613fb9565b1480611b6157506003826080811115611b5f57611b5f613fb9565b145b80611b7d57506005826080811115611b7b57611b7b613fb9565b145b15611b8a57506001613e91565b6009826080811115611b9e57611b9e613fb9565b1480611bbb57506007826080811115611bb957611bb9613fb9565b145b15611bc857506002613e91565b606f826080811115611bdc57611bdc613fb9565b1480611bf957506070826080811115611bf757611bf7613fb9565b145b80611c1557506071826080811115611c1357611c13613fb9565b145b80611c3157506072826080811115611c2f57611c2f613fb9565b145b15611c3e57506008613e91565b603f826080811115611c5257611c52613fb9565b1480611c6f57506041826080811115611c6d57611c6d613fb9565b145b80611c8b57506043826080811115611c8957611c89613fb9565b145b80611ca757506044826080811115611ca557611ca5613fb9565b145b15611cb457506011613e91565b6018610f25565b60065460ff16600c1415611e00576000826080811115611cdd57611cdd613fb9565b1480611cfa57506002826080811115611cf857611cf8613fb9565b145b80611d1657506005826080811115611d1457611d14613fb9565b145b15611d2357506001613e91565b6009826080811115611d3757611d37613fb9565b1480611d5457506008826080811115611d5257611d52613fb9565b145b15611d6157506002613e91565b6070826080811115611d7557611d75613fb9565b1480611d9257506072826080811115611d9057611d90613fb9565b145b15611d9f57506008613e91565b6040826080811115611db357611db3613fb9565b1480611dd057506043826080811115611dce57611dce613fb9565b145b80611dec57506045826080811115611dea57611dea613fb9565b145b15611df957506011613e91565b6019610f25565b60065460ff16600d1415611f45576001826080811115611e2257611e22613fb9565b1480611e3f57506003826080811115611e3d57611e3d613fb9565b145b80611e5b57506005826080811115611e5957611e59613fb9565b145b15611e6857506001613e91565b600a826080811115611e7c57611e7c613fb9565b1480611e9957506006826080811115611e9757611e97613fb9565b145b15611ea657506002613e91565b6071826080811115611eba57611eba613fb9565b1480611ed757506073826080811115611ed557611ed5613fb9565b145b15611ee457506008613e91565b6042826080811115611ef857611ef8613fb9565b1480611f1557506046826080811115611f1357611f13613fb9565b145b80611f3157506047826080811115611f2f57611f2f613fb9565b145b15611f3e57506011613e91565b601a610f25565b60065460ff16600e14156120de576000826080811115611f6757611f67613fb9565b1480611f8457506002826080811115611f8257611f82613fb9565b145b80611fa057506005826080811115611f9e57611f9e613fb9565b145b15611fad57506001613e91565b600a826080811115611fc157611fc1613fb9565b1480611fde57506007826080811115611fdc57611fdc613fb9565b145b15611feb57506002613e91565b6071826080811115611fff57611fff613fb9565b148061201c5750607282608081111561201a5761201a613fb9565b145b806120385750607382608081111561203657612036613fb9565b145b806120545750607482608081111561205257612052613fb9565b145b1561206157506008613e91565b604482608081111561207557612075613fb9565b14806120925750604682608081111561209057612090613fb9565b145b806120ae575060488260808111156120ac576120ac613fb9565b145b806120ca575060498260808111156120c8576120c8613fb9565b145b156120d757506011613e91565b601b610f25565b60065460ff16600f141561222357600182608081111561210057612100613fb9565b148061211d5750600382608081111561211b5761211b613fb9565b145b806121395750600582608081111561213757612137613fb9565b145b1561214657506001613e91565b600a82608081111561215a5761215a613fb9565b14806121775750600882608081111561217557612175613fb9565b145b1561218457506002613e91565b607282608081111561219857612198613fb9565b14806121b5575060748260808111156121b3576121b3613fb9565b145b156121c257506008613e91565b60458260808111156121d6576121d6613fb9565b14806121f3575060488260808111156121f1576121f1613fb9565b145b8061220f5750604a82608081111561220d5761220d613fb9565b145b1561221c57506011613e91565b601c610f25565b60065460ff166010141561236857600082608081111561224557612245613fb9565b14806122625750600282608081111561226057612260613fb9565b145b8061227e5750600582608081111561227c5761227c613fb9565b145b1561228b57506001613e91565b600a82608081111561229f5761229f613fb9565b14806122bc575060068260808111156122ba576122ba613fb9565b145b156122c957506002613e91565b60738260808111156122dd576122dd613fb9565b14806122fa575060758260808111156122f8576122f8613fb9565b145b1561230757506008613e91565b604782608081111561231b5761231b613fb9565b14806123385750604b82608081111561233657612336613fb9565b145b806123545750604c82608081111561235257612352613fb9565b145b1561236157506011613e91565b601d610f25565b60065460ff166011141561250157600182608081111561238a5761238a613fb9565b14806123a7575060038260808111156123a5576123a5613fb9565b145b806123c3575060058260808111156123c1576123c1613fb9565b145b156123d057506001613e91565b600a8260808111156123e4576123e4613fb9565b1480612401575060078260808111156123ff576123ff613fb9565b145b1561240e57506002613e91565b607382608081111561242257612422613fb9565b148061243f5750607482608081111561243d5761243d613fb9565b145b8061245b5750607582608081111561245957612459613fb9565b145b806124775750607682608081111561247557612475613fb9565b145b1561248457506008613e91565b604982608081111561249857612498613fb9565b14806124b55750604b8260808111156124b3576124b3613fb9565b145b806124d15750604d8260808111156124cf576124cf613fb9565b145b806124ed5750604e8260808111156124eb576124eb613fb9565b145b156124fa57506011613e91565b601e610f25565b60065460ff166012141561264657600082608081111561252357612523613fb9565b14806125405750600282608081111561253e5761253e613fb9565b145b8061255c5750600582608081111561255a5761255a613fb9565b145b1561256957506001613e91565b600a82608081111561257d5761257d613fb9565b148061259a5750600882608081111561259857612598613fb9565b145b156125a757506002613e91565b60748260808111156125bb576125bb613fb9565b14806125d8575060768260808111156125d6576125d6613fb9565b145b156125e557506008613e91565b604a8260808111156125f9576125f9613fb9565b14806126165750604d82608081111561261457612614613fb9565b145b806126325750604f82608081111561263057612630613fb9565b145b1561263f57506011613e91565b601f610f25565b60065460ff166013141561278b57600082608081111561266857612668613fb9565b14806126855750600382608081111561268357612683613fb9565b145b806126a15750600482608081111561269f5761269f613fb9565b145b156126ae57506001613e91565b600a8260808111156126c2576126c2613fb9565b14806126df575060068260808111156126dd576126dd613fb9565b145b156126ec57506002613e91565b607582608081111561270057612700613fb9565b148061271d5750607782608081111561271b5761271b613fb9565b145b1561272a57506008613e91565b604782608081111561273e5761273e613fb9565b148061275b5750604b82608081111561275957612759613fb9565b145b806127775750604c82608081111561277557612775613fb9565b145b1561278457506011613e91565b6020610f25565b60065460ff16601414156129245760018260808111156127ad576127ad613fb9565b14806127ca575060028260808111156127c8576127c8613fb9565b145b806127e6575060048260808111156127e4576127e4613fb9565b145b156127f357506001613e91565b600a82608081111561280757612807613fb9565b14806128245750600782608081111561282257612822613fb9565b145b1561283157506002613e91565b607582608081111561284557612845613fb9565b14806128625750607682608081111561286057612860613fb9565b145b8061287e5750607782608081111561287c5761287c613fb9565b145b8061289a5750607882608081111561289857612898613fb9565b145b156128a757506008613e91565b604e8260808111156128bb576128bb613fb9565b14806128d8575060508260808111156128d6576128d6613fb9565b145b806128f4575060528260808111156128f2576128f2613fb9565b145b806129105750605382608081111561290e5761290e613fb9565b145b1561291d57506011613e91565b6021610f25565b60065460ff1660151415612a6957600082608081111561294657612946613fb9565b14806129635750600382608081111561296157612961613fb9565b145b8061297f5750600482608081111561297d5761297d613fb9565b145b1561298c57506001613e91565b600a8260808111156129a0576129a0613fb9565b14806129bd575060088260808111156129bb576129bb613fb9565b145b156129ca57506002613e91565b60768260808111156129de576129de613fb9565b14806129fb575060788260808111156129f9576129f9613fb9565b145b15612a0857506008613e91565b604f826080811115612a1c57612a1c613fb9565b1480612a3957506052826080811115612a3757612a37613fb9565b145b80612a5557506054826080811115612a5357612a53613fb9565b145b15612a6257506011613e91565b6022610f25565b60065460ff1660161415612bae576001826080811115612a8b57612a8b613fb9565b1480612aa857506002826080811115612aa657612aa6613fb9565b145b80612ac457506004826080811115612ac257612ac2613fb9565b145b15612ad157506001613e91565b600a826080811115612ae557612ae5613fb9565b1480612b0257506006826080811115612b0057612b00613fb9565b145b15612b0f57506002613e91565b6077826080811115612b2357612b23613fb9565b1480612b4057506079826080811115612b3e57612b3e613fb9565b145b15612b4d57506008613e91565b6051826080811115612b6157612b61613fb9565b1480612b7e57506055826080811115612b7c57612b7c613fb9565b145b80612b9a57506056826080811115612b9857612b98613fb9565b145b15612ba757506011613e91565b6023610f25565b60065460ff1660171415612d47576000826080811115612bd057612bd0613fb9565b1480612bed57506003826080811115612beb57612beb613fb9565b145b80612c0957506004826080811115612c0757612c07613fb9565b145b15612c1657506001613e91565b600a826080811115612c2a57612c2a613fb9565b1480612c4757506007826080811115612c4557612c45613fb9565b145b15612c5457506002613e91565b6077826080811115612c6857612c68613fb9565b1480612c8557506078826080811115612c8357612c83613fb9565b145b80612ca157506079826080811115612c9f57612c9f613fb9565b145b80612cbd5750607a826080811115612cbb57612cbb613fb9565b145b15612cca57506008613e91565b6053826080811115612cde57612cde613fb9565b1480612cfb57506055826080811115612cf957612cf9613fb9565b145b80612d1757506057826080811115612d1557612d15613fb9565b145b80612d3357506058826080811115612d3157612d31613fb9565b145b15612d4057506011613e91565b6024610f25565b60065460ff1660181415612e8c576001826080811115612d6957612d69613fb9565b1480612d8657506002826080811115612d8457612d84613fb9565b145b80612da257506004826080811115612da057612da0613fb9565b145b15612daf57506001613e91565b600a826080811115612dc357612dc3613fb9565b1480612de057506008826080811115612dde57612dde613fb9565b145b15612ded57506002613e91565b6078826080811115612e0157612e01613fb9565b1480612e1e5750607a826080811115612e1c57612e1c613fb9565b145b15612e2b57506008613e91565b6054826080811115612e3f57612e3f613fb9565b1480612e5c57506057826080811115612e5a57612e5a613fb9565b145b80612e7857506059826080811115612e7657612e76613fb9565b145b15612e8557506011613e91565b6025610f25565b60065460ff1660191415612fd1576000826080811115612eae57612eae613fb9565b1480612ecb57506003826080811115612ec957612ec9613fb9565b145b80612ee757506004826080811115612ee557612ee5613fb9565b145b15612ef457506001613e91565b600b826080811115612f0857612f08613fb9565b1480612f2557506006826080811115612f2357612f23613fb9565b145b15612f3257506002613e91565b6079826080811115612f4657612f46613fb9565b1480612f635750607b826080811115612f6157612f61613fb9565b145b15612f7057506008613e91565b6056826080811115612f8457612f84613fb9565b1480612fa15750605a826080811115612f9f57612f9f613fb9565b145b80612fbd5750605b826080811115612fbb57612fbb613fb9565b145b15612fca57506011613e91565b6026610f25565b60065460ff16601a141561316a576001826080811115612ff357612ff3613fb9565b14806130105750600282608081111561300e5761300e613fb9565b145b8061302c5750600482608081111561302a5761302a613fb9565b145b1561303957506001613e91565b600b82608081111561304d5761304d613fb9565b148061306a5750600782608081111561306857613068613fb9565b145b1561307757506002613e91565b607982608081111561308b5761308b613fb9565b14806130a85750607a8260808111156130a6576130a6613fb9565b145b806130c45750607b8260808111156130c2576130c2613fb9565b145b806130e05750607c8260808111156130de576130de613fb9565b145b156130ed57506008613e91565b605882608081111561310157613101613fb9565b148061311e5750605a82608081111561311c5761311c613fb9565b145b8061313a5750605c82608081111561313857613138613fb9565b145b806131565750605d82608081111561315457613154613fb9565b145b1561316357506011613e91565b6027610f25565b60065460ff16601b14156132af57600082608081111561318c5761318c613fb9565b14806131a9575060038260808111156131a7576131a7613fb9565b145b806131c5575060048260808111156131c3576131c3613fb9565b145b156131d257506001613e91565b600b8260808111156131e6576131e6613fb9565b14806132035750600882608081111561320157613201613fb9565b145b1561321057506002613e91565b607a82608081111561322457613224613fb9565b14806132415750607c82608081111561323f5761323f613fb9565b145b1561324e57506008613e91565b605982608081111561326257613262613fb9565b148061327f5750605c82608081111561327d5761327d613fb9565b145b8061329b5750605e82608081111561329957613299613fb9565b145b156132a857506011613e91565b6028610f25565b60065460ff16601c14156133f45760018260808111156132d1576132d1613fb9565b14806132ee575060028260808111156132ec576132ec613fb9565b145b8061330a5750600482608081111561330857613308613fb9565b145b1561331757506001613e91565b600b82608081111561332b5761332b613fb9565b14806133485750600682608081111561334657613346613fb9565b145b1561335557506002613e91565b607b82608081111561336957613369613fb9565b14806133865750607d82608081111561338457613384613fb9565b145b1561339357506008613e91565b605b8260808111156133a7576133a7613fb9565b14806133c45750605f8260808111156133c2576133c2613fb9565b145b806133e0575060608260808111156133de576133de613fb9565b145b156133ed57506011613e91565b6029610f25565b60065460ff16601d141561358d57600182608081111561341657613416613fb9565b14806134335750600382608081111561343157613431613fb9565b145b8061344f5750600482608081111561344d5761344d613fb9565b145b1561345c57506001613e91565b600b82608081111561347057613470613fb9565b148061348d5750600782608081111561348b5761348b613fb9565b145b1561349a57506002613e91565b607b8260808111156134ae576134ae613fb9565b14806134cb5750607c8260808111156134c9576134c9613fb9565b145b806134e75750607d8260808111156134e5576134e5613fb9565b145b806135035750607e82608081111561350157613501613fb9565b145b1561351057506008613e91565b605d82608081111561352457613524613fb9565b14806135415750605f82608081111561353f5761353f613fb9565b145b8061355d5750606182608081111561355b5761355b613fb9565b145b806135795750606282608081111561357757613577613fb9565b145b1561358657506011613e91565b602a610f25565b60065460ff16601e14156136d25760008260808111156135af576135af613fb9565b14806135cc575060028260808111156135ca576135ca613fb9565b145b806135e8575060048260808111156135e6576135e6613fb9565b145b156135f557506001613e91565b600b82608081111561360957613609613fb9565b14806136265750600882608081111561362457613624613fb9565b145b1561363357506002613e91565b607c82608081111561364757613647613fb9565b14806136645750607e82608081111561366257613662613fb9565b145b1561367157506008613e91565b605e82608081111561368557613685613fb9565b14806136a2575060618260808111156136a0576136a0613fb9565b145b806136be575060638260808111156136bc576136bc613fb9565b145b156136cb57506011613e91565b602b610f25565b60065460ff16601f14156138175760018260808111156136f4576136f4613fb9565b14806137115750600382608081111561370f5761370f613fb9565b145b8061372d5750600482608081111561372b5761372b613fb9565b145b1561373a57506001613e91565b600b82608081111561374e5761374e613fb9565b148061376b5750600682608081111561376957613769613fb9565b145b1561377857506002613e91565b607d82608081111561378c5761378c613fb9565b14806137a95750607f8260808111156137a7576137a7613fb9565b145b156137b657506008613e91565b60608260808111156137ca576137ca613fb9565b14806137e7575060648260808111156137e5576137e5613fb9565b145b806138035750606582608081111561380157613801613fb9565b145b1561381057506011613e91565b602c610f25565b60065460ff16602014156139b057600082608081111561383957613839613fb9565b14806138565750600282608081111561385457613854613fb9565b145b806138725750600482608081111561387057613870613fb9565b145b1561387f57506001613e91565b600b82608081111561389357613893613fb9565b14806138b0575060078260808111156138ae576138ae613fb9565b145b156138bd57506002613e91565b607d8260808111156138d1576138d1613fb9565b14806138ee5750607e8260808111156138ec576138ec613fb9565b145b8061390a5750607f82608081111561390857613908613fb9565b145b806139265750608082608081111561392457613924613fb9565b145b1561393357506008613e91565b606282608081111561394757613947613fb9565b14806139645750606482608081111561396257613962613fb9565b145b806139805750606682608081111561397e5761397e613fb9565b145b8061399c5750606782608081111561399a5761399a613fb9565b145b156139a957506011613e91565b602d610f25565b60065460ff1660211415613af55760018260808111156139d2576139d2613fb9565b14806139ef575060038260808111156139ed576139ed613fb9565b145b80613a0b57506004826080811115613a0957613a09613fb9565b145b15613a1857506001613e91565b600b826080811115613a2c57613a2c613fb9565b1480613a4957506008826080811115613a4757613a47613fb9565b145b15613a5657506002613e91565b607e826080811115613a6a57613a6a613fb9565b1480613a8757506080826080811115613a8557613a85613fb9565b145b15613a9457506008613e91565b6063826080811115613aa857613aa8613fb9565b1480613ac557506066826080811115613ac357613ac3613fb9565b145b80613ae157506068826080811115613adf57613adf613fb9565b145b15613aee57506011613e91565b602e610f25565b60065460ff1660221415613c02576000826080811115613b1757613b17613fb9565b1480613b3457506002826080811115613b3257613b32613fb9565b145b80613b5057506004826080811115613b4e57613b4e613fb9565b145b15613b5d57506001613e91565b600b826080811115613b7157613b71613fb9565b1480613b8e57506006826080811115613b8c57613b8c613fb9565b145b15613b9b57506002613e91565b607f826080811115613baf57613baf613fb9565b1415613bbd57506008613e91565b6065826080811115613bd157613bd1613fb9565b1480613bee57506069826080811115613bec57613bec613fb9565b145b15613bfb57506011613e91565b602f610f25565b60065460ff1660231415613d47576001826080811115613c2457613c24613fb9565b1480613c4157506003826080811115613c3f57613c3f613fb9565b145b80613c5d57506004826080811115613c5b57613c5b613fb9565b145b15613c6a57506001613e91565b600b826080811115613c7e57613c7e613fb9565b1480613c9b57506007826080811115613c9957613c99613fb9565b145b15613ca857506002613e91565b607f826080811115613cbc57613cbc613fb9565b1480613cd957506080826080811115613cd757613cd7613fb9565b145b15613ce657506008613e91565b6067826080811115613cfa57613cfa613fb9565b1480613d1757506069826080811115613d1557613d15613fb9565b145b80613d335750606a826080811115613d3157613d31613fb9565b145b15613d4057506011613e91565b6030610f25565b60065460ff1660241415613e54576000826080811115613d6957613d69613fb9565b1480613d8657506002826080811115613d8457613d84613fb9565b145b80613da257506004826080811115613da057613da0613fb9565b145b15613daf57506001613e91565b600b826080811115613dc357613dc3613fb9565b1480613de057506008826080811115613dde57613dde613fb9565b145b15613ded57506002613e91565b6080826080811115613e0157613e01613fb9565b1415613e0f57506008613e91565b6068826080811115613e2357613e23613fb9565b1480613e405750606a826080811115613e3e57613e3e613fb9565b145b15613e4d57506011613e91565b6031610f25565b60065460ff1660251415613e6957600c610f25565b60065460ff16613e9157600d826080811115613e8757613e87613fb9565b1415613e91575060235b9392505050565b634e487b7160e01b600052604160045260246000fd5b600082601f830112613ebf57600080fd5b8135602067ffffffffffffffff80831115613edc57613edc613e98565b8260051b604051601f19603f83011681018181108482111715613f0157613f01613e98565b604052938452858101830193838101925087851115613f1f57600080fd5b83870191505b84821015613f3e57813583529183019190830190613f25565b979650505050505050565b60008060408385031215613f5c57600080fd5b82359150602083013567ffffffffffffffff811115613f7a57600080fd5b613f8685828601613eae565b9150509250929050565b600060208284031215613fa257600080fd5b81356001600160a01b0381168114613e9157600080fd5b634e487b7160e01b600052602160045260246000fd5b60208082528251828201819052600091906040908185019086840185805b8381101561402e578251805186528701516081811061401a57634e487b7160e01b83526021600452602483fd5b858801529385019391860191600101613fed565b509298975050505050505050565b6020808252825182820181905260009190848201906040850190845b8181101561407d5783516001600160a01b031683529284019291840191600101614058565b50909695505050505050565b6000806040838503121561409c57600080fd5b823567ffffffffffffffff808211156140b457600080fd5b6140c086838701613eae565b935060208501359150808211156140d657600080fd5b50613f8685828601613eae565b6020808252818101527f4f776e61626c653a2063616c6c6572206973206e6f7420746865206f776e6572604082015260600190565b60006020828403121561412a57600080fd5b5051919050565b60208082526026908201527f4d7573742062652073697474696e67206174207461626c6520746f20706c616360408201526532903132ba1760d11b606082015260800190565b634e487b7160e01b600052603260045260246000fd5b634e487b7160e01b600052601160045260246000fd5b60006000198214156141b7576141b761418d565b5060010190565b6000826141db57634e487b7160e01b600052601260045260246000fd5b500690565b600060ff821660ff84168060ff038211156141fd576141fd61418d565b019392505050565b600081600019048311821515161561421f5761421f61418d565b500290565b600082198211156142375761423761418d565b50019056fea26469706673582212205e0bfb16c154adb8d7b6e5e323d8b0103602103dc50dbfabcc64a1c32064662d64736f6c634300080c0033","bytecodeSha1":"dc747b099a5518bccd20779f00c5026fa01a303e","compiler":{"evm_version":"istanbul","optimizer":{"enabled":true,"runs":200},"version":"0.8.12+commit.f00d7308"},"contractName":"Roulette","language":"Solidity","natspec":{"kind":"dev","methods":{"owner()":{"details":"Returns the address of the current owner."},"renounceOwnership()":{"details":"Leaves the contract without owner. It will not be possible to call `onlyOwner` functions anymore. Can only be called by the current owner. NOTE: Renouncing ownership will leave the contract without an owner, thereby removing any functionality that is only available to the owner."},"transferOwnership(address)":{"details":"Transfers ownership of the contract to a new account (`newOwner`). Can only be called by the current owner."}},"version":1},"opcodes":"PUSH1 0x80 PUSH1 0x40 MSTORE CALLVALUE DUP1 ISZERO PUSH2 0x10 JUMPI PUSH1 0x0 DUP1 REVERT JUMPDEST POP PUSH1 0x4 CALLDATASIZE LT PUSH2 0x10B JUMPI PUSH1 0x0 CALLDATALOAD PUSH1 0xE0 SHR DUP1 PUSH4 0x8B0B9ED4 GT PUSH2 0xA2 JUMPI DUP1 PUSH4 0xA625671C GT PUSH2 0x71 JUMPI DUP1 PUSH4 0xA625671C EQ PUSH2 0x1F6 JUMPI DUP1 PUSH4 0xB9174A96 EQ PUSH2 0x21F JUMPI DUP1 PUSH4 0xBDD60E92 EQ PUSH2 0x25B JUMPI DUP1 PUSH4 0xF2FDE38B EQ PUSH2 0x26E JUMPI DUP1 PUSH4 0xF630AA65 EQ PUSH2 0x281 JUMPI PUSH1 0x0 DUP1 REVERT JUMPDEST DUP1 PUSH4 0x8B0B9ED4 EQ PUSH2 0x1A9 JUMPI DUP1 PUSH4 0x8B5B9CCC EQ PUSH2 0x1BE JUMPI DUP1 PUSH4 0x8DA5CB5B EQ PUSH2 0x1D3 JUMPI DUP1 PUSH4 0x9F3BA30A EQ PUSH2 0x1EE JUMPI PUSH1 0x0 DUP1 REVERT JUMPDEST DUP1 PUSH4 0x4816C735 GT PUSH2 0xDE JUMPI DUP1 PUSH4 0x4816C735 EQ PUSH2 0x171 JUMPI DUP1 PUSH4 0x715018A6 EQ PUSH2 0x179 JUMPI DUP1 PUSH4 0x7E4AA3C6 EQ PUSH2 0x181 JUMPI DUP1 PUSH4 0x81E074BA EQ PUSH2 0x189 JUMPI PUSH1 0x0 DUP1 REVERT JUMPDEST DUP1 PUSH4 0x15ECEF92 EQ PUSH2 0x110 JUMPI DUP1 PUSH4 0x1B4D7E37 EQ PUSH2 0x11A JUMPI DUP1 PUSH4 0x1FE543E3 EQ PUSH2 0x122 JUMPI DUP1 PUSH4 0x2858EFF1 EQ PUSH2 0x135 JUMPI JUMPDEST PUSH1 0x0 DUP1 REVERT JUMPDEST PUSH2 0x118 PUSH2 0x28A JUMP JUMPDEST STOP JUMPDEST PUSH2 0x118 PUSH2 0x367 JUMP JUMPDEST PUSH2 0x118 PUSH2 0x130 CALLDATASIZE PUSH1 0x4 PUSH2 0x3F49 JUMP JUMPDEST PUSH2 0x4C4 JUMP JUMPDEST PUSH2 0x15E PUSH2 0x143 CALLDATASIZE PUSH1 0x4 PUSH2 0x3F90 JUMP JUMPDEST PUSH1 0x1 PUSH1 0x1 PUSH1 0xA0 SHL SUB AND PUSH1 0x0 SWAP1 DUP2 MSTORE PUSH1 0xC PUSH1 0x20 MSTORE PUSH1 0x40 SWAP1 KECCAK256 SLOAD SWAP1 JUMP JUMPDEST PUSH1 0x40 MLOAD SWAP1 DUP2 MSTORE PUSH1 0x20 ADD JUMPDEST PUSH1 0x40 MLOAD DUP1 SWAP2 SUB SWAP1 RETURN JUMPDEST PUSH2 0x118 PUSH2 0x548 JUMP JUMPDEST PUSH2 0x118 PUSH2 0x5BF JUMP JUMPDEST PUSH2 0x118 PUSH2 0x5F5 JUMP JUMPDEST PUSH2 0x19C PUSH2 0x197 CALLDATASIZE PUSH1 0x4 PUSH2 0x3F90 JUMP JUMPDEST PUSH2 0x696 JUMP JUMPDEST PUSH1 0x40 MLOAD PUSH2 0x168 SWAP2 SWAP1 PUSH2 0x3FCF JUMP JUMPDEST PUSH1 0x6 SLOAD PUSH1 0x40 MLOAD PUSH1 0xFF SWAP1 SWAP2 AND DUP2 MSTORE PUSH1 0x20 ADD PUSH2 0x168 JUMP JUMPDEST PUSH2 0x1C6 PUSH2 0x74E JUMP JUMPDEST PUSH1 0x40 MLOAD PUSH2 0x168 SWAP2 SWAP1 PUSH2 0x403C JUMP JUMPDEST PUSH1 0x0 SLOAD PUSH1 0x40 MLOAD PUSH1 0x1 PUSH1 0x1 PUSH1 0xA0 SHL SUB SWAP1 SWAP2 AND DUP2 MSTORE PUSH1 0x20 ADD PUSH2 0x168 JUMP JUMPDEST PUSH2 0x118 PUSH2 0x7B0 JUMP JUMPDEST PUSH2 0x15E PUSH2 0x204 CALLDATASIZE PUSH1 0x4 PUSH2 0x3F90 JUMP JUMPDEST PUSH1 0x1 PUSH1 0x1 PUSH1 0xA0 SHL SUB AND PUSH1 0x0 SWAP1 DUP2 MSTORE PUSH1 0xD PUSH1 0x20 MSTORE PUSH1 0x40 SWAP1 KECCAK256 SLOAD SWAP1 JUMP JUMPDEST PUSH2 0x24B PUSH2 0x22D CALLDATASIZE PUSH1 0x4 PUSH2 0x3F90 JUMP JUMPDEST PUSH1 0x1 PUSH1 0x1 PUSH1 0xA0 SHL SUB AND PUSH1 0x0 SWAP1 DUP2 MSTORE PUSH1 0xA PUSH1 0x20 MSTORE PUSH1 0x40 SWAP1 KECCAK256 SLOAD PUSH1 0xFF AND SWAP1 JUMP JUMPDEST PUSH1 0x40 MLOAD SWAP1 ISZERO ISZERO DUP2 MSTORE PUSH1 0x20 ADD PUSH2 0x168 JUMP JUMPDEST PUSH2 0x118 PUSH2 0x269 CALLDATASIZE PUSH1 0x4 PUSH2 0x4089 JUMP JUMPDEST PUSH2 0x874 JUMP JUMPDEST PUSH2 0x118 PUSH2 0x27C CALLDATASIZE PUSH1 0x4 PUSH2 0x3F90 JUMP JUMPDEST PUSH2 0xA5C JUMP JUMPDEST PUSH2 0x15E PUSH1 0x7 SLOAD DUP2 JUMP JUMPDEST PUSH1 0x0 SLOAD PUSH1 0x1 PUSH1 0x1 PUSH1 0xA0 SHL SUB AND CALLER EQ PUSH2 0x2BD JUMPI PUSH1 0x40 MLOAD PUSH3 0x461BCD PUSH1 0xE5 SHL DUP2 MSTORE PUSH1 0x4 ADD PUSH2 0x2B4 SWAP1 PUSH2 0x40E3 JUMP JUMPDEST PUSH1 0x40 MLOAD DUP1 SWAP2 SUB SWAP1 REVERT JUMPDEST PUSH1 0x1 DUP1 SLOAD PUSH1 0x9 SLOAD PUSH1 0x6 SLOAD PUSH1 0x40 MLOAD PUSH4 0x5D3B1D3 PUSH1 0xE4 SHL DUP2 MSTORE PUSH1 0x4 DUP2 ADD SWAP3 SWAP1 SWAP3 MSTORE PUSH2 0x100 SWAP1 DIV PUSH8 0xFFFFFFFFFFFFFFFF AND PUSH1 0x24 DUP3 ADD MSTORE PUSH1 0x3 PUSH1 0x44 DUP3 ADD MSTORE PUSH3 0x186A0 PUSH1 0x64 DUP3 ADD MSTORE PUSH1 0x84 DUP2 ADD SWAP3 SWAP1 SWAP3 MSTORE PUSH1 0x0 SWAP2 PUSH1 0x1 PUSH1 0x1 PUSH1 0xA0 SHL SUB SWAP1 SWAP2 AND SWAP1 PUSH4 0x5D3B1D30 SWAP1 PUSH1 0xA4 ADD PUSH1 0x20 PUSH1 0x40 MLOAD DUP1 DUP4 SUB DUP2 PUSH1 0x0 DUP8 GAS CALL ISZERO DUP1 ISZERO PUSH2 0x33F JUMPI RETURNDATASIZE PUSH1 0x0 DUP1 RETURNDATACOPY RETURNDATASIZE PUSH1 0x0 REVERT JUMPDEST POP POP POP POP PUSH1 0x40 MLOAD RETURNDATASIZE PUSH1 0x1F NOT PUSH1 0x1F DUP3 ADD AND DUP3 ADD DUP1 PUSH1 0x40 MSTORE POP DUP2 ADD SWAP1 PUSH2 0x363 SWAP2 SWAP1 PUSH2 0x4118 JUMP JUMPDEST POP POP JUMP JUMPDEST PUSH1 0x3 SLOAD PUSH1 0x40 MLOAD PUSH4 0x70A08231 PUSH1 0xE0 SHL DUP2 MSTORE CALLER PUSH1 0x4 DUP3 ADD MSTORE PUSH1 0x0 SWAP2 PUSH1 0x1 PUSH1 0x1 PUSH1 0xA0 SHL SUB AND SWAP1 PUSH4 0x70A08231 SWAP1 PUSH1 0x24 ADD PUSH1 0x20 PUSH1 0x40 MLOAD DUP1 DUP4 SUB DUP2 DUP7 GAS STATICCALL ISZERO DUP1 ISZERO PUSH2 0x3B0 JUMPI RETURNDATASIZE PUSH1 0x0 DUP1 RETURNDATACOPY RETURNDATASIZE PUSH1 0x0 REVERT JUMPDEST POP POP POP POP PUSH1 0x40 MLOAD RETURNDATASIZE PUSH1 0x1F NOT PUSH1 0x1F DUP3 ADD AND DUP3 ADD DUP1 PUSH1 0x40 MSTORE POP DUP2 ADD SWAP1 PUSH2 0x3D4 SWAP2 SWAP1 PUSH2 0x4118 JUMP JUMPDEST GT PUSH2 0x431 JUMPI PUSH1 0x40 MLOAD PUSH3 0x461BCD PUSH1 0xE5 SHL DUP2 MSTORE PUSH1 0x20 PUSH1 0x4 DUP3 ADD MSTORE PUSH1 0x27 PUSH1 0x24 DUP3 ADD MSTORE PUSH32 0x596F75206E65656420474D424C20746F2073697420646F776E20617420746865 PUSH1 0x44 DUP3 ADD MSTORE PUSH7 0x103A30B1363297 PUSH1 0xC9 SHL PUSH1 0x64 DUP3 ADD MSTORE PUSH1 0x84 ADD PUSH2 0x2B4 JUMP JUMPDEST CALLER PUSH1 0x0 DUP2 DUP2 MSTORE PUSH1 0xA PUSH1 0x20 SWAP1 DUP2 MSTORE PUSH1 0x40 DUP1 DUP4 KECCAK256 DUP1 SLOAD PUSH1 0xFF NOT AND PUSH1 0x1 SWAP1 DUP2 OR SWAP1 SWAP2 SSTORE PUSH1 0x5 DUP1 SLOAD SWAP2 DUP3 ADD DUP2 SSTORE SWAP1 SWAP4 MSTORE PUSH32 0x36B6384B5ECA791C62761152D0C79BB0604C104A5FB6F4EB0703F3154BB3DB0 SWAP1 SWAP3 ADD DUP1 SLOAD PUSH1 0x1 PUSH1 0x1 PUSH1 0xA0 SHL SUB NOT AND DUP5 OR SWAP1 SSTORE SWAP1 MLOAD SWAP2 DUP3 MSTORE PUSH32 0x2F61376D8C0F0E7027A18ABDA575FD1CAFEA604DB44D5BB37E26A3D42C9A2685 SWAP2 ADD JUMPDEST PUSH1 0x40 MLOAD DUP1 SWAP2 SUB SWAP1 LOG1 JUMP JUMPDEST CALLER PUSH1 0x1 PUSH1 0x1 PUSH1 0xA0 SHL SUB PUSH32 0x0 AND EQ PUSH2 0x53E JUMPI PUSH1 0x40 MLOAD PUSH4 0x73E64FD PUSH1 0xE2 SHL DUP2 MSTORE CALLER PUSH1 0x4 DUP3 ADD MSTORE PUSH1 0x1 PUSH1 0x1 PUSH1 0xA0 SHL SUB PUSH32 0x0 AND PUSH1 0x24 DUP3 ADD MSTORE PUSH1 0x44 ADD PUSH2 0x2B4 JUMP JUMPDEST PUSH2 0x363 DUP3 DUP3 PUSH2 0xAF4 JUMP JUMPDEST CALLER PUSH1 0x0 SWAP1 DUP2 MSTORE PUSH1 0xA PUSH1 0x20 MSTORE PUSH1 0x40 SWAP1 KECCAK256 SLOAD PUSH1 0xFF AND PUSH2 0x577 JUMPI PUSH1 0x40 MLOAD PUSH3 0x461BCD PUSH1 0xE5 SHL DUP2 MSTORE PUSH1 0x4 ADD PUSH2 0x2B4 SWAP1 PUSH2 0x4131 JUMP JUMPDEST CALLER PUSH1 0x0 DUP2 DUP2 MSTORE PUSH1 0xA PUSH1 0x20 SWAP1 DUP2 MSTORE PUSH1 0x40 SWAP2 DUP3 SWAP1 KECCAK256 DUP1 SLOAD PUSH1 0xFF NOT AND SWAP1 SSTORE SWAP1 MLOAD SWAP2 DUP3 MSTORE PUSH32 0x81AC5CD731AA4703BCE831ACA31143E455D51B1732E0C234AA39899104CBB27A SWAP2 ADD PUSH2 0x4BA JUMP JUMPDEST PUSH1 0x0 SLOAD PUSH1 0x1 PUSH1 0x1 PUSH1 0xA0 SHL SUB AND CALLER EQ PUSH2 0x5E9 JUMPI PUSH1 0x40 MLOAD PUSH3 0x461BCD PUSH1 0xE5 SHL DUP2 MSTORE PUSH1 0x4 ADD PUSH2 0x2B4 SWAP1 PUSH2 0x40E3 JUMP JUMPDEST PUSH2 0x5F3 PUSH1 0x0 PUSH2 0xB3E JUMP JUMPDEST JUMP JUMPDEST PUSH1 0x0 SLOAD PUSH1 0x1 PUSH1 0x1 PUSH1 0xA0 SHL SUB AND CALLER EQ PUSH2 0x61F JUMPI PUSH1 0x40 MLOAD PUSH3 0x461BCD PUSH1 0xE5 SHL DUP2 MSTORE PUSH1 0x4 ADD PUSH2 0x2B4 SWAP1 PUSH2 0x40E3 JUMP JUMPDEST PUSH1 0x1 SLOAD PUSH1 0x6 SLOAD PUSH1 0x40 MLOAD PUSH4 0x1CD07043 PUSH1 0xE2 SHL DUP2 MSTORE PUSH2 0x100 SWAP1 SWAP2 DIV PUSH8 0xFFFFFFFFFFFFFFFF AND PUSH1 0x4 DUP3 ADD MSTORE ADDRESS PUSH1 0x24 DUP3 ADD MSTORE PUSH1 0x1 PUSH1 0x1 PUSH1 0xA0 SHL SUB SWAP1 SWAP2 AND SWAP1 PUSH4 0x7341C10C SWAP1 PUSH1 0x44 ADD PUSH1 0x0 PUSH1 0x40 MLOAD DUP1 DUP4 SUB DUP2 PUSH1 0x0 DUP8 DUP1 EXTCODESIZE ISZERO DUP1 ISZERO PUSH2 0x67C JUMPI PUSH1 0x0 DUP1 REVERT JUMPDEST POP GAS CALL ISZERO DUP1 ISZERO PUSH2 0x690 JUMPI RETURNDATASIZE PUSH1 0x0 DUP1 RETURNDATACOPY RETURNDATASIZE PUSH1 0x0 REVERT JUMPDEST POP POP POP POP JUMP JUMPDEST PUSH1 0x1 PUSH1 0x1 PUSH1 0xA0 SHL SUB DUP2 AND PUSH1 0x0 SWAP1 DUP2 MSTORE PUSH1 0xB PUSH1 0x20 SWAP1 DUP2 MSTORE PUSH1 0x40 DUP1 DUP4 KECCAK256 DUP1 SLOAD DUP3 MLOAD DUP2 DUP6 MUL DUP2 ADD DUP6 ADD SWAP1 SWAP4 MSTORE DUP1 DUP4 MSTORE PUSH1 0x60 SWAP5 SWAP3 SWAP4 SWAP2 SWAP3 SWAP1 SWAP2 DUP5 ADD JUMPDEST DUP3 DUP3 LT ISZERO PUSH2 0x743 JUMPI DUP4 DUP3 SWAP1 PUSH1 0x0 MSTORE PUSH1 0x20 PUSH1 0x0 KECCAK256 SWAP1 PUSH1 0x2 MUL ADD PUSH1 0x40 MLOAD DUP1 PUSH1 0x40 ADD PUSH1 0x40 MSTORE SWAP1 DUP2 PUSH1 0x0 DUP3 ADD SLOAD DUP2 MSTORE PUSH1 0x20 ADD PUSH1 0x1 DUP3 ADD PUSH1 0x0 SWAP1 SLOAD SWAP1 PUSH2 0x100 EXP SWAP1 DIV PUSH1 0xFF AND PUSH1 0x80 DUP2 GT ISZERO PUSH2 0x71F JUMPI PUSH2 0x71F PUSH2 0x3FB9 JUMP JUMPDEST PUSH1 0x80 DUP2 GT ISZERO PUSH2 0x730 JUMPI PUSH2 0x730 PUSH2 0x3FB9 JUMP JUMPDEST DUP2 MSTORE POP POP DUP2 MSTORE PUSH1 0x20 ADD SWAP1 PUSH1 0x1 ADD SWAP1 PUSH2 0x6CE JUMP JUMPDEST POP POP POP POP SWAP1 POP SWAP2 SWAP1 POP JUMP JUMPDEST PUSH1 0x60 PUSH1 0x5 DUP1 SLOAD DUP1 PUSH1 0x20 MUL PUSH1 0x20 ADD PUSH1 0x40 MLOAD SWAP1 DUP2 ADD PUSH1 0x40 MSTORE DUP1 SWAP3 SWAP2 SWAP1 DUP2 DUP2 MSTORE PUSH1 0x20 ADD DUP3 DUP1 SLOAD DUP1 ISZERO PUSH2 0x7A6 JUMPI PUSH1 0x20 MUL DUP3 ADD SWAP2 SWAP1 PUSH1 0x0 MSTORE PUSH1 0x20 PUSH1 0x0 KECCAK256 SWAP1 JUMPDEST DUP2 SLOAD PUSH1 0x1 PUSH1 0x1 PUSH1 0xA0 SHL SUB AND DUP2 MSTORE PUSH1 0x1 SWAP1 SWAP2 ADD SWAP1 PUSH1 0x20 ADD DUP1 DUP4 GT PUSH2 0x788 JUMPI JUMPDEST POP POP POP POP POP SWAP1 POP SWAP1 JUMP JUMPDEST PUSH1 0x0 SLOAD PUSH1 0x1 PUSH1 0x1 PUSH1 0xA0 SHL SUB AND CALLER EQ PUSH2 0x7DA JUMPI PUSH1 0x40 MLOAD PUSH3 0x461BCD PUSH1 0xE5 SHL DUP2 MSTORE PUSH1 0x4 ADD PUSH2 0x2B4 SWAP1 PUSH2 0x40E3 JUMP JUMPDEST PUSH1 0x0 JUMPDEST PUSH1 0x5 SLOAD DUP2 LT ISZERO PUSH2 0x871 JUMPI PUSH1 0xA PUSH1 0x0 PUSH1 0x5 DUP4 DUP2 SLOAD DUP2 LT PUSH2 0x7FE JUMPI PUSH2 0x7FE PUSH2 0x4177 JUMP JUMPDEST PUSH1 0x0 SWAP2 DUP3 MSTORE PUSH1 0x20 DUP1 DUP4 KECCAK256 SWAP1 SWAP2 ADD SLOAD PUSH1 0x1 PUSH1 0x1 PUSH1 0xA0 SHL SUB AND DUP4 MSTORE DUP3 ADD SWAP3 SWAP1 SWAP3 MSTORE PUSH1 0x40 ADD SWAP1 KECCAK256 SLOAD PUSH1 0xFF AND PUSH2 0x82F JUMPI PUSH2 0x85F JUMP JUMPDEST PUSH2 0x85F PUSH1 0x5 DUP3 DUP2 SLOAD DUP2 LT PUSH2 0x845 JUMPI PUSH2 0x845 PUSH2 0x4177 JUMP JUMPDEST PUSH1 0x0 SWAP2 DUP3 MSTORE PUSH1 0x20 SWAP1 SWAP2 KECCAK256 ADD SLOAD PUSH1 0x1 PUSH1 0x1 PUSH1 0xA0 SHL SUB AND PUSH2 0xB8E JUMP JUMPDEST DUP1 PUSH2 0x869 DUP2 PUSH2 0x41A3 JUMP JUMPDEST SWAP2 POP POP PUSH2 0x7DD JUMP JUMPDEST POP JUMP JUMPDEST CALLER PUSH1 0x0 SWAP1 DUP2 MSTORE PUSH1 0xA PUSH1 0x20 MSTORE PUSH1 0x40 SWAP1 KECCAK256 SLOAD PUSH1 0xFF AND PUSH2 0x8A3 JUMPI PUSH1 0x40 MLOAD PUSH3 0x461BCD PUSH1 0xE5 SHL DUP2 MSTORE PUSH1 0x4 ADD PUSH2 0x2B4 SWAP1 PUSH2 0x4131 JUMP JUMPDEST DUP1 MLOAD DUP3 MLOAD EQ PUSH2 0x8B1 JUMPI PUSH1 0x0 DUP1 REVERT JUMPDEST PUSH1 0x0 JUMPDEST DUP3 MLOAD DUP2 LT ISZERO PUSH2 0x9AB JUMPI PUSH1 0xB PUSH1 0x0 CALLER PUSH1 0x1 PUSH1 0x1 PUSH1 0xA0 SHL SUB AND PUSH1 0x1 PUSH1 0x1 PUSH1 0xA0 SHL SUB AND DUP2 MSTORE PUSH1 0x20 ADD SWAP1 DUP2 MSTORE PUSH1 0x20 ADD PUSH1 0x0 KECCAK256 PUSH1 0x40 MLOAD DUP1 PUSH1 0x40 ADD PUSH1 0x40 MSTORE DUP1 DUP6 DUP5 DUP2 MLOAD DUP2 LT PUSH2 0x8FF JUMPI PUSH2 0x8FF PUSH2 0x4177 JUMP JUMPDEST PUSH1 0x20 MUL PUSH1 0x20 ADD ADD MLOAD DUP2 MSTORE PUSH1 0x20 ADD DUP5 DUP5 DUP2 MLOAD DUP2 LT PUSH2 0x91E JUMPI PUSH2 0x91E PUSH2 0x4177 JUMP JUMPDEST PUSH1 0x20 MUL PUSH1 0x20 ADD ADD MLOAD PUSH1 0x80 DUP2 GT ISZERO PUSH2 0x937 JUMPI PUSH2 0x937 PUSH2 0x3FB9 JUMP JUMPDEST PUSH1 0x80 DUP2 GT ISZERO PUSH2 0x948 JUMPI PUSH2 0x948 PUSH2 0x3FB9 JUMP JUMPDEST SWAP1 MSTORE DUP2 SLOAD PUSH1 0x1 DUP2 DUP2 ADD DUP5 SSTORE PUSH1 0x0 SWAP4 DUP5 MSTORE PUSH1 0x20 SWAP4 DUP5 SWAP1 KECCAK256 DUP4 MLOAD PUSH1 0x2 SWAP1 SWAP4 MUL ADD SWAP2 DUP3 SSTORE SWAP3 DUP3 ADD MLOAD DUP2 DUP5 ADD DUP1 SLOAD SWAP4 SWAP5 SWAP3 SWAP4 SWAP2 SWAP3 SWAP1 SWAP2 PUSH1 0xFF NOT AND SWAP1 DUP4 PUSH1 0x80 DUP2 GT ISZERO PUSH2 0x991 JUMPI PUSH2 0x991 PUSH2 0x3FB9 JUMP JUMPDEST MUL OR SWAP1 SSTORE POP POP POP DUP1 DUP1 PUSH2 0x9A3 SWAP1 PUSH2 0x41A3 JUMP JUMPDEST SWAP2 POP POP PUSH2 0x8B4 JUMP JUMPDEST POP PUSH1 0x0 PUSH2 0x9B7 DUP4 PUSH2 0xDC7 JUMP JUMPDEST PUSH1 0x3 SLOAD PUSH1 0x40 MLOAD PUSH4 0x2770A7EB PUSH1 0xE2 SHL DUP2 MSTORE CALLER PUSH1 0x4 DUP3 ADD MSTORE PUSH1 0x24 DUP2 ADD DUP4 SWAP1 MSTORE SWAP2 SWAP3 POP PUSH1 0x1 PUSH1 0x1 PUSH1 0xA0 SHL SUB AND SWAP1 PUSH4 0x9DC29FAC SWAP1 PUSH1 0x44 ADD PUSH1 0x0 PUSH1 0x40 MLOAD DUP1 DUP4 SUB DUP2 PUSH1 0x0 DUP8 DUP1 EXTCODESIZE ISZERO DUP1 ISZERO PUSH2 0xA04 JUMPI PUSH1 0x0 DUP1 REVERT JUMPDEST POP GAS CALL ISZERO DUP1 ISZERO PUSH2 0xA18 JUMPI RETURNDATASIZE PUSH1 0x0 DUP1 RETURNDATACOPY RETURNDATASIZE PUSH1 0x0 REVERT JUMPDEST POP POP PUSH1 0x40 DUP1 MLOAD CALLER DUP2 MSTORE PUSH1 0x20 DUP2 ADD DUP6 SWAP1 MSTORE PUSH32 0x6040D59F0A69BDA20AD88FC81AB81918925D429759492643D7AEC9FCFEE45E58 SWAP4 POP ADD SWAP1 POP JUMPDEST PUSH1 0x40 MLOAD DUP1 SWAP2 SUB SWAP1 LOG1 POP POP POP JUMP JUMPDEST PUSH1 0x0 SLOAD PUSH1 0x1 PUSH1 0x1 PUSH1 0xA0 SHL SUB AND CALLER EQ PUSH2 0xA86 JUMPI PUSH1 0x40 MLOAD PUSH3 0x461BCD PUSH1 0xE5 SHL DUP2 MSTORE PUSH1 0x4 ADD PUSH2 0x2B4 SWAP1 PUSH2 0x40E3 JUMP JUMPDEST PUSH1 0x1 PUSH1 0x1 PUSH1 0xA0 SHL SUB DUP2 AND PUSH2 0xAEB JUMPI PUSH1 0x40 MLOAD PUSH3 0x461BCD PUSH1 0xE5 SHL DUP2 MSTORE PUSH1 0x20 PUSH1 0x4 DUP3 ADD MSTORE PUSH1 0x26 PUSH1 0x24 DUP3 ADD MSTORE PUSH32 0x4F776E61626C653A206E6577206F776E657220697320746865207A65726F2061 PUSH1 0x44 DUP3 ADD MSTORE PUSH6 0x646472657373 PUSH1 0xD0 SHL PUSH1 0x64 DUP3 ADD MSTORE PUSH1 0x84 ADD PUSH2 0x2B4 JUMP JUMPDEST PUSH2 0x871 DUP2 PUSH2 0xB3E JUMP JUMPDEST PUSH1 0x26 DUP2 PUSH1 0x0 DUP2 MLOAD DUP2 LT PUSH2 0xB09 JUMPI PUSH2 0xB09 PUSH2 0x4177 JUMP JUMPDEST PUSH1 0x20 MUL PUSH1 0x20 ADD ADD MLOAD PUSH2 0xB1B SWAP2 SWAP1 PUSH2 0x41BE JUMP JUMPDEST PUSH2 0xB26 SWAP1 PUSH1 0x1 PUSH2 0x41E0 JUMP JUMPDEST PUSH1 0x6 DUP1 SLOAD PUSH1 0xFF NOT AND PUSH1 0xFF SWAP3 SWAP1 SWAP3 AND SWAP2 SWAP1 SWAP2 OR SWAP1 SSTORE POP POP JUMP JUMPDEST PUSH1 0x0 DUP1 SLOAD PUSH1 0x1 PUSH1 0x1 PUSH1 0xA0 SHL SUB DUP4 DUP2 AND PUSH1 0x1 PUSH1 0x1 PUSH1 0xA0 SHL SUB NOT DUP4 AND DUP2 OR DUP5 SSTORE PUSH1 0x40 MLOAD SWAP2 SWAP1 SWAP3 AND SWAP3 DUP4 SWAP2 PUSH32 0x8BE0079C531659141344CD1FD0A4F28419497F9722A3DAAFE3B4186F6B6457E0 SWAP2 SWAP1 LOG3 POP POP JUMP JUMPDEST PUSH1 0x1 PUSH1 0x1 PUSH1 0xA0 SHL SUB DUP2 AND PUSH1 0x0 SWAP1 DUP2 MSTORE PUSH1 0xB PUSH1 0x20 SWAP1 DUP2 MSTORE PUSH1 0x40 DUP1 DUP4 KECCAK256 DUP1 SLOAD DUP3 MLOAD DUP2 DUP6 MUL DUP2 ADD DUP6 ADD SWAP1 SWAP4 MSTORE DUP1 DUP4 MSTORE SWAP2 SWAP3 SWAP1 SWAP2 SWAP1 DUP5 SWAP1 DUP5 ADD JUMPDEST DUP3 DUP3 LT ISZERO PUSH2 0xC39 JUMPI DUP4 DUP3 SWAP1 PUSH1 0x0 MSTORE PUSH1 0x20 PUSH1 0x0 KECCAK256 SWAP1 PUSH1 0x2 MUL ADD PUSH1 0x40 MLOAD DUP1 PUSH1 0x40 ADD PUSH1 0x40 MSTORE SWAP1 DUP2 PUSH1 0x0 DUP3 ADD SLOAD DUP2 MSTORE PUSH1 0x20 ADD PUSH1 0x1 DUP3 ADD PUSH1 0x0 SWAP1 SLOAD SWAP1 PUSH2 0x100 EXP SWAP1 DIV PUSH1 0xFF AND PUSH1 0x80 DUP2 GT ISZERO PUSH2 0xC15 JUMPI PUSH2 0xC15 PUSH2 0x3FB9 JUMP JUMPDEST PUSH1 0x80 DUP2 GT ISZERO PUSH2 0xC26 JUMPI PUSH2 0xC26 PUSH2 0x3FB9 JUMP JUMPDEST DUP2 MSTORE POP POP DUP2 MSTORE PUSH1 0x20 ADD SWAP1 PUSH1 0x1 ADD SWAP1 PUSH2 0xBC4 JUMP JUMPDEST POP POP POP POP SWAP1 POP PUSH1 0x0 DUP1 JUMPDEST DUP3 MLOAD DUP2 LT ISZERO PUSH2 0xCE7 JUMPI PUSH1 0x0 PUSH2 0xC74 DUP5 DUP4 DUP2 MLOAD DUP2 LT PUSH2 0xC63 JUMPI PUSH2 0xC63 PUSH2 0x4177 JUMP JUMPDEST PUSH1 0x20 MUL PUSH1 0x20 ADD ADD MLOAD PUSH1 0x20 ADD MLOAD PUSH2 0xE15 JUMP JUMPDEST SWAP1 POP DUP4 DUP3 DUP2 MLOAD DUP2 LT PUSH2 0xC88 JUMPI PUSH2 0xC88 PUSH2 0x4177 JUMP JUMPDEST PUSH1 0x20 MUL PUSH1 0x20 ADD ADD MLOAD PUSH1 0x0 ADD MLOAD DUP2 DUP6 DUP5 DUP2 MLOAD DUP2 LT PUSH2 0xCA7 JUMPI PUSH2 0xCA7 PUSH2 0x4177 JUMP JUMPDEST PUSH1 0x20 MUL PUSH1 0x20 ADD ADD MLOAD PUSH1 0x0 ADD MLOAD PUSH2 0xCBD SWAP2 SWAP1 PUSH2 0x4205 JUMP JUMPDEST PUSH2 0xCC7 SWAP2 SWAP1 PUSH2 0x4224 JUMP JUMPDEST PUSH2 0xCD1 SWAP1 DUP5 PUSH2 0x4224 JUMP JUMPDEST SWAP3 POP POP DUP1 DUP1 PUSH2 0xCDF SWAP1 PUSH2 0x41A3 JUMP JUMPDEST SWAP2 POP POP PUSH2 0xC43 JUMP JUMPDEST POP PUSH1 0x3 SLOAD PUSH1 0x40 MLOAD PUSH4 0x40C10F19 PUSH1 0xE0 SHL DUP2 MSTORE PUSH1 0x1 PUSH1 0x1 PUSH1 0xA0 SHL SUB DUP6 DUP2 AND PUSH1 0x4 DUP4 ADD MSTORE PUSH1 0x24 DUP3 ADD DUP5 SWAP1 MSTORE SWAP1 SWAP2 AND SWAP1 PUSH4 0x40C10F19 SWAP1 PUSH1 0x44 ADD PUSH1 0x0 PUSH1 0x40 MLOAD DUP1 DUP4 SUB DUP2 PUSH1 0x0 DUP8 DUP1 EXTCODESIZE ISZERO DUP1 ISZERO PUSH2 0xD36 JUMPI PUSH1 0x0 DUP1 REVERT JUMPDEST POP GAS CALL ISZERO DUP1 ISZERO PUSH2 0xD4A JUMPI RETURNDATASIZE PUSH1 0x0 DUP1 RETURNDATACOPY RETURNDATASIZE PUSH1 0x0 REVERT JUMPDEST POP POP POP POP PUSH1 0x1 PUSH1 0x1 PUSH1 0xA0 SHL SUB DUP4 AND PUSH1 0x0 SWAP1 DUP2 MSTORE PUSH1 0xC PUSH1 0x20 SWAP1 DUP2 MSTORE PUSH1 0x40 DUP1 DUP4 KECCAK256 DUP5 SWAP1 SSTORE PUSH1 0xD SWAP1 SWAP2 MSTORE DUP2 KECCAK256 DUP1 SLOAD DUP4 SWAP3 SWAP1 PUSH2 0xD83 SWAP1 DUP5 SWAP1 PUSH2 0x4224 JUMP JUMPDEST SWAP1 SWAP2 SSTORE POP POP PUSH1 0x40 DUP1 MLOAD PUSH1 0x1 PUSH1 0x1 PUSH1 0xA0 SHL SUB DUP6 AND DUP2 MSTORE PUSH1 0x20 DUP2 ADD DUP4 SWAP1 MSTORE PUSH32 0xF1CF4F8D6D16BBF2417014FB8E494640B040E47AA05E62AC3CBE54C9A85FA36F SWAP2 ADD PUSH2 0xA4F JUMP JUMPDEST PUSH1 0x0 DUP1 DUP1 JUMPDEST DUP4 MLOAD DUP2 LT ISZERO PUSH2 0xE0E JUMPI DUP4 DUP2 DUP2 MLOAD DUP2 LT PUSH2 0xDE7 JUMPI PUSH2 0xDE7 PUSH2 0x4177 JUMP JUMPDEST PUSH1 0x20 MUL PUSH1 0x20 ADD ADD MLOAD DUP3 PUSH2 0xDFA SWAP2 SWAP1 PUSH2 0x4224 JUMP JUMPDEST SWAP2 POP DUP1 PUSH2 0xE06 DUP2 PUSH2 0x41A3 JUMP JUMPDEST SWAP2 POP POP PUSH2 0xDCC JUMP JUMPDEST POP SWAP3 SWAP2 POP POP JUMP JUMPDEST PUSH1 0x6 SLOAD PUSH1 0x0 SWAP1 DUP3 SWAP1 DUP3 SWAP1 PUSH1 0xFF AND PUSH1 0x1 EQ ISZERO PUSH2 0xF46 JUMPI PUSH1 0x0 DUP3 PUSH1 0x80 DUP2 GT ISZERO PUSH2 0xE3E JUMPI PUSH2 0xE3E PUSH2 0x3FB9 JUMP JUMPDEST EQ DUP1 PUSH2 0xE5B JUMPI POP PUSH1 0x3 DUP3 PUSH1 0x80 DUP2 GT ISZERO PUSH2 0xE59 JUMPI PUSH2 0xE59 PUSH2 0x3FB9 JUMP JUMPDEST EQ JUMPDEST DUP1 PUSH2 0xE77 JUMPI POP PUSH1 0x5 DUP3 PUSH1 0x80 DUP2 GT ISZERO PUSH2 0xE75 JUMPI PUSH2 0xE75 PUSH2 0x3FB9 JUMP JUMPDEST EQ JUMPDEST ISZERO PUSH2 0xE84 JUMPI POP PUSH1 0x1 PUSH2 0x3E91 JUMP JUMPDEST PUSH1 0x9 DUP3 PUSH1 0x80 DUP2 GT ISZERO PUSH2 0xE98 JUMPI PUSH2 0xE98 PUSH2 0x3FB9 JUMP JUMPDEST EQ DUP1 PUSH2 0xEB5 JUMPI POP PUSH1 0x6 DUP3 PUSH1 0x80 DUP2 GT ISZERO PUSH2 0xEB3 JUMPI PUSH2 0xEB3 PUSH2 0x3FB9 JUMP JUMPDEST EQ JUMPDEST ISZERO PUSH2 0xEC2 JUMPI POP PUSH1 0x2 PUSH2 0x3E91 JUMP JUMPDEST PUSH1 0x6B DUP3 PUSH1 0x80 DUP2 GT ISZERO PUSH2 0xED6 JUMPI PUSH2 0xED6 PUSH2 0x3FB9 JUMP JUMPDEST EQ ISZERO PUSH2 0xEE4 JUMPI POP PUSH1 0x8 PUSH2 0x3E91 JUMP JUMPDEST PUSH1 0x33 DUP3 PUSH1 0x80 DUP2 GT ISZERO PUSH2 0xEF8 JUMPI PUSH2 0xEF8 PUSH2 0x3FB9 JUMP JUMPDEST EQ DUP1 PUSH2 0xF15 JUMPI POP PUSH1 0x32 DUP3 PUSH1 0x80 DUP2 GT ISZERO PUSH2 0xF13 JUMPI PUSH2 0xF13 PUSH2 0x3FB9 JUMP JUMPDEST EQ JUMPDEST ISZERO PUSH2 0xF22 JUMPI POP PUSH1 0x11 PUSH2 0x3E91 JUMP JUMPDEST PUSH1 0xE JUMPDEST DUP3 PUSH1 0x80 DUP2 GT ISZERO PUSH2 0xF37 JUMPI PUSH2 0xF37 PUSH2 0x3FB9 JUMP JUMPDEST EQ ISZERO PUSH2 0xF41 JUMPI POP PUSH1 0x23 JUMPDEST PUSH2 0x3E91 JUMP JUMPDEST PUSH1 0x6 SLOAD PUSH1 0xFF AND PUSH1 0x2 EQ ISZERO PUSH2 0x108B JUMPI PUSH1 0x1 DUP3 PUSH1 0x80 DUP2 GT ISZERO PUSH2 0xF68 JUMPI PUSH2 0xF68 PUSH2 0x3FB9 JUMP JUMPDEST EQ DUP1 PUSH2 0xF85 JUMPI POP PUSH1 0x2 DUP3 PUSH1 0x80 DUP2 GT ISZERO PUSH2 0xF83 JUMPI PUSH2 0xF83 PUSH2 0x3FB9 JUMP JUMPDEST EQ JUMPDEST DUP1 PUSH2 0xFA1 JUMPI POP PUSH1 0x5 DUP3 PUSH1 0x80 DUP2 GT ISZERO PUSH2 0xF9F JUMPI PUSH2 0xF9F PUSH2 0x3FB9 JUMP JUMPDEST EQ JUMPDEST ISZERO PUSH2 0xFAE JUMPI POP PUSH1 0x1 PUSH2 0x3E91 JUMP JUMPDEST PUSH1 0x9 DUP3 PUSH1 0x80 DUP2 GT ISZERO PUSH2 0xFC2 JUMPI PUSH2 0xFC2 PUSH2 0x3FB9 JUMP JUMPDEST EQ DUP1 PUSH2 0xFDF JUMPI POP PUSH1 0x7 DUP3 PUSH1 0x80 DUP2 GT ISZERO PUSH2 0xFDD JUMPI PUSH2 0xFDD PUSH2 0x3FB9 JUMP JUMPDEST EQ JUMPDEST ISZERO PUSH2 0xFEC JUMPI POP PUSH1 0x2 PUSH2 0x3E91 JUMP JUMPDEST PUSH1 0x6B DUP3 PUSH1 0x80 DUP2 GT ISZERO PUSH2 0x1000 JUMPI PUSH2 0x1000 PUSH2 0x3FB9 JUMP JUMPDEST EQ DUP1 PUSH2 0x101D JUMPI POP PUSH1 0x6C DUP3 PUSH1 0x80 DUP2 GT ISZERO PUSH2 0x101B JUMPI PUSH2 0x101B PUSH2 0x3FB9 JUMP JUMPDEST EQ JUMPDEST ISZERO PUSH2 0x102A JUMPI POP PUSH1 0x8 PUSH2 0x3E91 JUMP JUMPDEST PUSH1 0x33 DUP3 PUSH1 0x80 DUP2 GT ISZERO PUSH2 0x103E JUMPI PUSH2 0x103E PUSH2 0x3FB9 JUMP JUMPDEST EQ DUP1 PUSH2 0x105B JUMPI POP PUSH1 0x34 DUP3 PUSH1 0x80 DUP2 GT ISZERO PUSH2 0x1059 JUMPI PUSH2 0x1059 PUSH2 0x3FB9 JUMP JUMPDEST EQ JUMPDEST DUP1 PUSH2 0x1077 JUMPI POP PUSH1 0x35 DUP3 PUSH1 0x80 DUP2 GT ISZERO PUSH2 0x1075 JUMPI PUSH2 0x1075 PUSH2 0x3FB9 JUMP JUMPDEST EQ JUMPDEST ISZERO PUSH2 0x1084 JUMPI POP PUSH1 0x11 PUSH2 0x3E91 JUMP JUMPDEST PUSH1 0xF PUSH2 0xF25 JUMP JUMPDEST PUSH1 0x6 SLOAD PUSH1 0xFF AND PUSH1 0x3 EQ ISZERO PUSH2 0x1198 JUMPI PUSH1 0x0 DUP3 PUSH1 0x80 DUP2 GT ISZERO PUSH2 0x10AD JUMPI PUSH2 0x10AD PUSH2 0x3FB9 JUMP JUMPDEST EQ DUP1 PUSH2 0x10CA JUMPI POP PUSH1 0x3 DUP3 PUSH1 0x80 DUP2 GT ISZERO PUSH2 0x10C8 JUMPI PUSH2 0x10C8 PUSH2 0x3FB9 JUMP JUMPDEST EQ JUMPDEST DUP1 PUSH2 0x10E6 JUMPI POP PUSH1 0x5 DUP3 PUSH1 0x80 DUP2 GT ISZERO PUSH2 0x10E4 JUMPI PUSH2 0x10E4 PUSH2 0x3FB9 JUMP JUMPDEST EQ JUMPDEST ISZERO PUSH2 0x10F3 JUMPI POP PUSH1 0x1 PUSH2 0x3E91 JUMP JUMPDEST PUSH1 0x9 DUP3 PUSH1 0x80 DUP2 GT ISZERO PUSH2 0x1107 JUMPI PUSH2 0x1107 PUSH2 0x3FB9 JUMP JUMPDEST EQ DUP1 PUSH2 0x1124 JUMPI POP PUSH1 0x8 DUP3 PUSH1 0x80 DUP2 GT ISZERO PUSH2 0x1122 JUMPI PUSH2 0x1122 PUSH2 0x3FB9 JUMP JUMPDEST EQ JUMPDEST ISZERO PUSH2 0x1131 JUMPI POP PUSH1 0x2 PUSH2 0x3E91 JUMP JUMPDEST PUSH1 0x6C DUP3 PUSH1 0x80 DUP2 GT ISZERO PUSH2 0x1145 JUMPI PUSH2 0x1145 PUSH2 0x3FB9 JUMP JUMPDEST EQ ISZERO PUSH2 0x1153 JUMPI POP PUSH1 0x8 PUSH2 0x3E91 JUMP JUMPDEST PUSH1 0x34 DUP3 PUSH1 0x80 DUP2 GT ISZERO PUSH2 0x1167 JUMPI PUSH2 0x1167 PUSH2 0x3FB9 JUMP JUMPDEST EQ DUP1 PUSH2 0x1184 JUMPI POP PUSH1 0x36 DUP3 PUSH1 0x80 DUP2 GT ISZERO PUSH2 0x1182 JUMPI PUSH2 0x1182 PUSH2 0x3FB9 JUMP JUMPDEST EQ JUMPDEST ISZERO PUSH2 0x1191 JUMPI POP PUSH1 0x11 PUSH2 0x3E91 JUMP JUMPDEST PUSH1 0x10 PUSH2 0xF25 JUMP JUMPDEST PUSH1 0x6 SLOAD PUSH1 0xFF AND PUSH1 0x4 EQ ISZERO PUSH2 0x12DD JUMPI PUSH1 0x1 DUP3 PUSH1 0x80 DUP2 GT ISZERO PUSH2 0x11BA JUMPI PUSH2 0x11BA PUSH2 0x3FB9 JUMP JUMPDEST EQ DUP1 PUSH2 0x11D7 JUMPI POP PUSH1 0x2 DUP3 PUSH1 0x80 DUP2 GT ISZERO PUSH2 0x11D5 JUMPI PUSH2 0x11D5 PUSH2 0x3FB9 JUMP JUMPDEST EQ JUMPDEST DUP1 PUSH2 0x11F3 JUMPI POP PUSH1 0x5 DUP3 PUSH1 0x80 DUP2 GT ISZERO PUSH2 0x11F1 JUMPI PUSH2 0x11F1 PUSH2 0x3FB9 JUMP JUMPDEST EQ JUMPDEST ISZERO PUSH2 0x1200 JUMPI POP PUSH1 0x1 PUSH2 0x3E91 JUMP JUMPDEST PUSH1 0x9 DUP3 PUSH1 0x80 DUP2 GT ISZERO PUSH2 0x1214 JUMPI PUSH2 0x1214 PUSH2 0x3FB9 JUMP JUMPDEST EQ DUP1 PUSH2 0x1231 JUMPI POP PUSH1 0x6 DUP3 PUSH1 0x80 DUP2 GT ISZERO PUSH2 0x122F JUMPI PUSH2 0x122F PUSH2 0x3FB9 JUMP JUMPDEST EQ JUMPDEST ISZERO PUSH2 0x123E JUMPI POP PUSH1 0x2 PUSH2 0x3E91 JUMP JUMPDEST PUSH1 0x6B DUP3 PUSH1 0x80 DUP2 GT ISZERO PUSH2 0x1252 JUMPI PUSH2 0x1252 PUSH2 0x3FB9 JUMP JUMPDEST EQ DUP1 PUSH2 0x126F JUMPI POP PUSH1 0x6D DUP3 PUSH1 0x80 DUP2 GT ISZERO PUSH2 0x126D JUMPI PUSH2 0x126D PUSH2 0x3FB9 JUMP JUMPDEST EQ JUMPDEST ISZERO PUSH2 0x127C JUMPI POP PUSH1 0x8 PUSH2 0x3E91 JUMP JUMPDEST PUSH1 0x32 DUP3 PUSH1 0x80 DUP2 GT ISZERO PUSH2 0x1290 JUMPI PUSH2 0x1290 PUSH2 0x3FB9 JUMP JUMPDEST EQ DUP1 PUSH2 0x12AD JUMPI POP PUSH1 0x37 DUP3 PUSH1 0x80 DUP2 GT ISZERO PUSH2 0x12AB JUMPI PUSH2 0x12AB PUSH2 0x3FB9 JUMP JUMPDEST EQ JUMPDEST DUP1 PUSH2 0x12C9 JUMPI POP PUSH1 0x38 DUP3 PUSH1 0x80 DUP2 GT ISZERO PUSH2 0x12C7 JUMPI PUSH2 0x12C7 PUSH2 0x3FB9 JUMP JUMPDEST EQ JUMPDEST ISZERO PUSH2 0x12D6 JUMPI POP PUSH1 0x11 PUSH2 0x3E91 JUMP JUMPDEST PUSH1 0x11 PUSH2 0xF25 JUMP JUMPDEST PUSH1 0x6 SLOAD PUSH1 0xFF AND PUSH1 0x5 EQ ISZERO PUSH2 0x1476 JUMPI PUSH1 0x0 DUP3 PUSH1 0x80 DUP2 GT ISZERO PUSH2 0x12FF JUMPI PUSH2 0x12FF PUSH2 0x3FB9 JUMP JUMPDEST EQ DUP1 PUSH2 0x131C JUMPI POP PUSH1 0x3 DUP3 PUSH1 0x80 DUP2 GT ISZERO PUSH2 0x131A JUMPI PUSH2 0x131A PUSH2 0x3FB9 JUMP JUMPDEST EQ JUMPDEST DUP1 PUSH2 0x1338 JUMPI POP PUSH1 0x5 DUP3 PUSH1 0x80 DUP2 GT ISZERO PUSH2 0x1336 JUMPI PUSH2 0x1336 PUSH2 0x3FB9 JUMP JUMPDEST EQ JUMPDEST ISZERO PUSH2 0x1345 JUMPI POP PUSH1 0x1 PUSH2 0x3E91 JUMP JUMPDEST PUSH1 0x9 DUP3 PUSH1 0x80 DUP2 GT ISZERO PUSH2 0x1359 JUMPI PUSH2 0x1359 PUSH2 0x3FB9 JUMP JUMPDEST EQ DUP1 PUSH2 0x1376 JUMPI POP PUSH1 0x7 DUP3 PUSH1 0x80 DUP2 GT ISZERO PUSH2 0x1374 JUMPI PUSH2 0x1374 PUSH2 0x3FB9 JUMP JUMPDEST EQ JUMPDEST ISZERO PUSH2 0x1383 JUMPI POP PUSH1 0x2 PUSH2 0x3E91 JUMP JUMPDEST PUSH1 0x6C DUP3 PUSH1 0x80 DUP2 GT ISZERO PUSH2 0x1397 JUMPI PUSH2 0x1397 PUSH2 0x3FB9 JUMP JUMPDEST EQ DUP1 PUSH2 0x13B4 JUMPI POP PUSH1 0x6B DUP3 PUSH1 0x80 DUP2 GT ISZERO PUSH2 0x13B2 JUMPI PUSH2 0x13B2 PUSH2 0x3FB9 JUMP JUMPDEST EQ JUMPDEST DUP1 PUSH2 0x13D0 JUMPI POP PUSH1 0x6D DUP3 PUSH1 0x80 DUP2 GT ISZERO PUSH2 0x13CE JUMPI PUSH2 0x13CE PUSH2 0x3FB9 JUMP JUMPDEST EQ JUMPDEST DUP1 PUSH2 0x13EC JUMPI POP PUSH1 0x6E DUP3 PUSH1 0x80 DUP2 GT ISZERO PUSH2 0x13EA JUMPI PUSH2 0x13EA PUSH2 0x3FB9 JUMP JUMPDEST EQ JUMPDEST ISZERO PUSH2 0x13F9 JUMPI POP PUSH1 0x8 PUSH2 0x3E91 JUMP JUMPDEST PUSH1 0x35 DUP3 PUSH1 0x80 DUP2 GT ISZERO PUSH2 0x140D JUMPI PUSH2 0x140D PUSH2 0x3FB9 JUMP JUMPDEST EQ DUP1 PUSH2 0x142A JUMPI POP PUSH1 0x37 DUP3 PUSH1 0x80 DUP2 GT ISZERO PUSH2 0x1428 JUMPI PUSH2 0x1428 PUSH2 0x3FB9 JUMP JUMPDEST EQ JUMPDEST DUP1 PUSH2 0x1446 JUMPI POP PUSH1 0x39 DUP3 PUSH1 0x80 DUP2 GT ISZERO PUSH2 0x1444 JUMPI PUSH2 0x1444 PUSH2 0x3FB9 JUMP JUMPDEST EQ JUMPDEST DUP1 PUSH2 0x1462 JUMPI POP PUSH1 0x3A DUP3 PUSH1 0x80 DUP2 GT ISZERO PUSH2 0x1460 JUMPI PUSH2 0x1460 PUSH2 0x3FB9 JUMP JUMPDEST EQ JUMPDEST ISZERO PUSH2 0x146F JUMPI POP PUSH1 0x11 PUSH2 0x3E91 JUMP JUMPDEST PUSH1 0x12 PUSH2 0xF25 JUMP JUMPDEST PUSH1 0x6 DUP1 SLOAD PUSH1 0xFF AND EQ ISZERO PUSH2 0x15BA JUMPI PUSH1 0x1 DUP3 PUSH1 0x80 DUP2 GT ISZERO PUSH2 0x1497 JUMPI PUSH2 0x1497 PUSH2 0x3FB9 JUMP JUMPDEST EQ DUP1 PUSH2 0x14B4 JUMPI POP PUSH1 0x2 DUP3 PUSH1 0x80 DUP2 GT ISZERO PUSH2 0x14B2 JUMPI PUSH2 0x14B2 PUSH2 0x3FB9 JUMP JUMPDEST EQ JUMPDEST DUP1 PUSH2 0x14D0 JUMPI POP PUSH1 0x5 DUP3 PUSH1 0x80 DUP2 GT ISZERO PUSH2 0x14CE JUMPI PUSH2 0x14CE PUSH2 0x3FB9 JUMP JUMPDEST EQ JUMPDEST ISZERO PUSH2 0x14DD JUMPI POP PUSH1 0x1 PUSH2 0x3E91 JUMP JUMPDEST PUSH1 0x9 DUP3 PUSH1 0x80 DUP2 GT ISZERO PUSH2 0x14F1 JUMPI PUSH2 0x14F1 PUSH2 0x3FB9 JUMP JUMPDEST EQ DUP1 PUSH2 0x150E JUMPI POP PUSH1 0x8 DUP3 PUSH1 0x80 DUP2 GT ISZERO PUSH2 0x150C JUMPI PUSH2 0x150C PUSH2 0x3FB9 JUMP JUMPDEST EQ JUMPDEST ISZERO PUSH2 0x151B JUMPI POP PUSH1 0x2 PUSH2 0x3E91 JUMP JUMPDEST PUSH1 0x6C DUP3 PUSH1 0x80 DUP2 GT ISZERO PUSH2 0x152F JUMPI PUSH2 0x152F PUSH2 0x3FB9 JUMP JUMPDEST EQ DUP1 PUSH2 0x154C JUMPI POP PUSH1 0x6E DUP3 PUSH1 0x80 DUP2 GT ISZERO PUSH2 0x154A JUMPI PUSH2 0x154A PUSH2 0x3FB9 JUMP JUMPDEST EQ JUMPDEST ISZERO PUSH2 0x1559 JUMPI POP PUSH1 0x8 PUSH2 0x3E91 JUMP JUMPDEST PUSH1 0x36 DUP3 PUSH1 0x80 DUP2 GT ISZERO PUSH2 0x156D JUMPI PUSH2 0x156D PUSH2 0x3FB9 JUMP JUMPDEST EQ DUP1 PUSH2 0x158A JUMPI POP PUSH1 0x39 DUP3 PUSH1 0x80 DUP2 GT ISZERO PUSH2 0x1588 JUMPI PUSH2 0x1588 PUSH2 0x3FB9 JUMP JUMPDEST EQ JUMPDEST DUP1 PUSH2 0x15A6 JUMPI POP PUSH1 0x3B DUP3 PUSH1 0x80 DUP2 GT ISZERO PUSH2 0x15A4 JUMPI PUSH2 0x15A4 PUSH2 0x3FB9 JUMP JUMPDEST EQ JUMPDEST ISZERO PUSH2 0x15B3 JUMPI POP PUSH1 0x11 PUSH2 0x3E91 JUMP JUMPDEST PUSH1 0x13 PUSH2 0xF25 JUMP JUMPDEST PUSH1 0x6 SLOAD PUSH1 0xFF AND PUSH1 0x7 EQ ISZERO PUSH2 0x16FF JUMPI PUSH1 0x0 DUP3 PUSH1 0x80 DUP2 GT ISZERO PUSH2 0x15DC JUMPI PUSH2 0x15DC PUSH2 0x3FB9 JUMP JUMPDEST EQ DUP1 PUSH2 0x15F9 JUMPI POP PUSH1 0x3 DUP3 PUSH1 0x80 DUP2 GT ISZERO PUSH2 0x15F7 JUMPI PUSH2 0x15F7 PUSH2 0x3FB9 JUMP JUMPDEST EQ JUMPDEST DUP1 PUSH2 0x1615 JUMPI POP PUSH1 0x5 DUP3 PUSH1 0x80 DUP2 GT ISZERO PUSH2 0x1613 JUMPI PUSH2 0x1613 PUSH2 0x3FB9 JUMP JUMPDEST EQ JUMPDEST ISZERO PUSH2 0x1622 JUMPI POP PUSH1 0x1 PUSH2 0x3E91 JUMP JUMPDEST PUSH1 0x9 DUP3 PUSH1 0x80 DUP2 GT ISZERO PUSH2 0x1636 JUMPI PUSH2 0x1636 PUSH2 0x3FB9 JUMP JUMPDEST EQ DUP1 PUSH2 0x1653 JUMPI POP PUSH1 0x6 DUP3 PUSH1 0x80 DUP2 GT ISZERO PUSH2 0x1651 JUMPI PUSH2 0x1651 PUSH2 0x3FB9 JUMP JUMPDEST EQ JUMPDEST ISZERO PUSH2 0x1660 JUMPI POP PUSH1 0x2 PUSH2 0x3E91 JUMP JUMPDEST PUSH1 0x6D DUP3 PUSH1 0x80 DUP2 GT ISZERO PUSH2 0x1674 JUMPI PUSH2 0x1674 PUSH2 0x3FB9 JUMP JUMPDEST EQ DUP1 PUSH2 0x1691 JUMPI POP PUSH1 0x6F DUP3 PUSH1 0x80 DUP2 GT ISZERO PUSH2 0x168F JUMPI PUSH2 0x168F PUSH2 0x3FB9 JUMP JUMPDEST EQ JUMPDEST ISZERO PUSH2 0x169E JUMPI POP PUSH1 0x8 PUSH2 0x3E91 JUMP JUMPDEST PUSH1 0x38 DUP3 PUSH1 0x80 DUP2 GT ISZERO PUSH2 0x16B2 JUMPI PUSH2 0x16B2 PUSH2 0x3FB9 JUMP JUMPDEST EQ DUP1 PUSH2 0x16CF JUMPI POP PUSH1 0x3C DUP3 PUSH1 0x80 DUP2 GT ISZERO PUSH2 0x16CD JUMPI PUSH2 0x16CD PUSH2 0x3FB9 JUMP JUMPDEST EQ JUMPDEST DUP1 PUSH2 0x16EB JUMPI POP PUSH1 0x3D DUP3 PUSH1 0x80 DUP2 GT ISZERO PUSH2 0x16E9 JUMPI PUSH2 0x16E9 PUSH2 0x3FB9 JUMP JUMPDEST EQ JUMPDEST ISZERO PUSH2 0x16F8 JUMPI POP PUSH1 0x11 PUSH2 0x3E91 JUMP JUMPDEST PUSH1 0x14 PUSH2 0xF25 JUMP JUMPDEST PUSH1 0x6 SLOAD PUSH1 0xFF AND PUSH1 0x8 EQ ISZERO PUSH2 0x1898 JUMPI PUSH1 0x1 DUP3 PUSH1 0x80 DUP2 GT ISZERO PUSH2 0x1721 JUMPI PUSH2 0x1721 PUSH2 0x3FB9 JUMP JUMPDEST EQ DUP1 PUSH2 0x173E JUMPI POP PUSH1 0x2 DUP3 PUSH1 0x80 DUP2 GT ISZERO PUSH2 0x173C JUMPI PUSH2 0x173C PUSH2 0x3FB9 JUMP JUMPDEST EQ JUMPDEST DUP1 PUSH2 0x175A JUMPI POP PUSH1 0x5 DUP3 PUSH1 0x80 DUP2 GT ISZERO PUSH2 0x1758 JUMPI PUSH2 0x1758 PUSH2 0x3FB9 JUMP JUMPDEST EQ JUMPDEST ISZERO PUSH2 0x1767 JUMPI POP PUSH1 0x1 PUSH2 0x3E91 JUMP JUMPDEST PUSH1 0x9 DUP3 PUSH1 0x80 DUP2 GT ISZERO PUSH2 0x177B JUMPI PUSH2 0x177B PUSH2 0x3FB9 JUMP JUMPDEST EQ DUP1 PUSH2 0x1798 JUMPI POP PUSH1 0x7 DUP3 PUSH1 0x80 DUP2 GT ISZERO PUSH2 0x1796 JUMPI PUSH2 0x1796 PUSH2 0x3FB9 JUMP JUMPDEST EQ JUMPDEST ISZERO PUSH2 0x17A5 JUMPI POP PUSH1 0x2 PUSH2 0x3E91 JUMP JUMPDEST PUSH1 0x6D DUP3 PUSH1 0x80 DUP2 GT ISZERO PUSH2 0x17B9 JUMPI PUSH2 0x17B9 PUSH2 0x3FB9 JUMP JUMPDEST EQ DUP1 PUSH2 0x17D6 JUMPI POP PUSH1 0x6E DUP3 PUSH1 0x80 DUP2 GT ISZERO PUSH2 0x17D4 JUMPI PUSH2 0x17D4 PUSH2 0x3FB9 JUMP JUMPDEST EQ JUMPDEST DUP1 PUSH2 0x17F2 JUMPI POP PUSH1 0x6F DUP3 PUSH1 0x80 DUP2 GT ISZERO PUSH2 0x17F0 JUMPI PUSH2 0x17F0 PUSH2 0x3FB9 JUMP JUMPDEST EQ JUMPDEST DUP1 PUSH2 0x180E JUMPI POP PUSH1 0x70 DUP3 PUSH1 0x80 DUP2 GT ISZERO PUSH2 0x180C JUMPI PUSH2 0x180C PUSH2 0x3FB9 JUMP JUMPDEST EQ JUMPDEST ISZERO PUSH2 0x181B JUMPI POP PUSH1 0x8 PUSH2 0x3E91 JUMP JUMPDEST PUSH1 0x3A DUP3 PUSH1 0x80 DUP2 GT ISZERO PUSH2 0x182F JUMPI PUSH2 0x182F PUSH2 0x3FB9 JUMP JUMPDEST EQ DUP1 PUSH2 0x184C JUMPI POP PUSH1 0x3C DUP3 PUSH1 0x80 DUP2 GT ISZERO PUSH2 0x184A JUMPI PUSH2 0x184A PUSH2 0x3FB9 JUMP JUMPDEST EQ JUMPDEST DUP1 PUSH2 0x1868 JUMPI POP PUSH1 0x3E DUP3 PUSH1 0x80 DUP2 GT ISZERO PUSH2 0x1866 JUMPI PUSH2 0x1866 PUSH2 0x3FB9 JUMP JUMPDEST EQ JUMPDEST DUP1 PUSH2 0x1884 JUMPI POP PUSH1 0x3F DUP3 PUSH1 0x80 DUP2 GT ISZERO PUSH2 0x1882 JUMPI PUSH2 0x1882 PUSH2 0x3FB9 JUMP JUMPDEST EQ JUMPDEST ISZERO PUSH2 0x1891 JUMPI POP PUSH1 0x11 PUSH2 0x3E91 JUMP JUMPDEST PUSH1 0x15 PUSH2 0xF25 JUMP JUMPDEST PUSH1 0x6 SLOAD PUSH1 0xFF AND PUSH1 0x9 EQ ISZERO PUSH2 0x19DD JUMPI PUSH1 0x0 DUP3 PUSH1 0x80 DUP2 GT ISZERO PUSH2 0x18BA JUMPI PUSH2 0x18BA PUSH2 0x3FB9 JUMP JUMPDEST EQ DUP1 PUSH2 0x18D7 JUMPI POP PUSH1 0x3 DUP3 PUSH1 0x80 DUP2 GT ISZERO PUSH2 0x18D5 JUMPI PUSH2 0x18D5 PUSH2 0x3FB9 JUMP JUMPDEST EQ JUMPDEST DUP1 PUSH2 0x18F3 JUMPI POP PUSH1 0x5 DUP3 PUSH1 0x80 DUP2 GT ISZERO PUSH2 0x18F1 JUMPI PUSH2 0x18F1 PUSH2 0x3FB9 JUMP JUMPDEST EQ JUMPDEST ISZERO PUSH2 0x1900 JUMPI POP PUSH1 0x1 PUSH2 0x3E91 JUMP JUMPDEST PUSH1 0x9 DUP3 PUSH1 0x80 DUP2 GT ISZERO PUSH2 0x1914 JUMPI PUSH2 0x1914 PUSH2 0x3FB9 JUMP JUMPDEST EQ DUP1 PUSH2 0x1931 JUMPI POP PUSH1 0x8 DUP3 PUSH1 0x80 DUP2 GT ISZERO PUSH2 0x192F JUMPI PUSH2 0x192F PUSH2 0x3FB9 JUMP JUMPDEST EQ JUMPDEST ISZERO PUSH2 0x193E JUMPI POP PUSH1 0x2 PUSH2 0x3E91 JUMP JUMPDEST PUSH1 0x6E DUP3 PUSH1 0x80 DUP2 GT ISZERO PUSH2 0x1952 JUMPI PUSH2 0x1952 PUSH2 0x3FB9 JUMP JUMPDEST EQ DUP1 PUSH2 0x196F JUMPI POP PUSH1 0x70 DUP3 PUSH1 0x80 DUP2 GT ISZERO PUSH2 0x196D JUMPI PUSH2 0x196D PUSH2 0x3FB9 JUMP JUMPDEST EQ JUMPDEST ISZERO PUSH2 0x197C JUMPI POP PUSH1 0x8 PUSH2 0x3E91 JUMP JUMPDEST PUSH1 0x3B DUP3 PUSH1 0x80 DUP2 GT ISZERO PUSH2 0x1990 JUMPI PUSH2 0x1990 PUSH2 0x3FB9 JUMP JUMPDEST EQ DUP1 PUSH2 0x19AD JUMPI POP PUSH1 0x3E DUP3 PUSH1 0x80 DUP2 GT ISZERO PUSH2 0x19AB JUMPI PUSH2 0x19AB PUSH2 0x3FB9 JUMP JUMPDEST EQ JUMPDEST DUP1 PUSH2 0x19C9 JUMPI POP PUSH1 0x40 DUP3 PUSH1 0x80 DUP2 GT ISZERO PUSH2 0x19C7 JUMPI PUSH2 0x19C7 PUSH2 0x3FB9 JUMP JUMPDEST EQ JUMPDEST ISZERO PUSH2 0x19D6 JUMPI POP PUSH1 0x11 PUSH2 0x3E91 JUMP JUMPDEST PUSH1 0x16 PUSH2 0xF25 JUMP JUMPDEST PUSH1 0x6 SLOAD PUSH1 0xFF AND PUSH1 0xA EQ ISZERO PUSH2 0x1B22 JUMPI PUSH1 0x1 DUP3 PUSH1 0x80 DUP2 GT ISZERO PUSH2 0x19FF JUMPI PUSH2 0x19FF PUSH2 0x3FB9 JUMP JUMPDEST EQ DUP1 PUSH2 0x1A1C JUMPI POP PUSH1 0x2 DUP3 PUSH1 0x80 DUP2 GT ISZERO PUSH2 0x1A1A JUMPI PUSH2 0x1A1A PUSH2 0x3FB9 JUMP JUMPDEST EQ JUMPDEST DUP1 PUSH2 0x1A38 JUMPI POP PUSH1 0x5 DUP3 PUSH1 0x80 DUP2 GT ISZERO PUSH2 0x1A36 JUMPI PUSH2 0x1A36 PUSH2 0x3FB9 JUMP JUMPDEST EQ JUMPDEST ISZERO PUSH2 0x1A45 JUMPI POP PUSH1 0x1 PUSH2 0x3E91 JUMP JUMPDEST PUSH1 0x9 DUP3 PUSH1 0x80 DUP2 GT ISZERO PUSH2 0x1A59 JUMPI PUSH2 0x1A59 PUSH2 0x3FB9 JUMP JUMPDEST EQ DUP1 PUSH2 0x1A76 JUMPI POP PUSH1 0x6 DUP3 PUSH1 0x80 DUP2 GT ISZERO PUSH2 0x1A74 JUMPI PUSH2 0x1A74 PUSH2 0x3FB9 JUMP JUMPDEST EQ JUMPDEST ISZERO PUSH2 0x1A83 JUMPI POP PUSH1 0x2 PUSH2 0x3E91 JUMP JUMPDEST PUSH1 0x6F DUP3 PUSH1 0x80 DUP2 GT ISZERO PUSH2 0x1A97 JUMPI PUSH2 0x1A97 PUSH2 0x3FB9 JUMP JUMPDEST EQ DUP1 PUSH2 0x1AB4 JUMPI POP PUSH1 0x71 DUP3 PUSH1 0x80 DUP2 GT ISZERO PUSH2 0x1AB2 JUMPI PUSH2 0x1AB2 PUSH2 0x3FB9 JUMP JUMPDEST EQ JUMPDEST ISZERO PUSH2 0x1AC1 JUMPI POP PUSH1 0x8 PUSH2 0x3E91 JUMP JUMPDEST PUSH1 0x3D DUP3 PUSH1 0x80 DUP2 GT ISZERO PUSH2 0x1AD5 JUMPI PUSH2 0x1AD5 PUSH2 0x3FB9 JUMP JUMPDEST EQ DUP1 PUSH2 0x1AF2 JUMPI POP PUSH1 0x41 DUP3 PUSH1 0x80 DUP2 GT ISZERO PUSH2 0x1AF0 JUMPI PUSH2 0x1AF0 PUSH2 0x3FB9 JUMP JUMPDEST EQ JUMPDEST DUP1 PUSH2 0x1B0E JUMPI POP PUSH1 0x42 DUP3 PUSH1 0x80 DUP2 GT ISZERO PUSH2 0x1B0C JUMPI PUSH2 0x1B0C PUSH2 0x3FB9 JUMP JUMPDEST EQ JUMPDEST ISZERO PUSH2 0x1B1B JUMPI POP PUSH1 0x11 PUSH2 0x3E91 JUMP JUMPDEST PUSH1 0x17 PUSH2 0xF25 JUMP JUMPDEST PUSH1 0x6 SLOAD PUSH1 0xFF AND PUSH1 0xB EQ ISZERO PUSH2 0x1CBB JUMPI PUSH1 0x1 DUP3 PUSH1 0x80 DUP2 GT ISZERO PUSH2 0x1B44 JUMPI PUSH2 0x1B44 PUSH2 0x3FB9 JUMP JUMPDEST EQ DUP1 PUSH2 0x1B61 JUMPI POP PUSH1 0x3 DUP3 PUSH1 0x80 DUP2 GT ISZERO PUSH2 0x1B5F JUMPI PUSH2 0x1B5F PUSH2 0x3FB9 JUMP JUMPDEST EQ JUMPDEST DUP1 PUSH2 0x1B7D JUMPI POP PUSH1 0x5 DUP3 PUSH1 0x80 DUP2 GT ISZERO PUSH2 0x1B7B JUMPI PUSH2 0x1B7B PUSH2 0x3FB9 JUMP JUMPDEST EQ JUMPDEST ISZERO PUSH2 0x1B8A JUMPI POP PUSH1 0x1 PUSH2 0x3E91 JUMP JUMPDEST PUSH1 0x9 DUP3 PUSH1 0x80 DUP2 GT ISZERO PUSH2 0x1B9E JUMPI PUSH2 0x1B9E PUSH2 0x3FB9 JUMP JUMPDEST EQ DUP1 PUSH2 0x1BBB JUMPI POP PUSH1 0x7 DUP3 PUSH1 0x80 DUP2 GT ISZERO PUSH2 0x1BB9 JUMPI PUSH2 0x1BB9 PUSH2 0x3FB9 JUMP JUMPDEST EQ JUMPDEST ISZERO PUSH2 0x1BC8 JUMPI POP PUSH1 0x2 PUSH2 0x3E91 JUMP JUMPDEST PUSH1 0x6F DUP3 PUSH1 0x80 DUP2 GT ISZERO PUSH2 0x1BDC JUMPI PUSH2 0x1BDC PUSH2 0x3FB9 JUMP JUMPDEST EQ DUP1 PUSH2 0x1BF9 JUMPI POP PUSH1 0x70 DUP3 PUSH1 0x80 DUP2 GT ISZERO PUSH2 0x1BF7 JUMPI PUSH2 0x1BF7 PUSH2 0x3FB9 JUMP JUMPDEST EQ JUMPDEST DUP1 PUSH2 0x1C15 JUMPI POP PUSH1 0x71 DUP3 PUSH1 0x80 DUP2 GT ISZERO PUSH2 0x1C13 JUMPI PUSH2 0x1C13 PUSH2 0x3FB9 JUMP JUMPDEST EQ JUMPDEST DUP1 PUSH2 0x1C31 JUMPI POP PUSH1 0x72 DUP3 PUSH1 0x80 DUP2 GT ISZERO PUSH2 0x1C2F JUMPI PUSH2 0x1C2F PUSH2 0x3FB9 JUMP JUMPDEST EQ JUMPDEST ISZERO PUSH2 0x1C3E JUMPI POP PUSH1 0x8 PUSH2 0x3E91 JUMP JUMPDEST PUSH1 0x3F DUP3 PUSH1 0x80 DUP2 GT ISZERO PUSH2 0x1C52 JUMPI PUSH2 0x1C52 PUSH2 0x3FB9 JUMP JUMPDEST EQ DUP1 PUSH2 0x1C6F JUMPI POP PUSH1 0x41 DUP3 PUSH1 0x80 DUP2 GT ISZERO PUSH2 0x1C6D JUMPI PUSH2 0x1C6D PUSH2 0x3FB9 JUMP JUMPDEST EQ JUMPDEST DUP1 PUSH2 0x1C8B JUMPI POP PUSH1 0x43 DUP3 PUSH1 0x80 DUP2 GT ISZERO PUSH2 0x1C89 JUMPI PUSH2 0x1C89 PUSH2 0x3FB9 JUMP JUMPDEST EQ JUMPDEST DUP1 PUSH2 0x1CA7 JUMPI POP PUSH1 0x44 DUP3 PUSH1 0x80 DUP2 GT ISZERO PUSH2 0x1CA5 JUMPI PUSH2 0x1CA5 PUSH2 0x3FB9 JUMP JUMPDEST EQ JUMPDEST ISZERO PUSH2 0x1CB4 JUMPI POP PUSH1 0x11 PUSH2 0x3E91 JUMP JUMPDEST PUSH1 0x18 PUSH2 0xF25 JUMP JUMPDEST PUSH1 0x6 SLOAD PUSH1 0xFF AND PUSH1 0xC EQ ISZERO PUSH2 0x1E00 JUMPI PUSH1 0x0 DUP3 PUSH1 0x80 DUP2 GT ISZERO PUSH2 0x1CDD JUMPI PUSH2 0x1CDD PUSH2 0x3FB9 JUMP JUMPDEST EQ DUP1 PUSH2 0x1CFA JUMPI POP PUSH1 0x2 DUP3 PUSH1 0x80 DUP2 GT ISZERO PUSH2 0x1CF8 JUMPI PUSH2 0x1CF8 PUSH2 0x3FB9 JUMP JUMPDEST EQ JUMPDEST DUP1 PUSH2 0x1D16 JUMPI POP PUSH1 0x5 DUP3 PUSH1 0x80 DUP2 GT ISZERO PUSH2 0x1D14 JUMPI PUSH2 0x1D14 PUSH2 0x3FB9 JUMP JUMPDEST EQ JUMPDEST ISZERO PUSH2 0x1D23 JUMPI POP PUSH1 0x1 PUSH2 0x3E91 JUMP JUMPDEST PUSH1 0x9 DUP3 PUSH1 0x80 DUP2 GT ISZERO PUSH2 0x1D37 JUMPI PUSH2 0x1D37 PUSH2 0x3FB9 JUMP JUMPDEST EQ DUP1 PUSH2 0x1D54 JUMPI POP PUSH1 0x8 DUP3 PUSH1 0x80 DUP2 GT ISZERO PUSH2 0x1D52 JUMPI PUSH2 0x1D52 PUSH2 0x3FB9 JUMP JUMPDEST EQ JUMPDEST ISZERO PUSH2 0x1D61 JUMPI POP PUSH1 0x2 PUSH2 0x3E91 JUMP JUMPDEST PUSH1 0x70 DUP3 PUSH1 0x80 DUP2 GT ISZERO PUSH2 0x1D75 JUMPI PUSH2 0x1D75 PUSH2 0x3FB9 JUMP JUMPDEST EQ DUP1 PUSH2 0x1D92 JUMPI POP PUSH1 0x72 DUP3 PUSH1 0x80 DUP2 GT ISZERO PUSH2 0x1D90 JUMPI PUSH2 0x1D90 PUSH2 0x3FB9 JUMP JUMPDEST EQ JUMPDEST ISZERO PUSH2 0x1D9F JUMPI POP PUSH1 0x8 PUSH2 0x3E91 JUMP JUMPDEST PUSH1 0x40 DUP3 PUSH1 0x80 DUP2 GT ISZERO PUSH2 0x1DB3 JUMPI PUSH2 0x1DB3 PUSH2 0x3FB9 JUMP JUMPDEST EQ DUP1 PUSH2 0x1DD0 JUMPI POP PUSH1 0x43 DUP3 PUSH1 0x80 DUP2 GT ISZERO PUSH2 0x1DCE JUMPI PUSH2 0x1DCE PUSH2 0x3FB9 JUMP JUMPDEST EQ JUMPDEST DUP1 PUSH2 0x1DEC JUMPI POP PUSH1 0x45 DUP3 PUSH1 0x80 DUP2 GT ISZERO PUSH2 0x1DEA JUMPI PUSH2 0x1DEA PUSH2 0x3FB9 JUMP JUMPDEST EQ JUMPDEST ISZERO PUSH2 0x1DF9 JUMPI POP PUSH1 0x11 PUSH2 0x3E91 JUMP JUMPDEST PUSH1 0x19 PUSH2 0xF25 JUMP JUMPDEST PUSH1 0x6 SLOAD PUSH1 0xFF AND PUSH1 0xD EQ ISZERO PUSH2 0x1F45 JUMPI PUSH1 0x1 DUP3 PUSH1 0x80 DUP2 GT ISZERO PUSH2 0x1E22 JUMPI PUSH2 0x1E22 PUSH2 0x3FB9 JUMP JUMPDEST EQ DUP1 PUSH2 0x1E3F JUMPI POP PUSH1 0x3 DUP3 PUSH1 0x80 DUP2 GT ISZERO PUSH2 0x1E3D JUMPI PUSH2 0x1E3D PUSH2 0x3FB9 JUMP JUMPDEST EQ JUMPDEST DUP1 PUSH2 0x1E5B JUMPI POP PUSH1 0x5 DUP3 PUSH1 0x80 DUP2 GT ISZERO PUSH2 0x1E59 JUMPI PUSH2 0x1E59 PUSH2 0x3FB9 JUMP JUMPDEST EQ JUMPDEST ISZERO PUSH2 0x1E68 JUMPI POP PUSH1 0x1 PUSH2 0x3E91 JUMP JUMPDEST PUSH1 0xA DUP3 PUSH1 0x80 DUP2 GT ISZERO PUSH2 0x1E7C JUMPI PUSH2 0x1E7C PUSH2 0x3FB9 JUMP JUMPDEST EQ DUP1 PUSH2 0x1E99 JUMPI POP PUSH1 0x6 DUP3 PUSH1 0x80 DUP2 GT ISZERO PUSH2 0x1E97 JUMPI PUSH2 0x1E97 PUSH2 0x3FB9 JUMP JUMPDEST EQ JUMPDEST ISZERO PUSH2 0x1EA6 JUMPI POP PUSH1 0x2 PUSH2 0x3E91 JUMP JUMPDEST PUSH1 0x71 DUP3 PUSH1 0x80 DUP2 GT ISZERO PUSH2 0x1EBA JUMPI PUSH2 0x1EBA PUSH2 0x3FB9 JUMP JUMPDEST EQ DUP1 PUSH2 0x1ED7 JUMPI POP PUSH1 0x73 DUP3 PUSH1 0x80 DUP2 GT ISZERO PUSH2 0x1ED5 JUMPI PUSH2 0x1ED5 PUSH2 0x3FB9 JUMP JUMPDEST EQ JUMPDEST ISZERO PUSH2 0x1EE4 JUMPI POP PUSH1 0x8 PUSH2 0x3E91 JUMP JUMPDEST PUSH1 0x42 DUP3 PUSH1 0x80 DUP2 GT ISZERO PUSH2 0x1EF8 JUMPI PUSH2 0x1EF8 PUSH2 0x3FB9 JUMP JUMPDEST EQ DUP1 PUSH2 0x1F15 JUMPI POP PUSH1 0x46 DUP3 PUSH1 0x80 DUP2 GT ISZERO PUSH2 0x1F13 JUMPI PUSH2 0x1F13 PUSH2 0x3FB9 JUMP JUMPDEST EQ JUMPDEST DUP1 PUSH2 0x1F31 JUMPI POP PUSH1 0x47 DUP3 PUSH1 0x80 DUP2 GT ISZERO PUSH2 0x1F2F JUMPI PUSH2 0x1F2F PUSH2 0x3FB9 JUMP JUMPDEST EQ JUMPDEST ISZERO PUSH2 0x1F3E JUMPI POP PUSH1 0x11 PUSH2 0x3E91 JUMP JUMPDEST PUSH1 0x1A PUSH2 0xF25 JUMP JUMPDEST PUSH1 0x6 SLOAD PUSH1 0xFF AND PUSH1 0xE EQ ISZERO PUSH2 0x20DE JUMPI PUSH1 0x0 DUP3 PUSH1 0x80 DUP2 GT ISZERO PUSH2 0x1F67 JUMPI PUSH2 0x1F67 PUSH2 0x3FB9 JUMP JUMPDEST EQ DUP1 PUSH2 0x1F84 JUMPI POP PUSH1 0x2 DUP3 PUSH1 0x80 DUP2 GT ISZERO PUSH2 0x1F82 JUMPI PUSH2 0x1F82 PUSH2 0x3FB9 JUMP JUMPDEST EQ JUMPDEST DUP1 PUSH2 0x1FA0 JUMPI POP PUSH1 0x5 DUP3 PUSH1 0x80 DUP2 GT ISZERO PUSH2 0x1F9E JUMPI PUSH2 0x1F9E PUSH2 0x3FB9 JUMP JUMPDEST EQ JUMPDEST ISZERO PUSH2 0x1FAD JUMPI POP PUSH1 0x1 PUSH2 0x3E91 JUMP JUMPDEST PUSH1 0xA DUP3 PUSH1 0x80 DUP2 GT ISZERO PUSH2 0x1FC1 JUMPI PUSH2 0x1FC1 PUSH2 0x3FB9 JUMP JUMPDEST EQ DUP1 PUSH2 0x1FDE JUMPI POP PUSH1 0x7 DUP3 PUSH1 0x80 DUP2 GT ISZERO PUSH2 0x1FDC JUMPI PUSH2 0x1FDC PUSH2 0x3FB9 JUMP JUMPDEST EQ JUMPDEST ISZERO PUSH2 0x1FEB JUMPI POP PUSH1 0x2 PUSH2 0x3E91 JUMP JUMPDEST PUSH1 0x71 DUP3 PUSH1 0x80 DUP2 GT ISZERO PUSH2 0x1FFF JUMPI PUSH2 0x1FFF PUSH2 0x3FB9 JUMP JUMPDEST EQ DUP1 PUSH2 0x201C JUMPI POP PUSH1 0x72 DUP3 PUSH1 0x80 DUP2 GT ISZERO PUSH2 0x201A JUMPI PUSH2 0x201A PUSH2 0x3FB9 JUMP JUMPDEST EQ JUMPDEST DUP1 PUSH2 0x2038 JUMPI POP PUSH1 0x73 DUP3 PUSH1 0x80 DUP2 GT ISZERO PUSH2 0x2036 JUMPI PUSH2 0x2036 PUSH2 0x3FB9 JUMP JUMPDEST EQ JUMPDEST DUP1 PUSH2 0x2054 JUMPI POP PUSH1 0x74 DUP3 PUSH1 0x80 DUP2 GT ISZERO PUSH2 0x2052 JUMPI PUSH2 0x2052 PUSH2 0x3FB9 JUMP JUMPDEST EQ JUMPDEST ISZERO PUSH2 0x2061 JUMPI POP PUSH1 0x8 PUSH2 0x3E91 JUMP JUMPDEST PUSH1 0x44 DUP3 PUSH1 0x80 DUP2 GT ISZERO PUSH2 0x2075 JUMPI PUSH2 0x2075 PUSH2 0x3FB9 JUMP JUMPDEST EQ DUP1 PUSH2 0x2092 JUMPI POP PUSH1 0x46 DUP3 PUSH1 0x80 DUP2 GT ISZERO PUSH2 0x2090 JUMPI PUSH2 0x2090 PUSH2 0x3FB9 JUMP JUMPDEST EQ JUMPDEST DUP1 PUSH2 0x20AE JUMPI POP PUSH1 0x48 DUP3 PUSH1 0x80 DUP2 GT ISZERO PUSH2 0x20AC JUMPI PUSH2 0x20AC PUSH2 0x3FB9 JUMP JUMPDEST EQ JUMPDEST DUP1 PUSH2 0x20CA JUMPI POP PUSH1 0x49 DUP3 PUSH1 0x80 DUP2 GT ISZERO PUSH2 0x20C8 JUMPI PUSH2 0x20C8 PUSH2 0x3FB9 JUMP JUMPDEST EQ JUMPDEST ISZERO PUSH2 0x20D7 JUMPI POP PUSH1 0x11 PUSH2 0x3E91 JUMP JUMPDEST PUSH1 0x1B PUSH2 0xF25 JUMP JUMPDEST PUSH1 0x6 SLOAD PUSH1 0xFF AND PUSH1 0xF EQ ISZERO PUSH2 0x2223 JUMPI PUSH1 0x1 DUP3 PUSH1 0x80 DUP2 GT ISZERO PUSH2 0x2100 JUMPI PUSH2 0x2100 PUSH2 0x3FB9 JUMP JUMPDEST EQ DUP1 PUSH2 0x211D JUMPI POP PUSH1 0x3 DUP3 PUSH1 0x80 DUP2 GT ISZERO PUSH2 0x211B JUMPI PUSH2 0x211B PUSH2 0x3FB9 JUMP JUMPDEST EQ JUMPDEST DUP1 PUSH2 0x2139 JUMPI POP PUSH1 0x5 DUP3 PUSH1 0x80 DUP2 GT ISZERO PUSH2 0x2137 JUMPI PUSH2 0x2137 PUSH2 0x3FB9 JUMP JUMPDEST EQ JUMPDEST ISZERO PUSH2 0x2146 JUMPI POP PUSH1 0x1 PUSH2 0x3E91 JUMP JUMPDEST PUSH1 0xA DUP3 PUSH1 0x80 DUP2 GT ISZERO PUSH2 0x215A JUMPI PUSH2 0x215A PUSH2 0x3FB9 JUMP JUMPDEST EQ DUP1 PUSH2 0x2177 JUMPI POP PUSH1 0x8 DUP3 PUSH1 0x80 DUP2 GT ISZERO PUSH2 0x2175 JUMPI PUSH2 0x2175 PUSH2 0x3FB9 JUMP JUMPDEST EQ JUMPDEST ISZERO PUSH2 0x2184 JUMPI POP PUSH1 0x2 PUSH2 0x3E91 JUMP JUMPDEST PUSH1 0x72 DUP3 PUSH1 0x80 DUP2 GT ISZERO PUSH2 0x2198 JUMPI PUSH2 0x2198 PUSH2 0x3FB9 JUMP JUMPDEST EQ DUP1 PUSH2 0x21B5 JUMPI POP PUSH1 0x74 DUP3 PUSH1 0x80 DUP2 GT ISZERO PUSH2 0x21B3 JUMPI PUSH2 0x21B3 PUSH2 0x3FB9 JUMP JUMPDEST EQ JUMPDEST ISZERO PUSH2 0x21C2 JUMPI POP PUSH1 0x8 PUSH2 0x3E91 JUMP JUMPDEST PUSH1 0x45 DUP3 PUSH1 0x80 DUP2 GT ISZERO PUSH2 0x21D6 JUMPI PUSH2 0x21D6 PUSH2 0x3FB9 JUMP JUMPDEST EQ DUP1 PUSH2 0x21F3 JUMPI POP PUSH1 0x48 DUP3 PUSH1 0x80 DUP2 GT ISZERO PUSH2 0x21F1 JUMPI PUSH2 0x21F1 PUSH2 0x3FB9 JUMP JUMPDEST EQ JUMPDEST DUP1 PUSH2 0x220F JUMPI POP PUSH1 0x4A DUP3 PUSH1 0x80 DUP2 GT ISZERO PUSH2 0x220D JUMPI PUSH2 0x220D PUSH2 0x3FB9 JUMP JUMPDEST EQ JUMPDEST ISZERO PUSH2 0x221C JUMPI POP PUSH1 0x11 PUSH2 0x3E91 JUMP JUMPDEST PUSH1 0x1C PUSH2 0xF25 JUMP JUMPDEST PUSH1 0x6 SLOAD PUSH1 0xFF AND PUSH1 0x10 EQ ISZERO PUSH2 0x2368 JUMPI PUSH1 0x0 DUP3 PUSH1 0x80 DUP2 GT ISZERO PUSH2 0x2245 JUMPI PUSH2 0x2245 PUSH2 0x3FB9 JUMP JUMPDEST EQ DUP1 PUSH2 0x2262 JUMPI POP PUSH1 0x2 DUP3 PUSH1 0x80 DUP2 GT ISZERO PUSH2 0x2260 JUMPI PUSH2 0x2260 PUSH2 0x3FB9 JUMP JUMPDEST EQ JUMPDEST DUP1 PUSH2 0x227E JUMPI POP PUSH1 0x5 DUP3 PUSH1 0x80 DUP2 GT ISZERO PUSH2 0x227C JUMPI PUSH2 0x227C PUSH2 0x3FB9 JUMP JUMPDEST EQ JUMPDEST ISZERO PUSH2 0x228B JUMPI POP PUSH1 0x1 PUSH2 0x3E91 JUMP JUMPDEST PUSH1 0xA DUP3 PUSH1 0x80 DUP2 GT ISZERO PUSH2 0x229F JUMPI PUSH2 0x229F PUSH2 0x3FB9 JUMP JUMPDEST EQ DUP1 PUSH2 0x22BC JUMPI POP PUSH1 0x6 DUP3 PUSH1 0x80 DUP2 GT ISZERO PUSH2 0x22BA JUMPI PUSH2 0x22BA PUSH2 0x3FB9 JUMP JUMPDEST EQ JUMPDEST ISZERO PUSH2 0x22C9 JUMPI POP PUSH1 0x2 PUSH2 0x3E91 JUMP JUMPDEST PUSH1 0x73 DUP3 PUSH1 0x80 DUP2 GT ISZERO PUSH2 0x22DD JUMPI PUSH2 0x22DD PUSH2 0x3FB9 JUMP JUMPDEST EQ DUP1 PUSH2 0x22FA JUMPI POP PUSH1 0x75 DUP3 PUSH1 0x80 DUP2 GT ISZERO PUSH2 0x22F8 JUMPI PUSH2 0x22F8 PUSH2 0x3FB9 JUMP JUMPDEST EQ JUMPDEST ISZERO PUSH2 0x2307 JUMPI POP PUSH1 0x8 PUSH2 0x3E91 JUMP JUMPDEST PUSH1 0x47 DUP3 PUSH1 0x80 DUP2 GT ISZERO PUSH2 0x231B JUMPI PUSH2 0x231B PUSH2 0x3FB9 JUMP JUMPDEST EQ DUP1 PUSH2 0x2338 JUMPI POP PUSH1 0x4B DUP3 PUSH1 0x80 DUP2 GT ISZERO PUSH2 0x2336 JUMPI PUSH2 0x2336 PUSH2 0x3FB9 JUMP JUMPDEST EQ JUMPDEST DUP1 PUSH2 0x2354 JUMPI POP PUSH1 0x4C DUP3 PUSH1 0x80 DUP2 GT ISZERO PUSH2 0x2352 JUMPI PUSH2 0x2352 PUSH2 0x3FB9 JUMP JUMPDEST EQ JUMPDEST ISZERO PUSH2 0x2361 JUMPI POP PUSH1 0x11 PUSH2 0x3E91 JUMP JUMPDEST PUSH1 0x1D PUSH2 0xF25 JUMP JUMPDEST PUSH1 0x6 SLOAD PUSH1 0xFF AND PUSH1 0x11 EQ ISZERO PUSH2 0x2501 JUMPI PUSH1 0x1 DUP3 PUSH1 0x80 DUP2 GT ISZERO PUSH2 0x238A JUMPI PUSH2 0x238A PUSH2 0x3FB9 JUMP JUMPDEST EQ DUP1 PUSH2 0x23A7 JUMPI POP PUSH1 0x3 DUP3 PUSH1 0x80 DUP2 GT ISZERO PUSH2 0x23A5 JUMPI PUSH2 0x23A5 PUSH2 0x3FB9 JUMP JUMPDEST EQ JUMPDEST DUP1 PUSH2 0x23C3 JUMPI POP PUSH1 0x5 DUP3 PUSH1 0x80 DUP2 GT ISZERO PUSH2 0x23C1 JUMPI PUSH2 0x23C1 PUSH2 0x3FB9 JUMP JUMPDEST EQ JUMPDEST ISZERO PUSH2 0x23D0 JUMPI POP PUSH1 0x1 PUSH2 0x3E91 JUMP JUMPDEST PUSH1 0xA DUP3 PUSH1 0x80 DUP2 GT ISZERO PUSH2 0x23E4 JUMPI PUSH2 0x23E4 PUSH2 0x3FB9 JUMP JUMPDEST EQ DUP1 PUSH2 0x2401 JUMPI POP PUSH1 0x7 DUP3 PUSH1 0x80 DUP2 GT ISZERO PUSH2 0x23FF JUMPI PUSH2 0x23FF PUSH2 0x3FB9 JUMP JUMPDEST EQ JUMPDEST ISZERO PUSH2 0x240E JUMPI POP PUSH1 0x2 PUSH2 0x3E91 JUMP JUMPDEST PUSH1 0x73 DUP3 PUSH1 0x80 DUP2 GT ISZERO PUSH2 0x2422 JUMPI PUSH2 0x2422 PUSH2 0x3FB9 JUMP JUMPDEST EQ DUP1 PUSH2 0x243F JUMPI POP PUSH1 0x74 DUP3 PUSH1 0x80 DUP2 GT ISZERO PUSH2 0x243D JUMPI PUSH2 0x243D PUSH2 0x3FB9 JUMP JUMPDEST EQ JUMPDEST DUP1 PUSH2 0x245B JUMPI POP PUSH1 0x75 DUP3 PUSH1 0x80 DUP2 GT ISZERO PUSH2 0x2459 JUMPI PUSH2 0x2459 PUSH2 0x3FB9 JUMP JUMPDEST EQ JUMPDEST DUP1 PUSH2 0x2477 JUMPI POP PUSH1 0x76 DUP3 PUSH1 0x80 DUP2 GT ISZERO PUSH2 0x2475 JUMPI PUSH2 0x2475 PUSH2 0x3FB9 JUMP JUMPDEST EQ JUMPDEST ISZERO PUSH2 0x2484 JUMPI POP PUSH1 0x8 PUSH2 0x3E91 JUMP JUMPDEST PUSH1 0x49 DUP3 PUSH1 0x80 DUP2 GT ISZERO PUSH2 0x2498 JUMPI PUSH2 0x2498 PUSH2 0x3FB9 JUMP JUMPDEST EQ DUP1 PUSH2 0x24B5 JUMPI POP PUSH1 0x4B DUP3 PUSH1 0x80 DUP2 GT ISZERO PUSH2 0x24B3 JUMPI PUSH2 0x24B3 PUSH2 0x3FB9 JUMP JUMPDEST EQ JUMPDEST DUP1 PUSH2 0x24D1 JUMPI POP PUSH1 0x4D DUP3 PUSH1 0x80 DUP2 GT ISZERO PUSH2 0x24CF JUMPI PUSH2 0x24CF PUSH2 0x3FB9 JUMP JUMPDEST EQ JUMPDEST DUP1 PUSH2 0x24ED JUMPI POP PUSH1 0x4E DUP3 PUSH1 0x80 DUP2 GT ISZERO PUSH2 0x24EB JUMPI PUSH2 0x24EB PUSH2 0x3FB9 JUMP JUMPDEST EQ JUMPDEST ISZERO PUSH2 0x24FA JUMPI POP PUSH1 0x11 PUSH2 0x3E91 JUMP JUMPDEST PUSH1 0x1E PUSH2 0xF25 JUMP JUMPDEST PUSH1 0x6 SLOAD PUSH1 0xFF AND PUSH1 0x12 EQ ISZERO PUSH2 0x2646 JUMPI PUSH1 0x0 DUP3 PUSH1 0x80 DUP2 GT ISZERO PUSH2 0x2523 JUMPI PUSH2 0x2523 PUSH2 0x3FB9 JUMP JUMPDEST EQ DUP1 PUSH2 0x2540 JUMPI POP PUSH1 0x2 DUP3 PUSH1 0x80 DUP2 GT ISZERO PUSH2 0x253E JUMPI PUSH2 0x253E PUSH2 0x3FB9 JUMP JUMPDEST EQ JUMPDEST DUP1 PUSH2 0x255C JUMPI POP PUSH1 0x5 DUP3 PUSH1 0x80 DUP2 GT ISZERO PUSH2 0x255A JUMPI PUSH2 0x255A PUSH2 0x3FB9 JUMP JUMPDEST EQ JUMPDEST ISZERO PUSH2 0x2569 JUMPI POP PUSH1 0x1 PUSH2 0x3E91 JUMP JUMPDEST PUSH1 0xA DUP3 PUSH1 0x80 DUP2 GT ISZERO PUSH2 0x257D JUMPI PUSH2 0x257D PUSH2 0x3FB9 JUMP JUMPDEST EQ DUP1 PUSH2 0x259A JUMPI POP PUSH1 0x8 DUP3 PUSH1 0x80 DUP2 GT ISZERO PUSH2 0x2598 JUMPI PUSH2 0x2598 PUSH2 0x3FB9 JUMP JUMPDEST EQ JUMPDEST ISZERO PUSH2 0x25A7 JUMPI POP PUSH1 0x2 PUSH2 0x3E91 JUMP JUMPDEST PUSH1 0x74 DUP3 PUSH1 0x80 DUP2 GT ISZERO PUSH2 0x25BB JUMPI PUSH2 0x25BB PUSH2 0x3FB9 JUMP JUMPDEST EQ DUP1 PUSH2 0x25D8 JUMPI POP PUSH1 0x76 DUP3 PUSH1 0x80 DUP2 GT ISZERO PUSH2 0x25D6 JUMPI PUSH2 0x25D6 PUSH2 0x3FB9 JUMP JUMPDEST EQ JUMPDEST ISZERO PUSH2 0x25E5 JUMPI POP PUSH1 0x8 PUSH2 0x3E91 JUMP JUMPDEST PUSH1 0x4A DUP3 PUSH1 0x80 DUP2 GT ISZERO PUSH2 0x25F9 JUMPI PUSH2 0x25F9 PUSH2 0x3FB9 JUMP JUMPDEST EQ DUP1 PUSH2 0x2616 JUMPI POP PUSH1 0x4D DUP3 PUSH1 0x80 DUP2 GT ISZERO PUSH2 0x2614 JUMPI PUSH2 0x2614 PUSH2 0x3FB9 JUMP JUMPDEST EQ JUMPDEST DUP1 PUSH2 0x2632 JUMPI POP PUSH1 0x4F DUP3 PUSH1 0x80 DUP2 GT ISZERO PUSH2 0x2630 JUMPI PUSH2 0x2630 PUSH2 0x3FB9 JUMP JUMPDEST EQ JUMPDEST ISZERO PUSH2 0x263F JUMPI POP PUSH1 0x11 PUSH2 0x3E91 JUMP JUMPDEST PUSH1 0x1F PUSH2 0xF25 JUMP JUMPDEST PUSH1 0x6 SLOAD PUSH1 0xFF AND PUSH1 0x13 EQ ISZERO PUSH2 0x278B JUMPI PUSH1 0x0 DUP3 PUSH1 0x80 DUP2 GT ISZERO PUSH2 0x2668 JUMPI PUSH2 0x2668 PUSH2 0x3FB9 JUMP JUMPDEST EQ DUP1 PUSH2 0x2685 JUMPI POP PUSH1 0x3 DUP3 PUSH1 0x80 DUP2 GT ISZERO PUSH2 0x2683 JUMPI PUSH2 0x2683 PUSH2 0x3FB9 JUMP JUMPDEST EQ JUMPDEST DUP1 PUSH2 0x26A1 JUMPI POP PUSH1 0x4 DUP3 PUSH1 0x80 DUP2 GT ISZERO PUSH2 0x269F JUMPI PUSH2 0x269F PUSH2 0x3FB9 JUMP JUMPDEST EQ JUMPDEST ISZERO PUSH2 0x26AE JUMPI POP PUSH1 0x1 PUSH2 0x3E91 JUMP JUMPDEST PUSH1 0xA DUP3 PUSH1 0x80 DUP2 GT ISZERO PUSH2 0x26C2 JUMPI PUSH2 0x26C2 PUSH2 0x3FB9 JUMP JUMPDEST EQ DUP1 PUSH2 0x26DF JUMPI POP PUSH1 0x6 DUP3 PUSH1 0x80 DUP2 GT ISZERO PUSH2 0x26DD JUMPI PUSH2 0x26DD PUSH2 0x3FB9 JUMP JUMPDEST EQ JUMPDEST ISZERO PUSH2 0x26EC JUMPI POP PUSH1 0x2 PUSH2 0x3E91 JUMP JUMPDEST PUSH1 0x75 DUP3 PUSH1 0x80 DUP2 GT ISZERO PUSH2 0x2700 JUMPI PUSH2 0x2700 PUSH2 0x3FB9 JUMP JUMPDEST EQ DUP1 PUSH2 0x271D JUMPI POP PUSH1 0x77 DUP3 PUSH1 0x80 DUP2 GT ISZERO PUSH2 0x271B JUMPI PUSH2 0x271B PUSH2 0x3FB9 JUMP JUMPDEST EQ JUMPDEST ISZERO PUSH2 0x272A JUMPI POP PUSH1 0x8 PUSH2 0x3E91 JUMP JUMPDEST PUSH1 0x47 DUP3 PUSH1 0x80 DUP2 GT ISZERO PUSH2 0x273E JUMPI PUSH2 0x273E PUSH2 0x3FB9 JUMP JUMPDEST EQ DUP1 PUSH2 0x275B JUMPI POP PUSH1 0x4B DUP3 PUSH1 0x80 DUP2 GT ISZERO PUSH2 0x2759 JUMPI PUSH2 0x2759 PUSH2 0x3FB9 JUMP JUMPDEST EQ JUMPDEST DUP1 PUSH2 0x2777 JUMPI POP PUSH1 0x4C DUP3 PUSH1 0x80 DUP2 GT ISZERO PUSH2 0x2775 JUMPI PUSH2 0x2775 PUSH2 0x3FB9 JUMP JUMPDEST EQ JUMPDEST ISZERO PUSH2 0x2784 JUMPI POP PUSH1 0x11 PUSH2 0x3E91 JUMP JUMPDEST PUSH1 0x20 PUSH2 0xF25 JUMP JUMPDEST PUSH1 0x6 SLOAD PUSH1 0xFF AND PUSH1 0x14 EQ ISZERO PUSH2 0x2924 JUMPI PUSH1 0x1 DUP3 PUSH1 0x80 DUP2 GT ISZERO PUSH2 0x27AD JUMPI PUSH2 0x27AD PUSH2 0x3FB9 JUMP JUMPDEST EQ DUP1 PUSH2 0x27CA JUMPI POP PUSH1 0x2 DUP3 PUSH1 0x80 DUP2 GT ISZERO PUSH2 0x27C8 JUMPI PUSH2 0x27C8 PUSH2 0x3FB9 JUMP JUMPDEST EQ JUMPDEST DUP1 PUSH2 0x27E6 JUMPI POP PUSH1 0x4 DUP3 PUSH1 0x80 DUP2 GT ISZERO PUSH2 0x27E4 JUMPI PUSH2 0x27E4 PUSH2 0x3FB9 JUMP JUMPDEST EQ JUMPDEST ISZERO PUSH2 0x27F3 JUMPI POP PUSH1 0x1 PUSH2 0x3E91 JUMP JUMPDEST PUSH1 0xA DUP3 PUSH1 0x80 DUP2 GT ISZERO PUSH2 0x2807 JUMPI PUSH2 0x2807 PUSH2 0x3FB9 JUMP JUMPDEST EQ DUP1 PUSH2 0x2824 JUMPI POP PUSH1 0x7 DUP3 PUSH1 0x80 DUP2 GT ISZERO PUSH2 0x2822 JUMPI PUSH2 0x2822 PUSH2 0x3FB9 JUMP JUMPDEST EQ JUMPDEST ISZERO PUSH2 0x2831 JUMPI POP PUSH1 0x2 PUSH2 0x3E91 JUMP JUMPDEST PUSH1 0x75 DUP3 PUSH1 0x80 DUP2 GT ISZERO PUSH2 0x2845 JUMPI PUSH2 0x2845 PUSH2 0x3FB9 JUMP JUMPDEST EQ DUP1 PUSH2 0x2862 JUMPI POP PUSH1 0x76 DUP3 PUSH1 0x80 DUP2 GT ISZERO PUSH2 0x2860 JUMPI PUSH2 0x2860 PUSH2 0x3FB9 JUMP JUMPDEST EQ JUMPDEST DUP1 PUSH2 0x287E JUMPI POP PUSH1 0x77 DUP3 PUSH1 0x80 DUP2 GT ISZERO PUSH2 0x287C JUMPI PUSH2 0x287C PUSH2 0x3FB9 JUMP JUMPDEST EQ JUMPDEST DUP1 PUSH2 0x289A JUMPI POP PUSH1 0x78 DUP3 PUSH1 0x80 DUP2 GT ISZERO PUSH2 0x2898 JUMPI PUSH2 0x2898 PUSH2 0x3FB9 JUMP JUMPDEST EQ JUMPDEST ISZERO PUSH2 0x28A7 JUMPI POP PUSH1 0x8 PUSH2 0x3E91 JUMP JUMPDEST PUSH1 0x4E DUP3 PUSH1 0x80 DUP2 GT ISZERO PUSH2 0x28BB JUMPI PUSH2 0x28BB PUSH2 0x3FB9 JUMP JUMPDEST EQ DUP1 PUSH2 0x28D8 JUMPI POP PUSH1 0x50 DUP3 PUSH1 0x80 DUP2 GT ISZERO PUSH2 0x28D6 JUMPI PUSH2 0x28D6 PUSH2 0x3FB9 JUMP JUMPDEST EQ JUMPDEST DUP1 PUSH2 0x28F4 JUMPI POP PUSH1 0x52 DUP3 PUSH1 0x80 DUP2 GT ISZERO PUSH2 0x28F2 JUMPI PUSH2 0x28F2 PUSH2 0x3FB9 JUMP JUMPDEST EQ JUMPDEST DUP1 PUSH2 0x2910 JUMPI POP PUSH1 0x53 DUP3 PUSH1 0x80 DUP2 GT ISZERO PUSH2 0x290E JUMPI PUSH2 0x290E PUSH2 0x3FB9 JUMP JUMPDEST EQ JUMPDEST ISZERO PUSH2 0x291D JUMPI POP PUSH1 0x11 PUSH2 0x3E91 JUMP JUMPDEST PUSH1 0x21 PUSH2 0xF25 JUMP JUMPDEST PUSH1 0x6 SLOAD PUSH1 0xFF AND PUSH1 0x15 EQ ISZERO PUSH2 0x2A69 JUMPI PUSH1 0x0 DUP3 PUSH1 0x80 DUP2 GT ISZERO PUSH2 0x2946 JUMPI PUSH2 0x2946 PUSH2 0x3FB9 JUMP JUMPDEST EQ DUP1 PUSH2 0x2963 JUMPI POP PUSH1 0x3 DUP3 PUSH1 0x80 DUP2 GT ISZERO PUSH2 0x2961 JUMPI PUSH2 0x2961 PUSH2 0x3FB9 JUMP JUMPDEST EQ JUMPDEST DUP1 PUSH2 0x297F JUMPI POP PUSH1 0x4 DUP3 PUSH1 0x80 DUP2 GT ISZERO PUSH2 0x297D JUMPI PUSH2 0x297D PUSH2 0x3FB9 JUMP JUMPDEST EQ JUMPDEST ISZERO PUSH2 0x298C JUMPI POP PUSH1 0x1 PUSH2 0x3E91 JUMP JUMPDEST PUSH1 0xA DUP3 PUSH1 0x80 DUP2 GT ISZERO PUSH2 0x29A0 JUMPI PUSH2 0x29A0 PUSH2 0x3FB9 JUMP JUMPDEST EQ DUP1 PUSH2 0x29BD JUMPI POP PUSH1 0x8 DUP3 PUSH1 0x80 DUP2 GT ISZERO PUSH2 0x29BB JUMPI PUSH2 0x29BB PUSH2 0x3FB9 JUMP JUMPDEST EQ JUMPDEST ISZERO PUSH2 0x29CA JUMPI POP PUSH1 0x2 PUSH2 0x3E91 JUMP JUMPDEST PUSH1 0x76 DUP3 PUSH1 0x80 DUP2 GT ISZERO PUSH2 0x29DE JUMPI PUSH2 0x29DE PUSH2 0x3FB9 JUMP JUMPDEST EQ DUP1 PUSH2 0x29FB JUMPI POP PUSH1 0x78 DUP3 PUSH1 0x80 DUP2 GT ISZERO PUSH2 0x29F9 JUMPI PUSH2 0x29F9 PUSH2 0x3FB9 JUMP JUMPDEST EQ JUMPDEST ISZERO PUSH2 0x2A08 JUMPI POP PUSH1 0x8 PUSH2 0x3E91 JUMP JUMPDEST PUSH1 0x4F DUP3 PUSH1 0x80 DUP2 GT ISZERO PUSH2 0x2A1C JUMPI PUSH2 0x2A1C PUSH2 0x3FB9 JUMP JUMPDEST EQ DUP1 PUSH2 0x2A39 JUMPI POP PUSH1 0x52 DUP3 PUSH1 0x80 DUP2 GT ISZERO PUSH2 0x2A37 JUMPI PUSH2 0x2A37 PUSH2 0x3FB9 JUMP JUMPDEST EQ JUMPDEST DUP1 PUSH2 0x2A55 JUMPI POP PUSH1 0x54 DUP3 PUSH1 0x80 DUP2 GT ISZERO PUSH2 0x2A53 JUMPI PUSH2 0x2A53 PUSH2 0x3FB9 JUMP JUMPDEST EQ JUMPDEST ISZERO PUSH2 0x2A62 JUMPI POP PUSH1 0x11 PUSH2 0x3E91 JUMP JUMPDEST PUSH1 0x22 PUSH2 0xF25 JUMP JUMPDEST PUSH1 0x6 SLOAD PUSH1 0xFF AND PUSH1 0x16 EQ ISZERO PUSH2 0x2BAE JUMPI PUSH1 0x1 DUP3 PUSH1 0x80 DUP2 GT ISZERO PUSH2 0x2A8B JUMPI PUSH2 0x2A8B PUSH2 0x3FB9 JUMP JUMPDEST EQ DUP1 PUSH2 0x2AA8 JUMPI POP PUSH1 0x2 DUP3 PUSH1 0x80 DUP2 GT ISZERO PUSH2 0x2AA6 JUMPI PUSH2 0x2AA6 PUSH2 0x3FB9 JUMP JUMPDEST EQ JUMPDEST DUP1 PUSH2 0x2AC4 JUMPI POP PUSH1 0x4 DUP3 PUSH1 0x80 DUP2 GT ISZERO PUSH2 0x2AC2 JUMPI PUSH2 0x2AC2 PUSH2 0x3FB9 JUMP JUMPDEST EQ JUMPDEST ISZERO PUSH2 0x2AD1 JUMPI POP PUSH1 0x1 PUSH2 0x3E91 JUMP JUMPDEST PUSH1 0xA DUP3 PUSH1 0x80 DUP2 GT ISZERO PUSH2 0x2AE5 JUMPI PUSH2 0x2AE5 PUSH2 0x3FB9 JUMP JUMPDEST EQ DUP1 PUSH2 0x2B02 JUMPI POP PUSH1 0x6 DUP3 PUSH1 0x80 DUP2 GT ISZERO PUSH2 0x2B00 JUMPI PUSH2 0x2B00 PUSH2 0x3FB9 JUMP JUMPDEST EQ JUMPDEST ISZERO PUSH2 0x2B0F JUMPI POP PUSH1 0x2 PUSH2 0x3E91 JUMP JUMPDEST PUSH1 0x77 DUP3 PUSH1 0x80 DUP2 GT ISZERO PUSH2 0x2B23 JUMPI PUSH2 0x2B23 PUSH2 0x3FB9 JUMP JUMPDEST EQ DUP1 PUSH2 0x2B40 JUMPI POP PUSH1 0x79 DUP3 PUSH1 0x80 DUP2 GT ISZERO PUSH2 0x2B3E JUMPI PUSH2 0x2B3E PUSH2 0x3FB9 JUMP JUMPDEST EQ JUMPDEST ISZERO PUSH2 0x2B4D JUMPI POP PUSH1 0x8 PUSH2 0x3E91 JUMP JUMPDEST PUSH1 0x51 DUP3 PUSH1 0x80 DUP2 GT ISZERO PUSH2 0x2B61 JUMPI PUSH2 0x2B61 PUSH2 0x3FB9 JUMP JUMPDEST EQ DUP1 PUSH2 0x2B7E JUMPI POP PUSH1 0x55 DUP3 PUSH1 0x80 DUP2 GT ISZERO PUSH2 0x2B7C JUMPI PUSH2 0x2B7C PUSH2 0x3FB9 JUMP JUMPDEST EQ JUMPDEST DUP1 PUSH2 0x2B9A JUMPI POP PUSH1 0x56 DUP3 PUSH1 0x80 DUP2 GT ISZERO PUSH2 0x2B98 JUMPI PUSH2 0x2B98 PUSH2 0x3FB9 JUMP JUMPDEST EQ JUMPDEST ISZERO PUSH2 0x2BA7 JUMPI POP PUSH1 0x11 PUSH2 0x3E91 JUMP JUMPDEST PUSH1 0x23 PUSH2 0xF25 JUMP JUMPDEST PUSH1 0x6 SLOAD PUSH1 0xFF AND PUSH1 0x17 EQ ISZERO PUSH2 0x2D47 JUMPI PUSH1 0x0 DUP3 PUSH1 0x80 DUP2 GT ISZERO PUSH2 0x2BD0 JUMPI PUSH2 0x2BD0 PUSH2 0x3FB9 JUMP JUMPDEST EQ DUP1 PUSH2 0x2BED JUMPI POP PUSH1 0x3 DUP3 PUSH1 0x80 DUP2 GT ISZERO PUSH2 0x2BEB JUMPI PUSH2 0x2BEB PUSH2 0x3FB9 JUMP JUMPDEST EQ JUMPDEST DUP1 PUSH2 0x2C09 JUMPI POP PUSH1 0x4 DUP3 PUSH1 0x80 DUP2 GT ISZERO PUSH2 0x2C07 JUMPI PUSH2 0x2C07 PUSH2 0x3FB9 JUMP JUMPDEST EQ JUMPDEST ISZERO PUSH2 0x2C16 JUMPI POP PUSH1 0x1 PUSH2 0x3E91 JUMP JUMPDEST PUSH1 0xA DUP3 PUSH1 0x80 DUP2 GT ISZERO PUSH2 0x2C2A JUMPI PUSH2 0x2C2A PUSH2 0x3FB9 JUMP JUMPDEST EQ DUP1 PUSH2 0x2C47 JUMPI POP PUSH1 0x7 DUP3 PUSH1 0x80 DUP2 GT ISZERO PUSH2 0x2C45 JUMPI PUSH2 0x2C45 PUSH2 0x3FB9 JUMP JUMPDEST EQ JUMPDEST ISZERO PUSH2 0x2C54 JUMPI POP PUSH1 0x2 PUSH2 0x3E91 JUMP JUMPDEST PUSH1 0x77 DUP3 PUSH1 0x80 DUP2 GT ISZERO PUSH2 0x2C68 JUMPI PUSH2 0x2C68 PUSH2 0x3FB9 JUMP JUMPDEST EQ DUP1 PUSH2 0x2C85 JUMPI POP PUSH1 0x78 DUP3 PUSH1 0x80 DUP2 GT ISZERO PUSH2 0x2C83 JUMPI PUSH2 0x2C83 PUSH2 0x3FB9 JUMP JUMPDEST EQ JUMPDEST DUP1 PUSH2 0x2CA1 JUMPI POP PUSH1 0x79 DUP3 PUSH1 0x80 DUP2 GT ISZERO PUSH2 0x2C9F JUMPI PUSH2 0x2C9F PUSH2 0x3FB9 JUMP JUMPDEST EQ JUMPDEST DUP1 PUSH2 0x2CBD JUMPI POP PUSH1 0x7A DUP3 PUSH1 0x80 DUP2 GT ISZERO PUSH2 0x2CBB JUMPI PUSH2 0x2CBB PUSH2 0x3FB9 JUMP JUMPDEST EQ JUMPDEST ISZERO PUSH2 0x2CCA JUMPI POP PUSH1 0x8 PUSH2 0x3E91 JUMP JUMPDEST PUSH1 0x53 DUP3 PUSH1 0x80 DUP2 GT ISZERO PUSH2 0x2CDE JUMPI PUSH2 0x2CDE PUSH2 0x3FB9 JUMP JUMPDEST EQ DUP1 PUSH2 0x2CFB JUMPI POP PUSH1 0x55 DUP3 PUSH1 0x80 DUP2 GT ISZERO PUSH2 0x2CF9 JUMPI PUSH2 0x2CF9 PUSH2 0x3FB9 JUMP JUMPDEST EQ JUMPDEST DUP1 PUSH2 0x2D17 JUMPI POP PUSH1 0x57 DUP3 PUSH1 0x80 DUP2 GT ISZERO PUSH2 0x2D15 JUMPI PUSH2 0x2D15 PUSH2 0x3FB9 JUMP JUMPDEST EQ JUMPDEST DUP1 PUSH2 0x2D33 JUMPI POP PUSH1 0x58 DUP3 PUSH1 0x80 DUP2 GT ISZERO PUSH2 0x2D31 JUMPI PUSH2 0x2D31 PUSH2 0x3FB9 JUMP JUMPDEST EQ JUMPDEST ISZERO PUSH2 0x2D40 JUMPI POP PUSH1 0x11 PUSH2 0x3E91 JUMP JUMPDEST PUSH1 0x24 PUSH2 0xF25 JUMP JUMPDEST PUSH1 0x6 SLOAD PUSH1 0xFF AND PUSH1 0x18 EQ ISZERO PUSH2 0x2E8C JUMPI PUSH1 0x1 DUP3 PUSH1 0x80 DUP2 GT ISZERO PUSH2 0x2D69 JUMPI PUSH2 0x2D69 PUSH2 0x3FB9 JUMP JUMPDEST EQ DUP1 PUSH2 0x2D86 JUMPI POP PUSH1 0x2 DUP3 PUSH1 0x80 DUP2 GT ISZERO PUSH2 0x2D84 JUMPI PUSH2 0x2D84 PUSH2 0x3FB9 JUMP JUMPDEST EQ JUMPDEST DUP1 PUSH2 0x2DA2 JUMPI POP PUSH1 0x4 DUP3 PUSH1 0x80 DUP2 GT ISZERO PUSH2 0x2DA0 JUMPI PUSH2 0x2DA0 PUSH2 0x3FB9 JUMP JUMPDEST EQ JUMPDEST ISZERO PUSH2 0x2DAF JUMPI POP PUSH1 0x1 PUSH2 0x3E91 JUMP JUMPDEST PUSH1 0xA DUP3 PUSH1 0x80 DUP2 GT ISZERO PUSH2 0x2DC3 JUMPI PUSH2 0x2DC3 PUSH2 0x3FB9 JUMP JUMPDEST EQ DUP1 PUSH2 0x2DE0 JUMPI POP PUSH1 0x8 DUP3 PUSH1 0x80 DUP2 GT ISZERO PUSH2 0x2DDE JUMPI PUSH2 0x2DDE PUSH2 0x3FB9 JUMP JUMPDEST EQ JUMPDEST ISZERO PUSH2 0x2DED JUMPI POP PUSH1 0x2 PUSH2 0x3E91 JUMP JUMPDEST PUSH1 0x78 DUP3 PUSH1 0x80 DUP2 GT ISZERO PUSH2 0x2E01 JUMPI PUSH2 0x2E01 PUSH2 0x3FB9 JUMP JUMPDEST EQ DUP1 PUSH2 0x2E1E JUMPI POP PUSH1 0x7A DUP3 PUSH1 0x80 DUP2 GT ISZERO PUSH2 0x2E1C JUMPI PUSH2 0x2E1C PUSH2 0x3FB9 JUMP JUMPDEST EQ JUMPDEST ISZERO PUSH2 0x2E2B JUMPI POP PUSH1 0x8 PUSH2 0x3E91 JUMP JUMPDEST PUSH1 0x54 DUP3 PUSH1 0x80 DUP2 GT ISZERO PUSH2 0x2E3F JUMPI PUSH2 0x2E3F PUSH2 0x3FB9 JUMP JUMPDEST EQ DUP1 PUSH2 0x2E5C JUMPI POP PUSH1 0x57 DUP3 PUSH1 0x80 DUP2 GT ISZERO PUSH2 0x2E5A JUMPI PUSH2 0x2E5A PUSH2 0x3FB9 JUMP JUMPDEST EQ JUMPDEST DUP1 PUSH2 0x2E78 JUMPI POP PUSH1 0x59 DUP3 PUSH1 0x80 DUP2 GT ISZERO PUSH2 0x2E76 JUMPI PUSH2 0x2E76 PUSH2 0x3FB9 JUMP JUMPDEST EQ JUMPDEST ISZERO PUSH2 0x2E85 JUMPI POP PUSH1 0x11 PUSH2 0x3E91 JUMP JUMPDEST PUSH1 0x25 PUSH2 0xF25 JUMP JUMPDEST PUSH1 0x6 SLOAD PUSH1 0xFF AND PUSH1 0x19 EQ ISZERO PUSH2 0x2FD1 JUMPI PUSH1 0x0 DUP3 PUSH1 0x80 DUP2 GT ISZERO PUSH2 0x2EAE JUMPI PUSH2 0x2EAE PUSH2 0x3FB9 JUMP JUMPDEST EQ DUP1 PUSH2 0x2ECB JUMPI POP PUSH1 0x3 DUP3 PUSH1 0x80 DUP2 GT ISZERO PUSH2 0x2EC9 JUMPI PUSH2 0x2EC9 PUSH2 0x3FB9 JUMP JUMPDEST EQ JUMPDEST DUP1 PUSH2 0x2EE7 JUMPI POP PUSH1 0x4 DUP3 PUSH1 0x80 DUP2 GT ISZERO PUSH2 0x2EE5 JUMPI PUSH2 0x2EE5 PUSH2 0x3FB9 JUMP JUMPDEST EQ JUMPDEST ISZERO PUSH2 0x2EF4 JUMPI POP PUSH1 0x1 PUSH2 0x3E91 JUMP JUMPDEST PUSH1 0xB DUP3 PUSH1 0x80 DUP2 GT ISZERO PUSH2 0x2F08 JUMPI PUSH2 0x2F08 PUSH2 0x3FB9 JUMP JUMPDEST EQ DUP1 PUSH2 0x2F25 JUMPI POP PUSH1 0x6 DUP3 PUSH1 0x80 DUP2 GT ISZERO PUSH2 0x2F23 JUMPI PUSH2 0x2F23 PUSH2 0x3FB9 JUMP JUMPDEST EQ JUMPDEST ISZERO PUSH2 0x2F32 JUMPI POP PUSH1 0x2 PUSH2 0x3E91 JUMP JUMPDEST PUSH1 0x79 DUP3 PUSH1 0x80 DUP2 GT ISZERO PUSH2 0x2F46 JUMPI PUSH2 0x2F46 PUSH2 0x3FB9 JUMP JUMPDEST EQ DUP1 PUSH2 0x2F63 JUMPI POP PUSH1 0x7B DUP3 PUSH1 0x80 DUP2 GT ISZERO PUSH2 0x2F61 JUMPI PUSH2 0x2F61 PUSH2 0x3FB9 JUMP JUMPDEST EQ JUMPDEST ISZERO PUSH2 0x2F70 JUMPI POP PUSH1 0x8 PUSH2 0x3E91 JUMP JUMPDEST PUSH1 0x56 DUP3 PUSH1 0x80 DUP2 GT ISZERO PUSH2 0x2F84 JUMPI PUSH2 0x2F84 PUSH2 0x3FB9 JUMP JUMPDEST EQ DUP1 PUSH2 0x2FA1 JUMPI POP PUSH1 0x5A DUP3 PUSH1 0x80 DUP2 GT ISZERO PUSH2 0x2F9F JUMPI PUSH2 0x2F9F PUSH2 0x3FB9 JUMP JUMPDEST EQ JUMPDEST DUP1 PUSH2 0x2FBD JUMPI POP PUSH1 0x5B DUP3 PUSH1 0x80 DUP2 GT ISZERO PUSH2 0x2FBB JUMPI PUSH2 0x2FBB PUSH2 0x3FB9 JUMP JUMPDEST EQ JUMPDEST ISZERO PUSH2 0x2FCA JUMPI POP PUSH1 0x11 PUSH2 0x3E91 JUMP JUMPDEST PUSH1 0x26 PUSH2 0xF25 JUMP JUMPDEST PUSH1 0x6 SLOAD PUSH1 0xFF AND PUSH1 0x1A EQ ISZERO PUSH2 0x316A JUMPI PUSH1 0x1 DUP3 PUSH1 0x80 DUP2 GT ISZERO PUSH2 0x2FF3 JUMPI PUSH2 0x2FF3 PUSH2 0x3FB9 JUMP JUMPDEST EQ DUP1 PUSH2 0x3010 JUMPI POP PUSH1 0x2 DUP3 PUSH1 0x80 DUP2 GT ISZERO PUSH2 0x300E JUMPI PUSH2 0x300E PUSH2 0x3FB9 JUMP JUMPDEST EQ JUMPDEST DUP1 PUSH2 0x302C JUMPI POP PUSH1 0x4 DUP3 PUSH1 0x80 DUP2 GT ISZERO PUSH2 0x302A JUMPI PUSH2 0x302A PUSH2 0x3FB9 JUMP JUMPDEST EQ JUMPDEST ISZERO PUSH2 0x3039 JUMPI POP PUSH1 0x1 PUSH2 0x3E91 JUMP JUMPDEST PUSH1 0xB DUP3 PUSH1 0x80 DUP2 GT ISZERO PUSH2 0x304D JUMPI PUSH2 0x304D PUSH2 0x3FB9 JUMP JUMPDEST EQ DUP1 PUSH2 0x306A JUMPI POP PUSH1 0x7 DUP3 PUSH1 0x80 DUP2 GT ISZERO PUSH2 0x3068 JUMPI PUSH2 0x3068 PUSH2 0x3FB9 JUMP JUMPDEST EQ JUMPDEST ISZERO PUSH2 0x3077 JUMPI POP PUSH1 0x2 PUSH2 0x3E91 JUMP JUMPDEST PUSH1 0x79 DUP3 PUSH1 0x80 DUP2 GT ISZERO PUSH2 0x308B JUMPI PUSH2 0x308B PUSH2 0x3FB9 JUMP JUMPDEST EQ DUP1 PUSH2 0x30A8 JUMPI POP PUSH1 0x7A DUP3 PUSH1 0x80 DUP2 GT ISZERO PUSH2 0x30A6 JUMPI PUSH2 0x30A6 PUSH2 0x3FB9 JUMP JUMPDEST EQ JUMPDEST DUP1 PUSH2 0x30C4 JUMPI POP PUSH1 0x7B DUP3 PUSH1 0x80 DUP2 GT ISZERO PUSH2 0x30C2 JUMPI PUSH2 0x30C2 PUSH2 0x3FB9 JUMP JUMPDEST EQ JUMPDEST DUP1 PUSH2 0x30E0 JUMPI POP PUSH1 0x7C DUP3 PUSH1 0x80 DUP2 GT ISZERO PUSH2 0x30DE JUMPI PUSH2 0x30DE PUSH2 0x3FB9 JUMP JUMPDEST EQ JUMPDEST ISZERO PUSH2 0x30ED JUMPI POP PUSH1 0x8 PUSH2 0x3E91 JUMP JUMPDEST PUSH1 0x58 DUP3 PUSH1 0x80 DUP2 GT ISZERO PUSH2 0x3101 JUMPI PUSH2 0x3101 PUSH2 0x3FB9 JUMP JUMPDEST EQ DUP1 PUSH2 0x311E JUMPI POP PUSH1 0x5A DUP3 PUSH1 0x80 DUP2 GT ISZERO PUSH2 0x311C JUMPI PUSH2 0x311C PUSH2 0x3FB9 JUMP JUMPDEST EQ JUMPDEST DUP1 PUSH2 0x313A JUMPI POP PUSH1 0x5C DUP3 PUSH1 0x80 DUP2 GT ISZERO PUSH2 0x3138 JUMPI PUSH2 0x3138 PUSH2 0x3FB9 JUMP JUMPDEST EQ JUMPDEST DUP1 PUSH2 0x3156 JUMPI POP PUSH1 0x5D DUP3 PUSH1 0x80 DUP2 GT ISZERO PUSH2 0x3154 JUMPI PUSH2 0x3154 PUSH2 0x3FB9 JUMP JUMPDEST EQ JUMPDEST ISZERO PUSH2 0x3163 JUMPI POP PUSH1 0x11 PUSH2 0x3E91 JUMP JUMPDEST PUSH1 0x27 PUSH2 0xF25 JUMP JUMPDEST PUSH1 0x6 SLOAD PUSH1 0xFF AND PUSH1 0x1B EQ ISZERO PUSH2 0x32AF JUMPI PUSH1 0x0 DUP3 PUSH1 0x80 DUP2 GT ISZERO PUSH2 0x318C JUMPI PUSH2 0x318C PUSH2 0x3FB9 JUMP JUMPDEST EQ DUP1 PUSH2 0x31A9 JUMPI POP PUSH1 0x3 DUP3 PUSH1 0x80 DUP2 GT ISZERO PUSH2 0x31A7 JUMPI PUSH2 0x31A7 PUSH2 0x3FB9 JUMP JUMPDEST EQ JUMPDEST DUP1 PUSH2 0x31C5 JUMPI POP PUSH1 0x4 DUP3 PUSH1 0x80 DUP2 GT ISZERO PUSH2 0x31C3 JUMPI PUSH2 0x31C3 PUSH2 0x3FB9 JUMP JUMPDEST EQ JUMPDEST ISZERO PUSH2 0x31D2 JUMPI POP PUSH1 0x1 PUSH2 0x3E91 JUMP JUMPDEST PUSH1 0xB DUP3 PUSH1 0x80 DUP2 GT ISZERO PUSH2 0x31E6 JUMPI PUSH2 0x31E6 PUSH2 0x3FB9 JUMP JUMPDEST EQ DUP1 PUSH2 0x3203 JUMPI POP PUSH1 0x8 DUP3 PUSH1 0x80 DUP2 GT ISZERO PUSH2 0x3201 JUMPI PUSH2 0x3201 PUSH2 0x3FB9 JUMP JUMPDEST EQ JUMPDEST ISZERO PUSH2 0x3210 JUMPI POP PUSH1 0x2 PUSH2 0x3E91 JUMP JUMPDEST PUSH1 0x7A DUP3 PUSH1 0x80 DUP2 GT ISZERO PUSH2 0x3224 JUMPI PUSH2 0x3224 PUSH2 0x3FB9 JUMP JUMPDEST EQ DUP1 PUSH2 0x3241 JUMPI POP PUSH1 0x7C DUP3 PUSH1 0x80 DUP2 GT ISZERO PUSH2 0x323F JUMPI PUSH2 0x323F PUSH2 0x3FB9 JUMP JUMPDEST EQ JUMPDEST ISZERO PUSH2 0x324E JUMPI POP PUSH1 0x8 PUSH2 0x3E91 JUMP JUMPDEST PUSH1 0x59 DUP3 PUSH1 0x80 DUP2 GT ISZERO PUSH2 0x3262 JUMPI PUSH2 0x3262 PUSH2 0x3FB9 JUMP JUMPDEST EQ DUP1 PUSH2 0x327F JUMPI POP PUSH1 0x5C DUP3 PUSH1 0x80 DUP2 GT ISZERO PUSH2 0x327D JUMPI PUSH2 0x327D PUSH2 0x3FB9 JUMP JUMPDEST EQ JUMPDEST DUP1 PUSH2 0x329B JUMPI POP PUSH1 0x5E DUP3 PUSH1 0x80 DUP2 GT ISZERO PUSH2 0x3299 JUMPI PUSH2 0x3299 PUSH2 0x3FB9 JUMP JUMPDEST EQ JUMPDEST ISZERO PUSH2 0x32A8 JUMPI POP PUSH1 0x11 PUSH2 0x3E91 JUMP JUMPDEST PUSH1 0x28 PUSH2 0xF25 JUMP JUMPDEST PUSH1 0x6 SLOAD PUSH1 0xFF AND PUSH1 0x1C EQ ISZERO PUSH2 0x33F4 JUMPI PUSH1 0x1 DUP3 PUSH1 0x80 DUP2 GT ISZERO PUSH2 0x32D1 JUMPI PUSH2 0x32D1 PUSH2 0x3FB9 JUMP JUMPDEST EQ DUP1 PUSH2 0x32EE JUMPI POP PUSH1 0x2 DUP3 PUSH1 0x80 DUP2 GT ISZERO PUSH2 0x32EC JUMPI PUSH2 0x32EC PUSH2 0x3FB9 JUMP JUMPDEST EQ JUMPDEST DUP1 PUSH2 0x330A JUMPI POP PUSH1 0x4 DUP3 PUSH1 0x80 DUP2 GT ISZERO PUSH2 0x3308 JUMPI PUSH2 0x3308 PUSH2 0x3FB9 JUMP JUMPDEST EQ JUMPDEST ISZERO PUSH2 0x3317 JUMPI POP PUSH1 0x1 PUSH2 0x3E91 JUMP JUMPDEST PUSH1 0xB DUP3 PUSH1 0x80 DUP2 GT ISZERO PUSH2 0x332B JUMPI PUSH2 0x332B PUSH2 0x3FB9 JUMP JUMPDEST EQ DUP1 PUSH2 0x3348 JUMPI POP PUSH1 0x6 DUP3 PUSH1 0x80 DUP2 GT ISZERO PUSH2 0x3346 JUMPI PUSH2 0x3346 PUSH2 0x3FB9 JUMP JUMPDEST EQ JUMPDEST ISZERO PUSH2 0x3355 JUMPI POP PUSH1 0x2 PUSH2 0x3E91 JUMP JUMPDEST PUSH1 0x7B DUP3 PUSH1 0x80 DUP2 GT ISZERO PUSH2 0x3369 JUMPI PUSH2 0x3369 PUSH2 0x3FB9 JUMP JUMPDEST EQ DUP1 PUSH2 0x3386 JUMPI POP PUSH1 0x7D DUP3 PUSH1 0x80 DUP2 GT ISZERO PUSH2 0x3384 JUMPI PUSH2 0x3384 PUSH2 0x3FB9 JUMP JUMPDEST EQ JUMPDEST ISZERO PUSH2 0x3393 JUMPI POP PUSH1 0x8 PUSH2 0x3E91 JUMP JUMPDEST PUSH1 0x5B DUP3 PUSH1 0x80 DUP2 GT ISZERO PUSH2 0x33A7 JUMPI PUSH2 0x33A7 PUSH2 0x3FB9 JUMP JUMPDEST EQ DUP1 PUSH2 0x33C4 JUMPI POP PUSH1 0x5F DUP3 PUSH1 0x80 DUP2 GT ISZERO PUSH2 0x33C2 JUMPI PUSH2 0x33C2 PUSH2 0x3FB9 JUMP JUMPDEST EQ JUMPDEST DUP1 PUSH2 0x33E0 JUMPI POP PUSH1 0x60 DUP3 PUSH1 0x80 DUP2 GT ISZERO PUSH2 0x33DE JUMPI PUSH2 0x33DE PUSH2 0x3FB9 JUMP JUMPDEST EQ JUMPDEST ISZERO PUSH2 0x33ED JUMPI POP PUSH1 0x11 PUSH2 0x3E91 JUMP JUMPDEST PUSH1 0x29 PUSH2 0xF25 JUMP JUMPDEST PUSH1 0x6 SLOAD PUSH1 0xFF AND PUSH1 0x1D EQ ISZERO PUSH2 0x358D JUMPI PUSH1 0x1 DUP3 PUSH1 0x80 DUP2 GT ISZERO PUSH2 0x3416 JUMPI PUSH2 0x3416 PUSH2 0x3FB9 JUMP JUMPDEST EQ DUP1 PUSH2 0x3433 JUMPI POP PUSH1 0x3 DUP3 PUSH1 0x80 DUP2 GT ISZERO PUSH2 0x3431 JUMPI PUSH2 0x3431 PUSH2 0x3FB9 JUMP JUMPDEST EQ JUMPDEST DUP1 PUSH2 0x344F JUMPI POP PUSH1 0x4 DUP3 PUSH1 0x80 DUP2 GT ISZERO PUSH2 0x344D JUMPI PUSH2 0x344D PUSH2 0x3FB9 JUMP JUMPDEST EQ JUMPDEST ISZERO PUSH2 0x345C JUMPI POP PUSH1 0x1 PUSH2 0x3E91 JUMP JUMPDEST PUSH1 0xB DUP3 PUSH1 0x80 DUP2 GT ISZERO PUSH2 0x3470 JUMPI PUSH2 0x3470 PUSH2 0x3FB9 JUMP JUMPDEST EQ DUP1 PUSH2 0x348D JUMPI POP PUSH1 0x7 DUP3 PUSH1 0x80 DUP2 GT ISZERO PUSH2 0x348B JUMPI PUSH2 0x348B PUSH2 0x3FB9 JUMP JUMPDEST EQ JUMPDEST ISZERO PUSH2 0x349A JUMPI POP PUSH1 0x2 PUSH2 0x3E91 JUMP JUMPDEST PUSH1 0x7B DUP3 PUSH1 0x80 DUP2 GT ISZERO PUSH2 0x34AE JUMPI PUSH2 0x34AE PUSH2 0x3FB9 JUMP JUMPDEST EQ DUP1 PUSH2 0x34CB JUMPI POP PUSH1 0x7C DUP3 PUSH1 0x80 DUP2 GT ISZERO PUSH2 0x34C9 JUMPI PUSH2 0x34C9 PUSH2 0x3FB9 JUMP JUMPDEST EQ JUMPDEST DUP1 PUSH2 0x34E7 JUMPI POP PUSH1 0x7D DUP3 PUSH1 0x80 DUP2 GT ISZERO PUSH2 0x34E5 JUMPI PUSH2 0x34E5 PUSH2 0x3FB9 JUMP JUMPDEST EQ JUMPDEST DUP1 PUSH2 0x3503 JUMPI POP PUSH1 0x7E DUP3 PUSH1 0x80 DUP2 GT ISZERO PUSH2 0x3501 JUMPI PUSH2 0x3501 PUSH2 0x3FB9 JUMP JUMPDEST EQ JUMPDEST ISZERO PUSH2 0x3510 JUMPI POP PUSH1 0x8 PUSH2 0x3E91 JUMP JUMPDEST PUSH1 0x5D DUP3 PUSH1 0x80 DUP2 GT ISZERO PUSH2 0x3524 JUMPI PUSH2 0x3524 PUSH2 0x3FB9 JUMP JUMPDEST EQ DUP1 PUSH2 0x3541 JUMPI POP PUSH1 0x5F DUP3 PUSH1 0x80 DUP2 GT ISZERO PUSH2 0x353F JUMPI PUSH2 0x353F PUSH2 0x3FB9 JUMP JUMPDEST EQ JUMPDEST DUP1 PUSH2 0x355D JUMPI POP PUSH1 0x61 DUP3 PUSH1 0x80 DUP2 GT ISZERO PUSH2 0x355B JUMPI PUSH2 0x355B PUSH2 0x3FB9 JUMP JUMPDEST EQ JUMPDEST DUP1 PUSH2 0x3579 JUMPI POP PUSH1 0x62 DUP3 PUSH1 0x80 DUP2 GT ISZERO PUSH2 0x3577 JUMPI PUSH2 0x3577 PUSH2 0x3FB9 JUMP JUMPDEST EQ JUMPDEST ISZERO PUSH2 0x3586 JUMPI POP PUSH1 0x11 PUSH2 0x3E91 JUMP JUMPDEST PUSH1 0x2A PUSH2 0xF25 JUMP JUMPDEST PUSH1 0x6 SLOAD PUSH1 0xFF AND PUSH1 0x1E EQ ISZERO PUSH2 0x36D2 JUMPI PUSH1 0x0 DUP3 PUSH1 0x80 DUP2 GT ISZERO PUSH2 0x35AF JUMPI PUSH2 0x35AF PUSH2 0x3FB9 JUMP JUMPDEST EQ DUP1 PUSH2 0x35CC JUMPI POP PUSH1 0x2 DUP3 PUSH1 0x80 DUP2 GT ISZERO PUSH2 0x35CA JUMPI PUSH2 0x35CA PUSH2 0x3FB9 JUMP JUMPDEST EQ JUMPDEST DUP1 PUSH2 0x35E8 JUMPI POP PUSH1 0x4 DUP3 PUSH1 0x80 DUP2 GT ISZERO PUSH2 0x35E6 JUMPI PUSH2 0x35E6 PUSH2 0x3FB9 JUMP JUMPDEST EQ JUMPDEST ISZERO PUSH2 0x35F5 JUMPI POP PUSH1 0x1 PUSH2 0x3E91 JUMP JUMPDEST PUSH1 0xB DUP3 PUSH1 0x80 DUP2 GT ISZERO PUSH2 0x3609 JUMPI PUSH2 0x3609 PUSH2 0x3FB9 JUMP JUMPDEST EQ DUP1 PUSH2 0x3626 JUMPI POP PUSH1 0x8 DUP3 PUSH1 0x80 DUP2 GT ISZERO PUSH2 0x3624 JUMPI PUSH2 0x3624 PUSH2 0x3FB9 JUMP JUMPDEST EQ JUMPDEST ISZERO PUSH2 0x3633 JUMPI POP PUSH1 0x2 PUSH2 0x3E91 JUMP JUMPDEST PUSH1 0x7C DUP3 PUSH1 0x80 DUP2 GT ISZERO PUSH2 0x3647 JUMPI PUSH2 0x3647 PUSH2 0x3FB9 JUMP JUMPDEST EQ DUP1 PUSH2 0x3664 JUMPI POP PUSH1 0x7E DUP3 PUSH1 0x80 DUP2 GT ISZERO PUSH2 0x3662 JUMPI PUSH2 0x3662 PUSH2 0x3FB9 JUMP JUMPDEST EQ JUMPDEST ISZERO PUSH2 0x3671 JUMPI POP PUSH1 0x8 PUSH2 0x3E91 JUMP JUMPDEST PUSH1 0x5E DUP3 PUSH1 0x80 DUP2 GT ISZERO PUSH2 0x3685 JUMPI PUSH2 0x3685 PUSH2 0x3FB9 JUMP JUMPDEST EQ DUP1 PUSH2 0x36A2 JUMPI POP PUSH1 0x61 DUP3 PUSH1 0x80 DUP2 GT ISZERO PUSH2 0x36A0 JUMPI PUSH2 0x36A0 PUSH2 0x3FB9 JUMP JUMPDEST EQ JUMPDEST DUP1 PUSH2 0x36BE JUMPI POP PUSH1 0x63 DUP3 PUSH1 0x80 DUP2 GT ISZERO PUSH2 0x36BC JUMPI PUSH2 0x36BC PUSH2 0x3FB9 JUMP JUMPDEST EQ JUMPDEST ISZERO PUSH2 0x36CB JUMPI POP PUSH1 0x11 PUSH2 0x3E91 JUMP JUMPDEST PUSH1 0x2B PUSH2 0xF25 JUMP JUMPDEST PUSH1 0x6 SLOAD PUSH1 0xFF AND PUSH1 0x1F EQ ISZERO PUSH2 0x3817 JUMPI PUSH1 0x1 DUP3 PUSH1 0x80 DUP2 GT ISZERO PUSH2 0x36F4 JUMPI PUSH2 0x36F4 PUSH2 0x3FB9 JUMP JUMPDEST EQ DUP1 PUSH2 0x3711 JUMPI POP PUSH1 0x3 DUP3 PUSH1 0x80 DUP2 GT ISZERO PUSH2 0x370F JUMPI PUSH2 0x370F PUSH2 0x3FB9 JUMP JUMPDEST EQ JUMPDEST DUP1 PUSH2 0x372D JUMPI POP PUSH1 0x4 DUP3 PUSH1 0x80 DUP2 GT ISZERO PUSH2 0x372B JUMPI PUSH2 0x372B PUSH2 0x3FB9 JUMP JUMPDEST EQ JUMPDEST ISZERO PUSH2 0x373A JUMPI POP PUSH1 0x1 PUSH2 0x3E91 JUMP JUMPDEST PUSH1 0xB DUP3 PUSH1 0x80 DUP2 GT ISZERO PUSH2 0x374E JUMPI PUSH2 0x374E PUSH2 0x3FB9 JUMP JUMPDEST EQ DUP1 PUSH2 0x376B JUMPI POP PUSH1 0x6 DUP3 PUSH1 0x80 DUP2 GT ISZERO PUSH2 0x3769 JUMPI PUSH2 0x3769 PUSH2 0x3FB9 JUMP JUMPDEST EQ JUMPDEST ISZERO PUSH2 0x3778 JUMPI POP PUSH1 0x2 PUSH2 0x3E91 JUMP JUMPDEST PUSH1 0x7D DUP3 PUSH1 0x80 DUP2 GT ISZERO PUSH2 0x378C JUMPI PUSH2 0x378C PUSH2 0x3FB9 JUMP JUMPDEST EQ DUP1 PUSH2 0x37A9 JUMPI POP PUSH1 0x7F DUP3 PUSH1 0x80 DUP2 GT ISZERO PUSH2 0x37A7 JUMPI PUSH2 0x37A7 PUSH2 0x3FB9 JUMP JUMPDEST EQ JUMPDEST ISZERO PUSH2 0x37B6 JUMPI POP PUSH1 0x8 PUSH2 0x3E91 JUMP JUMPDEST PUSH1 0x60 DUP3 PUSH1 0x80 DUP2 GT ISZERO PUSH2 0x37CA JUMPI PUSH2 0x37CA PUSH2 0x3FB9 JUMP JUMPDEST EQ DUP1 PUSH2 0x37E7 JUMPI POP PUSH1 0x64 DUP3 PUSH1 0x80 DUP2 GT ISZERO PUSH2 0x37E5 JUMPI PUSH2 0x37E5 PUSH2 0x3FB9 JUMP JUMPDEST EQ JUMPDEST DUP1 PUSH2 0x3803 JUMPI POP PUSH1 0x65 DUP3 PUSH1 0x80 DUP2 GT ISZERO PUSH2 0x3801 JUMPI PUSH2 0x3801 PUSH2 0x3FB9 JUMP JUMPDEST EQ JUMPDEST ISZERO PUSH2 0x3810 JUMPI POP PUSH1 0x11 PUSH2 0x3E91 JUMP JUMPDEST PUSH1 0x2C PUSH2 0xF25 JUMP JUMPDEST PUSH1 0x6 SLOAD PUSH1 0xFF AND PUSH1 0x20 EQ ISZERO PUSH2 0x39B0 JUMPI PUSH1 0x0 DUP3 PUSH1 0x80 DUP2 GT ISZERO PUSH2 0x3839 JUMPI PUSH2 0x3839 PUSH2 0x3FB9 JUMP JUMPDEST EQ DUP1 PUSH2 0x3856 JUMPI POP PUSH1 0x2 DUP3 PUSH1 0x80 DUP2 GT ISZERO PUSH2 0x3854 JUMPI PUSH2 0x3854 PUSH2 0x3FB9 JUMP JUMPDEST EQ JUMPDEST DUP1 PUSH2 0x3872 JUMPI POP PUSH1 0x4 DUP3 PUSH1 0x80 DUP2 GT ISZERO PUSH2 0x3870 JUMPI PUSH2 0x3870 PUSH2 0x3FB9 JUMP JUMPDEST EQ JUMPDEST ISZERO PUSH2 0x387F JUMPI POP PUSH1 0x1 PUSH2 0x3E91 JUMP JUMPDEST PUSH1 0xB DUP3 PUSH1 0x80 DUP2 GT ISZERO PUSH2 0x3893 JUMPI PUSH2 0x3893 PUSH2 0x3FB9 JUMP JUMPDEST EQ DUP1 PUSH2 0x38B0 JUMPI POP PUSH1 0x7 DUP3 PUSH1 0x80 DUP2 GT ISZERO PUSH2 0x38AE JUMPI PUSH2 0x38AE PUSH2 0x3FB9 JUMP JUMPDEST EQ JUMPDEST ISZERO PUSH2 0x38BD JUMPI POP PUSH1 0x2 PUSH2 0x3E91 JUMP JUMPDEST PUSH1 0x7D DUP3 PUSH1 0x80 DUP2 GT ISZERO PUSH2 0x38D1 JUMPI PUSH2 0x38D1 PUSH2 0x3FB9 JUMP JUMPDEST EQ DUP1 PUSH2 0x38EE JUMPI POP PUSH1 0x7E DUP3 PUSH1 0x80 DUP2 GT ISZERO PUSH2 0x38EC JUMPI PUSH2 0x38EC PUSH2 0x3FB9 JUMP JUMPDEST EQ JUMPDEST DUP1 PUSH2 0x390A JUMPI POP PUSH1 0x7F DUP3 PUSH1 0x80 DUP2 GT ISZERO PUSH2 0x3908 JUMPI PUSH2 0x3908 PUSH2 0x3FB9 JUMP JUMPDEST EQ JUMPDEST DUP1 PUSH2 0x3926 JUMPI POP PUSH1 0x80 DUP3 PUSH1 0x80 DUP2 GT ISZERO PUSH2 0x3924 JUMPI PUSH2 0x3924 PUSH2 0x3FB9 JUMP JUMPDEST EQ JUMPDEST ISZERO PUSH2 0x3933 JUMPI POP PUSH1 0x8 PUSH2 0x3E91 JUMP JUMPDEST PUSH1 0x62 DUP3 PUSH1 0x80 DUP2 GT ISZERO PUSH2 0x3947 JUMPI PUSH2 0x3947 PUSH2 0x3FB9 JUMP JUMPDEST EQ DUP1 PUSH2 0x3964 JUMPI POP PUSH1 0x64 DUP3 PUSH1 0x80 DUP2 GT ISZERO PUSH2 0x3962 JUMPI PUSH2 0x3962 PUSH2 0x3FB9 JUMP JUMPDEST EQ JUMPDEST DUP1 PUSH2 0x3980 JUMPI POP PUSH1 0x66 DUP3 PUSH1 0x80 DUP2 GT ISZERO PUSH2 0x397E JUMPI PUSH2 0x397E PUSH2 0x3FB9 JUMP JUMPDEST EQ JUMPDEST DUP1 PUSH2 0x399C JUMPI POP PUSH1 0x67 DUP3 PUSH1 0x80 DUP2 GT ISZERO PUSH2 0x399A JUMPI PUSH2 0x399A PUSH2 0x3FB9 JUMP JUMPDEST EQ JUMPDEST ISZERO PUSH2 0x39A9 JUMPI POP PUSH1 0x11 PUSH2 0x3E91 JUMP JUMPDEST PUSH1 0x2D PUSH2 0xF25 JUMP JUMPDEST PUSH1 0x6 SLOAD PUSH1 0xFF AND PUSH1 0x21 EQ ISZERO PUSH2 0x3AF5 JUMPI PUSH1 0x1 DUP3 PUSH1 0x80 DUP2 GT ISZERO PUSH2 0x39D2 JUMPI PUSH2 0x39D2 PUSH2 0x3FB9 JUMP JUMPDEST EQ DUP1 PUSH2 0x39EF JUMPI POP PUSH1 0x3 DUP3 PUSH1 0x80 DUP2 GT ISZERO PUSH2 0x39ED JUMPI PUSH2 0x39ED PUSH2 0x3FB9 JUMP JUMPDEST EQ JUMPDEST DUP1 PUSH2 0x3A0B JUMPI POP PUSH1 0x4 DUP3 PUSH1 0x80 DUP2 GT ISZERO PUSH2 0x3A09 JUMPI PUSH2 0x3A09 PUSH2 0x3FB9 JUMP JUMPDEST EQ JUMPDEST ISZERO PUSH2 0x3A18 JUMPI POP PUSH1 0x1 PUSH2 0x3E91 JUMP JUMPDEST PUSH1 0xB DUP3 PUSH1 0x80 DUP2 GT ISZERO PUSH2 0x3A2C JUMPI PUSH2 0x3A2C PUSH2 0x3FB9 JUMP JUMPDEST EQ DUP1 PUSH2 0x3A49 JUMPI POP PUSH1 0x8 DUP3 PUSH1 0x80 DUP2 GT ISZERO PUSH2 0x3A47 JUMPI PUSH2 0x3A47 PUSH2 0x3FB9 JUMP JUMPDEST EQ JUMPDEST ISZERO PUSH2 0x3A56 JUMPI POP PUSH1 0x2 PUSH2 0x3E91 JUMP JUMPDEST PUSH1 0x7E DUP3 PUSH1 0x80 DUP2 GT ISZERO PUSH2 0x3A6A JUMPI PUSH2 0x3A6A PUSH2 0x3FB9 JUMP JUMPDEST EQ DUP1 PUSH2 0x3A87 JUMPI POP PUSH1 0x80 DUP3 PUSH1 0x80 DUP2 GT ISZERO PUSH2 0x3A85 JUMPI PUSH2 0x3A85 PUSH2 0x3FB9 JUMP JUMPDEST EQ JUMPDEST ISZERO PUSH2 0x3A94 JUMPI POP PUSH1 0x8 PUSH2 0x3E91 JUMP JUMPDEST PUSH1 0x63 DUP3 PUSH1 0x80 DUP2 GT ISZERO PUSH2 0x3AA8 JUMPI PUSH2 0x3AA8 PUSH2 0x3FB9 JUMP JUMPDEST EQ DUP1 PUSH2 0x3AC5 JUMPI POP PUSH1 0x66 DUP3 PUSH1 0x80 DUP2 GT ISZERO PUSH2 0x3AC3 JUMPI PUSH2 0x3AC3 PUSH2 0x3FB9 JUMP JUMPDEST EQ JUMPDEST DUP1 PUSH2 0x3AE1 JUMPI POP PUSH1 0x68 DUP3 PUSH1 0x80 DUP2 GT ISZERO PUSH2 0x3ADF JUMPI PUSH2 0x3ADF PUSH2 0x3FB9 JUMP JUMPDEST EQ JUMPDEST ISZERO PUSH2 0x3AEE JUMPI POP PUSH1 0x11 PUSH2 0x3E91 JUMP JUMPDEST PUSH1 0x2E PUSH2 0xF25 JUMP JUMPDEST PUSH1 0x6 SLOAD PUSH1 0xFF AND PUSH1 0x22 EQ ISZERO PUSH2 0x3C02 JUMPI PUSH1 0x0 DUP3 PUSH1 0x80 DUP2 GT ISZERO PUSH2 0x3B17 JUMPI PUSH2 0x3B17 PUSH2 0x3FB9 JUMP JUMPDEST EQ DUP1 PUSH2 0x3B34 JUMPI POP PUSH1 0x2 DUP3 PUSH1 0x80 DUP2 GT ISZERO PUSH2 0x3B32 JUMPI PUSH2 0x3B32 PUSH2 0x3FB9 JUMP JUMPDEST EQ JUMPDEST DUP1 PUSH2 0x3B50 JUMPI POP PUSH1 0x4 DUP3 PUSH1 0x80 DUP2 GT ISZERO PUSH2 0x3B4E JUMPI PUSH2 0x3B4E PUSH2 0x3FB9 JUMP JUMPDEST EQ JUMPDEST ISZERO PUSH2 0x3B5D JUMPI POP PUSH1 0x1 PUSH2 0x3E91 JUMP JUMPDEST PUSH1 0xB DUP3 PUSH1 0x80 DUP2 GT ISZERO PUSH2 0x3B71 JUMPI PUSH2 0x3B71 PUSH2 0x3FB9 JUMP JUMPDEST EQ DUP1 PUSH2 0x3B8E JUMPI POP PUSH1 0x6 DUP3 PUSH1 0x80 DUP2 GT ISZERO PUSH2 0x3B8C JUMPI PUSH2 0x3B8C PUSH2 0x3FB9 JUMP JUMPDEST EQ JUMPDEST ISZERO PUSH2 0x3B9B JUMPI POP PUSH1 0x2 PUSH2 0x3E91 JUMP JUMPDEST PUSH1 0x7F DUP3 PUSH1 0x80 DUP2 GT ISZERO PUSH2 0x3BAF JUMPI PUSH2 0x3BAF PUSH2 0x3FB9 JUMP JUMPDEST EQ ISZERO PUSH2 0x3BBD JUMPI POP PUSH1 0x8 PUSH2 0x3E91 JUMP JUMPDEST PUSH1 0x65 DUP3 PUSH1 0x80 DUP2 GT ISZERO PUSH2 0x3BD1 JUMPI PUSH2 0x3BD1 PUSH2 0x3FB9 JUMP JUMPDEST EQ DUP1 PUSH2 0x3BEE JUMPI POP PUSH1 0x69 DUP3 PUSH1 0x80 DUP2 GT ISZERO PUSH2 0x3BEC JUMPI PUSH2 0x3BEC PUSH2 0x3FB9 JUMP JUMPDEST EQ JUMPDEST ISZERO PUSH2 0x3BFB JUMPI POP PUSH1 0x11 PUSH2 0x3E91 JUMP JUMPDEST PUSH1 0x2F PUSH2 0xF25 JUMP JUMPDEST PUSH1 0x6 SLOAD PUSH1 0xFF AND PUSH1 0x23 EQ ISZERO PUSH2 0x3D47 JUMPI PUSH1 0x1 DUP3 PUSH1 0x80 DUP2 GT ISZERO PUSH2 0x3C24 JUMPI PUSH2 0x3C24 PUSH2 0x3FB9 JUMP JUMPDEST EQ DUP1 PUSH2 0x3C41 JUMPI POP PUSH1 0x3 DUP3 PUSH1 0x80 DUP2 GT ISZERO PUSH2 0x3C3F JUMPI PUSH2 0x3C3F PUSH2 0x3FB9 JUMP JUMPDEST EQ JUMPDEST DUP1 PUSH2 0x3C5D JUMPI POP PUSH1 0x4 DUP3 PUSH1 0x80 DUP2 GT ISZERO PUSH2 0x3C5B JUMPI PUSH2 0x3C5B PUSH2 0x3FB9 JUMP JUMPDEST EQ JUMPDEST ISZERO PUSH2 0x3C6A JUMPI POP PUSH1 0x1 PUSH2 0x3E91 JUMP JUMPDEST PUSH1 0xB DUP3 PUSH1 0x80 DUP2 GT ISZERO PUSH2 0x3C7E JUMPI PUSH2 0x3C7E PUSH2 0x3FB9 JUMP JUMPDEST EQ DUP1 PUSH2 0x3C9B JUMPI POP PUSH1 0x7 DUP3 PUSH1 0x80 DUP2 GT ISZERO PUSH2 0x3C99 JUMPI PUSH2 0x3C99 PUSH2 0x3FB9 JUMP JUMPDEST EQ JUMPDEST ISZERO PUSH2 0x3CA8 JUMPI POP PUSH1 0x2 PUSH2 0x3E91 JUMP JUMPDEST PUSH1 0x7F DUP3 PUSH1 0x80 DUP2 GT ISZERO PUSH2 0x3CBC JUMPI PUSH2 0x3CBC PUSH2 0x3FB9 JUMP JUMPDEST EQ DUP1 PUSH2 0x3CD9 JUMPI POP PUSH1 0x80 DUP3 PUSH1 0x80 DUP2 GT ISZERO PUSH2 0x3CD7 JUMPI PUSH2 0x3CD7 PUSH2 0x3FB9 JUMP JUMPDEST EQ JUMPDEST ISZERO PUSH2 0x3CE6 JUMPI POP PUSH1 0x8 PUSH2 0x3E91 JUMP JUMPDEST PUSH1 0x67 DUP3 PUSH1 0x80 DUP2 GT ISZERO PUSH2 0x3CFA JUMPI PUSH2 0x3CFA PUSH2 0x3FB9 JUMP JUMPDEST EQ DUP1 PUSH2 0x3D17 JUMPI POP PUSH1 0x69 DUP3 PUSH1 0x80 DUP2 GT ISZERO PUSH2 0x3D15 JUMPI PUSH2 0x3D15 PUSH2 0x3FB9 JUMP JUMPDEST EQ JUMPDEST DUP1 PUSH2 0x3D33 JUMPI POP PUSH1 0x6A DUP3 PUSH1 0x80 DUP2 GT ISZERO PUSH2 0x3D31 JUMPI PUSH2 0x3D31 PUSH2 0x3FB9 JUMP JUMPDEST EQ JUMPDEST ISZERO PUSH2 0x3D40 JUMPI POP PUSH1 0x11 PUSH2 0x3E91 JUMP JUMPDEST PUSH1 0x30 PUSH2 0xF25 JUMP JUMPDEST PUSH1 0x6 SLOAD PUSH1 0xFF AND PUSH1 0x24 EQ ISZERO PUSH2 0x3E54 JUMPI PUSH1 0x0 DUP3 PUSH1 0x80 DUP2 GT ISZERO PUSH2 0x3D69 JUMPI PUSH2 0x3D69 PUSH2 0x3FB9 JUMP JUMPDEST EQ DUP1 PUSH2 0x3D86 JUMPI POP PUSH1 0x2 DUP3 PUSH1 0x80 DUP2 GT ISZERO PUSH2 0x3D84 JUMPI PUSH2 0x3D84 PUSH2 0x3FB9 JUMP JUMPDEST EQ JUMPDEST DUP1 PUSH2 0x3DA2 JUMPI POP PUSH1 0x4 DUP3 PUSH1 0x80 DUP2 GT ISZERO PUSH2 0x3DA0 JUMPI PUSH2 0x3DA0 PUSH2 0x3FB9 JUMP JUMPDEST EQ JUMPDEST ISZERO PUSH2 0x3DAF JUMPI POP PUSH1 0x1 PUSH2 0x3E91 JUMP JUMPDEST PUSH1 0xB DUP3 PUSH1 0x80 DUP2 GT ISZERO PUSH2 0x3DC3 JUMPI PUSH2 0x3DC3 PUSH2 0x3FB9 JUMP JUMPDEST EQ DUP1 PUSH2 0x3DE0 JUMPI POP PUSH1 0x8 DUP3 PUSH1 0x80 DUP2 GT ISZERO PUSH2 0x3DDE JUMPI PUSH2 0x3DDE PUSH2 0x3FB9 JUMP JUMPDEST EQ JUMPDEST ISZERO PUSH2 0x3DED JUMPI POP PUSH1 0x2 PUSH2 0x3E91 JUMP JUMPDEST PUSH1 0x80 DUP3 PUSH1 0x80 DUP2 GT ISZERO PUSH2 0x3E01 JUMPI PUSH2 0x3E01 PUSH2 0x3FB9 JUMP JUMPDEST EQ ISZERO PUSH2 0x3E0F JUMPI POP PUSH1 0x8 PUSH2 0x3E91 JUMP JUMPDEST PUSH1 0x68 DUP3 PUSH1 0x80 DUP2 GT ISZERO PUSH2 0x3E23 JUMPI PUSH2 0x3E23 PUSH2 0x3FB9 JUMP JUMPDEST EQ DUP1 PUSH2 0x3E40 JUMPI POP PUSH1 0x6A DUP3 PUSH1 0x80 DUP2 GT ISZERO PUSH2 0x3E3E JUMPI PUSH2 0x3E3E PUSH2 0x3FB9 JUMP JUMPDEST EQ JUMPDEST ISZERO PUSH2 0x3E4D JUMPI POP PUSH1 0x11 PUSH2 0x3E91 JUMP JUMPDEST PUSH1 0x31 PUSH2 0xF25 JUMP JUMPDEST PUSH1 0x6 SLOAD PUSH1 0xFF AND PUSH1 0x25 EQ ISZERO PUSH2 0x3E69 JUMPI PUSH1 0xC PUSH2 0xF25 JUMP JUMPDEST PUSH1 0x6 SLOAD PUSH1 0xFF AND PUSH2 0x3E91 JUMPI PUSH1 0xD DUP3 PUSH1 0x80 DUP2 GT ISZERO PUSH2 0x3E87 JUMPI PUSH2 0x3E87 PUSH2 0x3FB9 JUMP JUMPDEST EQ ISZERO PUSH2 0x3E91 JUMPI POP PUSH1 0x23 JUMPDEST SWAP4 SWAP3 POP POP POP JUMP JUMPDEST PUSH4 0x4E487B71 PUSH1 0xE0 SHL PUSH1 0x0 MSTORE PUSH1 0x41 PUSH1 0x4 MSTORE PUSH1 0x24 PUSH1 0x0 REVERT JUMPDEST PUSH1 0x0 DUP3 PUSH1 0x1F DUP4 ADD SLT PUSH2 0x3EBF JUMPI PUSH1 0x0 DUP1 REVERT JUMPDEST DUP2 CALLDATALOAD PUSH1 0x20 PUSH8 0xFFFFFFFFFFFFFFFF DUP1 DUP4 GT ISZERO PUSH2 0x3EDC JUMPI PUSH2 0x3EDC PUSH2 0x3E98 JUMP JUMPDEST DUP3 PUSH1 0x5 SHL PUSH1 0x40 MLOAD PUSH1 0x1F NOT PUSH1 0x3F DUP4 ADD AND DUP2 ADD DUP2 DUP2 LT DUP5 DUP3 GT OR ISZERO PUSH2 0x3F01 JUMPI PUSH2 0x3F01 PUSH2 0x3E98 JUMP JUMPDEST PUSH1 0x40 MSTORE SWAP4 DUP5 MSTORE DUP6 DUP2 ADD DUP4 ADD SWAP4 DUP4 DUP2 ADD SWAP3 POP DUP8 DUP6 GT ISZERO PUSH2 0x3F1F JUMPI PUSH1 0x0 DUP1 REVERT JUMPDEST DUP4 DUP8 ADD SWAP2 POP JUMPDEST DUP5 DUP3 LT ISZERO PUSH2 0x3F3E JUMPI DUP2 CALLDATALOAD DUP4 MSTORE SWAP2 DUP4 ADD SWAP2 SWAP1 DUP4 ADD SWAP1 PUSH2 0x3F25 JUMP JUMPDEST SWAP8 SWAP7 POP POP POP POP POP POP POP JUMP JUMPDEST PUSH1 0x0 DUP1 PUSH1 0x40 DUP4 DUP6 SUB SLT ISZERO PUSH2 0x3F5C JUMPI PUSH1 0x0 DUP1 REVERT JUMPDEST DUP3 CALLDATALOAD SWAP2 POP PUSH1 0x20 DUP4 ADD CALLDATALOAD PUSH8 0xFFFFFFFFFFFFFFFF DUP2 GT ISZERO PUSH2 0x3F7A JUMPI PUSH1 0x0 DUP1 REVERT JUMPDEST PUSH2 0x3F86 DUP6 DUP3 DUP7 ADD PUSH2 0x3EAE JUMP JUMPDEST SWAP2 POP POP SWAP3 POP SWAP3 SWAP1 POP JUMP JUMPDEST PUSH1 0x0 PUSH1 0x20 DUP3 DUP5 SUB SLT ISZERO PUSH2 0x3FA2 JUMPI PUSH1 0x0 DUP1 REVERT JUMPDEST DUP2 CALLDATALOAD PUSH1 0x1 PUSH1 0x1 PUSH1 0xA0 SHL SUB DUP2 AND DUP2 EQ PUSH2 0x3E91 JUMPI PUSH1 0x0 DUP1 REVERT JUMPDEST PUSH4 0x4E487B71 PUSH1 0xE0 SHL PUSH1 0x0 MSTORE PUSH1 0x21 PUSH1 0x4 MSTORE PUSH1 0x24 PUSH1 0x0 REVERT JUMPDEST PUSH1 0x20 DUP1 DUP3 MSTORE DUP3 MLOAD DUP3 DUP3 ADD DUP2 SWAP1 MSTORE PUSH1 0x0 SWAP2 SWAP1 PUSH1 0x40 SWAP1 DUP2 DUP6 ADD SWAP1 DUP7 DUP5 ADD DUP6 DUP1 JUMPDEST DUP4 DUP2 LT ISZERO PUSH2 0x402E JUMPI DUP3 MLOAD DUP1 MLOAD DUP7 MSTORE DUP8 ADD MLOAD PUSH1 0x81 DUP2 LT PUSH2 0x401A JUMPI PUSH4 0x4E487B71 PUSH1 0xE0 SHL DUP4 MSTORE PUSH1 0x21 PUSH1 0x4 MSTORE PUSH1 0x24 DUP4 REVERT JUMPDEST DUP6 DUP9 ADD MSTORE SWAP4 DUP6 ADD SWAP4 SWAP2 DUP7 ADD SWAP2 PUSH1 0x1 ADD PUSH2 0x3FED JUMP JUMPDEST POP SWAP3 SWAP9 SWAP8 POP POP POP POP POP POP POP POP JUMP JUMPDEST PUSH1 0x20 DUP1 DUP3 MSTORE DUP3 MLOAD DUP3 DUP3 ADD DUP2 SWAP1 MSTORE PUSH1 0x0 SWAP2 SWAP1 DUP5 DUP3 ADD SWAP1 PUSH1 0x40 DUP6 ADD SWAP1 DUP5 JUMPDEST DUP2 DUP2 LT ISZERO PUSH2 0x407D JUMPI DUP4 MLOAD PUSH1 0x1 PUSH1 0x1 PUSH1 0xA0 SHL SUB AND DUP4 MSTORE SWAP3 DUP5 ADD SWAP3 SWAP2 DUP5 ADD SWAP2 PUSH1 0x1 ADD PUSH2 0x4058 JUMP JUMPDEST POP SWAP1 SWAP7 SWAP6 POP POP POP POP POP POP JUMP JUMPDEST PUSH1 0x0 DUP1 PUSH1 0x40 DUP4 DUP6 SUB SLT ISZERO PUSH2 0x409C JUMPI PUSH1 0x0 DUP1 REVERT JUMPDEST DUP3 CALLDATALOAD PUSH8 0xFFFFFFFFFFFFFFFF DUP1 DUP3 GT ISZERO PUSH2 0x40B4 JUMPI PUSH1 0x0 DUP1 REVERT JUMPDEST PUSH2 0x40C0 DUP7 DUP4 DUP8 ADD PUSH2 0x3EAE JUMP JUMPDEST SWAP4 POP PUSH1 0x20 DUP6 ADD CALLDATALOAD SWAP2 POP DUP1 DUP3 GT ISZERO PUSH2 0x40D6 JUMPI PUSH1 0x0 DUP1 REVERT JUMPDEST POP PUSH2 0x3F86 DUP6 DUP3 DUP7 ADD PUSH2 0x3EAE JUMP JUMPDEST PUSH1 0x20 DUP1 DUP3 MSTORE DUP2 DUP2 ADD MSTORE PUSH32 0x4F776E61626C653A2063616C6C6572206973206E6F7420746865206F776E6572 PUSH1 0x40 DUP3 ADD MSTORE PUSH1 0x60 ADD SWAP1 JUMP JUMPDEST PUSH1 0x0 PUSH1 0x20 DUP3 DUP5 SUB SLT ISZERO PUSH2 0x412A JUMPI PUSH1 0x0 DUP1 REVERT JUMPDEST POP MLOAD SWAP2 SWAP1 POP JUMP JUMPDEST PUSH1 0x20 DUP1 DUP3 MSTORE PUSH1 0x26 SWAP1 DUP3 ADD MSTORE PUSH32 0x4D7573742062652073697474696E67206174207461626C6520746F20706C6163 PUSH1 0x40 DUP3 ADD MSTORE PUSH6 0x32903132BA17 PUSH1 0xD1 SHL PUSH1 0x60 DUP3 ADD MSTORE PUSH1 0x80 ADD SWAP1 JUMP JUMPDEST PUSH4 0x4E487B71 PUSH1 0xE0 SHL PUSH1 0x0 MSTORE PUSH1 0x32 PUSH1 0x4 MSTORE PUSH1 0x24 PUSH1 0x0 REVERT JUMPDEST PUSH4 0x4E487B71 PUSH1 0xE0 SHL PUSH1 0x0 MSTORE PUSH1 0x11 PUSH1 0x4 MSTORE PUSH1 0x24 PUSH1 0x0 REVERT JUMPDEST PUSH1 0x0 PUSH1 0x0 NOT DUP3 EQ ISZERO PUSH2 0x41B7 JUMPI PUSH2 0x41B7 PUSH2 0x418D JUMP JUMPDEST POP PUSH1 0x1 ADD SWAP1 JUMP JUMPDEST PUSH1 0x0 DUP3 PUSH2 0x41DB JUMPI PUSH4 0x4E487B71 PUSH1 0xE0 SHL PUSH1 0x0 MSTORE PUSH1 0x12 PUSH1 0x4 MSTORE PUSH1 0x24 PUSH1 0x0 REVERT JUMPDEST POP MOD SWAP1 JUMP JUMPDEST PUSH1 0x0 PUSH1 0xFF DUP3 AND PUSH1 0xFF DUP5 AND DUP1 PUSH1 0xFF SUB DUP3 GT ISZERO PUSH2 0x41FD JUMPI PUSH2 0x41FD PUSH2 0x418D JUMP JUMPDEST ADD SWAP4 SWAP3 POP POP POP JUMP JUMPDEST PUSH1 0x0 DUP2 PUSH1 0x0 NOT DIV DUP4 GT DUP3 ISZERO ISZERO AND ISZERO PUSH2 0x421F JUMPI PUSH2 0x421F PUSH2 0x418D JUMP JUMPDEST POP MUL SWAP1 JUMP JUMPDEST PUSH1 0x0 DUP3 NOT DUP3 GT ISZERO PUSH2 0x4237 JUMPI PUSH2 0x4237 PUSH2 0x418D JUMP JUMPDEST POP ADD SWAP1 JUMP INVALID LOG2 PUSH5 0x6970667358 0x22 SLT KECCAK256 0x5E SIGNEXTEND 0xFB AND 0xC1 SLOAD 0xAD 0xB8 0xD7 0xB6 0xE5 0xE3 0x23 0xD8 0xB0 LT CALLDATASIZE MUL LT RETURNDATASIZE 0xC5 0xD 0xBF 0xAB 0xCC PUSH5 0xA1C3206466 0x2D PUSH5 0x736F6C6343 STOP ADDMOD 0xC STOP CALLER ","sha1":"0479a8d61efc76ec34007b2f59b9b964f307592c","source":"//SPDX-License-Identifier: MIT\npragma solidity ^0.8.0;\n\nimport \"@openzeppelin/contracts/access/Ownable.sol\";\nimport \"@openzeppelin/contracts/token/ERC20/IERC20.sol\";\nimport \"@chainlink/contracts/src/v0.8/interfaces/LinkTokenInterface.sol\";\nimport \"@chainlink/contracts/src/v0.8/interfaces/VRFCoordinatorV2Interface.sol\";\nimport \"@chainlink/contracts/src/v0.8/VRFConsumerBaseV2.sol\";\nimport \"./GambleToken.sol\";\n\ncontract Roulette is Ownable, VRFConsumerBaseV2{\n\n  VRFCoordinatorV2Interface internal Coordinator;\n  LinkTokenInterface LinkToken;\n  GambleToken internal gambleToken;\n  address internal cage;\n  address[] internal players;\n  uint8 internal winningNumber;\n  uint64 internal subscriptionId;\n  uint256 public randomNum;\n  uint256 internal fee;\n  bytes32 internal keyHash;\n\n  enum BET {\n    Red,\n    Black,\n    Even,\n    Odd,\n    High,\n    Low,\n    Column1_34,\n    Column2_35,\n    Column3_36,\n    FirstDozen,\n    SecondDozen,\n    ThirdDozen,\n    Zero,\n    DoubleZero,\n    One,\n    Two,\n    Three,\n    Four,\n    Five,\n    Six,\n    Seven,\n    Eight,\n    Nine,\n    Ten,\n    Eleven,\n    Twelve,\n    Thirteen,\n    Fourteen,\n    Fifteen,\n    Sixteen,\n    Seventeen,\n    Eighteen,\n    Nineteen,\n    Twenty,\n    Twentyone,\n    Twentytwo,\n    Twentythree,\n    Twentyfour,\n    Twentyfive,\n    Twentysix,\n    Twentyseven,\n    Twentyeight,\n    Twentynine,\n    Thirty,\n    Thirtyone,\n    Thirtytwo,\n    Thirtythree,\n    Thirtyfour,\n    Thirtyfive,\n    Thirtysix,\n    Split_1_4,\n    Split_1_2,\n    Split_2_3,\n    Split_2_5,\n    Split_3_6,\n    Split_4_5,\n    Split_4_7,\n    Split_5_6,\n    Split_5_8,\n    Split_6_9,\n    Split_7_8,\n    Split_7_10,\n    Split_8_9,\n    Split_8_11,\n    Split_9_12,\n    Split_10_11,\n    Split_10_13,\n    Split_11_12,\n    Split_11_14,\n    Split_12_15,\n    Split_13_14,\n    Split_13_16,\n    Split_14_15,\n    Split_14_17,\n    Split_15_18,\n    Split_16_17,\n    Split_16_19,\n    Split_17_18,\n    Split_17_20,\n    Split_18_21,\n    Split_19_20,\n    Split_19_22,\n    Split_20_21,\n    Split_20_23,\n    Split_21_24,\n    Split_22_23,\n    Split_22_25,\n    Split_23_24,\n    Split_23_26,\n    Split_24_27,\n    Split_25_26,\n    Split_25_28,\n    Split_26_27,\n    Split_26_29,\n    Split_27_30,\n    Split_28_29,\n    Split_28_31,\n    Split_29_30,\n    Split_29_32,\n    Split_30_33,\n    Split_31_32,\n    Split_31_34,\n    Split_32_33,\n    Split_32_35,\n    Split_33_36,\n    Split_34_35,\n    Split_35_36,\n    Square_1245,\n    Square_2356,\n    Square_4578,\n    Square_5689,\n    Square_781011,\n    Square_891112,\n    Square_10111314,\n    Square_11121415,\n    Square_13141617,\n    Square_14151718,\n    Square_16171920,\n    Square_17182021,\n    Square_19202223,\n    Square_20212324,\n    Square_22232526,\n    Square_23242627,\n    Square_25262829,\n    Square_26272930,\n    Square_28293132,\n    Square_29303233,\n    Square_31323435,\n    Square_32333536\n  }\n\n  mapping (address => bool) atTable;\n  mapping (address => Bet[]) playerToBets;\n  mapping (address => uint256) playerToWinnings;\n  mapping (address => uint256) playerToLifetimeWinnings;\n\n  event PlayerSatDown(address player);\n  event BetsPlaced(address player, uint256 totalBet);\n  event RequestedRandomness(bytes32 requestId);\n  event WinningsPaidOut(address player, uint256 payout);\n  event LeftTable(address player);\n\n\n  constructor (\n    address _gambleTokenAddress,\n    address _cageAddress,\n    address _vrfCoordinator,\n    address _link,\n    uint64 _subId,\n    uint256 _fee,\n    bytes32 _keyHash\n  ) public  VRFConsumerBaseV2(_vrfCoordinator){\n    gambleToken = GambleToken(_gambleTokenAddress);\n    cage = _cageAddress;\n    LinkToken = LinkTokenInterface(_link);\n    fee = _fee;\n    keyHash = _keyHash;\n    subscriptionId = _subId;\n  }\n\n  struct Bet {\n    uint256 amount;\n    BET betType;\n  }\n\n\n //player functions\n  function joinTable() public {\n    require(gambleToken.balanceOf(msg.sender) > 0, \"You need GMBL to sit down at the table.\");\n    atTable[msg.sender] = true;\n    players.push(msg.sender);\n    emit PlayerSatDown(msg.sender);\n  }\n\n  function placeBet(uint256[] memory _amounts, uint256[] memory _types) public qualified{\n    require(_amounts.length == _types.length);\n    for (uint i = 0; i < _amounts.length; i++) {\n      playerToBets[msg.sender].push(Bet(_amounts[i],BET(_types[i])));\n    }\n    uint256 totalBet = _calculateTotalBet(_amounts);\n    gambleToken.burn(msg.sender, totalBet);\n\n    emit BetsPlaced(msg.sender, totalBet);\n  }\n\n  function leaveTable() public qualified{\n    atTable[msg.sender] = false;\n    emit LeftTable(msg.sender);\n  }\n\n  //owner functions\n  function addConsumer() public onlyOwner {\n    Coordinator.addConsumer(subscriptionId, address(this));\n  }\n\n\n  function spinWheel() public onlyOwner {\n    uint256 requestId = Coordinator.requestRandomWords(\n      keyHash,\n      subscriptionId,\n      3,\n      100000,\n      1\n    );\n  }\n\n  function settleAllBets() public onlyOwner {\n    for(uint i = 0; i < players.length; i++){\n      if (!atTable[players[i]]) {\n      }  else {\n        _settlePlayerBets(players[i]);\n      }\n    }\n  }\n\n\n  //viewer functions\n  function isAtTable(address _player) public view returns(bool) {\n    return atTable[_player];\n  }\n  function getPlayers() public view returns(address[] memory) {\n    return players;\n  }\n  function getBets(address _player) public view returns(Bet[] memory) {\n    return playerToBets[_player];\n  }\n  function getWinnings(address _player) public view returns(uint256) {\n    return playerToWinnings[_player];\n  }\n  function getLifetimeWinnings(address _player) public view returns(uint256) {\n    return playerToLifetimeWinnings[_player];\n  }\n  function getWinningNumber() public view returns(uint8) {\n    return winningNumber;\n  }\n\n  //internal functions\n  function _calculateTotalBet(uint256[] memory _amounts) internal returns(uint256){\n    uint256 totalBet = 0;\n    for(uint i = 0; i < _amounts.length; i++) {\n        totalBet += _amounts[i];\n    }\n    return totalBet;\n  }\n  function fulfillRandomWords(uint256 requestId, uint256[] memory randomWords) internal override {\n    winningNumber = uint8(randomWords[0] % 38) + 1;\n  }\n  function _settlePlayerBets(address _player) internal {\n    Bet[] memory playerBets = playerToBets[_player];\n    uint256 payout = 0;\n    for (uint i = 0; i < playerBets.length; i++){\n      uint256 multiplier = _winOrLoss(playerBets[i].betType);\n      payout += ((playerBets[i].amount * multiplier) + playerBets[i].amount);\n    }\n    gambleToken.mint(_player, payout);\n    playerToWinnings[_player] = payout;\n    playerToLifetimeWinnings[_player] += payout;\n    emit WinningsPaidOut(_player, payout);\n\n  }\n  function _winOrLoss(BET _betType) internal view returns(uint256){\n    BET betType = _betType;\n    uint256 multiplier = 0;\n    //check for win or loss\n    //most likely going to use if statements\n    //one for each number (1-36)\n    //inside of each branch need to describe winning bets based on number\n    //ie: 1 means red, firstdozen,low,odd,column1,split12,split14,square1245\n    if (winningNumber == 1) {\n      if (betType == BET.Red ||\n          betType == BET.Odd ||\n          betType == BET.Low){\n        multiplier = 1;\n      }\n      else if (betType == BET.FirstDozen ||\n               betType == BET.Column1_34) {\n        multiplier = 2;\n      }\n      else if (betType == BET.Square_1245) {\n        multiplier = 8;\n      }\n      else if (betType == BET.Split_1_2 ||\n               betType == BET.Split_1_4) {\n        multiplier = 17;\n      }\n      else if (betType == BET.One) {\n        multiplier = 35;\n      }\n    }\n    else if (winningNumber == 2) {\n      if (betType == BET.Black ||\n          betType == BET.Even ||\n          betType == BET.Low){\n        multiplier = 1;\n      }\n      else if (betType == BET.FirstDozen ||\n               betType == BET.Column2_35) {\n        multiplier = 2;\n      }\n      else if (betType == BET.Square_1245 ||\n               betType == BET.Square_2356) {\n        multiplier = 8;\n      }\n      else if (betType == BET.Split_1_2 ||\n               betType == BET.Split_2_3 ||\n               betType == BET.Split_2_5) {\n        multiplier = 17;\n      }\n      else if (betType == BET.Two) {\n        multiplier = 35;\n      }\n\n    }\n    else if (winningNumber == 3) {\n      if (betType == BET.Red ||\n          betType == BET.Odd ||\n          betType == BET.Low){\n        multiplier = 1;\n      }\n      else if (betType == BET.FirstDozen ||\n               betType == BET.Column3_36) {\n        multiplier = 2;\n      }\n      else if (betType == BET.Square_2356) {\n        multiplier = 8;\n      }\n      else if (betType == BET.Split_2_3 ||\n               betType == BET.Split_3_6) {\n        multiplier = 17;\n      }\n      else if (betType == BET.Three) {\n        multiplier = 35;\n      }\n\n    }\n    else if (winningNumber == 4) {\n      if (betType == BET.Black ||\n          betType == BET.Even ||\n          betType == BET.Low){\n        multiplier = 1;\n      }\n      else if (betType == BET.FirstDozen ||\n               betType == BET.Column1_34) {\n        multiplier = 2;\n      }\n      else if (betType == BET.Square_1245 ||\n               betType == BET.Square_4578) {\n        multiplier = 8;\n      }\n      else if (betType == BET.Split_1_4 ||\n               betType == BET.Split_4_5 ||\n               betType == BET.Split_4_7) {\n        multiplier = 17;\n      }\n      else if (betType == BET.Four) {\n        multiplier = 35;\n      }\n    }\n    else if (winningNumber == 5) {\n      if (betType == BET.Red ||\n          betType == BET.Odd ||\n          betType == BET.Low){\n        multiplier = 1;\n      }\n      else if (betType == BET.FirstDozen ||\n               betType == BET.Column2_35) {\n        multiplier = 2;\n      }\n      else if (betType == BET.Square_2356 ||\n               betType == BET.Square_1245 ||\n               betType == BET.Square_4578 ||\n               betType == BET.Square_5689) {\n        multiplier = 8;\n      }\n      else if (betType == BET.Split_2_5 ||\n               betType == BET.Split_4_5 ||\n               betType == BET.Split_5_6 ||\n               betType == BET.Split_5_8) {\n        multiplier = 17;\n      }\n      else if (betType == BET.Five) {\n        multiplier = 35;\n      }\n\n    }\n    else if (winningNumber == 6) {\n      if (betType == BET.Black ||\n          betType == BET.Even ||\n          betType == BET.Low){\n        multiplier = 1;\n      }\n      else if (betType == BET.FirstDozen ||\n               betType == BET.Column3_36) {\n        multiplier = 2;\n      }\n      else if (betType == BET.Square_2356 ||\n               betType == BET.Square_5689) {\n        multiplier = 8;\n      }\n      else if (betType == BET.Split_3_6 ||\n               betType == BET.Split_5_6 ||\n               betType == BET.Split_6_9) {\n        multiplier = 17;\n      }\n      else if (betType == BET.Six) {\n        multiplier = 35;\n      }\n\n    }\n    else if (winningNumber == 7) {\n      if (betType == BET.Red ||\n          betType == BET.Odd ||\n          betType == BET.Low){\n        multiplier = 1;\n      }\n      else if (betType == BET.FirstDozen ||\n               betType == BET.Column1_34) {\n        multiplier = 2;\n      }\n      else if (betType == BET.Square_4578 ||\n               betType == BET.Square_781011) {\n        multiplier = 8;\n      }\n      else if (betType == BET.Split_4_7 ||\n               betType == BET.Split_7_8 ||\n               betType == BET.Split_7_10) {\n        multiplier = 17;\n      }\n      else if (betType == BET.Seven) {\n        multiplier = 35;\n      }\n    }\n    else if (winningNumber == 8) {\n      if (betType == BET.Black ||\n          betType == BET.Even ||\n          betType == BET.Low){\n        multiplier = 1;\n      }\n      else if (betType == BET.FirstDozen ||\n               betType == BET.Column2_35) {\n        multiplier = 2;\n      }\n      else if (betType == BET.Square_4578 ||\n               betType == BET.Square_5689 ||\n               betType == BET.Square_781011 ||\n               betType == BET.Square_891112) {\n        multiplier = 8;\n      }\n      else if (betType == BET.Split_5_8 ||\n               betType == BET.Split_7_8 ||\n               betType == BET.Split_8_9 ||\n               betType == BET.Split_8_11) {\n        multiplier = 17;\n      }\n      else if (betType == BET.Eight) {\n        multiplier = 35;\n      }\n    }\n    else if (winningNumber == 9) {\n      if (betType == BET.Red ||\n          betType == BET.Odd ||\n          betType == BET.Low){\n        multiplier = 1;\n      }\n      else if (betType == BET.FirstDozen ||\n               betType == BET.Column3_36) {\n        multiplier = 2;\n      }\n      else if (betType == BET.Square_5689 ||\n               betType == BET.Square_891112) {\n        multiplier = 8;\n      }\n      else if (betType == BET.Split_6_9 ||\n               betType == BET.Split_8_9 ||\n               betType == BET.Split_9_12) {\n        multiplier = 17;\n      }\n      else if (betType == BET.Nine) {\n        multiplier = 35;\n      }\n    }\n    else if (winningNumber == 10) {\n      if (betType == BET.Black ||\n          betType == BET.Even ||\n          betType == BET.Low){\n        multiplier = 1;\n      }\n      else if (betType == BET.FirstDozen ||\n               betType == BET.Column1_34) {\n        multiplier = 2;\n      }\n      else if (betType == BET.Square_781011 ||\n               betType == BET.Square_10111314) {\n        multiplier = 8;\n      }\n      else if (betType == BET.Split_7_10 ||\n               betType == BET.Split_10_11 ||\n               betType == BET.Split_10_13) {\n        multiplier = 17;\n      }\n      else if (betType == BET.Ten) {\n        multiplier = 35;\n      }\n    }\n    else if (winningNumber == 11) {\n      if (betType == BET.Black ||\n          betType == BET.Odd ||\n          betType == BET.Low){\n        multiplier = 1;\n      }\n      else if (betType == BET.FirstDozen ||\n               betType == BET.Column2_35) {\n        multiplier = 2;\n      }\n      else if (betType == BET.Square_781011 ||\n               betType == BET.Square_891112 ||\n               betType == BET.Square_10111314 ||\n               betType == BET.Square_11121415) {\n        multiplier = 8;\n      }\n      else if (betType == BET.Split_8_11 ||\n               betType == BET.Split_10_11 ||\n               betType == BET.Split_11_12 ||\n               betType == BET.Split_11_14) {\n        multiplier = 17;\n      }\n      else if (betType == BET.Eleven) {\n        multiplier = 35;\n      }\n    }\n    else if (winningNumber == 12) {\n      if (betType == BET.Red ||\n          betType == BET.Even ||\n          betType == BET.Low){\n        multiplier = 1;\n      }\n      else if (betType == BET.FirstDozen ||\n               betType == BET.Column3_36) {\n        multiplier = 2;\n      }\n      else if (betType == BET.Square_891112 ||\n               betType == BET.Square_11121415) {\n        multiplier = 8;\n      }\n      else if (betType == BET.Split_9_12 ||\n               betType == BET.Split_11_12 ||\n               betType == BET.Split_12_15) {\n        multiplier = 17;\n      }\n      else if (betType == BET.Twelve) {\n        multiplier = 35;\n      }\n    }\n    else if (winningNumber == 13) {\n      if (betType == BET.Black ||\n          betType == BET.Odd ||\n          betType == BET.Low){\n        multiplier = 1;\n      }\n      else if (betType == BET.SecondDozen ||\n               betType == BET.Column1_34) {\n        multiplier = 2;\n      }\n      else if (betType == BET.Square_10111314 ||\n               betType == BET.Square_13141617) {\n        multiplier = 8;\n      }\n      else if (betType == BET.Split_10_13 ||\n               betType == BET.Split_13_14 ||\n               betType == BET.Split_13_16) {\n        multiplier = 17;\n      }\n      else if (betType == BET.Thirteen) {\n        multiplier = 35;\n      }\n    }\n    else if (winningNumber == 14) {\n      if (betType == BET.Red ||\n          betType == BET.Even ||\n          betType == BET.Low){\n        multiplier = 1;\n      }\n      else if (betType == BET.SecondDozen ||\n               betType == BET.Column2_35) {\n        multiplier = 2;\n      }\n      else if (betType == BET.Square_10111314 ||\n               betType == BET.Square_11121415 ||\n               betType == BET.Square_13141617 ||\n               betType == BET.Square_14151718) {\n        multiplier = 8;\n      }\n      else if (betType == BET.Split_11_14 ||\n               betType == BET.Split_13_14 ||\n               betType == BET.Split_14_15 ||\n               betType == BET.Split_14_17) {\n        multiplier = 17;\n      }\n      else if (betType == BET.Fourteen) {\n        multiplier = 35;\n      }\n    }\n    else if (winningNumber == 15) {\n      if (betType == BET.Black ||\n          betType == BET.Odd ||\n          betType == BET.Low){\n        multiplier = 1;\n      }\n      else if (betType == BET.SecondDozen ||\n               betType == BET.Column3_36) {\n        multiplier = 2;\n      }\n      else if (betType == BET.Square_11121415 ||\n               betType == BET.Square_14151718) {\n        multiplier = 8;\n      }\n      else if (betType == BET.Split_12_15 ||\n               betType == BET.Split_14_15 ||\n               betType == BET.Split_15_18) {\n        multiplier = 17;\n      }\n      else if (betType == BET.Fifteen) {\n        multiplier = 35;\n      }\n    }\n    else if (winningNumber == 16) {\n      if (betType == BET.Red ||\n          betType == BET.Even ||\n          betType == BET.Low){\n        multiplier = 1;\n      }\n      else if (betType == BET.SecondDozen ||\n               betType == BET.Column1_34) {\n        multiplier = 2;\n      }\n      else if (betType == BET.Square_13141617 ||\n               betType == BET.Square_16171920) {\n        multiplier = 8;\n      }\n      else if (betType == BET.Split_13_16 ||\n               betType == BET.Split_16_17 ||\n               betType == BET.Split_16_19) {\n        multiplier = 17;\n      }\n      else if (betType == BET.Sixteen) {\n        multiplier = 35;\n      }\n    }\n    else if (winningNumber == 17) {\n      if (betType == BET.Black ||\n          betType == BET.Odd ||\n          betType == BET.Low){\n        multiplier = 1;\n      }\n      else if (betType == BET.SecondDozen ||\n               betType == BET.Column2_35) {\n        multiplier = 2;\n      }\n      else if (betType == BET.Square_13141617 ||\n               betType == BET.Square_14151718 ||\n               betType == BET.Square_16171920 ||\n               betType == BET.Square_17182021) {\n        multiplier = 8;\n      }\n      else if (betType == BET.Split_14_17||\n               betType == BET.Split_16_17 ||\n               betType == BET.Split_17_18 ||\n               betType == BET.Split_17_20) {\n        multiplier = 17;\n      }\n      else if (betType == BET.Seventeen) {\n        multiplier = 35;\n      }\n    }\n    else if (winningNumber == 18) {\n      if (betType == BET.Red ||\n          betType == BET.Even ||\n          betType == BET.Low){\n        multiplier = 1;\n      }\n      else if (betType == BET.SecondDozen ||\n               betType == BET.Column3_36) {\n        multiplier = 2;\n      }\n      else if (betType == BET.Square_14151718 ||\n               betType == BET.Square_17182021) {\n        multiplier = 8;\n      }\n      else if (betType == BET.Split_15_18 ||\n               betType == BET.Split_17_18 ||\n               betType == BET.Split_18_21) {\n        multiplier = 17;\n      }\n      else if (betType == BET.Eighteen) {\n        multiplier = 35;\n      }\n    }\n    else if (winningNumber == 19) {\n      if (betType == BET.Red ||\n          betType == BET.Odd ||\n          betType == BET.High){\n        multiplier = 1;\n      }\n      else if (betType == BET.SecondDozen ||\n               betType == BET.Column1_34) {\n        multiplier = 2;\n      }\n      else if (betType == BET.Square_16171920 ||\n               betType == BET.Square_19202223) {\n        multiplier = 8;\n      }\n      else if (betType == BET.Split_13_16 ||\n               betType == BET.Split_16_17 ||\n               betType == BET.Split_16_19) {\n        multiplier = 17;\n      }\n      else if (betType == BET.Nineteen) {\n        multiplier = 35;\n      }\n    }\n    else if (winningNumber == 20) {\n      if (betType == BET.Black ||\n          betType == BET.Even ||\n          betType == BET.High){\n        multiplier = 1;\n      }\n      else if (betType == BET.SecondDozen ||\n               betType == BET.Column2_35) {\n        multiplier = 2;\n      }\n      else if (betType == BET.Square_16171920 ||\n               betType == BET.Square_17182021 ||\n               betType == BET.Square_19202223 ||\n               betType == BET.Square_20212324) {\n        multiplier = 8;\n      }\n      else if (betType == BET.Split_17_20 ||\n               betType == BET.Split_19_20 ||\n               betType == BET.Split_20_21 ||\n               betType == BET.Split_20_23) {\n        multiplier = 17;\n      }\n      else if (betType == BET.Twenty) {\n        multiplier = 35;\n      }\n    }\n    else if (winningNumber == 21) {\n      if (betType == BET.Red ||\n          betType == BET.Odd ||\n          betType == BET.High){\n        multiplier = 1;\n      }\n      else if (betType == BET.SecondDozen ||\n               betType == BET.Column3_36) {\n        multiplier = 2;\n      }\n      else if (betType == BET.Square_17182021 ||\n               betType == BET.Square_20212324) {\n        multiplier = 8;\n      }\n      else if (betType == BET.Split_18_21 ||\n               betType == BET.Split_20_21 ||\n               betType == BET.Split_21_24) {\n        multiplier = 17;\n      }\n      else if (betType == BET.Twentyone) {\n        multiplier = 35;\n      }\n    }\n    else if (winningNumber == 22) {\n      if (betType == BET.Black ||\n          betType == BET.Even ||\n          betType == BET.High){\n        multiplier = 1;\n      }\n      else if (betType == BET.SecondDozen ||\n               betType == BET.Column1_34) {\n        multiplier = 2;\n      }\n      else if (betType == BET.Square_19202223 ||\n               betType == BET.Square_22232526) {\n        multiplier = 8;\n      }\n      else if (betType == BET.Split_19_22 ||\n               betType == BET.Split_22_23 ||\n               betType == BET.Split_22_25) {\n        multiplier = 17;\n      }\n      else if (betType == BET.Twentytwo) {\n        multiplier = 35;\n      }\n    }\n    else if (winningNumber == 23) {\n      if (betType == BET.Red ||\n          betType == BET.Odd ||\n          betType == BET.High){\n        multiplier = 1;\n      }\n      else if (betType == BET.SecondDozen ||\n               betType == BET.Column2_35) {\n        multiplier = 2;\n      }\n      else if (betType == BET.Square_19202223 ||\n               betType == BET.Square_20212324 ||\n               betType == BET.Square_22232526 ||\n               betType == BET.Square_23242627) {\n        multiplier = 8;\n      }\n      else if (betType == BET.Split_20_23 ||\n               betType == BET.Split_22_23 ||\n               betType == BET.Split_23_24 ||\n               betType == BET.Split_23_26) {\n        multiplier = 17;\n      }\n      else if (betType == BET.Twentythree) {\n        multiplier = 35;\n      }\n    }\n    else if (winningNumber == 24) {\n      if (betType == BET.Black ||\n          betType == BET.Even ||\n          betType == BET.High){\n        multiplier = 1;\n      }\n      else if (betType == BET.SecondDozen ||\n               betType == BET.Column3_36) {\n        multiplier = 2;\n      }\n      else if (betType == BET.Square_20212324 ||\n               betType == BET.Square_23242627) {\n        multiplier = 8;\n      }\n      else if (betType == BET.Split_21_24 ||\n               betType == BET.Split_23_24 ||\n               betType == BET.Split_24_27) {\n        multiplier = 17;\n      }\n      else if (betType == BET.Twentyfour) {\n        multiplier = 35;\n      }\n    }\n    else if (winningNumber == 25) {\n      if (betType == BET.Red ||\n          betType == BET.Odd ||\n          betType == BET.High){\n        multiplier = 1;\n      }\n      else if (betType == BET.ThirdDozen ||\n               betType == BET.Column1_34) {\n        multiplier = 2;\n      }\n      else if (betType == BET.Square_22232526 ||\n               betType == BET.Square_25262829) {\n        multiplier = 8;\n      }\n      else if (betType == BET.Split_22_25 ||\n               betType == BET.Split_25_26 ||\n               betType == BET.Split_25_28) {\n        multiplier = 17;\n      }\n      else if (betType == BET.Twentyfive) {\n        multiplier = 35;\n      }\n    }\n    else if (winningNumber == 26) {\n      if (betType == BET.Black ||\n          betType == BET.Even ||\n          betType == BET.High){\n        multiplier = 1;\n      }\n      else if (betType == BET.ThirdDozen ||\n               betType == BET.Column2_35) {\n        multiplier = 2;\n      }\n      else if (betType == BET.Square_22232526 ||\n               betType == BET.Square_23242627 ||\n               betType == BET.Square_25262829 ||\n               betType == BET.Square_26272930) {\n        multiplier = 8;\n      }\n      else if (betType == BET.Split_23_26 ||\n               betType == BET.Split_25_26 ||\n               betType == BET.Split_26_27 ||\n               betType == BET.Split_26_29) {\n        multiplier = 17;\n      }\n      else if (betType == BET.Twentysix) {\n        multiplier = 35;\n      }\n    }\n    else if (winningNumber == 27) {\n      if (betType == BET.Red ||\n          betType == BET.Odd ||\n          betType == BET.High){\n        multiplier = 1;\n      }\n      else if (betType == BET.ThirdDozen ||\n               betType == BET.Column3_36) {\n        multiplier = 2;\n      }\n      else if (betType == BET.Square_23242627 ||\n               betType == BET.Square_26272930) {\n        multiplier = 8;\n      }\n      else if (betType == BET.Split_24_27||\n               betType == BET.Split_26_27 ||\n               betType == BET.Split_27_30) {\n        multiplier = 17;\n      }\n      else if (betType == BET.Twentyseven) {\n        multiplier = 35;\n      }\n    }\n    else if (winningNumber == 28) {\n      if (betType == BET.Black ||\n          betType == BET.Even ||\n          betType == BET.High){\n        multiplier = 1;\n      }\n      else if (betType == BET.ThirdDozen ||\n               betType == BET.Column1_34) {\n        multiplier = 2;\n      }\n      else if (betType == BET.Square_25262829 ||\n               betType == BET.Square_28293132) {\n        multiplier = 8;\n      }\n      else if (betType == BET.Split_25_28 ||\n               betType == BET.Split_28_29 ||\n               betType == BET.Split_28_31) {\n        multiplier = 17;\n      }\n      else if (betType == BET.Twentyeight) {\n        multiplier = 35;\n      }\n    }\n    else if (winningNumber == 29) {\n      if (betType == BET.Black ||\n          betType == BET.Odd ||\n          betType == BET.High){\n        multiplier = 1;\n      }\n      else if (betType == BET.ThirdDozen ||\n               betType == BET.Column2_35) {\n        multiplier = 2;\n      }\n      else if (betType == BET.Square_25262829 ||\n               betType == BET.Square_26272930 ||\n               betType == BET.Square_28293132 ||\n               betType == BET.Square_29303233) {\n        multiplier = 8;\n      }\n      else if (betType == BET.Split_26_29 ||\n               betType == BET.Split_28_29 ||\n               betType == BET.Split_29_30 ||\n               betType == BET.Split_29_32) {\n        multiplier = 17;\n      }\n      else if (betType == BET.Twentynine) {\n        multiplier = 35;\n      }\n    }\n    else if (winningNumber == 30) {\n      if (betType == BET.Red ||\n          betType == BET.Even ||\n          betType == BET.High){\n        multiplier = 1;\n      }\n      else if (betType == BET.ThirdDozen ||\n               betType == BET.Column3_36) {\n        multiplier = 2;\n      }\n      else if (betType == BET.Square_26272930 ||\n               betType == BET.Square_29303233) {\n        multiplier = 8;\n      }\n      else if (betType == BET.Split_27_30 ||\n               betType == BET.Split_29_30 ||\n               betType == BET.Split_30_33) {\n        multiplier = 17;\n      }\n      else if (betType == BET.Thirty) {\n        multiplier = 35;\n      }\n    }\n    else if (winningNumber == 31) {\n      if (betType == BET.Black ||\n          betType == BET.Odd ||\n          betType == BET.High){\n        multiplier = 1;\n      }\n      else if (betType == BET.ThirdDozen ||\n               betType == BET.Column1_34) {\n        multiplier = 2;\n      }\n      else if (betType == BET.Square_28293132 ||\n               betType == BET.Square_31323435) {\n        multiplier = 8;\n      }\n      else if (betType == BET.Split_28_31 ||\n               betType == BET.Split_31_32 ||\n               betType == BET.Split_31_34) {\n        multiplier = 17;\n      }\n      else if (betType == BET.Thirtyone) {\n        multiplier = 35;\n      }\n    }\n    else if (winningNumber == 32) {\n      if (betType == BET.Red ||\n          betType == BET.Even ||\n          betType == BET.High){\n        multiplier = 1;\n      }\n      else if (betType == BET.ThirdDozen ||\n               betType == BET.Column2_35) {\n        multiplier = 2;\n      }\n      else if (betType == BET.Square_28293132 ||\n               betType == BET.Square_29303233 ||\n               betType == BET.Square_31323435 ||\n               betType == BET.Square_32333536) {\n        multiplier = 8;\n      }\n      else if (betType == BET.Split_29_32 ||\n               betType == BET.Split_31_32 ||\n               betType == BET.Split_32_33 ||\n               betType == BET.Split_32_35) {\n        multiplier = 17;\n      }\n      else if (betType == BET.Thirtytwo) {\n        multiplier = 35;\n      }\n    }\n    else if (winningNumber == 33) {\n      if (betType == BET.Black ||\n          betType == BET.Odd ||\n          betType == BET.High){\n        multiplier = 1;\n      }\n      else if (betType == BET.ThirdDozen ||\n               betType == BET.Column3_36) {\n        multiplier = 2;\n      }\n      else if (betType == BET.Square_29303233 ||\n               betType == BET.Square_32333536) {\n        multiplier = 8;\n      }\n      else if (betType == BET.Split_30_33 ||\n               betType == BET.Split_32_33 ||\n               betType == BET.Split_33_36) {\n        multiplier = 17;\n      }\n      else if (betType == BET.Thirtythree) {\n        multiplier = 35;\n      }\n    }\n    else if (winningNumber == 34) {\n      if (betType == BET.Red ||\n          betType == BET.Even ||\n          betType == BET.High){\n        multiplier = 1;\n      }\n      else if (betType == BET.ThirdDozen ||\n               betType == BET.Column1_34) {\n        multiplier = 2;\n      }\n      else if (betType == BET.Square_31323435) {\n        multiplier = 8;\n      }\n      else if (betType == BET.Split_31_34 ||\n               betType == BET.Split_34_35) {\n        multiplier = 17;\n      }\n      else if (betType == BET.Thirtyfour) {\n        multiplier = 35;\n      }\n    }\n    else if (winningNumber == 35) {\n      if (betType == BET.Black ||\n          betType == BET.Odd ||\n          betType == BET.High){\n        multiplier = 1;\n      }\n      else if (betType == BET.ThirdDozen ||\n               betType == BET.Column2_35) {\n        multiplier = 2;\n      }\n      else if (betType == BET.Square_31323435 ||\n               betType == BET.Square_32333536) {\n        multiplier = 8;\n      }\n      else if (betType == BET.Split_32_35 ||\n               betType == BET.Split_34_35 ||\n               betType == BET.Split_35_36) {\n        multiplier = 17;\n      }\n      else if (betType == BET.Thirtyfive) {\n        multiplier = 35;\n      }\n    }\n    else if (winningNumber == 36) {\n      if (betType == BET.Red ||\n          betType == BET.Even ||\n          betType == BET.High){\n        multiplier = 1;\n      }\n      else if (betType == BET.ThirdDozen ||\n               betType == BET.Column3_36) {\n        multiplier = 2;\n      }\n      else if (betType == BET.Square_32333536) {\n        multiplier = 8;\n      }\n      else if (betType == BET.Split_33_36 ||\n               betType == BET.Split_35_36) {\n        multiplier = 17;\n      }\n      else if (betType == BET.Thirtysix) {\n        multiplier = 35;\n      }\n    }\n    else if (winningNumber == 37) {\n      if (betType == BET.Zero) {\n        multiplier = 35;\n      }\n\n    }\n    else if (winningNumber == 0) {\n      if (betType == BET.DoubleZero) {\n        multiplier = 35;\n      }\n    }\n    return multiplier;\n    }\n\n    modifier qualified() {\n      require(atTable[msg.sender], \"Must be sitting at table to place bet.\");\n      _;\n    }\n  }\n","sourcePath":"contracts/Roulette.sol","type":"contract","deployment":{"address":"0x39A2F134E875bb41169046aeeE60594E08cC4E20","chainid":"4","blockHeight":10453115}}